:020000040810E2
:1000000018040010AD0210085D061008590610080B
:100010005B061008F50210089106100800000000A9
:100020000000000000000000000000006106100851
:10003000F7021008000000005F06100863061008B1
:10004000C7021008C7021008C7021008C70210082C
:10005000C7021008C7021008C7021008C70210081C
:10006000C7021008C7021008C7021008C70210080C
:10007000C7021008C7021008C7021008C7021008FC
:10008000C7021008C7021008C7021008C7021008EC
:10009000C7021008C7021008C7021008C7021008DC
:1000A000C7021008C7021008C7021008C7021008CC
:1000B000C7021008C7021008C7021008C7021008BC
:1000C000C7021008C7021008C7021008C7021008AC
:1000D000C7021008C7021008C7021008C70210089C
:1000E000C7021008C702100800000000C70210086D
:1000F000C7021008C7021008C7021008C70210087C
:10010000C7021008C7021008C7021008C70210086B
:10011000C7021008C7021008C7021008C70210085B
:10012000C7021008C7021008C7021008C70210084B
:10013000C7021008C7021008C7021008C70210083B
:10014000C7021008C70210080000000000000000ED
:10015000C7021008C7021008C7021008C70210081B
:10016000C7021008C7021008C7021008C70210080B
:10017000C7021008C7021008C702100800000000DC
:10018000C7021008C7021008C7021008C7021008EB
:10019000C7021008C7021008C7021008C7021008DB
:1001A000C7021008C7021008C7021008C7021008CB
:1001B000C7021008C7021008C7021008C7021008BB
:1001C000C7021008C7021008C7021008C7021008AB
:1001D000C7021008C7021008C7021008C70210089B
:1001E000C7021008C7021008C7021008C70210088B
:1001F000C7021008C7021008C7021008C70210087B
:10020000C7021008C7021008C7021008C70210086A
:10021000C7021008C7021008C7021008C70210085A
:10022000C7021008C7021008C7021008C70210084A
:10023000C7021008C7021008C7021008C70210083A
:10024000C7021008C7021008C7021008C70210082A
:10025000C7021008C7021008C7021008C70210081A
:10026000C7021008C7021008C7021008C70210080A
:10027000C7021008C7021008C7021008C7021008FA
:10028000C7021008C7021008C702100800000000CB
:10029000C7021008C7021008DFF80CD000F018F8E9
:1002A00000480047D106100818040010064880478F
:1002B00006480047FEE7FEE7FEE7FEE7FEE7FEE74B
:1002C000FEE7FEE7FEE7FEE7690610089902100860
:1002D000064C074D06E0E06840F0010394E8070093
:1002E00098471034AC42F6D3FFF7DAFF380710080E
:1002F00058071008FEE7704704480068C0F3031071
:10030000072801D0012070470320704700ED00E06E
:1003100002490A6802430A607047000010650258EB
:100320000248816802781144816070470000001023
:100330001C4808B5016841F480410160006800F480
:100340008040009018480168184A114041F401416A
:100350000160016841F001010160032000F07CF8B8
:1003600000F0CEF80F49C0390A680968C2F30323C8
:100370000F4AD35C03F01F03D84001F00F01515C1A
:1003800001F01F01C8400B4908600B4908600020BC
:1003900000F014F808B1012008BD00F02FF800208B
:1003A00008BD0000D844025800440240FF00F0FF9E
:1003B00028071008100000100C00001070B50D4D3B
:1003C00004462878A0B14FF47A71B1FBF0F00A49E5
:1003D0000968B1FBF0F000F02BF948B9102C07D2F6
:1003E00000222146501E00F017F800206C6070BDFE
:1003F000012070BD000000100C000010054808B579
:10040000016841F002010160006800F00200009004
:1004100008BD0000F4440258F0B40E4B1B680C46B3
:10042000C3F30223C3F10705042D00D90425191DC8
:10043000072901D2002300E0DB1E012606FA05F1A0
:10044000491E214099409E40761E16403143F0BC23
:1004500000F01FB90CED00E0064900F00702086843
:100460004FF6FF03184040EA0220034A1043086099
:10047000704700000CED00E00000FA0510B5FFF732
:100480003BFF032800D040BF20BF10BD70B50E4613
:1004900019490B6823F0010303430B60164C174DF9
:1004A000103432B12068012A11D020F004002060FD
:1004B00070BDFFF721FF0328FAD1206820F001006A
:1004C00020600BE0286820F00400286070BD20F058
:1004D00002002060FFF710FF0128F7D1286840F0E4
:1004E00004002860BFF34F8FBFF36F8F012E01D040
:1004F00020BFE7E730BFE5E70048025810ED00E015
:1005000030B543480068444B10F03802414808D0E9
:100510000111082A03D0102A0BD0182A0BD0084644
:1005200030BD19688906FBD51968C1F3C101C840FF
:1005300030BD3A4830BD364918310A68096802F0C2
:100540000304334AC1F305111C321268304D02F026
:10055000010224352D68C5F3CC0515FB02F200EE2F
:10056000102AB8EE400AE9B3294A9FED2D1AF7EE9A
:10057000000A203264B1DFED2B1A012C01D0022CCD
:100580003CD002EE101AF8EE422A81EEA22A17E0C1
:100590001C68A4060CD51B68C3F3C103D84001EE48
:1005A000900AF8EE612A01EE901AF8EE611A05E061
:1005B00001EE901ADFED1C2AF8EE611A82EEA12AF4
:1005C0001068C0F3080001EE900A1068F8EE611A96
:1005D00040EE011A31EEA00A22EE000AC0F34620D6
:1005E000401C00E011E000EE900AF8EE600A80EE98
:1005F000201ABCEEC10A10EE100A30BD01EE901AAE
:10060000DFED0A2AF8EE611AD8E7002030BD0000BD
:10061000104402580090D0030044025800366E0186
:10062000000000390024744A0024744C001BB74BAE
:1006300010B5401EB0F1807F01D3012010BD4FF0F6
:10064000E02460610F21601700F023F80020A06112
:1006500007202061002010BDFEE7FEE770477047CD
:100660007047FFF75DBE00000848016841F4700163
:10067000016006487838016841F0040101600349CF
:100680004FF00160803908607047000088ED00E09D
:10069000FEE70907090E002804DB00F1E02080F8DE
:1006A0000014704700F00F0000F1E02080F8141DE6
:1006B000704702E008C8121F08C1002AFAD170472B
:1006C0007047002001E001C1121F002AFBD17047D2
:1006D000124808B5016841F000710160006800F03F
:1006E000007000900120FFF713FEFFF7C7FE012204
:1006F00002210020FFF7CAFE09480068C0F303107A
:10070000072807D00748016841F001010160FFF7A1
:100710000FFEFEE703481038F5E70000E0440258FA
:1007200000ED00E01465025800000000010203041F
:10073000010203040607080958071008000000100A
:1007400014000000B20610086C0710081400001016
:1007500004040000C20610080100000010000000A0
:0C076000000000000090D0030090D003C7
:040000050810029944
:00000001FF
