:020000040810E2
:1000000070720010AD021008D31D10085D1B10089F
:10001000D11D100885031008051E100800000000FF
:10002000000000000000000000000000D71D1008C4
:100030008703100800000000D51D1008D91D100806
:10004000C7021008C7021008C7021008C70210082C
:10005000C7021008C7021008C7021008C70210081C
:10006000C7021008C7021008C7021008C70210080C
:10007000C7021008C7021008C7021008C7021008FC
:10008000C7021008C7021008C7021008C7021008EC
:10009000C7021008C7021008C7021008C7021008DC
:1000A000C7021008C7021008C7021008C7021008CC
:1000B000C7021008C7021008C7021008C7021008BC
:1000C000C7021008C7021008C7021008C7021008AC
:1000D000C7021008C7021008C7021008C70210089C
:1000E000C7021008C702100800000000C70210086D
:1000F000C7021008C7021008C7021008C70210087C
:10010000C7021008C7021008C7021008C70210086B
:10011000C7021008C7021008C7021008C70210085B
:10012000C7021008C7021008C7021008C70210084B
:10013000C702100889031008C7021008C702100878
:10014000C7021008C70210080000000000000000ED
:10015000C7021008C7021008C7021008C70210081B
:10016000C7021008C7021008C7021008C70210080B
:10017000C7021008C7021008C702100800000000DC
:10018000C7021008C7021008C7021008C7021008EB
:10019000C7021008C7021008C7021008C7021008DB
:1001A000C7021008C7021008C7021008C7021008CB
:1001B000C7021008C7021008C7021008C7021008BB
:1001C000C7021008C7021008C7021008C7021008AB
:1001D000C7021008C7021008C7021008C70210089B
:1001E000C7021008C7021008C7021008C70210088B
:1001F000C7021008C7021008C7021008C70210087B
:10020000C7021008C7021008C7021008C70210086A
:10021000C7021008C7021008C7021008C70210085A
:10022000C7021008C7021008C7021008C70210084A
:10023000C7021008C7021008C7021008C70210083A
:10024000C7021008C7021008C7021008C70210082A
:10025000C7021008C7021008C7021008C70210081A
:10026000C7021008C7021008C7021008C70210080A
:10027000C7021008C7021008C7021008C7021008FA
:10028000C7021008C7021008C702100800000000CB
:10029000C7021008C7021008DFF80CD000F060F8A1
:1002A00000480047F9421008707200100648804765
:1002B00006480047FEE7FEE7FEE7FEE7FEE7FEE74B
:1002C000FEE7FEE7FEE7FEE7DD1D100899021008D5
:1002D00040EA01039B0703D009E008C9121F08C0C8
:1002E000042AFAD203E011F8013B00F8013B521E48
:1002F000F9D27047D2B201E000F8012B491EFBD2BF
:1003000070470022F6E710B513460A460446194620
:10031000FFF7F0FF204610BD30B50446002003462D
:1003200000E05B1C934203D2E05CCD5C401BF8D044
:1003300030BD30B50B46014600202022012409E0E3
:1003400021FA02F59D4205D303FA02F5491B04FA8E
:1003500002F52844151EA2F10102F1DC30BD0000B7
:10036000064C074D06E0E06840F0010394E8070002
:1003700098471034AC42F6D3FFF792FF98951008D7
:10038000B8951008FEE77047014800F0E3BC000094
:100390001C01001070B5A2B00125002406468DF89E
:1003A0000450680306908DF80F508DF80E504FF4EE
:1003B000C3600D908DF80C401294202017908DF89A
:1003C0001D408DF828408DF81F400F9409948DF83A
:1003D000325014944FF040508DF8605002940090C9
:1003E0008DF838408DF81C40A8038DF861408DF8D9
:1003F0001E5005908DF862400B948DF8314002201C
:100400008DF811508DF8404016908DF812408DF8FF
:1004100056408DF820508DF854408DF830408DF8BE
:1004200010508DF80D408DF8554011948DF84C50BA
:100430006946304600F012FA8DF8714069058DF872
:1004400068501B958DF870404FF4067019948DF824
:1004500080401F911D9121908DF878408DF881404A
:1004600019A9304600F0AAF922B070BD00207047EB
:1004700001F092B910B5024800F02AFF002010BD2B
:100480001C01001013460A4610B50146034800F04F
:10049000E1FE002801D04FF0FF3010BD1C0100101C
:1004A00013460A4610B50146034801F011F800282A
:1004B00001D04FF0FF3010BD1C0100102DE9F047B6
:1004C000846A00F11806924656F824208B68254667
:1004D000D2F80CC00027BCF1000F73DB91F800C00C
:1004E0005FEA4C7C43D5D2F80CC0D1F824806FF37E
:1004F0000F0C4CEA080CC2F80CC0D2F80CC04CF43B
:10050000803CC2F80CC0D0F800C0DCF8608048F431
:100510008018CCF8608091F800C05FEA0C7C26D58A
:10052000B1F82C80D2F808C068F31F4CC2F808C09C
:10053000D2F80CC04CF4003CC2F80CC0D2F80CC08D
:10054000D1F830802CF4402C4CEA080CC2F80CC0D6
:10055000D0F800C0DCF8648048F48018CCF86480DF
:100560000068D0F850C04CF0806CC0F850C00878DB
:10057000C0060BD59068D1F818C06FF30D0040EAA3
:100580000C009060D06840F08060D060087810F077
:10059000140F18D0D06840F08040D060D06840F090
:1005A0000040D060641C042C00D3241F012756F89F
:1005B0002420D068002806DA56F82500C16821F00A
:1005C0000041C16099E0186810609068D3F804C0D9
:1005D0006FF30D0040EA0C009060DFF8DCC1986812
:1005E0004FF000097F1C50B1034600685060D2F8FC
:1005F0000880988808EA0C0848EA004004E0C2F83D
:100600000490906800EA0C0090600878C006D068FA
:1006100012D5B1F8208020F4F00040EAC840D06044
:10062000D068D1F81C806FF3110040EA0800D06058
:10063000D06840F480201BE0D1F804806FF30E00F6
:1006400040EA0800D0600878C00707D0D068D1F829
:10065000148020F4403040EA0800D060087880061A
:1006600007D5D068D1F8108020F0406040EA08003B
:10067000D0600878400707D59068D1F8288020F42A
:10068000404040EA08009060D06840F00050D060E0
:10069000D06820F08040D060D06840F00040D0604A
:1006A0000878800774D5D068D1F80C8020F060708D
:1006B00040EA08006BE0D06820F08050D060641CF5
:1006C000042C00D3241F56F82420D06820F00050BA
:1006D000D060D068002813DA56F8250000210AE01F
:1006E000C26822F00042C2606D1C042D00D32D1F91
:1006F000491C56F82500B942F2D30220BDE8F08724
:100700009B68186810609068D3F804806FF30D0040
:1007100040EA0800906098687F1C50B1034600686A
:1007200050609068B3F8048000EA0C0040EA08408A
:1007300004E0C2F80490906800EA0C009060087829
:10074000C006D0680AD5D1F81C806FF3110040EACA
:100750000800D060D06840F4802010E0D1F8048018
:100760006FF30E0040EA0800D0600878C00707D099
:10077000D068D1F8148020F4403040EA0800D060FE
:10078000D06840F00040D060D06820F08040D06059
:10079000986800288FD19068BAF1000F02D040F01D
:1007A000004001E020F000409060D06840F08050B0
:1007B000D06000203461A1E7FFFF00C030B50268BF
:1007C00002F58052136847F60204A3430C682343E2
:1007D00013600A790B7B120342EAC3338A6813431E
:1007E000026802F5805254684DF20105AC431C4387
:1007F00054604B7B0A6A42EA0344026802F5805265
:10080000D2F80031124D2B402343C2F800310A7D4B
:100810004B7F120142EA03330A691343026802F56F
:100820008052D2F804410B4D2C401C43C2F80441C5
:100830008A690068097F00F5805042EAC171D0F8EA
:100840000821054B1A400A43C0F8082130BD0000BA
:1008500000C0FEFFEFEFC0FFFFFFC07F30B50B68A9
:100860008A680C7B1A430B79DB0643EAC4531A43AC
:100870004B7B42EA83528B7B42EA4352CB7B42EA78
:1008800003520B7C002B7DD05FF0000342EAC34291
:100890004B7C002B77D0002342EA43428B7C42EA18
:1008A00003424B691A438B691A430B7F42EA0332B6
:1008B0004B7F42EAC3228B7F002B66D05FF00003A0
:1008C00042EA8322CB7F42EA432291F82030002B78
:1008D0007DD0002342EA03224B6A1A4391F8283064
:1008E00042EA0312CB6A1A4303681C68434D2C404A
:1008F00014431C6091F83C2091F83830520642EACB
:10090000036291F8303042EA834291F8313042EA92
:10091000434291F83230BBB35FF0000342EA034236
:100920004B6B1A4303685C68354D2C4014435C6084
:1009300091F840304A6C42EA03240268D36840F2DE
:100940000F15AB432343D36091F854300A6D42EA4C
:10095000430291F84C30DBB30023B1F84840DB018F
:1009600043EA04431A4303681C6F4FF60D752C408D
:1009700014431C6791F8562091F8553042EA43021F
:10098000036803E02BE02CE031E02CE053F8904FBB
:1009900024F0030414431C600268D2F8003D8C6DFF
:1009A00023F072032343C2F8003D91F86030CA6D12
:1009B0000BB3002342EA831211F8613F00684978C3
:1009C0001B0143EAC1010A43D0F8301D01E00CE0ED
:1009D0000FE021F07B011143C0F8301D30BD012331
:1009E00054E7012358E701236AE7012372E7012353
:1009F00094E70123B1E70123DCE7000083800400D2
:100A00000080F8C0704770B5036C00F12C02446C94
:100A100052F8231024B1D56905B1641C002523E0E8
:100A2000012070BD0E690E604FF08076CE604E6979
:100A30002EB14E698E60CE6846F00076CE60CE68EC
:100A400046F00046CE60166A1EB1CE6846F080467B
:100A5000CE609669761EAE4205D95B1C042B00D38E
:100A60001B1F52F823106D1CA542DBD3006800F554
:100A70008050C0F828110020906170BD704710B5FB
:100A800000EB8104E46A0AB1042903D30121C165A2
:100A9000084610BD22602261E06840F08070E0608E
:100AA0002BB1A3606361E06840F00070E060E06833
:100AB00040F00040E060002010BD704700297DD06C
:100AC0000268126802F00C02CA6202681268C2F37D
:100AD000001281F828200268126802F060024A625F
:100AE0000268126842F30022521C81F8202002683A
:100AF0001268C2F34022CA770268126842F3802269
:100B0000521C8A7702681268C2F3C0224A770268D0
:100B10001268C2F300320A770268126802F40052C7
:100B20008A610268126802F480424A6102681268AF
:100B3000C2F300428A740268126842F34042521CB7
:100B40004A740268126842F3C042521C0A74026876
:100B50001268C2F30052CA7302681268C2F34052AC
:100B60008A7302681268C2F380524A73026812687C
:100B7000C2F3C0520A730268126802F0E0628A602F
:100B800002681268C2F3C0620A710268126802F059
:100B9000E0420A6002685268C2F30D024A630268CA
:100BA000526842F30042521C81F8322002685268B7
:100BB000C2F3404281F83120026800E062E05268EE
:100BC000C2F3804281F8302002685268C2F30062AA
:100BD00081F8382002685268C2F34462CA6302682E
:100BE000D268C2F3002281F840200268D26802F085
:100BF0000F024A640268126FC2F3400281F8542067
:100C00000268126F42F3C012521C81F84C20026835
:100C1000126F02F070020A650268126F120C8A6489
:100C20000268D2F8902002F0010281F85620026892
:100C3000D2F89020C2F3400281F855200268D2F821
:100C4000002D02F072028A650268D2F8302D02F09F
:100C50002302CA650268D2F8302DC2F3C00281F8BF
:100C600062200268D2F8302DC2F3001281F86120B0
:100C70000068D0F8300D40F38010401C81F860000F
:100C80000020704701207047F0B5026C00F12C067F
:100C90000546002756F822000C0002D0B16919B1B0
:100CA00009E00120E86539E0284600F0F5F9A0B335
:100CB000726956F82200002115E0036923606B6910
:100CC0006360436923B1A468436923606B6963600F
:100CD000C068521CC0F30E07042A00D3121FA46878
:100CE00056F82200491CB3695B1E8B42E5D8C168E7
:100CF0000269C1F30E01C91B22606A698A4201D3ED
:100D0000616008E0436943B16260A26840691060B5
:100D10006869081A50600020F0BDFFE70120FBE77A
:100D200070B500F12C040D46D4E9056111B900F04D
:100D3000B3F968B1A069761E3044042800D3001FBF
:100D400054F82000C068C0F30E002860002070BD79
:100D5000012070BD70B50446006800F58050D0F8E1
:100D6000601149060DD5D0F83401400609D520465A
:100D700000F0A2FA206848F2400100F58050C0F867
:100D80006011206800F58050D0F86011C9070DD0BF
:100D9000D0F83401C00709D0204600F097FB206846
:100DA00048F2010100F58050C0F86011206800F59C
:100DB0008050D0F860114FF0E006490423D5D0F8F8
:100DC000341149041FD5E16D41F00801E165D0F807
:100DD0006011C904D0F860110BD541F20212114024
:100DE0002166D0F8341121F44041C0F83411666511
:100DF00006E001F4CD4121664FF4CD41C0F8601109
:100E00002046FFF73BFE2068D0F8B0100025C1F364
:100E10004131032907D1D0F8B800606666652046E5
:100E200000F0A1F965662068D0F8B010C90608D5B1
:100E3000D0F8C00000F06000A066204600F008FA7C
:100E4000A5662068D0F8B010890608D5D0F8C00093
:100E500000F00F00E0662046FFF72FFEE56600F089
:100E60008FFC02464FF480014FF0B040032A09D0B6
:100E7000D0F8E820520204D5C0F8E810204600F06F
:100E800026FB70BDD0F8A8205202FAD5C0F8A810F1
:100E9000F4E70000F8B5040002D0606D10B104E082
:100EA0000120F8BD204600F05FF9232060657048FE
:100EB000016841F002010160006800F0020000904A
:100EC000207A08B14FF4000000F02AFE206800F5F7
:100ED0008050016841F00101016000F05DFC0546B1
:100EE000E0264FF4FA7706E000F056FC401BB842CB
:100EF00001D9042049E0206800F580500068C0074F
:100F0000F2D12068D0F8000220F4706500F050FDA6
:100F10005849594A0144914202D245F4007516E0FD
:100F20005649574A0144914202D245F440750EE0B9
:100F30005449554A0144914209D3544908445449FB
:100F4000884202D245F4807501E045F4806520684E
:100F5000C0F8005200F02CFD4E49B0FBF1F02168C2
:100F6000401EC1F8DC002046FFF714FA206800F5A7
:100F70008050D0F8001121F4E01141F40021C0F8B4
:100F800000116169880703D00120E065666587E785
:100F9000206800F58050D0F8082147F6FE739A4388
:100FA00042EA4101C0F8081100221046E16802EB54
:100FB000420301EBC301086048608860C86004EB2D
:100FC0008203521C9961042AF0D3A0622168032392
:100FD00001F58051C1F82C312168E26801F580519A
:100FE000C1F814212168E26801F58051C1F820217F
:100FF0005FF00002216902EB420501EBC5010860C8
:1010000048608860C8600861486104EB8205521C32
:10101000E962042AEED3E06320646064E064A064C3
:10102000216801F58051C1F830312168226901F54C
:101030008051C1F81C212268216902F5805201F516
:10104000D861C2F82811616822688988C2F8001343
:1010500061680A78D1F8011042EA01212268C2F8D9
:101060000413E06510206065A0650020F8BD000055
:10107000F444025800D3CEFEC0E1E40040F1E9FDA3
:1010800040787D0100796CFC005A6202001F0AFA68
:1010900080F0FA0240420F0070B5C16B2C30002581
:1010A00050F8214086692A462B464EB3002070BD79
:1010B000E6686D1CF6001AD5521C012A00D10B46B9
:1010C000491C042900D3091F50F82140E568002D70
:1010D00008DBE468640005D50124491CC4610429C7
:1010E00000D3091F8261C0E90413012070BDE468C8
:1010F000A40011D50B460122491C0FE050F82140F5
:10110000E668002E01DB042DD2D34AB350F8231039
:1011100000244FF0807521E0491C521C0429EDD3B6
:10112000091FEBE70E690E60CD604E692EB14E6966
:101130008E60CE6846F00076CE60CE6846F00046FF
:10114000CE60066A1EB1CE6846F08046CE605B1C5B
:10115000042B00D31B1F641C50F823109442E1D3CE
:1011600000218161A2E77047F0B587B004461421E1
:101170006846FFF7C6F83149206888425CD130489C
:10118000016841F400410160016801F400410591EA
:10119000016841F480310160016801F480310591FA
:1011A000016841F400310160006800F400300590EE
:1011B00023480830016841F040010160016801F0F6
:1011C00040010591016841F004010160016801F0EE
:1011D00004010591016841F00101016000680224E9
:1011E00000F0010005904FF46050CDE9000402AA20
:1011F000002003250B2682E861006946114800F0B3
:1012000099F9322001278DE89100CDE9035669460E
:101210000D4800F08FF986208DE89100CDE9035646
:1012200069460A4800F086F9002211463D2000F088
:101230004BFB3D2000F03AFB07B0F0BD00800240C0
:10124000D8440258001802580008025800000258FA
:10125000704700002DE9F041044600681E46D0F8B2
:101260000032DB0719D1D0F8003223F0787343EA5B
:10127000415121F4F81141EA024141F00D01C0F859
:10128000001200F089FA05464FF47A7708E000BFB3
:1012900000F082FA401BB84202D90120BDE8F0817B
:1012A0002068D0F80002C007F2D12068D0F804020C
:1012B00080B230600020F1E7704710B511B1826D47
:1012C000102A01D0012010BDFFF7C8FA002010BD80
:1012D00070B505460068D0F8000220F4706400F094
:1012E00067FB1149114A0144914202D244F400744F
:1012F00016E00F490F4A0144914202D244F440746F
:101300000EE00D490D4A0144914209D30C490844AD
:101310000C49884202D244F4807401E044F48064B1
:101320002868C0F8004270BD00D3CEFEC0E1E400E2
:1013300040F1E9FD40787D0100796CFC005A6202C1
:10134000001F0AFA80F0FA02416D102901D0012035
:1013500070472321416501680A6842F002020A6071
:1013600001680A6842F001020A600168D1F8002DA4
:1013700042F00102C1F8002D016801F58051D1F859
:10138000042142F00102C1F80421016801F58051F5
:10139000D1F8082142F00102C1F80821016801F5E5
:1013A0008051D1F8602142F48172C1F8602110218E
:1013B00041652221816500207047416D49B3232199
:1013C0004165016801F58051D1F8042122F0010244
:1013D000C1F80421016801F58051D1F8082122F0FB
:1013E0000102C1F8082101680A6822F001020A60BE
:1013F0000168D1F8002D42F00102C1F8002D01680A
:101400000A6822F002020A6010214165816500200D
:101410007047012070472DE9F0419046044619B10C
:10142000606D102804D04FE0E06D40F0010007E04F
:1014300000222046FFF742F820B1E06D40F00200A4
:10144000E06541E0A06A04EB8001401C8D69A06268
:10145000042801D3001FA06204EB8000816920688A
:1014600000F58050C0F8201100F096F906461027CC
:101470001EE0206800F58050D0F86001C0040CD553
:10148000E06D40F00800E065206800F58050D0F87D
:1014900060012066E020606516E0B8F1FF3F07D0EC
:1014A00000F07AF9811B414509D8B8F1000F06D048
:1014B000E8680028DDDB67650020BDE8F081E06DAD
:1014C00040F00400E06567650120F6E7704770476B
:1014D00070B504460068D0F80052ED071FD1D0F86F
:1014E000000220F0787040EA415020F4F81040EA01
:1014F00002400F4920F00C00001D9AB240F001009C
:10150000C1F80422C1F8000200F046F905464FF484
:101510007A7606E000F040F9401BB04201D9012084
:1015200070BD2068D0F80002C007F3D170BD000084
:10153000008002402DE9FC4F00230125844E032446
:101540004FF00F094FF0B04AFBE000BF05FA03F778
:101550003A407DD0D1F804C0BCF1010F08D0BCF1F5
:10156000020F05D0BCF1110F02D0BCF1120F1AD13D
:10157000D0F808C04FEA430E04FA0EF82CEA080B24
:10158000D1F80C8008FA0EF848EA0B08C0F8088079
:10159000D0F804C02CEA070C0F79C7F300179F405E
:1015A00047EA0C074760C7684FEA4308D1F808C00C
:1015B00004FA08FB27EA0B070CFA08FC4CEA070CB4
:1015C000C0F80CC04F68022F01D0122F15D1DF08D0
:1015D00000EB87070197D7F820E05F07FF0E09FAB5
:1015E00007FC2EEA0C0E0097D1F810C00CFA07FC8D
:1015F000019F4CEA0E0CC7F820C0076891F804C0A0
:1016000027EA0B070CF0030C0CFA08FC4CEA070C59
:10161000C0F800C04F68FF001AD54E4FD7F800C081
:101620004CF0020CC7F800C03F6807F002070097B3
:1016300023F0030707F1B047BB46D7F808744FEA19
:10164000837C4FEA1C7809FA08FC27EA0C0700E0C3
:1016500076E0DFF804C1604502D14FF0000C40E0B5
:10166000DFF8F8C0604502D14FF0010C39E0DFF837
:10167000F0C0604502D14FF0020C32E0DFF8E4C068
:10168000604502D14FF0030C2BE0DFF8DCC0604571
:1016900002D14FF0040C24E0DFF8D0C0604502D145
:1016A0004FF0050C1DE0DFF8C8C0604502D14FF0D7
:1016B000060C16E0DFF8BCC0604502D14FF0070C05
:1016C0000FE0DFF8B4C0604502D14FF0080C08E02D
:1016D000DFF8A8C0604502D14FF0090C01E04FF0DF
:1016E0000A0C0CFA08FC4CEA070CCBF808C4376863
:1016F000D1F804C097435FEACC3C00D5174337606C
:101700007768D1F804C097435FEA8C3C00D5174353
:101710007760DAF80070D446D1F8048097435FEA26
:10172000C82800D51743CCF80070DCF80470D1F855
:10173000048097435FEA882800D51743CCF80470EB
:101740005B1C0A6832FA03F77FF400AFBDE8FC8F38
:10175000C0000058F4440258000002580004025827
:1017600000080258000C02580010025800140258D9
:1017700000180258001C0258002002580024025889
:1017800004480068C0F30310072801D00120704707
:101790000320704700ED00E00148806870470000BA
:1017A0003000001002490A6802430A6070470000D6
:1017B00010650258024881680278114481607047C0
:1017C000300000101C4808B5016841F480410160F8
:1017D000006800F48040009018480168184A1140E1
:1017E00041F401410160016841F001010160032001
:1017F00000F08AF800F0FCF80F49C0390A6809685F
:10180000C2F303230F4AD35C03F01F03D84001F057
:101810000F01515C01F01F01C8400B4908600B49E2
:101820000860002000F014F808B1012008BD00F0A5
:101830002FF8002008BD0000D844025800440240A0
:10184000FF00F0FF68931008400000103C000010FB
:1018500070B50D4D04462878A0B14FF47A71B1FBF4
:10186000F0F00A490968B1FBF0F000F063F948B9FB
:10187000102C07D200222146501E00F025F800202F
:101880006C6070BD012070BD300000103C00001085
:10189000054808B5016841F002010160006800F0E8
:1018A0000200009008BD0000F4440258002809DB43
:1018B00000F01F02012191404009800000F1E0206A
:1018C000C0F8001170470000F0B40E4B1B680C46C6
:1018D000C3F30223C3F10705042D00D90425191D04
:1018E000072901D2002300E0DB1E012606FA05F1DC
:1018F000491E214099409E40761E16403143F0BC5F
:1019000000F092BA0CED00E0064900F0070208680A
:101910004FF6FF03184040EA0220034A10430860D4
:10192000704700000CED00E00000FA0510B5FFF76D
:1019300027FF032800D040BF20BF10BD70B50E4662
:1019400019490B6823F0010303430B60164C174D34
:10195000103432B12068012A11D020F00400206038
:1019600070BDFFF70DFF0328FAD1206820F00100B9
:1019700020600BE0286820F00400286070BD20F093
:1019800002002060FFF7FCFE0128F7D1286840F034
:1019900004002860BFF34F8FBFF36F8F012E01D07B
:1019A00020BFE7E730BFE5E70048025810ED00E050
:1019B00000B500F01DF80A490A680968C2F303235C
:1019C000084AD35C03F01F03D84001F00F01515CBB
:1019D00001F01F01C840044908600449086000BDC7
:1019E0001844025868931008400000103C00001092
:1019F00030B543480068444B10F03802414808D0E5
:101A00000111082A03D0102A0BD0182A0BD008463F
:101A100030BD19688906FBD51968C1F3C101C840FA
:101A200030BD3A4830BD364918310A68096802F0BD
:101A30000304334AC1F305111C321268304D02F021
:101A4000010224352D68C5F3CC0515FB02F200EE2A
:101A5000102AB8EE400AE9B3294A9FED2D1AF7EE95
:101A6000000A203264B1DFED2B1A012C01D0022CC8
:101A70003CD002EE101AF8EE422A81EEA22A17E0BC
:101A80001C68A4060CD51B68C3F3C103D84001EE43
:101A9000900AF8EE612A01EE901AF8EE611A05E05C
:101AA00001EE901ADFED1C2AF8EE611A82EEA12AEF
:101AB0001068C0F3080001EE900A1068F8EE611A91
:101AC00040EE011A31EEA00A22EE000AC0F34620D1
:101AD000401C00E011E000EE900AF8EE600A80EE93
:101AE000201ABCEEC10A10EE100A30BD01EE901AA9
:101AF000DFED0A2AF8EE611AD8E7002030BD0000B9
:101B0000104402580090D0030044025840787D01F0
:101B1000000000390024744A0024744C20BCBE4BE1
:101B200003490A6822F4600202430A607047000019
:101B30000404005810B5401EB0F1807F01D301208D
:101B400010BD4FF0E02460610F21601700F06CF9C8
:101B50000020A06107202061002010BDFEE738B5FD
:101B600004460020009063696A4601212068984776
:101B70006FF00405002825DB63696A4601212068AF
:101B8000984700281EDB0098400701D4012038BD8B
:101B900063696A46002120689847002812DB009894
:101BA000C10408D44FF4045181431CD081041CD4D7
:101BB000C0051CD415E063696A461F212068984758
:101BC000002801DA284638BD0098C10401D4062057
:101BD00038BDC0F38200062805D0022805D00528AC
:101BE00005D0052038BD022038BD032038BD0420B3
:101BF00038BD2DE9F843044600200646054600900E
:101C00006068A8BBA06800B1804720206FF004077F
:101C1000206063696A46122130469847002801DA3D
:101C20003D4607E0009800F01F00B04202D10025B9
:101C3000266002E0761C1F2EEBD920681F2802D9EF
:101C40006FF0020530E07DBB23694FF400420021B4
:101C50009847002830DB63696A460021206898476E
:101C6000002827DBA069804706464FF4FA780CE08D
:101C70000EE0A0698047801B404518D863696A461A
:101C8000002120689847002814DB00980004F0D455
:101C9000A069804706464FF4FA67A0698047801B19
:101CA000B842FAD9012060602846BDE8F8836FF099
:101CB0000105F9E73D46F7E76FF00305F4E788B162
:101CC000CA687AB18A686AB10A695AB10A688260D8
:101CD0004A68C260CA6842618A68026109698161B2
:101CE000002070474FF0FF30704700000EB502F043
:101CF000F3FA2E490868C97803BA0A0603F47F4349
:101D000042EA032203BA00BA0843284903F47F03D6
:101D100042EA13220C3142EA106008600839086870
:101D2000C97803BA0A0603F47F4342EA032203BADE
:101D300000BA08431D4903F47F0342EA132210311D
:101D400042EA1060086008390868C97803BA0A06D0
:101D500003F47F4342EA032203BA03F47F0300BA89
:101D600042EA13220843114942EA10601431104A32
:101D70000860104900208DE807000C4B0E48143312
:101D80001A1F111F02F0B6FE0B4802F055FF0A4859
:101D900090F82B004007084803D5BDE80E4002F03C
:101DA0009EBFBDE80E4002F04DBF000000000010D5
:101DB000D92C1008FD2E1008EC00001010B50348B7
:101DC00001F0E2F8BDE8104003F022BFEC00001083
:101DD000FEE7704770477047FFF7ECBC08480168A2
:101DE00041F47001016006487838016841F004014F
:101DF000016003494FF001608039086070470000BE
:101E000088ED00E0FEE700000FB4054B10B503A914
:101E1000044A029800F028F810BC5DF814FB00009A
:101E200001301008E80000100907090E002804DB43
:101E300000F1E02080F80014704700F00F0000F17E
:101E4000E02080F8141D704702E008C8121F08C186
:101E5000002AFAD170477047002001E001C1121F2B
:101E6000002AFBD1704700002DE9FF4F8BB09A4646
:101E70000F460546002606E025280BD052460D9950
:101E800090476D1C761C28780028F5D10FB030469D
:101E9000BDE8F08F0024A0460122604900E0044321
:101EA00015F8013F203B02FA03F00842F7D12878E9
:101EB0002E2817D115F8010F44F004042A280ED05B
:101EC0006FF02F022878A0F1300109290AD808EB19
:101ED000880102EB410100EB01086D1CF2E757F8A5
:101EE000048B6D1C287869283ED006DC0028CDD0F4
:101EF00063280BD0642804D136E0732810D07528ED
:101F00004BD052460D999047761C85E017F8040B8C
:101F10008DF8000000208DF80100E946012003E063
:101F200057F8049B4FF0FF3061074FF0000401D4D5
:101F30000AE0641C44450DDA8442FADB19F8041007
:101F40000029F6D106E0641C8442FCDB19F8041079
:101F50000029F8D1264404E019F8010B52460D99E6
:101F60009047641EF8D257E001CF4FF00A0B0028CB
:101F700002DA40422D2102E0210504D52B218DF803
:101F80002410012103E0E10705D02021F7E70DF13E
:101F9000200908910CE00021F9E701CF4FF00A0B6E
:101FA000F9E75946FEF7C5F901F1300209F8012DAC
:101FB0000028F6D1ADEB090000F1200B600701D439
:101FC0004FF00108D84502DDA8EB0B0000E000202F
:101FD0008046002406E009A85246005D0D9990470E
:101FE000641C761C08988442F5DB04E030205246DD
:101FF0000D999047761CB8F10001A8F10108F5DCB5
:1020000005E019F8010B52460D999047761CBBF17B
:102010000001ABF1010BF4DC6D1C34E70928010071
:1020200010B504464068804722462068BDE810404D
:10203000014903F01BBE00002120100870B50546C1
:102040000C46880706D006A34FF4CE7210A118A044
:10205000FFF7DAFEA86800682060A868046070BD19
:102060002E2E2F4D6964646C6577617265732F54F1
:10207000686972645F50617274792F4C7749502F90
:102080007372632F636F72652F6D656D702E6300C1
:102090006D656D705F667265653A206D656D207067
:1020A000726F7065726C7920616C69676E6564002F
:1020B000417373657274696F6E20222573222066E6
:1020C00061696C6564206174206C696E65202564AB
:1020D00020696E2025730A0010B580680468002C02
:1020E0000CD021680160A00706D005A34FF4A472AC
:1020F0000FA118A0FFF788FE204610BD002010BDDC
:102100002E2E2F4D6964646C6577617265732F5450
:10211000686972645F50617274792F4C7749502FEF
:102120007372632F636F72652F6D656D702E630020
:102130006D656D705F6D616C6C6F633A206D656D80
:10214000702070726F7065726C7920616C69676E57
:1021500065640000417373657274696F6E20222597
:102160007322206661696C6564206174206C696EFD
:102170006520256420696E2025730A0070B50A4D1C
:102180000646002404EB440005EBC000017D29B1A4
:102190008068B04202D1204600F034F9641CE4B2F9
:1021A0000A2CEFD370BD0000803100102DE9F74FED
:1021B00084B04FF00A0B00240646DA465F46D94643
:1021C00002940194CDF800404F4904EB440001EB28
:1021D000C008039098F814500A2F16D0002D24D070
:1021E000012D08D0022D06D248A340F2251255A198
:1021F00064A0FFF709FE66B13168D8F80400814297
:1022000007D160B207B0BDE8F08F002DE8D167B20A
:102210000BE0012D17D0022D07D3B8F8120000995A
:10222000884202D34FFA84FA0090641CE4B20A2C6C
:10223000CAD3059881074FF0FF30E3D40A2F18D096
:102240001ADAFCB242E03048039950F83100002815
:10225000B8F8120006D002998842E6D34FFA84F902
:102260000290E2E701998842DFD34FFA84FB0190A4
:10227000DBE70599C907C5D0BAF10A0F0FDA0AF0F2
:10228000FF04214804EB440150F8310090B11FA332
:1022900040F26F1245A13BA0FFF7B6FD0AE0BBF18B
:1022A0000A0F02DA0BF0FF0404E0B9F10A0FA9DA11
:1022B00009F0FF040A2C06D314A340F2811241A1B5
:1022C00030A0FFF7A1FD204600F09CF80A2C06D3B1
:1022D0000EA340F285123BA12AA0FFF795FD0A4804
:1022E00004EB440100EBC105287D30B107A34FF496
:1022F000C37239A123A0FFF787FD0EB13068686073
:10230000002068827DE70000803100102E2E2F4DC6
:102310006964646C6577617265732F54686972646F
:102320005F50617274792F4C7749502F7372632F0D
:10233000636F72652F697076342F6574686172708F
:102340002E6300007374617465203D3D2045544840
:102350004152505F53544154455F50454E44494E9D
:1023600047207C7C207374617465203E3D20455479
:10237000484152505F53544154455F535441424C7D
:1023800045000000417373657274696F6E202225E9
:102390007322206661696C6564206174206C696ECB
:1023A0006520256420696E2025730A006172705FC4
:1023B0007461626C655B695D2E71203D3D204E55F8
:1023C0004C4C000069203C204152505F5441424C2B
:1023D000455F53495A4500006172705F7461626CD9
:1023E000655B695D2E7374617465203D3D204554C5
:1023F000484152505F53544154455F454D505459E4
:102400000000000070B5074C00EB4005002654F8B2
:10241000350018B103F0C6F844F8356004EBC50088
:10242000067570BD803100102DE9F04385B00D00B8
:10243000074609D07C684FF480782088404539D120
:102440002079062836D109E01CA34FF4227229A175
:102450002CA0FFF7D9FC05B0BDE8F0836079042813
:1024600028D16088082825D1D4F80E000490A169ED
:10247000686820B1814202D10126334601E000267E
:10248000022304F10802914604A9284600F096FBB5
:10249000E08840450ED16EB1022204ABCDE9023294
:1024A000291DCDE9001905F1250319464A4628469C
:1024B00000F086FA384603F075F8CCE72E2E2F4D43
:1024C0006964646C6577617265732F5468697264BE
:1024D0005F50617274792F4C7749502F7372632F5C
:1024E000636F72652F697076342F657468617270DE
:1024F0002E6300006E6574696620213D204E554CA8
:102500004C000000417373657274696F6E20222560
:102510007322206661696C6564206174206C696E49
:102520006520256420696E2025730A00FEB51546D6
:102530000E46040006D142A340F21B324EA152A027
:10254000FFF762FC36B93EA34FF4477258A14EA084
:10255000FFF75AFC35B93AA340F21D3257A14AA001
:10256000FFF752FC2146286800F0D4FE08B1574B13
:1025700039E02868C0F303110E291FD0A1686368F1
:1025800000EA01020B409A4208D080B2A0F57E41D9
:10259000A93903D0E06880B304F10C054C4A4D49D9
:1025A000137803EB430001EBC000077D022F28D313
:1025B0002F684068874224D11A4631E001208DF807
:1025C000040000208DF805005E208DF80600687874
:1025D00001AB00F07F008DF80700A8788DF80800A7
:1025E000E8788DF809004FF40060009004F12502AE
:1025F0003146204600F006FCFEBDFFE76FF0030009
:10260000FAE7002000EB400301EBC3031F7D022F1C
:102610000BD32F685B689F4207D1C0B2107002468F
:102620003146204600F058F8E6E7401C40B20A2840
:10263000E8DB32462946204600F0D6F8DCE7000009
:102640002E2E2F4D6964646C6577617265732F540B
:10265000686972645F50617274792F4C7749502FAA
:102660007372632F636F72652F697076342F657490
:10267000686172702E6300006E6574696620213D8A
:10268000204E554C4C000000417373657274696FA5
:102690006E2022257322206661696C656420617456
:1026A000206C696E6520256420696E2025730A0000
:1026B0007120213D204E554C4C0000006970616432
:1026C000647220213D204E554C4C00007893100838
:1026D000DC000010803100102DE9F8430646154655
:1026E00088461C4802EB450100EBC104207D02280E
:1026F00006D219A34FF43B7225A131A0FFF784FB4A
:10270000144A05EB4501207D02EBC1050C3502287A
:1027100013D1608A0327B0F58E7F04D9211D30467E
:1027200000F006FA07E0B0F5877F06D32A46211DA0
:10273000304600F003FA00B927754FF400600090AE
:102740002B4606F125024146304600F05BFBBDE812
:10275000F8830000803100102E2E2F4D6964646CC8
:102760006577617265732F54686972645F50617236
:1027700074792F4C7749502F7372632F636F726592
:102780002F697076342F6574686172702E63000053
:102790006172705F7461626C655B6172705F6964C5
:1027A000785D2E7374617465203E3D204554484128
:1027B00052505F53544154455F535441424C45007D
:1027C000417373657274696F6E20222573222066CF
:1027D00061696C6564206174206C696E6520256494
:1027E00020696E2025730A002DE9FC5F82462530A2
:1027F00001908846086814464FF0FF364FF0000BF2
:10280000514600F087FD002828D1D8F80000C0F319
:1028100003110E2922D0B8F1000F1FD000281DD0BF
:10282000524601214046FFF7C1FC070018D4394940
:1028300007EB470901EBC905287D002812D00128C4
:1028400008D0022806D234A340F2C73240A14AA0E1
:10285000FFF7DAFABBF1000F0AD108E06FF00F00C2
:10286000BDE8FC9F01202875C5F808A000E034B938
:102870004146504600F05CF90646002CF0D0287D19
:10288000DFF8908002280DD3454805F10C0321465E
:1028900007704FF4006000905046019A00F0B2FAC1
:1028A000064635E0012833D125464FF47B7668890A
:1028B0002989884207D1286828B117A3324639A14F
:1028C0002DA0FFF7A1FA287B01280ED0298900222C
:1028D000022002F013FA050018D0214602F0DEFCB7
:1028E00058B1284602F05EFE10E02D68002DDED1C2
:1028F0002546204603F088F845B158F8390008B15C
:1029000002F050FE48F83950002601E04FF0FF3643
:102910003046A5E7803100102E2E2F4D6964646C7F
:102920006577617265732F54686972645F50617274
:1029300074792F4C7749502F7372632F636F7265D0
:102940002F697076342F6574686172702E63000091
:102950006172705F7461626C655B695D2E73746136
:102960007465203D3D2050454E44494E47206F72CE
:1029700020535441424C4500417373657274696F32
:102980006E2022257322206661696C656420617463
:10299000206C696E6520256420696E2025730A000D
:1029A000DC0000106E6F207061636B6574207175C0
:1029B0006575657320616C6C6F776564210000003C
:1029C0002DE9FF4F81B09846DDE90FA9DDF838B059
:1029D00006004FF0000706D12BA34FF48B6238A1FD
:1029E0003BA0FFF711FA00221C21022002F086F919
:1029F000050046D068891C2806D223A340F2634212
:102A00003DA133A0FFF700FA6C68119801F062FC59
:102A1000E08096F82400062806D01BA340F26A4204
:102A200042492BA0FFF7F0F9D8F80010A160B8F8E0
:102A30000400A081DAF80010C4F81210BAF80400FB
:102A4000E082DBF80000C4F80E00D9F80000A061B5
:102A50004FF48070208008206080062020710420C0
:102A6000607140F60600DDE90223009029463046F9
:102A700000F0C8F9284602F095FD384605B0BDE8DB
:102A8000F08F4FF0FF30F9E72E2E2F4D6964646C04
:102A90006577617265732F54686972645F50617203
:102AA00074792F4C7749502F7372632F636F72655F
:102AB0002F697076342F6574686172702E63000020
:102AC0006E6574696620213D204E554C4C00000017
:102AD000417373657274696F6E20222573222066BC
:102AE00061696C6564206174206C696E6520256481
:102AF00020696E2025730A00636865636B20746823
:102B000061742066697273742070627566206361F7
:102B10006E20686F6C6420737472756374206574C2
:102B2000686172705F68647200000000549510085C
:102B3000014A00F003B80000789310087FB5064DF5
:102B4000031D0124CDE90035CDE9021421331946D6
:102B5000FFF736FF04B070BD7E93100870B5164DB8
:102B6000002400BF04EB440005EBC002107DF0B16F
:102B7000518A491C89B25182B1F5967F0AD2012847
:102B800006D003280AD004280AD001280BD00EE072
:102B9000052908D32046FFF735FC08E0042000E0B3
:102BA0000220107503E0111D9068FFF7C1FF641C3F
:102BB000E4B20A2CD6D370BD80310010F8B50446BB
:102BC00090F824001F4616460D46062806D020A37E
:102BD00040F2AB122CA135A0FFF716F99DB328687F
:102BE00088B3214600F096FB68BB2878C0F3031039
:102BF0000E2829D0224639462846FFF7D7FA002862
:102C000020DB00EB40013348022300EBC1021375C7
:102C100094603368D360B38813820023538250F8E2
:102C2000315075B140F831304FF4006000903346B8
:102C300004F125022946204600F0E4F8284602F077
:102C4000B1FC0020F8BDFFE76FF00F00FAE70000CD
:102C50002E2E2F4D6964646C6577617265732F54F5
:102C6000686972645F50617274792F4C7749502F94
:102C70007372632F636F72652F697076342F65747A
:102C8000686172702E6300006E657469662D3E681F
:102C900077616464725F6C656E203D3D20455448E9
:102CA0005F4857414444525F4C454E004173736541
:102CB0007274696F6E2022257322206661696C65CB
:102CC00064206174206C696E6520256420696E2023
:102CD00025730A008031001070B5044640890D4606
:102CE0000E283CD9606801788689CA0714D001296A
:102CF00005D006221F49FDF70FFB48B10CE04178D3
:102D000051B980785E2807D1607B40F0100002E066
:102D1000607B40F0080060736FF00D01082E03D057
:102D2000B6F5C16F1BD10FE095F82B00000716D543
:102D300060890E2813DB204602F002FD78B929468F
:102D4000204600F029FC12E095F82B00000706D57C
:102D500060890E2803DB204602F0F2FC18B1204601
:102D600002F020FC03E029462046FFF75DFB00202F
:102D700070BD00007893100870B5064600259AB023
:102D80002C461F48FEF7EBFE96F82B1049070DD591
:102D9000012809D81A48A438FEF70FFB304601F085
:102DA00051FF304601F080FF1AB070BD0128FBD9F9
:102DB0004FF400514A00022806D0032805D0042809
:102DC00005D00528F0D103E00C46154600E00C467E
:102DD0000B486946A438FDF771FE0948CDE9055452
:102DE0006946A438FEF769FA0548A438FEF7ACFA3C
:102DF000304601F074FF304601F05FFFD4E7000079
:102E0000C00100102DE9F04104461F4690460E46D1
:102E1000069801F05FFA05460E21304602F090FC5C
:102E200018B16FF00100BDE8F081706885813968E4
:102E30000160B9888180D8F80020C0F80620B8F871
:102E40000410418194F82400062806D006A340F21D
:102E50002B1213A11FA0FEF7D7FF31462046A2690F
:102E6000BDE8F041104700002E2E2F4D6964646CC0
:102E70006577617265732F54686972645F5061721F
:102E800074792F4C7749502F7372632F6E65746974
:102E9000662F65746865726E65742E6300000000AD
:102EA0006E657469662D3E6877616464725F6C65F7
:102EB0006E206D757374206265203620666F7220F7
:102EC00065746865726E65745F6F75747075742172
:102ED00000000000417373657274696F6E202225D3
:102EE0007322206661696C6564206174206C696E70
:102EF0006520256420696E2025730A0010B5040042
:102F000006D10BA34FF4F6720FA113A0FEF77CFFBE
:102F1000732084F82C00742084F82D001848606118
:102F20001848A061204601F017F9002010BD0000EC
:102F30002E2E2F434D342F5372632F6574686572A4
:102F40006E657469662E63006E6574696620213D46
:102F5000204E554C4C000000417373657274696FCC
:102F60006E2022257322206661696C65642061747D
:102F7000206C696E6520256420696E2025730A0027
:102F80002D2510086942100830B587B0054600208D
:102F900005901848FEF780F8002828D002A91548A7
:102FA000FDF772FE05A91348FDF7BAFE1148FDF7BB
:102FB0002AFD114801F058FD0346104818614FF4EE
:102FC000C0610298CDE900010598022281B2042077
:102FD00002F052F804000AD02A69294690470028D6
:102FE00005D007B02046BDE8304002F0DBBA07B09C
:102FF00030BD00001C0100105C9310080957100838
:1030000038B504468DF8000069460320ABBE204663
:1030100038BD0A46032100F0F3B800002DE9FE4F49
:103020008A4643490546D1F8088098F80000000711
:10303000840E142C76D36889042873D368680078CA
:1030400000286FD008286DD1486901F11407C0F33A
:1030500003120E2A66D08946096800F05BF9002841
:1030600060D1288908285DD304F10E010E46284658
:1030700002F066FB00282DD028890022204481B26E
:10308000022001F03BFE06004CD0718904F10800DB
:10309000814216D3224641467068FDF719F9614214
:1030A000304602F04DFB002806D022A3AF222FA10C
:1030B0003CA0FEF7A9FE04E02946304602F0EEF8F7
:1030C00018B1304602F06EFA2CE0284602F06AFA97
:1030D00035460CE07142284602F032FB002806D04B
:1030E00014A3C02239A12FA0FEF78EFE1AE02146BC
:1030F00028466E6802F024FBA0B968683968FF2290
:10310000C160D9F810100161002131707180027224
:10311000418101228DE806040A46FF2339462846EC
:1031200000F00CFB2846BDE8FE4F02F03BBA000061
:10313000AC0200102E2E2F4D6964646C65776172AD
:1031400065732F54686972645F50617274792F4C93
:103150007749502F7372632F636F72652F69707692
:10316000342F69636D702E630000000069636D7019
:103170005F696E7075743A206D6F76696E67207244
:103180002D3E7061796C6F616420746F2069636D8E
:103190007020686561646572206661696C65640AA7
:1031A00000000000417373657274696F6E20222500
:1031B0007322206661696C6564206174206C696E9D
:1031C0006520256420696E2025730A0069636D708F
:1031D0005F696E7075743A20726573746F72696E90
:1031E00067206F726967696E616C20702D3E706137
:1031F000796C6F6164206661696C65640A00000027
:103200002DE9FF47914688460646002224210120E9
:1032100001F074FD050031D06889242806D218A376
:1032200040F2611224A12FA0FEF7EEFD6C687768D2
:103230001C2284F8008084F801904FF00008A4F864
:103240000480A4F80680686871680830FDF740F8CB
:10325000F868039003A800F011FC60B1A4F80280A4
:103260000122CDF80080CDE90120FF2303AA00212F
:10327000284600F063FA284602F094F9BDE8FF877B
:103280002E2E2F4D6964646C6577617265732F54BF
:10329000686972645F50617274792F4C7749502F5E
:1032A0007372632F636F72652F697076342F696351
:1032B0006D702E6300000000636865636B207468A6
:1032C0006174206669727374207062756620636130
:1032D0006E20686F6C642069636D70206D65737318
:1032E00061676500417373657274696F6E20222592
:1032F0007322206661696C6564206174206C696E5C
:103300006520256420696E2025730A000A460B217A
:10331000FFF776BF421C12D088B191F82B2092079C
:103320000BD54B68834208D0896800EA01020B4044
:103330009A4202D10143491C01D00020704701206C
:10334000704700002DE9F74F86B004460798002526
:103350001427408CAE1F1438C11700EB5170C0F316
:10336000CF0B60680590017801F00F01052904D0AA
:1033700056A340F2E12264A10BE0C08800F0AAFF4E
:10338000C0F30C01029180040AD550A340F2E6225A
:1033900067A16EA0FEF738FD304609B0BDE8F08F9A
:1033A000208914381FFA80F880E000BFB8EBCB0FFB
:1033B00001D34FEACB0080B20390002214210220F7
:1033C00001F09CFC5FEA000A78D06089142806D2DC
:1033D0003EA34FF4427267A15CA0FEF715FD1422D4
:1033E000DAF804000599FCF773FFDAF8040004909A
:1033F000039E2BE06089C01B85B2AE4200D23546E9
:1034000015B3052001F0DEFA5FEA000953D06068C9
:103410004B463844CDE9000502222946042001F03C
:103420002BFE0090F0B3204602F0EEFA5949C9E9AC
:1034300004145046009901F08FFE701B0604360CF0
:1034400006D000272468D5E724680027002ED1D1B4
:10345000781987B20798418C029814394145C0F316
:103460000C0001DA40F4005000F034FF0499C880E9
:103470000398143080B200F02DFF0499488004981E
:103480000021418107985146089A43699847504660
:1034900002F088F80398A8EB00001FFA80F8029861
:1034A000584401E00DE009E080B20290B8F100005C
:1034B0007FF47CAF71E7504602F074F84FF0FF30B4
:1034C0006BE7484600F008FBF5E700002E2E2F4D75
:1034D0006964646C6577617265732F54686972649E
:1034E0005F50617274792F4C7749502F7372632F3C
:1034F000636F72652F697076342F6970345F6672FE
:1035000061672E63000000006970345F6672616756
:10351000282920646F6573206E6F74207375707036
:103520006F7274204950206F7074696F6E73000061
:1035300069705F6672616728293A204D4620616C88
:10354000726561647920736574000000417373656E
:103550007274696F6E2022257322206661696C6522
:1035600064206174206C696E6520256420696E207A
:1035700025730A0074686973206E65656473206141
:10358000207062756620696E206F6E6520706965B7
:1035900063652100C14010082DE9F05F45680646CB
:1035A0000F4628780421B1EB101F03D0304601F0FC
:1035B000F9FF8DE000F00F004FF6FF7101EA80087F
:1035C000688800F087FE04463089A04203D921466E
:1035D000304602F04DF971894145E7D33089A04268
:1035E000E4D3B8F1140FE1D32969DFF848A1C1F39E
:1035F00003100E28CAF81410EA68CAF8102014D074
:10360000DFF834B14FF001093C4600BF94F82B00BD
:10361000C00712D0616881B1DAF81400884220D066
:103620002146FFF777FEE0B907E097F82B00C007C7
:103630000FD0786868B13C4613E0B9F1000F0AD0AA
:103640009AF814007F2804D04FF00009DBF80040FE
:1036500002E0002405E02468BC4200D12468002C6C
:10366000D4D13946DAF81000FFF754FE00289DD176
:103670009AF81000D146C0F303100E2896D0002C03
:1036800094D0E88830F0C00005D0304600F01CF936
:1036900006001DD07568C9F80850C9E900472978A7
:1036A00030460907890EA9F80C10C8F1000102F094
:1036B00047F8687A012818D0062811D011280AD0B6
:1036C0004F462146D9F81400FFF724FE90B11FE0C1
:1036D0000020BDE8F09F3946304605F057FD1AE05E
:1036E0003946304602F0E0FF15E039463046FFF734
:1036F00095FC10E0387DC0F303100E2808D0414639
:10370000304602F020F8022130467560FFF781FC58
:10371000304601F047FF0021C9F80010C9F8041035
:10372000C9F80810A9F80C10C9F81010C9F814103D
:10373000CEE70000AC02001078000010FEB5DDE915
:103740000954089E1AB109B10F6807B9211D0096E6
:10375000CDE9015400F002F8FEBD00002DE9F84F5C
:103760000546DDE90BA8C089DDF828B01F461646DE
:103770008946012806D02CA340F2333237A13AA063
:10378000FEF742FB002E38D01421284601F0D8FF66
:1037900018B16FF00100BDE8F88F68896C681428D3
:1037A00006D221A34FF4587239A12FA0FEF72CFBAB
:1037B000277284F809A0306820614520207084F8C1
:1037C00001B0288900F086FD3D4F60804FF0000A6F
:1037D000A4F806A0388800F07DFDA0803888401C41
:1037E0003880B9F1000F05D0D9F80000E060A4F8E6
:1037F0000AA006E033480068F8E768686E4600698A
:103800000090B8F8220040B12989814205D932469A
:1038100041462846FFF796FDBDE7D8F814304046EC
:10382000324629469847B6E72E2E2F4D6964646CC0
:103830006577617265732F54686972645F50617255
:1038400074792F4C7749502F7372632F636F7265B1
:103850002F697076342F6970342E6300702D3E729C
:103860006566203D3D203100417373657274696F58
:103870006E2022257322206661696C656420617464
:10388000206C696E6520256420696E2025730A000E
:10389000636865636B207468617420666972737411
:1038A00020706275662063616E20686F6C6420739F
:1038B00074727563742069705F6864720000000040
:1038C000DE000010809410082DE9F05F4568834603
:1038D000287800F00F0005287DD1E88800F0FAFC78
:1038E000C004070C688800F0F5FC297801F00F018E
:1038F000494200EB81001FFA80F8584601F0C4FCF1
:103900005D4C0646208830440A2809D931462846AD
:1039100000F080FB00285ED0208830440A285AD866
:10392000A14664684FF0000A0CE06069E9688842CB
:1039300007D1A0692969884203D1A089A988884252
:1039400003D02468002CF0D106E02CB1E88800F008
:10395000C1FCC0041BD025E0042001F033F80400B2
:103960000AD13146284600F055FBB0427FDB0420E7
:1039700001F028F804007AD02021FCF7C2FC0320D3
:10398000E077D9F804102160C9F8044004E0E08928
:1039900000F0A0FCC00405D01422294604F1080060
:1039A000FCF796FCA87940F340156D1C08D007EB96
:1039B000080080B2B8425AD34FF6EB71884256D80D
:1039C0002A465946204600F0CFF8411C4FD0B9F89E
:1039D0000020324400E04AE0A9F8002035B107EBAE
:1039E0000801A183A17F41F00101A17701283CD109
:1039F000A08B14221430A083606804F1080145688C
:103A000028462E68FCF764FCA08B00F063FC6880FD
:103A1000A5F806A0A5F80AA06FF01308656809E0EC
:103A200041463046776801F08BFE3146284601F06A
:103A300093FB3E68002EF3D1D9F804104E468C4219
:103A400005D1002105E00868A04202D00146002906
:103A5000F9D1204600F0B8F9284601F015FC31886C
:103A6000081A30802846BDE8F09F0020FBE7584642
:103A700001F098FDF9E70000E000001070B5044681
:103A8000134813E090F82B10CA070FD04A070DD542
:103A900043685BB182682568134005EA02069E42CE
:103AA00014D0890702D4C1688D420FD00068002865
:103AB000E8D10848006840B190F82B10CA0704D03C
:103AC000490702D54168002900D1002070BD0000DF
:103AD000780000107C00001010B5040006D106A389
:103AE00040F2AE2213A116A0FEF78EF92146BDE8E2
:103AF0001040052000F0AEBE2E2E2F4D6964646C80
:103B00006577617265732F54686972645F50617282
:103B100074792F4C7749502F7372632F636F7265DE
:103B20002F697076342F6970345F667261672E6317
:103B3000000000007020213D204E554C4C0000003C
:103B4000417373657274696F6E202225732220663B
:103B500061696C6564206174206C696E6520256400
:103B600020696E2025730A002DE9F0474C6806464F
:103B700092460F4600254FF00108608800F0AAFB2E
:103B8000217801F00F01494200EB8109E08800F043
:103B9000A1FBC0047C68010C0020206001EB09003F
:103BA000A18083B2E380726826E05068B0F804C058
:103BB000614515D222606DB1B5F806C061457BD371
:103BC0008088834278D82F60A088844506D04FF043
:103BD000000803E0808883426ED8776072B12DE0E0
:103BE0006AD0C288914267D325B1EA88624501D084
:103BF0004FF0000802680546002AD6D1002D12D0E9
:103C0000E888A188884206D932A340F2AB1240A1CD
:103C100047A0FEF7F9F82F60E888A18888420DD008
:103C20004FF000080AE07068002806D029A340F28F
:103C3000B31249A13EA0FEF7E7F87760BAF1000F92
:103C400002D1B07FC00732D0B8F1000F32D0726815
:103C5000002A2FD05068808800282BD12168204668
:103C600029B14C68C088A1888842F7D022E0B8F119
:103C7000000F1FD032B917A34FF4EA7244A12CA051
:103C8000FEF7C2F870684068A04206D111A340F266
:103C9000D5123FA126A0FEF7B7F8206830B10DA3DA
:103CA00040F2D7123EA122A0FEF7AEF80120BDE8F7
:103CB000F08701E00020FAE7384601F0E5FA014616
:103CC00040480288511A0180384601F06BFC4FF0E1
:103CD000FF30ECE72E2E2F4D6964646C65776172BE
:103CE00065732F54686972645F50617274792F4CE8
:103CF0007749502F7372632F636F72652F697076E7
:103D0000342F6970345F667261672E6300000000B3
:103D1000636865636B20667261676D656E7473209E
:103D2000646F6E2774206F7665726C61700000009E
:103D3000417373657274696F6E2022257322206649
:103D400061696C6564206174206C696E652025640E
:103D500020696E2025730A006E6F20707265766987
:103D60006F757320667261676D656E742C20746860
:103D70006973206D757374206265207468652066B0
:103D80006972737420667261676D656E74210000DC
:103D900073616E69747920636865636B000000006D
:103DA00076616C69646174655F6461746167726196
:103DB0006D3A6E6578745F70627566213D4E554C44
:103DC0004C000000E000001070B504460C480D46A1
:103DD0004168A14202D1216841600AE0002D06D16C
:103DE00008A340F2451216A11CA0FEF70DF82068AA
:103DF00028602146BDE87040042000F02BBD000083
:103E0000E00000102E2E2F4D6964646C657761729E
:103E100065732F54686972645F50617274792F4CB6
:103E20007749502F7372632F636F72652F697076B5
:103E3000342F6970345F667261672E630000000082
:103E400073616E69747920636865636B206C696E59
:103E50006B6564206C6973740000000041737365C6
:103E60007274696F6E2022257322206661696C6509
:103E700064206174206C696E6520256420696E2061
:103E800025730A002DE9F047054600240F46A94294
:103E900005D12FA3AB223DA13FA0FDF7B5FF002F19
:103EA00008D03868A84205D029A3AD2244A13AA081
:103EB000FDF7AAFF6E684FF480387068818800298A
:103EC0001AD100686860142205F108017068FCF7D7
:103ED000FFF901213046FFF719FA304601F0D4F915
:103EE0000446404505D31AA3BC223AA12AA0FDF7F7
:103EF0008BFF304601F056FB6E6812E07068B146E9
:103F00000668484601F0C0F90444444505D310A3AF
:103F1000CC2230A120A0FDF777FFA4B2484601F0E3
:103F200041FB002EEAD139462846FFF74DFF314DBF
:103F30002888A04205D206A3D2222FA116A0FDF701
:103F400063FF2888001B28802046BDE8F08700001A
:103F50002E2E2F4D6964646C6577617265732F54E2
:103F6000686972645F50617274792F4C7749502F81
:103F70007372632F636F72652F697076342F697067
:103F8000345F667261672E630000000070726576B0
:103F900020213D2069707200417373657274696FEE
:103FA0006E2022257322206661696C65642061742D
:103FB000206C696E6520256420696E2025730A00D7
:103FC000707265762D3E6E657874203D3D20697077
:103FD0007200000070627566735F667265656420CA
:103FE0002B20636C656E203C3D20307866666666EB
:103FF00000000000E000001069705F72656173737B
:104000005F70627566636F756E74203E3D20636CF1
:10401000656E00002DE9F0471D4F894606460024D5
:104020000022134611461546786822E0D0F814C0E5
:10403000D6F80C80C4450BD1D0F818C0D6F8108043
:10404000C44505D1B0F80CC0B6F80480C44509D009
:104050006D1C2AB190F81FC092F81F80C44501D88A
:1040600002461946D0F800C0BCF1000F00D003464C
:1040700060460028DAD11AB11046FFF703FF044466
:104080004C4501DA012DCBDC2046BDE8F08700006D
:10409000E000001070B50948002544680BE0E07F9F
:1040A00020B1401EE0772546246804E020462468BD
:1040B0002946FFF7E7FE002CF1D170BDE0000010AB
:1040C00010B5040006D108A34FF42E7215A118A054
:1040D000FDF79AFE606908B101F064FA2046BDE878
:1040E0001040FFF7F9BC00002E2E2F4D6964646C60
:1040F0006577617265732F54686972645F5061728D
:1041000074792F4C7749502F7372632F636F7265E8
:104110002F697076342F6970345F667261672E6321
:104120000000000070637220213D204E554C4C0071
:10413000417373657274696F6E2022257322206645
:1041400061696C6564206174206C696E652025640A
:1041500020696E2025730A002DE9FC413C4C054680
:104160003A48002620608DF8006080208DF801001C
:10417000E1208DF802008DF804608DF803608DF861
:104180000560C4F804D0012020723248E060324853
:1041900020614FF4BF60606137462046FCF77AFE2D
:1041A0008046342104F17000FCF7ABF804F1700094
:1041B000212101604FF44031C0E90471274800F02B
:1041C000EBFB062085F824006068007885F8250060
:1041D0006068407885F826006068807885F8270058
:1041E0006068C07885F828006068007985F8290043
:1041F00060681B4C407985F82A0040F2DC506884E6
:1042000095F82B0040F00A0085F82B0006EB4600DD
:1042100004EB4022002331460D48FCF730FC761CAD
:10422000042EF3D30A480F49A430FDF748FD08488F
:10423000A430FDF7DEFCB8F1000F03D0FCF7E2FB81
:10424000BDE8FC812846FEF797FDF9E700800240B3
:104250001C01001060000430000004305C93100862
:104260000002043018000010F0B500258DB00C4697
:104270002E462F4630216846FCF743F86846002258
:1042800018E0042D03D36FF00B000DB0F0BD05EB6B
:104290004501636840F8213000EB810163894B6080
:1042A00063891E440DB141F8041C236803B98A6078
:1042B00024686D1C002CE4D104491422C1E901607A
:1042C000A1F17000FDF7A7F83846DEE78C01001079
:1042D00000BA704740BA704710B500F0E3F800F03C
:1042E0004BFB00F077FC04F04FFF02F0DBF9BDE878
:1042F000104001F05BBD0000204C08B5206840F084
:1043000000702060206800F0007000900120FDF730
:1043100049FAFDF70BFB012202210020FDF70EFBFD
:1043200017480068C0F30310072824D01548016817
:1043300041F001010160FDF745FA206840F04000BE
:104340002060206800F040000090206840F00400E9
:104350002060206800F004000090206840F0010018
:104360002060206800F001000090FDF7BFFC00BF56
:10437000FDF724FDFCE703481038D8E7E044025875
:1043800000ED00E01465025870B5040032D0A007BB
:1043900006D019A34FF4D67223A12CA0FDF734FD4B
:1043A000344D2868844202D36868844206D312A33D
:1043B0004FF4D77230A125A0FDF726FD286884426E
:1043C00018D36868844215D214F8040C083C30B93C
:1043D00009A34FF4E0722EA11CA0FDF715FD0020EB
:1043E0002071A868844200D2AC602046BDE87040CD
:1043F00001F050BB70BD00002E2E2F4D6964646C1F
:104400006577617265732F54686972645F50617279
:1044100074792F4C7749502F7372632F636F7265D5
:104420002F6D656D2E6300006D656D5F667265654D
:104430003A2073616E69747920636865636B2061EB
:104440006C69676E6D656E74000000004173736582
:104450007274696F6E2022257322206661696C6513
:1044600064206174206C696E6520256420696E206B
:1044700025730A00440000106D656D5F6672656506
:104480003A206C6567616C206D656D6F7279000014
:104490006D656D5F667265653A206D656D2D3E7563
:1044A00073656400094A10B507484FF4C86310608B
:1044B00003800021418001710549012451600C7184
:1044C0000B804B80906010BD004004304400001011
:1044D000404604302DE9F047002874D04FF6FC71B7
:1044E000C01C00EA01044FF4C8690C2C01D20C2452
:1044F00001E04C456CD8374EC4F5C8633268B068EB
:10450000811A89B262E055182F79002F5DD12F886A
:104510007F1A083FA74258D32B8804F114075B1A6F
:10452000083B4FF0010CBB4215D30B1908339FB267
:10453000D3194FF0000883F80480B5F80080A3F881
:10454000008059802F8085F804C01988494504D01F
:10455000931CCF5201E085F804C0854213D17168E5
:1045600001E00088104403790BB18842F9D1B060B2
:10457000884208D0007930B117A340F2CF2222A19F
:1045800028A0FDF741FC281971680830884206D937
:1045900011A340F2D3222DA122A0FDF735FCA807DC
:1045A0000FD00DA340F2D52234A11EA0FDF72CFCA4
:1045B00009A340F2D72200E005E03CA119A0FDF7D5
:1045C00023FC05F10800BDE8F087515A8B429AD8C8
:1045D0000020F8E7440000102E2E2F4D6964646C13
:1045E0006577617265732F54686972645F50617298
:1045F00074792F4C7749502F7372632F636F7265F4
:104600002F6D656D2E6300006D656D5F6D616C6C67
:104610006F633A20216C667265652D3E7573656423
:1046200000000000417373657274696F6E2022256B
:104630007322206661696C6564206174206C696E08
:104640006520256420696E2025730A006D656D5F05
:104650006D616C6C6F633A20616C6C6F6361746543
:1046600064206D656D6F7279206E6F742061626F6A
:1046700076652072616D5F656E642E006D656D5F9D
:104680006D616C6C6F633A20616C6C6F6361746513
:1046900064206D656D6F72792070726F7065726CD9
:1046A0007920616C69676E65642E00006D656D5FD1
:1046B0006D616C6C6F633A2073616E69747920630D
:1046C0006865636B20616C69676E6D656E74000070
:1046D0002DE9F04705464FF6FC70C91C01EA0004BD
:1046E0004FF4C86A0C2C01D20C2401E0544528D8A0
:1046F000334F3868854202D37868854206D331A3A8
:1047000040F2F3123BA141A0FDF77EFB38688542E1
:104710003ED379688D423BD2A5F10806B846301ADF
:1047200087B23088C01B08381FFA80F94C4506D97B
:1047300024A340F206223FA134A0FDF765FB4C45BF
:1047400003D94FF00000BDE8F08721D03288D8F8B7
:104750000010404602EB01084FF0000398F80420D7
:10476000C2B104F114024A4512D83A19083294B27F
:10477000D0F808C00A19624500D2826013713088EF
:104780001080578034801088504501D0891C4452D5
:104790002846D8E73A1908328468B8F800C092B2BF
:1047A000444501D18C18846088180371A0F800C0BA
:1047B0004780328000885045EAD0891C4252E7E7A2
:1047C000440000102E2E2F4D6964646C6577617271
:1047D00065732F54686972645F50617274792F4CED
:1047E0007749502F7372632F636F72652F6D656DFC
:1047F0002E6300006D656D5F7472696D3A206C65A3
:1048000067616C206D656D6F72790000417373652F
:104810007274696F6E2022257322206661696C654F
:1048200064206174206C696E6520256420696E20A7
:1048300025730A006D656D5F7472696D2063616E2A
:10484000206F6E6C7920736872696E6B206D656D78
:104850006F727900092806D307A340F2DB1212A178
:1048600018A0FDF7D1BA002904D0204A52F8200040
:10487000FDF7E4BB704700002E2E2F4D6964646C79
:104880006577617265732F54686972645F506172F5
:1048900074792F4C7749502F7372632F636F726551
:1048A0002F6D656D702E63006D656D705F6672654E
:1048B000653A2074797065203C204D454D505F4D20
:1048C00041580000417373657274696F6E20222530
:1048D0007322206661696C6564206174206C696E66
:1048E0006520256420696E2025730A00F093100866
:1048F00018B1002908D0FDF7A1BB04A34FF4E3725F
:104900000EA113A0FDF780BA704700002E2E2F4D88
:104910006964646C6577617265732F546869726449
:104920005F50617274792F4C7749502F7372632FE7
:10493000636F72652F6D656D702E6300696E7661B1
:104940006C696420706F6F6C206465736300000095
:10495000417373657274696F6E202225732220661D
:1049600061696C6564206174206C696E65202564E2
:1049700020696E2025730A0030B5064D002400BF63
:1049800055F8240000F008F8641CA4B2092CF7D3F1
:1049900030BD0000F093100882680021116041686A
:1049A000C91C21F00301002207E08368521C1B6828
:1049B0000B60836819600388194443889342F4DCD0
:1049C0007047000010B5092808D308A340F28712E9
:1049D00012A11AA0FDF718FA002010BD214951F8C4
:1049E0002000BDE81040FDF777BB00002E2E2F4DB4
:1049F0006964646C6577617265732F546869726469
:104A00005F50617274792F4C7749502F7372632F06
:104A1000636F72652F6D656D702E63006D656D70CF
:104A20005F6D616C6C6F633A2074797065203C2017
:104A30004D454D505F4D4158000000004173736576
:104A40007274696F6E2022257322206661696C651D
:104A500064206174206C696E6520256420696E2075
:104A600025730A00F093100810B518B1BDE8104086
:104A7000FDF732BB04A34FF4B6720FA113A0FDF7EC
:104A8000C3F9002010BD00002E2E2F4D6964646C08
:104A90006577617265732F54686972645F506172E3
:104AA00074792F4C7749502F7372632F636F72653F
:104AB0002F6D656D702E6300696E76616C69642080
:104AC000706F6F6C206465736300000041737365E1
:104AD0007274696F6E2022257322206661696C658D
:104AE00064206174206C696E6520256420696E20E5
:104AF00025730A002DE9F047044608A8984690E877
:104B0000E00091468A46002E05D114A3FB2220A185
:104B100025A0FDF779F900206060A060E06084F8CE
:104B20002B00032084F82000E561294D43464A46C6
:104B3000287884F82E00401C2870514620462761B2
:104B400000F056F82046B04710B10020BDE8F087CD
:104B50006868206020466C60F8E700002E2E2F4D1C
:104B60006964646C6577617265732F5468697264F7
:104B70005F50617274792F4C7749502F7372632F95
:104B8000636F72652F6E657469662E6300000000A6
:104B90004E6F20696E69742066756E6374696F6EFE
:104BA00020676976656E0000417373657274696F82
:104BB0006E2022257322206661696C656420617411
:104BC000206C696E6520256420696E2025730A00BB
:104BD000740000107047C90709D04168002906D049
:104BE00090F82B10090702D5011DFDF7A1BF7047F2
:104BF0002DE9F0411E46054617460C000FD02068EF
:104C000068B11146284600F066F83146284600F0A3
:104C100026F821462846BDE8F04100F025B8284690
:104C200000F022F83946284600F055F8314628466B
:104C3000BDE8F04100F013B80149886070470000FA
:104C40007400001090F82B10CA0707D021F0010162
:104C500080F82B10090701D5FDF790BA704701B114
:104C60000968C1607047000038B50C00054601D0E6
:104C7000206801E00B4800680090696888420ED007
:104C80006946281D02F080F96946281D04F04CFB96
:104C900034B12068686001212846FFF79CFF38BDC9
:104CA0000020F7E78094100890F82B104A0703D5EE
:104CB00021F0040180F82B10704790F82B104A0760
:104CC00008D441F0040180F82B10C90702D0032159
:104CD000FFF781BF704701B109688160704790F8A4
:104CE0002B10CA0708D141F0010180F82B104907A9
:104CF00002D50321FFF76FBF704700002DE9F84F81
:104D000016460F4605281FD2DFE800F00305070905
:104D10000900362504E0222502E00E2500E00025EA
:104D20004FF001094FF00008002E7DD0012E7CD0FD
:104D3000022EFCD0032E0CD068A34FF4C67273A1D0
:104D400079A0FDF761F8C7E064A34FF48B7280A1EE
:104D5000F6E70820FFF736FEDFF810B2040038D07F
:104D600060191330267320F00300C4E90080800727
:104D700006D05AA34FF494727DA16BA0FDF744F8BE
:104D8000ED1C25F00300C0F514702781B84200D94E
:104D9000384660816168014404F5187000908142D2
:104DA00006D94EA34FF497727DA15FA0FDF72CF8B2
:104DB0009420B0EB950F06D148A340F2311285A1A3
:104DC00059A0FDF721F8A4F80E906189A2467F1A38
:104DD00042E08BF800907FE00820FFF7F3FD05002C
:104DE0003DD02E7385F80D80C5F800804FF6FF701A
:104DF000CAF80050874206DB38A34FF4A67282A19E
:104E000049A0FDF701F8B8B24FF414712881884227
:104E100000D30846688105F110006860800709D05A
:104E20002EA340F2511201E01FE042E07BA13EA020
:104E3000FCF7EAFF6189606801440098814206D965
:104E400026A340F2531256A137A0FCF7DDFFA5F8C8
:104E50000E906889AA463F1A002FBDDC35E08BF81A
:104E60000090204600F09EFB36E005F1130020F094
:104E70000302F81C20F00301501880B281422BD8A5
:104E8000FFF728FB040027D06019133020F003013E
:104E9000616027816781C4F8008084F80C808807EE
:104EA00013D00EA34FF4BB7268A11FA0FCF7ACFF98
:104EB0000BE00720FFF786FD04000DD0C4F8048046
:104EC00027816781C4F800802673A4F80E9084F8C7
:104ED0000D802046BDE8F88F0020FBE72E2E2F4DD9
:104EE0006964646C6577617265732F546869726474
:104EF0005F50617274792F4C7749502F7372632F12
:104F0000636F72652F706275662E630070627566DE
:104F10005F616C6C6F633A206572726F6E656F755E
:104F20007320747970650000417373657274696FE2
:104F30006E2022257322206661696C65642061748D
:104F4000206C696E6520256420696E2025730A0037
:104F5000706275665F616C6C6F633A206261642099
:104F600070627566206C61796572000080000010C7
:104F7000706275665F616C6C6F633A207062756613
:104F800020702D3E7061796C6F61642070726F705B
:104F900065726C7920616C69676E65640000000061
:104FA000636865636B20702D3E7061796C6F61641E
:104FB000202B20702D3E6C656E20646F6573206E13
:104FC0006F74206F766572666C6F7720706275669D
:104FD00000000000504255465F504F4F4C5F425515
:104FE0004653495A45206D75737420626520626985
:104FF00067676572207468616E204D454D5F414C56
:1050000049474E4D454E540072656D5F6C656E208C
:105010003C206D61785F7531365F74007062756633
:105020005F616C6C6F633A207062756620712D3E13
:105030007061796C6F61642070726F7065726C79E9
:1050400020616C69676E65640000000070627566BF
:105050005F616C6C6F633A20706275662D3E7061A3
:10506000796C6F61642070726F7065726C79206109
:105070006C69676E6564000070B5DDE9044505285C
:1050800013D2DFE800F0030507090900362004E029
:10509000222002E00E2000E00020C01C20F00300CF
:1050A0004618AE4209D9002070BD0CA340F2C512CB
:1050B00016A11FA0FCF7A8FEF5E700251D6014B19E
:1050C0002044586000E05D600220587319815981C6
:1050D0001A730120D881184670BD00002E2E2F4D66
:1050E0006964646C6577617265732F546869726472
:1050F0005F50617274792F4C7749502F7372632F10
:10510000636F72652F706275662E630070627566DC
:105110005F616C6C6F6365645F637573746F6D3A28
:10512000206261642070627566206C61796572002E
:10513000417373657274696F6E2022257322206635
:1051400061696C6564206174206C696E65202564FA
:1051500020696E2025730A0070B50D4608B1002D38
:1051600008D1BDE8704014A34FF453721EA12CA0C7
:10517000FCF74ABE0446006820B121892A891144FF
:105180002181F7E72089618988420FD00AA340F284
:1051900055322DA122A0FCF737FE206830B106A3BE
:1051A00040F2563234A11EA0FCF72EFE2089298938
:1051B00008442081256070BD2E2E2F4D6964646CDB
:1051C0006577617265732F54686972645F506172AC
:1051D00074792F4C7749502F7372632F636F726508
:1051E0002F706275662E6300286820213D204E5581
:1051F0004C4C2920262620287420213D204E554C39
:105200004C29202870726F6772616D6D657220760F
:10521000696F6C617465732041504929000000007A
:10522000417373657274696F6E2022257322206644
:1052300061696C6564206174206C696E6520256409
:1052400020696E2025730A00702D3E746F745F6CA8
:10525000656E203D3D20702D3E6C656E20286F668A
:10526000206C617374207062756620696E206368BB
:1052700061696E2900000000702D3E6E6578742013
:105280003D3D204E554C4C00002102E0491C006879
:1052900089B20028FAD10846704700002DE9F0478E
:1052A0004FF000070C4605003E466FF00F0904D092
:1052B0001CB128892189884204D235A34FF46F722A
:1052C0003FA14AE06FF0050A6889C11B6089801B15
:1052D000814201DB80B200E088B2804660684246CD
:1052E000811968683844FAF7F3FF07EB080087B2C2
:1052F00006EB080086B26889B84206D224A340F2C1
:10530000CD323BA140A0FCF77FFD6089B04206D2C0
:105310001FA340F2CE3246A13BA0FCF775FD608989
:10532000B04201D8246800266889B84202D12D68AD
:10533000002765B1002C16D060892189884212D1DE
:10534000206800280FD012A340F2DD3215E0002CB7
:105350001BD00FA34FF476723CA12BA0FCF754FD99
:105360004846BDE8F08775B16889298988420AD125
:10537000286840B106A340F2E23238A122A0FCF72F
:1053800043FD5046EDE7002C9ED10020E9E70000E8
:105390002E2E2F4D6964646C6577617265732F548E
:1053A000686972645F50617274792F4C7749502F2D
:1053B0007372632F636F72652F706275662E630060
:1053C000706275665F636F70793A207461726765A9
:1053D00074206E6F742062696720656E6F756768F0
:1053E00020746F20686F6C6420736F757263650042
:1053F0006F66667365745F746F203C3D20705F74E8
:105400006F2D3E6C656E0000417373657274696F39
:105410006E2022257322206661696C6564206174A8
:10542000206C696E6520256420696E2025730A0052
:105430006F66667365745F66726F6D203C3D2070A9
:105440005F66726F6D2D3E6C656E0000705F746FED
:1054500020213D204E554C4C0000000070627566C6
:105460005F636F7079282920646F6573206E6F7495
:1054700020616C6C6F77207061636B65742071754F
:1054800065756573210000002DE9F04716468946D1
:105490004FF0000828B1B9F1000F07D000270446EB
:1054A0002CE019A340F2FE3223A103E016A340F240
:1054B000FF3229A131A0FCF7A7FC0020BDE8F0874E
:1054C0002BB16089984202D8181A83B215E060891E
:1054D000C01A85B2B54200D9354660682A46C1185F
:1054E00009EB0700FAF7F4FE08EB05001FFA80F855
:1054F000781987B2701B86B2002324680EB1002C85
:10550000DED14046DAE700002E2E2F4D6964646C30
:105510006577617265732F54686972645F50617258
:1055200074792F4C7749502F7372632F636F7265B4
:105530002F706275662E6300706275665F636F70B0
:10554000795F7061727469616C3A20696E76616C22
:105550006964206275660000706275665F636F70D3
:10556000795F7061727469616C3A20696E76616C02
:1055700069642064617461707472000041737365C2
:105580007274696F6E2022257322206661696C65D2
:1055900064206174206C696E6520256420696E202A
:1055A00025730A0070B5040013D0207B00280CD0AE
:1055B00001280AD0022808D0032806D024A34FF4DB
:1055C00037722FA134A0FCF71FFC0025E08948B1F9
:1055D0000FE01FA340F2D22239A12FA0FCF714FC48
:1055E000002070BD1AA340F2EB2238A12AA0FCF7DC
:1055F0000BFCE089401E0004000CE0811ED1617BA1
:10560000207B266889070CD5206930B910A340F2A9
:10561000F92234A120A0FCF7F7FB21692046884736
:1056200008E003280CD001280DD002280BD020461A
:10563000FEF7AAFE6D1CEDB23400C7D1284670BD3E
:105640002146082001E021460720FFF703F9F1E792
:105650002E2E2F4D6964646C6577617265732F54CB
:10566000686972645F50617274792F4C7749502F6A
:105670007372632F636F72652F706275662E63009D
:10568000706275665F667265653A2073616E65204B
:105690007479706500000000417373657274696FFE
:1056A0006E2022257322206661696C656420617416
:1056B000206C696E6520256420696E2025730A00C0
:1056C0007020213D204E554C4C00000070627566E4
:1056D0005F667265653A20702D3E726566203E20D9
:1056E0003000000070632D3E637573746F6D5F66EC
:1056F0007265655F66756E6374696F6E20213D200B
:105700004E554C4C0000000001460148FFF7F0B830
:105710005C93100870B508480025057007480468B8
:1057200006E0206F18B103F023F9256770BDE46827
:10573000002CF6D170BD0000800000109C0000100D
:10574000002200F003B80122AFF3008070B51646C6
:105750000D46040006D121A340F23F222BA12EA02A
:10576000FCF752FB65B15CB1002D0BDA684282B2E6
:105770006089904207D219A340F2472230A10FE07E
:10578000002070BDAAB2217B606869B103290BD0EB
:10579000022911D001290FD010A340F2772230A1A5
:1057A0001DA0FCF731FB17E0411B04F11002616002
:1057B000914208D260600FE0002D0BDA61899142BE
:1057C0000AD3401B60606089284460812089284496
:1057D0002081D5E7002EF4D1012070BD2E2E2F4D53
:1057E0006964646C6577617265732F54686972646B
:1057F0005F50617274792F4C7749502F7372632F09
:10580000636F72652F706275662E63007020213D94
:10581000204E554C4C000000417373657274696FE3
:105820006E2022257322206661696C656420617494
:10583000206C696E6520256420696E2025730A003E
:10584000696E6372656D656E745F6D61676E6974B4
:10585000756465203C3D20702D3E6C656E00000037
:105860006261642070627566207479706500000062
:105870002DE9F0470D46040006D12EA340F2F312A5
:1058800038A13EA0FCF7C0FA207B03280CD00128E9
:105890000AD0002808D0022806D026A34FF4FA72B6
:1058A00040A136A0FCF7B0FA2089A84240D92E1AB0
:1058B0004FF6FF7740F20B2840F20F2914E0281A28
:1058C00085B2BE4205DB1BA342463DA12BA0FCF7DF
:1058D0009BFA20893044208124682CB915A34A46BC
:1058E0003CA126A0FCF790FA6089A842E7D3207B70
:1058F000002815D16089A84212D0607B80070FD4A0
:10590000A088001B284481B22046FEF7E1FE040077
:1059100006D108A340F21D2234A118A0FCF774FAA6
:1059200065812581206808B1FFF73CFE00202060DA
:10593000BDE8F0872E2E2F4D6964646C6577617227
:1059400065732F54686972645F50617274792F4C6B
:105950007749502F7372632F636F72652F70627572
:10596000662E6300706275665F7265616C6C6F6352
:105970003A207020213D204E554C4C0041737365F8
:105980007274696F6E2022257322206661696C65CE
:1059900064206174206C696E6520256420696E2026
:1059A00025730A00706275665F7265616C6C6F6367
:1059B0003A2073616E6520702D3E74797065000029
:1059C00067726F77203C206D61785F7531365F7448
:1059D00000000000706275665F7265616C6C6F63D9
:1059E0003A207120213D204E554C4C006D656D5F75
:1059F0007472696D2072657475726E6564207120B1
:105A00003D3D204E554C4C0000280CD0C189491C0E
:105A10000904090CC18106D103A340F239320EA159
:105A200012A0FCF7F1B970472E2E2F4D6964646CFB
:105A30006577617265732F54686972645F50617233
:105A400074792F4C7749502F7372632F636F72658F
:105A50002F706275662E63007062756620726566CF
:105A6000206F766572666C6F770000004173736516
:105A70007274696F6E2022257322206661696C65DD
:105A800064206174206C696E6520256420696E2035
:105A900025730A0070B5284D04462868844206D252
:105AA00026A340F25D1231A136A0FCF7ADF968687B
:105AB000844206D321A34FF4AF723CA131A0FCF77E
:105AC000A3F9207930B11DA340F25F123EA12DA0B1
:105AD000FCF79AF92088B0F5C86F06D917A34FF4E0
