:020000040800F2
:100000008005002001010008A31400085514000811
:10001000A11400086D01000841190008000000004B
:100020000000000000000000000000009B15000818
:100030008901000800000000C51400089D15000893
:100040001B0100081B0100081B0100081B01000820
:100050001B0100081B0100081B0100081B01000810
:100060001B0100081B0100088B0100081B01000890
:100070001B0100081B0100081B0100081B010008F0
:10008000710100087D0100081B0100081B01000828
:100090001B0100081B0100081B0100081B010008D0
:1000A0001B0100081B0100081B0100081B010008C0
:1000B0001B0100081B0100081B0100081B010008B0
:1000C0001B0100081B0100081B010008C9140008DF
:1000D0001B0100081B010008351900081B0100085E
:1000E0001B0100081B0100081B010008DFF80CD0F1
:1000F00000F02AF800480047711A00088005002027
:100100000648804706480047FEE7FEE7FEE7FEE7B1
:10011000FEE7FEE7FEE7FEE7FEE7FEE7F115000873
:10012000ED000008D2B201E000F8012B491EFBD21D
:1001300070470022F6E710B513460A4604461946F2
:10014000FFF7F0FF204610BD064C074D06E0E068C3
:1001500040F0010394E8070098471034AC42F6D30E
:10016000FFF7C8FF8C1B0008AC1B0008FEE700006F
:10017000014800F05BB80000F4000020014800F0E6
:1001800055B80000380100207047102000F03AB93F
:100190007047000010B590F821100024022903D008
:1001A0000421816301243DE001680A6822F00E0207
:1001B0000A6001680A6822F001020A601A4A0168AE
:1001C000914201D1012121E0174A1432914201D11B
:1001D00010211BE0144A2832914201D1891515E003
:1001E000114A3C32914201D189140FE00E4A50323B
:1001F000914202D14FF4803108E00B4A64329142BF
:1002000002D14FF4801101E04FF08071064A083AA4
:100210005160012180F82110002180F82010416BED
:1002200001B18847204610BD080002402DE9F05F6B
:10023000C16B0C6801680B68D0F840C0042202FA58
:100240000CF2494DDFF824A1494E4A4FDFF828B19E
:10025000DFF828E122422CD05A072AD50A689206F4
:1002600003D40A6822F004020A600168A94201D19D
:10027000042219E0514501D1402215E0B14202D1DA
:100280004FF4806210E0B94202D14FF480420BE09B
:10029000594502D14FF4802206E0714502D14FF456
:1002A000800201E04FF080622F4908394A60C16A3C
:1002B0003BE04FF0020808FA0CF818EA040F4FF080
:1002C00000094FF0010235D05FEA837832D50B6820
:1002D0009B0605D40B6823F00A030B6080F82120ED
:1002E0000168A94201D1022219E0514501D1202221
:1002F00015E0B14202D14FF4007210E0B94202D1D0
:100300004FF400520BE0594502D14FF4003206E0A1
:10031000714502D14FF4001201E04FF00072124912
:1003200008394A6080F82090816A00291AD0BDE817
:10033000F05F0847082505FA0CF5254212D01B0787
:1003400010D50B6823F00E030B6090F84010C36BC0
:1003500002FA01F15960826380F8212080F8209030
:10036000016BE2E7BDE8F09F080002401C0002407C
:100370003000024044000240580002406C0002403D
:1003800030B528B308C8134914221944B1FBF2F15F
:100390008900C16310498163022141771A6843F6DD
:1003A000F0718A43D0E900142143D0E902452C437F
:1003B0002143046921434469214384692143114352
:1003C000196000214163012242770177084630BD60
:1003D000012030BDF8FFFDBF0000024070B50446AB
:1003E00000F0FAF80546601C02D004480078044486
:1003F00000F0F2F8401BA042FAD370BD24000020A8
:1004000070470000044910B50A68024202D0086033
:10041000FFF7F6FF10BD0000140401402DE9F84F6E
:10042000DFF890A100220AF1040B144601274FF0D7
:100430000F090BF1040E00BF0B6807FA04F52B40FF
:10044000AB4274D1DFF870C14E68A6EB0C0866456C
:100450002BD00DDC032E34D005DC36B3012E19D0A1
:10046000022E2FD11BE0112E16D0122E2AD119E008
:10047000B8F5881F19D006DCB8F5803F15D0B8F55F
:10048000801F1FD111E0B8F5001F0ED0B8F5041F72
:1004900018D10AE0CA6815E0CA68121D12E0CA68DD
:1004A00008320FE0CA680C320CE08A682AB1012ACF
:1004B0004FF0080203D0456104E0042202E0056128
:1004C00000E00022FF2B01D8064601E000F10406FF
:1004D0004FEA840501D9A5F12005D6F800C009FA34
:1004E00005F82CEA080C02FA05F54CEA050CC6F8EA
:1004F00000C04D68ED0057D5304DAE6946F001069D
:10050000AE61AD6924F0030605F0010500952C4DA0
:1005100006EB050CDCF80850A6074FEA167809FA36
:1005200008F6B543274EB04202D1002610E03BE06A
:10053000254EB04201D101260AE0244EB04201D13D
:10054000022605E0224EB04201D1032600E0042637
:1005500006FA08F62E43CCF808604D68DAF8006019
:10056000ED03554601D51E4300E09E432E604D68C5
:10057000DBF80060AD035D4601D51E4300E09E43FD
:100580002E604D68DEF80060ED02754601D51E4311
:1005900000E09E432E604D68AD020E4D2E6801D5E1
:1005A0001E4300E09E432E60641C102CFFF444AFF9
:1005B000BDE8F88F00040140000011100010024057
:1005C0000000014000080140000C01400010014003
:1005D000001401400C04014001488068704700008D
:1005E000240000200248816802781144816070472D
:1005F00024000020074810B5016841F01001016097
:10060000032000F073F8002000F006F800F024F852
:10061000002010BD0020024070B50D4D04464FF47F
:100620007A712878B1FBF0F00A490968B1FBF0F063
:1006300000F074FD48B9102C07D200222146501E4C
:1006400000F034F800206C6070BD012070BD000027
:1006500024000020300000200C4808B5816941F0DA
:1006600001018161816901F001010091C16941F0DD
:100670008051C161C06900F0805000900448416819
:1006800021F0E06141F00071416008BD00100240BE
:100690000000014000F01F0201219140400980004C
:1006A00000F1E020C0F8001170470000F0B40E4BDC
:1006B0001B680C46C3F30223C3F10705042D00D9C0
:1006C0000425191D072901D2002300E0DB1E0126A5
:1006D00006FA05F1491E214099409E40761E1640BB
:1006E0003143F0BC00F0DEBE0CED00E0064900F046
:1006F000070208684FF6FF03184040EA0220034A49
:1007000010430860704700000CED00E00000FA059F
:100710002DE9F047DFF8548105460E46D8F8000071
:1007200000F00700B0420CD2D8F8001021F0070109
:100730003143C8F80010D8F8000000F00700B042BC
:100740006FD128684A4C810712D5400703D56068ED
:1007500040F4E06060602878000703D5606840F4EA
:10076000605060606068A96820F0F0000843606035
:100770002878C00744D06868012816D0216802286C
:1007800016D0890700294CDA616821F00301014382
:100790006160FFF721FF6968074641F2883001294F
:1007A0000ED00229814618D026E021688903E9E7A6
:1007B0008901E7E7FFF710FFC11B494501D918E0A0
:1007C00081466068C0F381000128F3D118E000BFC2
:1007D000FFF702FFC11B49450BD86068C0F38100D9
:1007E0000228F5D10CE000BFFFF7F6FEC11B49451A
:1007F00002D90320BDE8F087606810F00C0FF3D138
:10080000D8F80010404601F00701B1420BD9016849
:1008100021F0070131430160006800F00700B04299
:1008200001D00120E6E72878400705D56068E9682F
:1008300020F4E060084360602878000706D560680F
:10084000296920F4605040EAC100606000F036F889
:100850006168084AC1F30311515CC8400649086049
:100860000020FFF7D9FE0020C4E70000002002406E
:1008700000100240741B00083000002004480549A5
:1008800000684968044AC1F30221515CC8407047BE
:100890003000002000100240841B00080448054975
:1008A00000684968044AC1F3C221515CC8407047DE
:1008B0003000002000100240841B000812A185B007
:1008C0000FC98DE80F0014A0144A00680490516805
:1008D000134801F00C03042B10D0082B0ED1C1F3E8
:1008E0008343C9031DF803000AD5516804AAC1F364
:1008F0004041515C0A4A5043B0FBF1F005B07047EB
:1009000008494843FAE700000203040506070809FE
:100910000A0B0C0D0E0F1010010200000010024017
:1009200000127A0000093D002DE9F84F04460078D6
:10093000B94DC00748D06868C0F38100012807D0CE
:100940006868C0F38100022809D16868C00306D531
:100950002868800338D5606800286FD034E060686C
:10096000B0F5803F0BD010B1B0F5A02F11D02868A2
:1009700020F480302860286820F4802002E0286875
:1009800040F480302860606888B1FFF725FE064695
:1009900009E0286840F480202860F0E7FFF71CFE9B
:1009A000801B642875D828688003F7D50CE0FFF712
:1009B00013FE064605E000BFFFF70EFE801B64280D
:1009C000F0D828688003F7D42078944E80074FF041
:1009D00001094FF000083BD5686810F00C0F07D0F4
:1009E0006868C0F38100022809D16868C00306D492
:1009F0002868800714D5206901281FD110E02069DC
:100A0000B0B1C6F80090FFF7E7FD074605E000BF6C
:100A1000FFF7E2FDC01B0228C4D828688007F7D57D
:100A20002868616920F0F80040EAC10028600FE002
:100A3000C6F80080FFF7D0FD074606E0E9E000BFFA
:100A4000FFF7CAFDC01B022823D828688007F7D407
:100A5000207800072CD57248A169D9B1C0F8009060
:100A6000FFF7BAFD074604E0FFF7B6FDC01B0228FA
:100A70000FD8686A8007F7D56A484FF4FA510068C2
:100A8000B0FBF1F0009000BF0098411E0091FAD237
:100A90000EE080E0C0F80080FFF79EFD074604E00E
:100AA000FFF79AFDC01B022875D8686A8007F7D443
:100AB0002078400760D5E8690027C00008D4E869BD
:100AC00040F08050E861E869012700F08050009014
:100AD00055480168C90513D40168834641F4807103
:100AE0000160FFF779FD824606E000BFFFF774FD65
:100AF000A0EB0A0064284ED8DBF80000C005F5D54D
:100B0000E06801280AD008B1052813D0286A20F02F
:100B100001002862286A20F0040002E0286A40F000
:100B200001002862E06841F2883B98B1FFF754FD6C
:100B300082460BE0286A40F004002862EEE700BF1E
:100B4000FFF74AFDA0EB0A0159455AD8286A8007E9
:100B5000F6D50CE0FFF740FD824605E0FFF73CFDCF
:100B6000A0EB0A0159454CD8286A8007F6D41FB17A
:100B7000E86920F08050E861E06988B36968C1F3F2
:100B80008101022945D00228C6F8608004D0FFF711
:100B900023FD044638E034E0FFF71EFD074604E07D
:100BA000FFF71AFDC01B02282BD828688001F7D454
:100BB000206AB0F5803F05D16868A16820F4003054
:100BC00008436860D4E908010843696821F4741196
:100BD00008436860C6F86090FFF7FEFC044606E034
:100BE00015E000BFFFF7F8FC001B022809D82868B1
:100BF0008001F7D50BE000BFFFF7EEFC001B0228D9
:100C000002D90320BDE8F88F28688001F4D40020C1
:100C1000F8E70120F6E70000001002400000424221
:100C20008004424230000020007000407047000005
:100C300038B504460068426881684B0605D4CB0786
:100C400003D0530601D5216C04E08B0707D51306AA
:100C500005D5616C01B02046BDE83040084711F071
:100C6000600F3FD093063DD54B060AD594F851301E
:100C7000032B34D0636D43F004036365C36883685A
:100C80000093890609D5616D41F0010161658168B4
:100C90000091016821F040010160606D002821D0C1
:100CA0002068416821F0E0014160012084F8510092
:100CB000900718D02068416821F0030141600C4D75
:100CC000E06C18B14563E06CFFF764FAA06C002893
:100CD00008D04563A06CBDE83840FFF75BBAC16837
:100CE0008068009038BD2046FFF7A0FF38BD0000A7
:100CF000F514000870B5040005D00025A56294F82D
:100D0000510010B104E0012070BD204600F034F81D
:100D1000022084F851002068016821F04001016040
:100D2000D4E901010843D4E903121143084361697E
:100D30000843218B01F400710843E1690843216AEB
:100D40000843A16A084321680860A069042101EAF8
:100D50001040616A0843216848602168E06A0861C0
:100D60002068C16921F40061C1616565012084F8D2
:100D70005100002070BD000010B586B00021009128
:100D800001910291039100681749884229D11748BF
:100D9000816941F480518161816901F4805104913C
:100DA000816941F0040181618069114C00F0040007
:100DB0000490A020009069462046FFF72FFB4020BA
:100DC0000090022001900320039069462046FFF71F
:100DD00025FB002211462320FFF768FC2320FFF7A4
:100DE00059FC06B010BD0000003001400010024068
:100DF000000801402DE9F84F044640680026984657
:100E000017460D464FF00409B0F5827F01D1A06866
:100E100090B194F85000012819D04FF0010B84F8DC
:100E200050B0FFF7D9FB009094F851004FF0000A42
:100E300001280ED002267FE084F8519013460A461E
:100E40002046CDF8008000F07DF8BDE8F88F022044
:100E5000FBE7002D6FD0002F6DD084F85190C4F8BF
:100E600054A0A563A787E787C4F830A0A4F834A0EE
:100E7000A4F836A0C4F840A0C4F844A0A0684FF479
:100E80000047B84204D12068016821F48041016024
:100E900020680168490603D4016841F040010160FF
:100EA000E068B8B133E020688168C90706D0007BEC
:100EB00005F8010BE08F401EE0870BE0B8F1000F52
:100EC00023D0B8F1FF3F05D0FFF786FB0099411A08
:100ED00041451AD2E08F0028E5D11BE020688168E7
:100EE000C90706D0C06825F8020BE08F401EE087D6
:100EF0000DE0B8F1000F08D0B8F1FF3F07D0FFF7C1
:100F00006BFB0099411A414501D3032614E0E08FA1
:100F10000028E3D16068B0F5827F0AD1A068B842AA
:100F200002D0B0F5806F04D12068016821F0400143
:100F30000160606D00B1012684F851B084F850A0C2
:100F4000304682E72DE9F84F044690F8500000261D
:100F50000A9F9A4693460D464FF0010801280ED08D
:100F6000012084F85000FFF737FB814694F85100C8
:100F7000616801280CD0B1F5827F07D102E0022020
:100F8000BDE8F88FA16809B9042801D00226BDE0A8
:100F900055B1BBF1000F07D0BAF1000F04D094F89F
:100FA0005100012802D004E00126AFE0052084F8BA
:100FB000510000206065C4F838B0A4F83EA0A4F841
:100FC0003CA02563A4F836A0A4F834A02064606493
:100FD00020680168490603D4016841F040010160BE
:100FE000E068B0F5006F606804D0E8B3E08E0128D7
:100FF0003BD06AE010B1E08E01282ED1216835F88F
:10100000020BC860E08E401EE08626E0B8F1000FBB
:101010000DD0E08E58B120688168890707D535F872
:10102000021BC160E08E401EE0864FF00008E08F9A
:1010300058B120688168C90707D0C0682BF8020B37
:10104000E08F401EE0874FF00108781C05D0FFF7C5
:10105000C3FAA0EB0900B84246D2E08E0028D5D1F1
:10106000E08F0028D2D136E0FFE7216815F8010BA8
:101070000873E08E401EE08627E000BFB8F1000F45
:101080000DD0E08E58B120688168890707D515F822
:10109000011B0173E08E401EE0864FF00008E08FD8
:1010A00058B120688168C90707D0C0680BF8010BE8
:1010B000E08F401EE0874FF00108781C05D0FFF755
:1010C0008BFAA0EB0900B8420ED2E08E0028D5D1F1
:1010D000E08F0028D2D13B46012202212046CDF8E4
:1010E000009000F00FFA08B103260FE04A46394697
:1010F000204600F0EFF918B101262020606505E0D8
:10110000A06818B92068C16880680090012084F840
:101110005100002084F85000304631E710B5401EE1
:10112000B0F1807F01D3012010BD4FF0E024606159
:101130000F21601700F0B6F90020A06107202061A0
:10114000002010BD7047000070B5026804461068AA
:10115000D168536910F00F0F50D003F0010501F46E
:10116000907635435DD0C20705D0CA0503D5E26B42
:1011700042F00102E263420705D5DA0703D0E26BD1
:1011800042F00202E263820705D5DA0703D0E26B80
:1011900042F00402E263020705D5DA0703D0E26BEE
:1011A00042F00802E263E26B002A33D0800604D5E5
:1011B000880602D5204600F055FA20684069E16BA8
:1011C000C0F38010090700D428B3204600F03CFA91
:1011D0002068416949061AD5416921F04001416101
:1011E000606BA0B11B494163606BFEF7D3FF002821
:1011F00010D0606B416BBDE870400847830610D586
:101200008B060ED52046BDE8704000F02BBA204674
:10121000FFF798FF70BD2046FFF794FF0020E063C2
:1012200070BD030606D50B0604D52046BDE8704008
:1012300000F01CBB4006F3D54806F1D5D168204626
:1012400021F04001D160202184F8391000F000F92C
:1012500070BD00003916000870B5040004D094F881
:101260003900002510B106E0012070BD84F8385027
:10127000204600F023F8242084F839002068C16853
:1012800021F40051C160204600F038FA206801695D
:1012900021F4904101612068416921F02A014161F6
:1012A0002068C16841F40051C160E563202084F8E2
:1012B000390084F83A00002070BD0000F0B585B018
:1012C00000240646009401940294039400682B497C
:1012D000884251D12A48C16941F40031C161C169D4
:1012E00001F400310491816941F004018161806958
:1012F000244D00F00400049004200090022001908E
:101300000320039069462846FFF788F80820CDE9B6
:101310000004694628460294FFF780F81B4D1A48DE
:101320008027C5E90004C5E902472C616C61AC6106
:101330002846EC61FFF724F808B1FEF729FF756332
:101340006E621148124D143001C5102091C510482D
:1013500045F810496C61AC61EC61FFF711F808B118
:10136000FEF716FF35630022114626206E62FFF756
:101370009DF92620FFF78EF905B0F0BD004400402E
:1013800000100240000801406C000240F400002000
:101390003801002070472DE9F843044690F83900E1
:1013A0001F4616460D46202850D1A5B19EB194F88F
:1013B000380001284AD0012084F838004FF0000896
:1013C000C4F83C80212084F83900FFF705F9A68491
:1013D0008146E68426E00120BDE8F883E08C401ECB
:1013E000E084A0684B46B0F5805F4FF000024FF0FC
:1013F00080012046009703D000F069FAE8B90DE0BB
:1014000000F065FAC8B928882168C0F30800486070
:10141000206908B16D1C05E0AD1C03E0216815F8DA
:10142000010B4860E08C0028D8D14B4600224021B7
:101430002046009700F04BFA08B10320CCE72020AB
:1014400084F8390084F838800020C5E70220C3E71B
:101450007047000001A000F075FAFEE74861726471
:101460004661756C74210A0D000000000B480A49A2
:1014700002220160002141608160C0E90312012263
:101480004261520282612822C0E9072141628162E1
:101490000A21C162FFF72EBC003001405C00002031
:1014A000FEE770470907090E002806DA00F00F0072
:1014B00000F1E02080F8141D704700F1E02080F872
:1014C00000147047704700000148FFF7B1BB0000EF
:1014D0005C00002038B50B460092044600228021B3
:1014E00000F010F8002804D0606D40F02000606526
:1014F000032038BD10B5406A0021C187C186FFF7BF
:1015000095FB10BD2DE9F0411D4617460E460446D9
:10151000DDF8188035E0681C33D02DB1FFF75CF89A
:10152000A0EB0800A8422CD32068416821F0E0011C
:1015300041606068B0F5827F0BD1A068B0F5004FC4
:1015400002D0B0F5806F04D12068016821F040011D
:101550000160A06AB0F5005F0AD1206801684DF60D
:10156000FF72114001602068016841F40051016080
:10157000012084F85100002084F850000320BDE8C9
:10158000F0812068806836EA000004D00020B8426C
:10159000C1D10020F3E70120F9E77047FFF722B837
:1015A00030B58FB028216846FEF7C3FD14210AA884
:1015B000FEF7BFFD01210804CDE9001000240294CC
:1015C00002250491CDE907504FF4E01009906846D8
:1015D000FFF7AAF90F20CDE90A056802CDE90C4012
:1015E00002210AA80E94FFF793F80FB030BD000057
:1015F0000D48016841F00101016041680B4A11404A
:10160000416001680A4A11400160016821F48021AB
:101610000160416821F4FE0141604FF41F018160C7
:101620000449C00308607047001002400000FFF842
:10163000FFFFF6FE08ED00E010B5406A0021C1850D
:10164000C184FFF77FFD10BD0168CA6822F4907263
:10165000CA6001684A6922F001024A61202180F8CB
:101660003A10704710B590F83A10222901D00220A4
:1016700010BD8168B1F5805F11D001690029016852
:101680001FD0496801F07F03816A4A1C82620B7097
:10169000C18D491E0904090CC18518D02BE00269CF
:1016A000816A002A0268526805D0D2B20A80816A33
:1016B000491C8162ECE7C2F308020A80816A891C36
:1016C000F7E74A68816A4B1C83620A70E0E70168A9
:1016D000CA6822F02002CA600168CA6822F48072D7
:1016E000CA6001684A6922F001024A61202180F83B
:1016F0003A10FFF74FFE002010BD00002DE9F04129
:10170000044600680169E26821F440511143016117
:101710002169A0680843616908432168CA6841F2E9
:101720000C639A430243CA6020684169A26921F4AC
:101730004071114341614C4920686425322688423A
:101740003CD1FFF7ABF800EBC00101EB0010616882
:101750008900B0FBF1F7FFF7A1F800EBC00101EB46
:1017600000106168B0468900B0FBF1F0B0FBF5F005
:101770006FF01801484307EB800106EB0110B0FB46
:10178000F5F000F0F006FFF789F800EBC00101EB7F
:10179000001061688900B0FBF1F0B0FBF5F006EBDA
:1017A0000016FFF77BF800EBC00101EB0010616849
:1017B0008900B0FBF1F7FFF771F83BE0FFF75EF847
:1017C00000EBC00101EB001061688900B0FBF1F78C
:1017D000FFF754F800EBC00101EB00106168B04660
:1017E0008900B0FBF1F0B0FBF5F06FF01801484351
:1017F00007EB800106EB0110B0FBF5F000F0F006FE
:10180000FFF73CF800EBC00101EB001061688900B4
:10181000B0FBF1F0B0FBF5F006EB0016FFF72EF889
:1018200000EBC00101EB001061688900B0FBF1F72B
:10183000FFF724F800EBC00101EB0010616889009C
:10184000B0FBF1F0B0FBF5F06FF01801484307EB87
:10185000800108EB0110B0FBF5F0216800F00F00EB
:1018600030448860BDE8F0810038014090F83910BC
:10187000212901D0022070478168B1F5805F016A9B
:101880000BD04A1C0262026809785160C18C491E63
:101890000904090CC1840ED017E009880268C1F35D
:1018A0000801516001690029016A02D0491C0162E6
:1018B000ECE7891CFBE70168CA6822F08002CA6075
:1018C0000068C16841F04001C160002070472DE907
:1018D000F041984617460E460446069D1DE0681CDA
:1018E0001BD02DB1FEF778FEA0EB0800A84214D95A
:1018F0002068C16821F4D071C1602068416921F07D
:1019000001014161202084F8390084F83A00002068
:1019100084F838000320BDE8F0812068006836EACA
:10192000000004D00020B842D9D00020F3E7012005
:10193000F9E700000148FFF707BC0000B4000020F1
:10194000FEE700000FB4054B10B503A9044A029846
:1019500000F017F810BC5DF814FB0000591A0008DD
:101960003400002002E008C8121F08C1002AFAD182
:1019700070477047002001E001C1121F002AFBD10F
:1019800070472DE9F84F994692468846054600274C
:1019900006E025280AD051464A4690476D1C7F1C18
:1019A00028780028F5D13846BDE8F88F002315F8CF
:1019B000011F18462E2915D115F8011F04232A29C5
:1019C0000DD06FF02F022978A1F13004092C09D82D
:1019D00000EB800002EB400008446D1CF3E758F870
:1019E000040B6D1C2A78002ADDD0632A07D0732AE5
:1019F0000FD0104651464A4690477F1C2AE018F8FF
:101A0000042B8DF8002000218DF801106E46012175
:101A100003E058F8046B4FF0FF315A074FF0000411
:101A200001D409E0641C84420BDA8C42FADB325D9B
:101A3000002AF7D105E0641C8C42FCDB305D0028F5
:101A4000F9D1274404E016F8010B51464A46904765
:101A5000641EF8D26D1CA3E713B54FF47A7301220C
:101A600069460248FFF797FC00981CBDB4000020AF
:101A700086B0FEF7BFFDFFF793FD0025364C0295BB
:101A80000395A06940F02000A061A06900F020004B
:101A90000490A06940F00400A061A069694600F0CC
:101AA00004000490102000902C4801902C48FEF770
:101AB000B5FC002211460A20FEF7F8FD0A20FEF7C9
:101AC000E9FD606940F0010060616069002200F09A
:101AD0000100009011461020FEF7E8FD1020FEF7EF
:101AE000D9FD002211461120FEF7E0FD1120FEF77E
:101AF000D1FDFFF7BBFC1C481A4901604FF4165199
:101B0000C0E901150C21C560C0E904518561C561BA
:101B1000FFF7A2FB144821217C38FEF70AFBFF22C5
:101B200021211248FEF7FEFA4FF47A740E4923463B
:101B30007C39212201F12400FFF75CF90A490CA04D
:101B40007C39FFF7FFFE084821217C38FEF7F1FAC7
:101B50006420FEF743FCE9E700100240000021107A
:101B60000008014000440040B400002000000020B4
:101B700025730000000000000000000001020304C3
:101B8000060708090000000001020304AC1B00085E
:101B9000000000203800000064190008E41B000861
:101BA00038000020480500007419000853504920EF
:101BB000636F6D6D756E69636174696F6E206973B3
:101BC0002073756365737366756C210A0D000000E0
:101BD00001000000100000000000000000A24A0404
:041BE0000000000001
:04000005080000ED02
:00000001FF
