:020000040800F2
:1000000018040020AD020008A11600089D16000883
:100010009F16000819030008511A0008000000008C
:10002000000000000000000000000000E5180008CB
:100030001B03000800000000A3160008E7180008D2
:10004000C7020008C7020008C7020008C70200086C
:10005000C7020008C7020008C7020008C70200085C
:10006000C7020008C7020008C7020008C70200084C
:10007000C7020008C7020008C7020008C70200083C
:10008000C7020008C7020008C7020008C70200082C
:10009000C7020008C7020008C7020008C70200081C
:1000A000C7020008C7020008C7020008C70200080C
:1000B000C7020008C7020008C7020008C7020008FC
:1000C000C7020008C7020008C7020008C7020008EC
:1000D000C7020008C7020008C7020008C7020008DC
:1000E000C7020008C702000800000000C70200089D
:1000F000C7020008C7020008C7020008C7020008BC
:10010000C7020008C7020008C7020008C7020008AB
:10011000C7020008C7020008C7020008C70200089B
:10012000C7020008C7020008C7020008C70200088B
:10013000C7020008C7020008C7020008C70200087B
:10014000C7020008C702000800000000000000000D
:10015000C7020008C7020008C7020008C70200085B
:10016000C7020008C7020008C7020008C70200084B
:10017000C7020008C7020008C7020008000000000C
:10018000C7020008C7020008C7020008C70200082B
:10019000C7020008C7020008C7020008C70200081B
:1001A000C7020008C7020008C7020008C70200080B
:1001B000C7020008C7020008C7020008C7020008FB
:1001C000C7020008C7020008C7020008C7020008EB
:1001D000C7020008C7020008C7020008C7020008DB
:1001E000C7020008C7020008C7020008C7020008CB
:1001F000C7020008C7020008C7020008C7020008BB
:10020000C7020008C7020008C7020008C7020008AA
:10021000C7020008C7020008C7020008C70200089A
:10022000C7020008C7020008C7020008C70200088A
:10023000C7020008C7020008C7020008C70200087A
:10024000C7020008C7020008C7020008C70200086A
:10025000C7020008C7020008C7020008C70200085A
:10026000C7020008C7020008C7020008C70200084A
:10027000C7020008C7020008C7020008C70200083A
:10028000C7020008C7020008C702000800000000FB
:10029000C7020008C7020008DFF80CD000F02AF8F7
:1002A00000480047951A00081804002006488047B7
:1002B00006480047FEE7FEE7FEE7FEE7FEE7FEE74B
:1002C000FEE7FEE7FEE7FEE799190008990200083D
:1002D000D2B201E000F8012B491EFBD27047002288
:1002E000F6E710B513460A4604461946FFF7F0FF35
:1002F000204610BD064C074D06E0E06840F00103C3
:1003000094E8070098471034AC42F6D3FFF7C8FFD3
:100310001C1B00083C1B0008FEE7704701480068F2
:10032000000C70470010005C0148806870470000B6
:1003300000000020054901EB80010548D1F8801438
:10034000814201D1002070470120704700600258AF
:1003500000030080034A41F4407102EB8000C0F8C2
:100360000014704700600258024881680278114406
:100370008160704700000020032010B500F078F87D
:1003800000F068FE0F4A104914681368C4F3032292
:1003900003F00F038A5CC95C02F01F0201F01F0129
:1003A000D0400A4A20FA01F1116009490860002092
:1003B00000F010F808B1012010BD00F02BF800206B
:1003C00010BD0000184402580C1B0008100000204B
:1003D0000C00002070B50D4D04462878A0B14FF4F4
:1003E0007A71B1FBF0F00A490968B1FBF0F001F055
:1003F00042F948B9102C07D200222146501E00F0C5
:1004000017F800206C6070BD012070BD0000002056
:100410000C000020054808B5016841F002010160A8
:10042000006800F00200009008BD0000F44402588B
:100430000E4BF0B41B680D46C3F30223C3F107064D
:10044000042E00D90426191D072901D2002300E03B
:10045000DB1E012404FA06F19C40491E2940641E5B
:10046000994014402143F0BC01F0F3BA0CED00E0D8
:10047000064900F0070210B54FF6FF040868044B68
:10048000204040EA02201843086010BD0CED00E057
:100490000000FA052DE9F0411E4C0546206800F0E9
:1004A00007000628206804D000F03F00A84228D1A9
:1004B0002EE020F03F0028432060FFF735FF154F66
:1004C0004FF47A780646083F05E000BFFFF72CFF9F
:1004D000801B404515D83868C0438004F6D41E2DD3
:1004E00005D02E2D03D01D2D01D02D2D10D1FFF7BD
:1004F0001BFF0546464607E0FFF716FF401BB042CC
:1005000002D90120BDE8F0812068C043C003F3D4C4
:100510000020F7E70C4802582DE9FC5F0446FE4F27
:1005200050F8241B0025DFF8F4932E4600900801B4
:100530001DD5A06E50B1B0F5801F0CD0B0F5001FD6
:100540000ED0B0F5401F1DD001250FE0386840F4F3
:100550000030386016E00221201D01F0A3F803E00E
:100560000098022101F02EF905000BD02E462088BC
:10057000C00523D5A06D05281ED2DFE800F00C11C0
:10058000161B1B00A26ED9F8001021F44011114374
:10059000C9F80010EBE7386840F40030386009E033
:1005A0000021201D01F07EF803E00098002101F0F9
:1005B00009F905466DB100E001252E462088800529
:1005C00028D5E06D80281ED00CDC90B140280ED1DB
:1005D00014E0A26DD9F8001021F007011143C9F809
:1005E0000010EBE7C02813D0B0F5807F10D00125B4
:1005F0000FE0386840F40030386009E00021201D29
:1006000001F050F803E00098002101F0DBF8054606
:1006100095B12E462088DFF80483400508F10808CC
:100620002CD5D4F8A800B0F5800F20D00DDCA0B1F7
:10063000B0F5001F0FD115E0E26DD9F8001021F4DC
:10064000E0711143C9F80010E4E7B0F5C00F13D012
:10065000B0F5000F10D001250FE0386840F40030ED
:10066000386009E00021201D01F01CF803E000982B
:10067000002101F0A7F8054675B12E462088000537
:100680002DD5D4F8AC00B0F1007F21D00EDCA8B19C
:10069000B0F1807F10D116E0D4F8A820D8F800106F
:1006A00021F460011143C8F80010E7E7B0F1407F82
:1006B00013D0B0F1806F10D001250FE0386840F4FE
:1006C0000030386009E00021201D00F0EBFF03E05E
:1006D0000098002101F076F805468DB12E4620687D
:1006E000DFF838B28001ABF1040B1FD5A06CD8B194
:1006F00010280FD0202812D0302815D0012514E062
:10070000D4F8AC20D8F8001021F0E0611143C8F80B
:100710000010E4E7386840F40030386004E002215B
:10072000201D00F0BFFF05466DB12E462088C00495
:100730002BD5206EB0F5005F20D00DDCA0B1B0F558
:10074000805F0FD115E0A26CDBF8001021F03001C2
:100750001143CBF80010E9E7B0F5405F13D0B0F5D6
:10076000804F10D001250FE0386840F40030386029
:1007700009E00021201D00F095FF03E00098002112
:1007800001F020F8054685B12E462088800429D541
:10079000606EB0F5403F23D010DC08B3B0F5803F69
:1007A00014D0B0F5003F0FD115E0226ED9F800103B
:1007B00021F4E0411143C9F80010E6E7B0F5802FBD
:1007C0000ED0B0F5A02F0BD001250AE00121201D8D
:1007D00000F068FF03E00098012100F0F3FF0546F8
:1007E0008DB12E46208840042AD5D4F8B000B0F14F
:1007F000405F23D010DC08B3B0F1805F14D0B0F1BB
:10080000005F0FD115E0626ED9F8001021F4E021ED
:100810001143C9F80010E5E7B0F1804F0ED0B0F1F8
:10082000A04F0BD001250AE00121201D00F03AFF66
:1008300003E00098012100F0C5FF054655B12E46A2
:100840002068400117D5E06C98B1B0F5807F0BD0DF
:1008500001250FE0D4F8B020D8F8001021F0E041D5
:100860001143C8F80010EBE70121201D00F01AFF2A
:1008700005466DB12E46208800041ED5206FD0B1EC
:10088000B0F1805F0DD0B0F1005F0FD0012513E013
:10089000E26CDBF8001021F480711143CBF80010FA
:1008A000E9E7386840F40030386004E00121201D99
:1008B00000F0F8FE05466DB12E462068C0011ED539
:1008C000606CD0B101280ED0022811D0032814D0BA
:1008D000012513E0226FD9F8001021F04051114397
:1008E000C9F80010E9E7386840F40030386004E0E7
:1008F0000221201D00F0D6FE05469DB12E4620683F
:10090000400255D50648016841F480710160FFF747
:100910000BFD824616E000002C4402585044025859
:1009200000480258626CDBF8001021F0030111430B
:10093000CBF80010E3E700BFFFF7F6FCA0EB0A00DE
:10094000642833D8FE480068C005F5D57DBBDFF8C4
:10095000F4A3B4F8B410DAF8000001F4407100F424
:100960004070884211D0DAF80010DAF8002021F443
:10097000407142F48032CAF80020DAF8002022F4F4
:100980008032CAF80020CAF80010D4F8B400B0F5DC
:10099000807F22D1FFF7C8FC01901AE0FFF7C4FC6A
:1009A0000199411A41F28830814212D903252E461D
:1009B0002078DFF890A3C007AAF11C0A3DD0E06FB1
:1009C000182838D026DC80B3082829D0102825D153
:1009D0002CE0DAF800008007E0D5D4F8B410C1F3B9
:1009E00001200328D8480DD0016821F47C51016012
:1009F000B4F8B420DAF80010C2F30B021143CAF8BD
:100A00000010D5E7D14A036802EA111223F47C51A1
:100A10001143ECE720280ED028280CD001250BE04C
:100A20000121201D00F03EFE04E004E000980121B9
:100A300000F0C8FE05465DB12E46207880071ED521
:100A4000A06F062819D2DFE800F0160C1116161652
:100A5000E26FDAF8001021F038011143CAF80010F3
:100A6000EBE70121201D00F01DFE03E000980121AD
:100A700000F0A8FE054675B100E001252E4620785D
:100A800040071FD5D4F89400062819D2DFE800F0FB
:100A9000160C11161616A26FDAF8001021F00701D5
:100AA0001143CAF80010EAE70121201D00F0FAFD09
:100AB00003E00098012100F085FE05469DB100E0AD
:100AC00001252E46207880062BD5D4F89000B0F171
:100AD000405F24D011DC10B3B0F1805F15D0B0F1CD
:100AE000005F10D116E0D4F89420D8F8001021F05F
:100AF00007011143C8F80010E4E7B0F1804F0ED0B1
:100B0000B0F1A04F0BD001250AE00021201D00F01C
:100B1000C9FD03E00098022100F054FE05468DB1A6
:100B20002E46207840062BD5D4F89C00B0F5406FB7
:100B300024D011DC10B3B0F5806F15D0B0F5006F84
:100B400010D116E0D4F89020DAF8001021F0E0413E
:100B50001143CAF80010E4E7B0F5805F0ED0B0F59D
:100B6000A05F0BD001250AE00021201D00F09AFDB6
:100B700003E00098022100F025FE05468DB12E46C7
:100B8000207800062BD5D4F8A000B0F5C04F24D0B3
:100B900011DC10B3B0F5005F15D0B0F5804F10D167
:100BA00016E0D4F89C20D8F8001021F4E05111434D
:100BB000C8F80010E4E7B0F5004F0ED0B0F5204FB4
:100BC0000BD001250AE00021201D00F06BFD03E0A1
:100BD0000098022100F0F6FD05464DB12E46207822
:100BE00000071ED5D4F88400B0F5805F0AD00FE06E
:100BF000D4F8A020D8F8001021F460411143C8F8BF
:100C00000010ECE70098022100F0DCFD00B10126A5
:100C1000D4F88420DAF8001021F440511143CAF8C6
:100C200000102078C00613D5D4F89800B0F5807F66
:100C300005D10098022100F0C5FD00B10126D4F8CD
:100C40009820D8F8001021F440711143C8F8001022
:100C50002068000316D5D4F8A40038B1B0F5803F61
:100C600009D0B0F5003F0BD001250AE00021201D7E
:100C700000F018FD03E00098022100F0A3FD0546F6
:100C800085B12E462068400322D5D4F88800B0F5FF
:100C9000801F11D0B0F5001F13D0B0F5401F15D044
:100CA000012514E0D4F8A420D8F8001021F4403134
:100CB0001143C8F80010E5E7386840F400303860A8
:100CC00004E00098012100F07DFD054655B12E4657
:100CD0002068C0031CD5206D70B1B0F5803F10D0E6
:100CE000012514E0D4F88820DAF8001021F440112E
:100CF0001143CAF80010EBE7386840F40030386060
:100D000004E00221201D00F0CDFC05461DB32E4657
:100D10002068800005D50098022100F053FD00B145
:100D200001262068800325D5D4F8800000B3B0F5F3
:100D3000807F19D0B0F5007F1AD0B0F5407F07E072
:100D4000004802587044025810440258CFFFFF0078
:100D50000ED001250DE0226DDBF8001021F480316A
:100D60001143CBF80010D3E7386840F40030386006
:100D700095B32E462068C00207D5626FD9F80010DF
:100D800021F000411143C9F800102068800207D506
:100D9000E26ED9F8001021F080711143C9F80010FB
:100DA0002068400009D51348016821F40041016022
:100DB0000168D4F8BC20114301602068002807DADC
:100DC000626DDBF8001021F040511143CBF80010A8
:100DD0006EB10120BDE8FC9FFFE7D4F88020DAF86F
:100DE000001021F440711143CAF80010C2E700203E
:100DF000F0E70000104402582DE9F05F04000F46B0
:100E00007ED0DFF83882D8F8000000F00F00B8423A
:100E10000CD2D8F8001021F00F013943C8F80010A7
:100E2000D8F8000000F00F00B84269D12078844D56
:100E300040070AD52069296801F07001884204D969
:100E4000296821F070010143296020787C4E361D0D
:100E500000070AD56069316801F07001884204D941
:100E6000316821F07001014331602078C0060AD555
:100E7000A069316801F4E061884204D9316821F445
:100E8000E061014331602078DFF8B4B180060BF1F6
:100E9000080B0CD5E1695846DBF8002002F070021F
:100EA000914204D9026822F070020A43026020785D
:100EB00080070AD5E068296801F00F01884204D94B
:100EC000296821F00F01014329602078C0073ED036
:100ED0005B49A2682868183920F4706010432860C4
:100EE0006068022818D0032819D00968012819D091
:100EF000490700294ADADFF848A1AAF1080A00E008
:100F000044E0DAF8002022F007020243CAF8002089
:100F1000FFF70AFA814612E009688903E9E70968E0
:100F20008901E6E7C905E4E7FFF7FEF9A0EB09014F
:100F300041F28830814202D90320BDE8F09F616808
:100F4000DAF8000000F03800B0EBC10FECD12078E7
:100F500080070AD5E068296801F00F01884204D2B1
:100F6000296821F00F0101432960D8F8001040469C
:100F700001F00F01B9420BD9016821F00F0139438B
:100F80000160006800F00F00B84201D00120D4E7F2
:100F9000207840070AD52069296801F0700188424D
:100FA00004D2296821F070010143296020780007EC
:100FB0000AD56069316801F07001884204D2316855
:100FC00021F07001014331602078C0060AD5A06984
:100FD000316801F4E061884204D2316821F4E061B3
:100FE00001433160207880060CD5E1695846DBF872
:100FF000002002F07002914204D2026822F07002D6
:101000000A43026000F026F80E492A682B68C2F3F2
:10101000032203F00F038A5CC95C02F01F0201F097
:101020001F01D040084A20FA01F111600749086009
:1010300007480068BDE8F05FFFF7CCB90020005218
:10104000184402580C1B0008100000200C0000205F
:1010500004000020454970B545480968434B103BE2
:1010600011F0380208D00111082A03D0102A0BD041
:10107000182A0BD0084670BD19688906FBD5196877
:10108000C1F3C101C84070BD3A4870BD3749374D02
:1010900018310C1D24350A68096826682D6802F08D
:1010A000030406F00102C1F30511C5F3CC0515FBDD
:1010B00002F200EE102AB8EE400AE9B32F4ADFED43
:1010C0002E0AB7EE001A6CB1DFED2D1A012C01D0FB
:1010D000022C43D002EE101A1068F8EE422A81EE7C
:1010E000A22A1EE01C68A40611D51B6801EE901A06
:1010F0001168C3F3C103F8EE612AD84001EE900AEB
:10110000C1F30800F8EE611A81EEA22A0BE001EEAD
:10111000901ADFED1C2A00BFF8EE611A106882EE0B
:10112000A12AC0F3080001EE900AF8EE611A40EE21
:10113000201A31EE810A00E015E022EE000A106864
:10114000C0F34620401C00EE900AF8EE600A80EEE4
:10115000201ABCEEC10A10EE100A70BD01EE901A02
:10116000DFED092AD8E7002070BD000010440258C6
:101170000090D00340787D010000003930440258CF
:101180000024744A0024744C20BCBE4B2DE9F05F4F
:1011900004007CD0FF4F2078FE4D1837DFF8F49321
:1011A000103DC00748D0D9F80000396800F0380079
:1011B000102815D0182803D101F0030002280FD001
:1011C0006068B0F5803F12D010B1B0F5A02F18D0F4
:1011D000286820F480302860286820F4802009E006
:1011E0002868800328D560680028D2D024E02868C9
:1011F00040F480302860606888B1FFF795F80646B3
:1012000009E0286840F480202860F0E7FFF78CF8B8
:10121000801B64287ED828688003F7D50CE0FFF790
:1012200083F8064605E000BFFFF77EF8801B6428C0
:10123000F0D828688003F7D4207841F20308D54E0F
:101240000C3E80074BD5D9F80000396810F0380003
:101250000ED0182801D188070AD0E06868B3296841
:1012600021F0190101432960FFF75EF8824619E079
:101270002868400702D5E06800288AD0FFF74EF8BA
:10128000404513D82069316821F47C3100E0BEE08C
:1012900041EA0030306022E0FFF746F8A0EB0A0098
:1012A0000228B7D828684007F6D5E7E7207C3168E0
:1012B00021F0FE4141EA0060ECE7286820F00100DF
:1012C0002860FFF731F8824606E000BFFFF72CF8F0
:1012D000A0EB0A0002289DD828684007F6D42078A1
:1012E000C00659D5D9F80000DFF8A8B2396800F077
:1012F0003800ABF1040B082812D0182803D101F0F4
:10130000030001280CD0E0690028286834D040F0A0
:10131000800000E0DCE02860FFF706F8824623E06A
:101320002868C00523D5E069802870D11FE000BF80
:1013300094F82000316821F0F84141EA8060306083
:101340002AE000BF94F82010DBF8002022F07C5245
:1013500042EA0161CBF800101EE000BFFEF7E4FF97
:10136000A0EB0A0002289CD82868C005F6D5FEF735
:10137000D5FF4045E6D8DBE720F080002860FEF787
:10138000D3FF064605E000BFFEF7CEFF801B022814
:1013900087D82868C005F7D42078000729D57D486C
:1013A0006169643000298046016811D041F0010173
:1013B0000160FEF7B9FF064605E000BFFEF7B4FF87
:1013C000801B022887D8D8F800008007F6D510E0E7
:1013D00021F001010160FEF7A7FF064605E000BF0E
:1013E000FEF7A2FF801B022872D8D8F80000800701
:1013F000F6D42078800623D5A0690028286810D06C
:1014000040F480502860FEF78FFF064605E02EE18D
:10141000FEF78AFF801B02285AD828688004F7D577
:101420000EE020F480502860FEF77EFF064604E0C0
:10143000FEF77AFF801B02284AD828688004F7D478
:10144000207840074FD5DFF85081D8F8001041F4DC
:101450008071C8F80010FEF767FF064605E000BF80
:10146000FEF762FF801B642832D8D8F80000C00560
:10147000F6D5484EA068603601280AD008B1052884
:1014800013D0306820F001003060306820F0040094
:1014900002E0306840F001003060A06841F2883A14
:1014A00090B1FEF741FF80460AE0306840F004004A
:1014B0003060EEE7FEF738FFA0EB0801514507D892
:1014C00030688007F6D50EE0FEF72EFF804607E075
:1014D00084E000BFFEF728FFA0EB080151457DD84E
:1014E00030688007F6D4606AF0B3DFF8A880D9F8D6
:1014F000001008F12008C1F3C20103296FD00228AF
:10150000286820F08070286003D0FEF70DFF0446A5
:1015100082E0FEF709FF064605E000BFFEF704FF84
:10152000801B022875D828688001F7D4E26A40F24F
:10153000F331386854F8283F884340EA02101843D2
:101540003860217B4FF4FE0C22894FF0FE47208A41
:101550004902267D521E401EA1F5007189B20CEA97
:101560000040C2F3080200E083E01143761E01430D
:10157000084807EA06621143064A1C30C8F8001002
:101580002432016821F00101016011684FF6F876FC
:10159000B14303E01044025800480258236A41EA6C
:1015A000C30111600168A26921F00C0111430160BF
:1015B0000168E26921F0020111430160016841F410
:1015C00080310160016841F400310160016841F43B
:1015D00080210160016841F0010101E019E01FE094
:1015E0000160286840F080702860FEF79DFE044688
:1015F00005E000BFFEF798FE001B022809D8286806
:101600008001F7D535E000BFFEF78EFE001B0228F3
:1016100002D90320BDE8F09F28688001F4D428E0B7
:1016200039680128D8F8000021D0A26A01F003032C
:1016300093421CD1E26AC1F305118A4217D1216B92
:10164000C0F30802491E8A4211D1616BC0F34622E1
:10165000491E91420BD1A16BC0F30642491E914233
:1016600005D1E16BC0F30660491E814201D0012023
:10167000D0E70020CEE7401EB0F1807F10B501D347
:10168000012010BD4FF0E02460610F21601700F0D1
:10169000E0F90020A0610721216110BDFEE7FEE70F
:1016A000704770472DE9F047454D044689464FF095
:1016B000000A2868C04380070AD0414E283E30689F
:1016C00020F080603060FEF72FFE0746B04608E04D
:1016D0000120BDE8F08700BFFEF726FEC01B0228F0
:1016E00067D8D8F800000001F6D4206829684FF4C4
:1016F000FE0721F47C313E0241EA00302860207A66
:10170000A389B4F804C040022D4D2D495B1E227CF4
:10171000ACF1010C1035091DA0F5007080B2521E0D
:10172000CCF3080C07EA034340EA0C00184306EA2E
:101730000262104328600868626920F0C00010430C
:1017400008600A68A06922F0200202430A60281D8E
:101750000A6822F010020A6002684FF6F873E46922
:101760009A4342EAC40202600868B9F1000F40F0EF
:1017700010020A6011D00868B9F1010F11D040F4CD
:1017800000100860D8F80000444640F08060C8F8B7
:101790000000FEF7C9FD05460DE0086840F4002092
:1017A000EFE740F48010ECE7FEF7BEFD401B022897
:1017B00001D903208DE720680001F5D5504688E760
:1017C000284402582DE9F047454D044689464FF01C
:1017D000000A2868C04380070AD0414E283E30687E
:1017E00020F080503060FEF79FFD0746B04608E0CD
:1017F0000120BDE8F08700BFFEF796FDC01B022860
:1018000067D8D8F800008000F6D4208829684FF403
:10181000FE0721F07C713E0241EA00502860207AE8
:10182000A389B4F804C040022D4D2D495B1E227CD3
:10183000ACF1010C1835091DA0F5007080B2521EE4
:10184000CCF3080C07EA034340EA0C00184306EA0D
:101850000262104328600868626920F44060104307
:1018600008600A68A06922F4007202430A60281D19
:101870000A6822F480720A6002684FF6F873E4691D
:101880009A4342EAC40202600868B9F1000F40F4CA
:1018900080720A6011D00868B9F1010F11D040F0D0
:1018A00080700860D8F80000444640F08050C8F8C6
:1018B0000000FEF739FD05460DE0086840F48000A1
:1018C000EFE740F40000ECE7FEF72EFD401B022896
:1018D00001D903208DE720688000F5D5504688E7C0
:1018E000284402587047FEF73FBD000070B5CCB0E9
:1018F0004C2130A8FEF7F3FC202143A8FEF7EFFCB3
:10190000C0216846FEF7EBFC0420FEF7C3FD20482B
:1019100000242049026842F44042026002680A68DA
:1019200042F001020A60096801F001014B9101686F
:101930008904FCD50DF1E80C022039900521C02264
:101940008CE80700C3033F9008263D9001253E9098
:10195000CDE94064CDE9305330A84294FFF716FC3E
:1019600040204A903F210301CDE946600322CDE9A2
:10197000480343AB43A883E816000421FFF73CFA71
:10198000684600951F94FEF7C7FD4CB070BD00007F
:10199000184802582C040058284B30B5274A1C68B8
:1019A000783A2749002044F470041C601468244BE2
:1019B000244D44F00404103314600A6842F001021C
:1019C0000A6018600A681E4B2A400A6018331C1D02
:1019D000251D1B4A186028322060131D28601C1D1D
:1019E000251D10602A1D1860131D20601C1D286015
:1019F000251D10601860206028600B684FF0B04211
:101A00000F4C23F480230B6060342060D2F8E40094
:101A10000D4940F48040C2F8E40008686FF30F00FD
:101A2000B0F1005F03D209490120C1F808014FF06D
:101A3000006002498039086030BD000088ED00E098
:101A4000004402587FEDF6EA0010005C008000516F
:101A5000FEE7090700284FEA116104DB00F1E020EE
:101A600080F80014704700F00F0000F1E02080F8CB
:101A7000141D704702E008C8121F08C1002AFAD1DD
:101A800070477047002001E001C1121F002AFBD1FE
:101A9000704700001C4E4FF6FF74204608B53168B1
:101AA000090403D5011EA0F10100F8DCFEF764FC77
:101AB000FFF71CFF144DE035286840F000702860E7
:101AC000286800F0007000900020FEF733FC002131
:101AD0000846FEF73FFC3068000403D4201EA4F142
:101AE0000104F8DC286840F004002860286800F051
:101AF00004000090286840F080002860286800F00A
:101B000080000090FEE70000004402580000000042
:101B10000102030401020304060708093C1B000834
:101B20000000002014000000741A0008501B000878
:101B30001400002004040000841A000801000000C2
:101B400010000000000000000090D0030090D003BF
:040000050800029954
:00000001FF
