:020000040800F2
:10000000D0040020010100086F0F0008330F000822
:100010006D0F00086D010008B11400080000000019
:100020000000000000000000000000003F12000877
:100030006F01000800000000910F00084112000845
:100040001B0100081B0100081B0100081B01000820
:100050001B0100081B0100081B0100081B01000810
:100060001B0100081B010008710100081B010008AA
:100070001B0100081B0100081B0100081B010008F0
:100080001B0100081B0100081B0100081B010008E0
:100090001B0100081B0100081B0100081B010008D0
:1000A0001B0100081B0100081B0100081B010008C0
:1000B0001B0100081B0100081B0100081B010008B0
:1000C0001B0100081B0100081B010008950F000818
:1000D0001B0100081B0100081B0100081B01000890
:1000E0001B0100081B0100081B010008DFF80CD0F1
:1000F00000F02AF800480047E1150008D00400206D
:100100000648804706480047FEE7FEE7FEE7FEE7B1
:10011000FEE7FEE7FEE7FEE7FEE7FEE795120008D2
:10012000ED000008D2B201E000F8012B491EFBD21D
:1001300070470022F6E710B513460A4604461946F2
:10014000FFF7F0FF204610BD064C074D06E0E068C3
:1001500040F0010394E8070098471034AC42F6D30E
:10016000FFF7C8FF90160008B0160008FEE77047BA
:10017000102000F04FB8000010B590F821100024B6
:10018000022903D00421816301243DE001680A684B
:1001900022F00E020A6001680A6822F001020A6079
:1001A0001A4A0168914201D1012121E0174A143213
:1001B000914201D110211BE0144A2832914201D111
:1001C000891515E0114A3C32914201D189140FE0A2
:1001D0000E4A5032914202D14FF4803108E00B4A6E
:1001E0006432914202D14FF4801101E04FF08071EE
:1001F000064A083A5160012180F82110002180F858
:100200002010416B01B18847204610BD0800024014
:1002100070470000044910B50A68024202D0086025
:10022000FFF7F6FF10BD0000140401402DE9F84F60
:10023000DFF890A100220AF1040B144601274FF0C9
:100240000F090BF1040E00BF0B6807FA04F52B40F1
:10025000AB4274D1DFF870C14E68A6EB0C0866455E
:100260002BD00DDC032E34D005DC36B3012E19D093
:10027000022E2FD11BE0112E16D0122E2AD119E0FA
:10028000B8F5881F19D006DCB8F5803F15D0B8F551
:10029000801F1FD111E0B8F5001F0ED0B8F5041F64
:1002A00018D10AE0CA6815E0CA68121D12E0CA68CF
:1002B00008320FE0CA680C320CE08A682AB1012AC1
:1002C0004FF0080203D0456104E0042202E005611A
:1002D00000E00022FF2B01D8064601E000F10406F1
:1002E0004FEA840501D9A5F12005D6F800C009FA26
:1002F00005F82CEA080C02FA05F54CEA050CC6F8DC
:1003000000C04D68ED0057D5304DAE6946F001068E
:10031000AE61AD6924F0030605F0010500952C4D92
:1003200006EB050CDCF80850A6074FEA167809FA28
:1003300008F6B543274EB04202D1002610E03BE05C
:10034000254EB04201D101260AE0244EB04201D12F
:10035000022605E0224EB04201D1032600E0042629
:1003600006FA08F62E43CCF808604D68DAF800600B
:10037000ED03554601D51E4300E09E432E604D68B7
:10038000DBF80060AD035D4601D51E4300E09E43EF
:100390002E604D68DEF80060ED02754601D51E4303
:1003A00000E09E432E604D68AD020E4D2E6801D5D3
:1003B0001E4300E09E432E60641C102CFFF444AFEB
:1003C000BDE8F88F00040140000011100010024049
:1003D0000000014000080140000C014000100140F5
:1003E000001401400C04014001488068704700007F
:1003F0000000002002488168027811448160704743
:1004000000000020074810B5016841F010010160AC
:10041000032000F073F8002000F006F800F024F844
:10042000002010BD0020024070B50D4D04464FF471
:100430007A712878B1FBF0F00A490968B1FBF0F055
:1004400000F09DFC48B9102C07D200222146501E16
:1004500000F034F800206C6070BD012070BD000019
:10046000000000200C0000200C4808B5816941F014
:1004700001018161816901F001010091C16941F0CF
:100480008051C161C06900F080500090044841680B
:1004900021F0E06141F00071416008BD00100240B0
:1004A0000000014000F01F0201219140400980003E
:1004B00000F1E020C0F8001170470000F0B40E4BCE
:1004C0001B680C46C3F30223C3F10705042D00D9B2
:1004D0000425191D072901D2002300E0DB1E012697
:1004E00006FA05F1491E214099409E40761E1640AD
:1004F0003143F0BC00F03CBD0CED00E0064900F0DB
:10050000070208684FF6FF03184040EA0220034A3A
:1005100010430860704700000CED00E00000FA0591
:100520002DE9F047DFF8548105460E46D8F8000063
:1005300000F00700B0420CD2D8F8001021F00701FB
:100540003143C8F80010D8F8000000F00700B042AE
:100550006FD128684A4C810712D5400703D56068DF
:1005600040F4E06060602878000703D5606840F4DC
:10057000605060606068A96820F0F0000843606027
:100580002878C00744D06868012816D0216802285E
:1005900016D0890700294CDA616821F00301014374
:1005A0006160FFF721FF6968074641F28830012941
:1005B0000ED00229814618D026E021688903E9E798
:1005C0008901E7E7FFF710FFC11B494501D918E092
:1005D00081466068C0F381000128F3D118E000BFB4
:1005E000FFF702FFC11B49450BD86068C0F38100CB
:1005F0000228F5D10CE000BFFFF7F6FEC11B49450C
:1006000002D90320BDE8F087606810F00C0FF3D129
:10061000D8F80010404601F00701B1420BD901683B
:1006200021F0070131430160006800F00700B0428B
:1006300001D00120E6E72878400705D56068E96821
:1006400020F4E060084360602878000706D5606801
:10065000296920F4605040EAC100606000F036F87B
:100660006168084AC1F30311515CC840064908603B
:100670000020FFF7D9FE0020C4E700000020024060
:1006800000100240781600080C00002004480549BC
:1006900000684968044AC1F30221515CC8407047B0
:1006A0000C0000200010024088160008044805498C
:1006B00000684968044AC1F3C221515CC8407047D0
:1006C0000C000020001002408816000812A185B01E
:1006D0000FC98DE80F0014A0144A006804905168F7
:1006E000134801F00C03042B10D0082B0ED1C1F3DA
:1006F0008343C9031DF803000AD5516804AAC1F356
:100700004041515C0A4A5043B0FBF1F005B07047DC
:1007100008494843FAE700000203040506070809F0
:100720000A0B0C0D0E0F1010010200000010024009
:1007300000127A0000093D002DE9F84F04460078C8
:10074000B94DC00748D06868C0F38100012807D0C0
:100750006868C0F38100022809D16868C00306D523
:100760002868800338D5606800286FD034E060685E
:10077000B0F5803F0BD010B1B0F5A02F11D0286894
:1007800020F480302860286820F4802002E0286867
:1007900040F480302860606888B1FFF725FE064687
:1007A00009E0286840F480202860F0E7FFF71CFE8D
:1007B000801B642875D828688003F7D50CE0FFF704
:1007C00013FE064605E000BFFFF70EFE801B6428FF
:1007D000F0D828688003F7D42078944E80074FF033
:1007E00001094FF000083BD5686810F00C0F07D0E6
:1007F0006868C0F38100022809D16868C00306D484
:100800002868800714D5206901281FD110E02069CD
:10081000B0B1C6F80090FFF7E7FD074605E000BF5E
:10082000FFF7E2FDC01B0228C4D828688007F7D56F
:100830002868616920F0F80040EAC10028600FE0F4
:10084000C6F80080FFF7D0FD074606E0E9E000BFEC
:10085000FFF7CAFDC01B022823D828688007F7D4F9
:10086000207800072CD57248A169D9B1C0F8009052
:10087000FFF7BAFD074604E0FFF7B6FDC01B0228EC
:100880000FD8686A8007F7D56A484FF4FA510068B4
:10089000B0FBF1F0009000BF0098411E0091FAD229
:1008A0000EE080E0C0F80080FFF79EFD074604E000
:1008B000FFF79AFDC01B022875D8686A8007F7D435
:1008C0002078400760D5E8690027C00008D4E869AF
:1008D00040F08050E861E869012700F08050009006
:1008E00055480168C90513D40168834641F48071F5
:1008F0000160FFF779FD824606E000BFFFF774FD57
:10090000A0EB0A0064284ED8DBF80000C005F5D53E
:10091000E06801280AD008B1052813D0286A20F021
:1009200001002862286A20F0040002E0286A40F0F2
:1009300001002862E06841F2883B98B1FFF754FD5E
:1009400082460BE0286A40F004002862EEE700BF10
:10095000FFF74AFDA0EB0A0159455AD8286A8007DB
:10096000F6D50CE0FFF740FD824605E0FFF73CFDC1
:10097000A0EB0A0159454CD8286A8007F6D41FB16C
:10098000E86920F08050E861E06988B36968C1F3E4
:100990008101022945D00228C6F8608004D0FFF703
:1009A00023FD044638E034E0FFF71EFD074604E06F
:1009B000FFF71AFDC01B02282BD828688001F7D446
:1009C000206AB0F5803F05D16868A16820F4003046
:1009D00008436860D4E908010843696821F4741188
:1009E00008436860C6F86090FFF7FEFC044606E026
:1009F00015E000BFFFF7F8FC001B022809D82868A3
:100A00008001F7D50BE000BFFFF7EEFC001B0228CA
:100A100002D90320BDE8F88F28688001F4D40020B3
:100A2000F8E70120F6E70000001002400000424213
:100A3000800442420C00002000700040704700001B
:100A400038B504460068426881684B0605D4CB0778
:100A500003D0530601D5216C04E08B0707D513069C
:100A600005D5616C01B02046BDE83040084711F063
:100A7000600F3FD093063DD54B060AD594F8513010
:100A8000032B34D0636D43F004036365C36883684C
:100A90000093890609D5616D41F0010161658168A6
:100AA0000091016821F040010160606D002821D0B3
:100AB0002068416821F0E0014160012084F8510084
:100AC000900718D02068416821F0030141600C4D67
:100AD000E06C18B14563E06CFFF74EFBA06C00289A
:100AE00008D04563A06CBDE83840FFF745BBC1683E
:100AF0008068009038BD2046FFF7A0FF38BD000099
:100B00005B11000870B5040005D00025A56294F8BB
:100B1000510010B104E0012070BD204600F034F80F
:100B2000022084F851002068016821F04001016032
:100B3000D4E901010843D4E9031211430843616970
:100B40000843218B01F400710843E1690843216ADD
:100B50000843A16A084321680860A069042101EAEA
:100B60001040616A0843216848602168E06A0861B2
:100B70002068C16921F40061C1616565012084F8C4
:100B80005100002070BD000030B585B000240094F5
:100B90000194029403940068184988422BD11848A4
:100BA000816941F480518161816901F4805104912E
:100BB000816941F0040181618069124D00F00400F7
:100BC0000490A02000900220019003200390694629
:100BD0002846FFF72BFB4020CDE900046946284654
:100BE0000294FFF723FB002211462320FFF766FC47
:100BF0002320FFF757FC05B030BD00000030014056
:100C00000010024000080140F0B40024856813463B
:100C100004261DB94268B2F5827F0DD090F85020AD
:100C2000012A0FD0012280F8502090F85170002244
:100C3000012F0AD0022431E080F85160F0BC0A464E
:100C400000F04AB80220F0BC704771B16BB180F877
:100C50005160426581638387C38702638286C2864F
:100C60004264C16819B10F4902E0012416E00E493F
:100C70000164B5F5004F04D101680B6823F480438B
:100C80000B6001684B6843F060034B6001680B68C0
:100C90005B0603D40B6843F040030B6080F85020E0
:100CA0002046D0E76B1100088B11000810B50068D2
:100CB0000649884209D1064906A000F0FBFBBDE8C1
:100CC000104021210248FFF734BA10BD0030014026
:100CD0001400002025730000F0B590F85050002457
:100CE000012D0CD0012580F8505090F8515000266D
:100CF0004768012D0BD0B7F5827F06D101E00220B5
:100D0000F0BD87680FB9042D01D002242AE031B16B
:100D10002AB123B190F85150012D02D004E00124F2
:100D200020E0052580F85150466501638386C3861F
:100D300082638387C387C16819B10C4901640C4978
:100D400002E00C4901640C49416401684A6842F0C0
:100D5000E0024A6001680A68520603D40A6842F059
:100D600040020A6080F850602046F0BDA10F0008E4
:100D7000FF0F0008D10F00082F100008704710B5B2
:100D8000401EB0F1807F01D3012010BD4FF0E02460
:100D900060610F21601700F0EBF80020A0610720D0
:100DA0002061002010BD70B5040004D094F8390013
:100DB000002510B106E0012070BD84F838502046AF
:100DC00000F022F8242084F839002068C16821F45A
:100DD0000051C160204600F081FA2068016921F4C9
:100DE000904101612068416921F02A014161206838
:100DF000C16841F40051C160E563202084F83900E6
:100E000084F83A00002070BD30B585B0002400940D
:100E100001940294039400681449884223D1144831
:100E2000C16941F40031C161C16901F4003104912B
:100E3000816941F00401816180690E4D00F0040078
:100E40000490042000900220019003200390694642
:100E50002846FFF7EBF90820CDE90004694628464B
:100E60000294FFF7E3F905B030BD000000440040F4
:100E700000100240000801402DE9F843044690F8B4
:100E800039001F4616460D46202850D1A5B19EB107
:100E900094F8380001284AD0012084F838004FF037
:100EA0000008C4F83C80212084F83900FFF79CFA40
:100EB000A6848146E68426E00120BDE8F883E08C24
:100EC000401EE084A0684B46B0F5805F4FF0000202
:100ED0004FF080012046009703D000F0B7FAE8B940
:100EE0000DE000F0B3FAC8B928882168C0F3080003
:100EF0004860206908B16D1C05E0AD1C03E0216865
:100F000015F8010B4860E08C0028D8D14B46002230
:100F100040212046009700F099FA08B10320CCE761
:100F2000202084F8390084F838800020C5E70220AA
:100F3000C3E7FEE70C480B49022201604FF48271BF
:100F4000416000218160C0E9031201224261520226
:100F500082612822C0E90721416281620A21C162BF
:100F6000FFF7D0BD0030014038000020FEE7704799
:100F70000907090E002806DA00F00F0000F1E02052
:100F800080F8141D704700F1E02080F800147047CD
:100F9000704700000148FFF753BD000038000020F3
:100FA0000168C968826B1180816B891C8163C18F64
:100FB000491EC187C18F002909D101684A6822F002
:100FC00040024A60C18E002901D100F057B8704735
:100FD00001680B7B816B4A1C82630B70C18F491EB9
:100FE000C187C18F002909D101684A6822F06002D7
:100FF0004A60C18E002901D100F040B87047016BF2
:1010000002680988D160016B891C0163C18E491E89
:10101000C186C18E002909D101684A6822F0800288
:101020004A60C18F002901D100F028B87047016BD8
:101030004A1C0263026809781173C18E491EC18679
:10104000C18E002909D101684A6822F080024A60F5
:10105000C18F002901D100F011B8704738B50B4697
:10106000009204460022802100F09EF8002804D05F
:10107000606D40F020006065032038BD38B504463F
:10108000214845F6C0510068B0FBF1F064214843A7
:101090000090FFF7A9F902462068416821F020017D
:1010A00041600098411E009104D2606D40F0200024
:1010B000606503E0206880688007F2D564212046DF
:1010C000FFF7CCFF18B1606D40F020006065A068AC
:1010D00018B92068C16880680090616D012029B14D
:1010E00084F851002046FFF7A9FC38BD94F8511050
:1010F00084F851000429204602D0FFF73FFE38BD96
:10110000FFF7D4FD38BD00000C00002008B50168D1
:101110004A6822F060024A604168B1F5827F0BD1D3
:101120008168B1F5004F02D0B1F5806F04D101683C
:101130000A6822F040020A60816819B90168CA6829
:1011400089680091012180F85110416D11B1FFF7BC
:1011500075FC08BDFFF7AAFD08BD10B5406A002167
:10116000C187C186FFF76AFC10BD0168C968826B40
:101170001180816B891C8163C18F491EC187C18F1A
:10118000002901D1FFF7C2BF704701680B7B816B5B
:101190004A1C82630B70C18F491EC187C18F002911
:1011A00001D1FFF7B3BF70472DE9F0411D46174647
:1011B0000E460446DDF8188035E0681C33D02DB1AA
:1011C000FFF712F9A0EB0800A8422CD32068416871
:1011D00021F0E00141606068B0F5827F0BD1A0682A
:1011E000B0F5004F02D0B0F5806F04D120680168DF
:1011F00021F040010160A06AB0F5005F0AD12068CB
:1012000001684DF6FF72114001602068016841F4E9
:1012100000510160012084F85100002084F8500042
:101220000320BDE8F0812068806836EA000004D021
:101230000020B842C1D10020F3E70120F9E7704750
:10124000FFF7D8B830B58FB028216846FEF771FF98
:1012500014210AA8FEF76DFF01210804CDE9001052
:101260000024029402250491CDE907504FF4E010C8
:1012700009906846FFF760FA0F20CDE90A05680279
:10128000CDE90C4002210AA80E94FFF749F90FB0EE
:1012900030BD00000D48016841F001010160416866
:1012A0000B4A1140416001680A4A1140016001681F
:1012B00021F480210160416821F4FE0141604FF476
:1012C0001F0181600449C00308607047001002409C
:1012D0000000FFF8FFFFF6FE08ED00E02DE9F04109
:1012E000044600680169E26821F44051114301613C
:1012F0002169A0680843616908432168CA6841F20E
:101300000C639A430243CA6020684169A26921F4D0
:101310004071114341614C4920686425322688425E
:101320003CD1FFF7C3F900EBC00101EB001061688D
:101330008900B0FBF1F7FFF7B9F900EBC00101EB51
:1013400000106168B0468900B0FBF1F0B0FBF5F029
:101350006FF01801484307EB800106EB0110B0FB6A
:10136000F5F000F0F006FFF7A1F900EBC00101EB8A
:10137000001061688900B0FBF1F0B0FBF5F006EBFE
:101380000016FFF793F900EBC00101EB0010616854
:101390008900B0FBF1F7FFF789F93BE0FFF776F939
:1013A00000EBC00101EB001061688900B0FBF1F7B0
:1013B000FFF76CF900EBC00101EB00106168B0466B
:1013C0008900B0FBF1F0B0FBF5F06FF01801484375
:1013D00007EB800106EB0110B0FBF5F000F0F00622
:1013E000FFF754F900EBC00101EB001061688900C0
:1013F000B0FBF1F0B0FBF5F006EB0016FFF746F995
:1014000000EBC00101EB001061688900B0FBF1F74F
:10141000FFF73CF900EBC00101EB001061688900A7
:10142000B0FBF1F0B0FBF5F06FF01801484307EBAB
:10143000800108EB0110B0FBF5F0216800F00F000F
:1014400030448860BDE8F081003801402DE9F0416A
:10145000984617460E460446069D1DE0681C1BD0A4
:101460002DB1FEF7C1FFA0EB0800A84214D92068F7
:10147000C16821F4D071C1602068416921F0010187
:101480004161202084F8390084F83A00002084F873
:1014900038000320BDE8F0812068006836EA0000CB
:1014A00004D00020B842D9D00020F3E70120F9E7AA
:1014B000FEE700000FB4054B10B503A9044A0298DB
:1014C00000F017F810BC5DF814FB0000C915000807
:1014D0001000002002E008C8121F08C1002AFAD13B
:1014E00070477047002001E001C1121F002AFBD1A4
:1014F00070472DE9F84F99469246884605460027E1
:1015000006E025280AD051464A4690476D1C7F1CAC
:1015100028780028F5D13846BDE8F88F002315F863
:10152000011F18462E2915D115F8011F04232A2959
:101530000DD06FF02F022978A1F13004092C09D8C1
:1015400000EB800002EB400008446D1CF3E758F804
:10155000040B6D1C2A78002ADDD0632A07D0732A79
:101560000FD0104651464A4690477F1C2AE018F893
:10157000042B8DF8002000218DF801106E4601210A
:1015800003E058F8046B4FF0FF315A074FF00004A6
:1015900001D409E0641C84420BDA8C42FADB325D30
:1015A000002AF7D105E0641C8C42FCDB305D00288A
:1015B000F9D1274404E016F8010B51464A469047FA
:1015C000641EF8D26D1CA3E713B54FF47A730122A1
:1015D00069460248FFF750FC00981CBD90000020AF
:1015E00086B0FEF70FFFFFF72DFE00241D48029482
:1015F0000394816941F020018161816901F020013A
:101600000491816941F0040181618069694600F0BB
:101610000400049010200090134801901348FEF736
:1016200005FE002211460A20FEF748FF0A20FEF7B9
:1016300039FFFFF77FFC0F480D4901604FF4E1319E
:10164000C0E901140C21C460C0E904418461C46193
:10165000FFF7A9FB074921227C3901F12400FFF79C
:10166000D3FAF7E700100240000011100008014013
:101670000044004090000020000000000000000036
:101680000102030406070809000000000102030428
:10169000B01600080000002014000000D414000858
:1016A000C416000814000020BC040000E414000864
:1016B00001000000100000000000000000A24A0429
:0416C0000000000026
:04000005080000ED02
:00000001FF
