:020000040810E2
:10000000C8040010AD021008FB1410089F1410085B
:10001000F9141008B90310088D231008000000001F
:10002000000000000000000000000000FF141008A5
:10003000BB03100800000000FD1410080115100893
:10004000C7021008C7021008C7021008C70210082C
:10005000C7021008C7021008C7021008C70210081C
:10006000C7021008C7021008C7021008C70210080C
:10007000C7021008C7021008C7021008C7021008FC
:10008000C7021008C7021008C7021008C7021008EC
:10009000C7021008C7021008C7021008C7021008DC
:1000A000C7021008C7021008C7021008C7021008CC
:1000B000C7021008C7021008C7021008C7021008BC
:1000C000C7021008C7021008C7021008C7021008AC
:1000D000C702100881231008C7021008C7021008C1
:1000E000C7021008C702100800000000C70210086D
:1000F000C7021008C7021008C7021008C70210087C
:10010000C7021008C7021008C7021008C70210086B
:10011000C7021008C7021008C7021008C70210085B
:10012000C7021008C7021008C7021008C70210084B
:10013000C7021008C7021008C7021008C70210083B
:10014000C7021008C70210080000000000000000ED
:10015000C7021008C7021008C7021008C70210081B
:10016000C7021008C7021008C7021008C70210080B
:10017000C7021008C7021008C702100800000000DC
:10018000C7021008C7021008C7021008C7021008EB
:10019000C7021008C7021008C7021008C7021008DB
:1001A000C7021008C7021008C7021008C7021008CB
:1001B000C7021008C7021008C7021008C7021008BB
:1001C000C7021008C7021008C7021008C7021008AB
:1001D000C7021008C7021008C7021008C70210089B
:1001E000C7021008C7021008C7021008C70210088B
:1001F000C7021008C7021008C7021008C70210087B
:10020000C7021008C7021008C7021008C70210086A
:10021000C7021008C7021008C7021008C70210085A
:10022000C7021008C7021008C7021008C70210084A
:10023000C7021008C7021008C7021008C70210083A
:10024000C7021008C7021008C7021008C70210082A
:10025000C7021008C7021008C7021008C70210081A
:10026000C7021008C7021008C7021008C70210080A
:10027000C7021008C7021008C7021008C7021008FA
:10028000C7021008C7021008C702100800000000CB
:10029000C7021008C7021008DFF80CD000F07AF887
:1002A00000480047CD231008C804001006488047C6
:1002B00006480047FEE7FEE7FEE7FEE7FEE7FEE74B
:1002C000FEE7FEE7FEE7FEE70515100899021008B5
:1002D0002DE9F05F0546002092469B46884606467B
:1002E000814640241BE0284641464746224600F00E
:1002F00041F853465A46C01A914110D31146184648
:10030000224600F028F82D1A67EB01084F462246D6
:100310000120002100F01FF817EB00094E41201EBC
:10032000A4F10104DFDC484631462A464346BDE8D5
:10033000F09FD2B201E000F8012B491EFBD27047BA
:100340000022F6E710B513460A4604461946FFF7A1
:10035000F0FF204610BD202A04DB203A00FA02F10B
:10036000002070479140C2F1200320FA03F31943A3
:1003700090407047202A04DB203A21FA02F0002145
:10038000704721FA02F3D040C2F1200291400843A5
:1003900019467047064C074D06E0E06840F001033F
:1003A00094E8070098471034AC42F6D3FFF778FF83
:1003B0007024100890241008FEE770472DE9F05FC4
:1003C00028B190F83510022904D080214165012020
:1003D000BDE8F09F8F4A8F4B8E4C8E4D8D4E8D4FCA
:1003E000DFF83082DFF82C92DFF82CE2DFF828A269
:1003F000DFF824C20168183248336034783590360B
:10040000A837DFF814B209F130090EF1780E0AF1BD
:10041000900A0CF1A80C41452DD091422BD04945B2
:1004200029D0994227D0A14225D0A94223D0B14258
:1004300021D0B9421FD059451DD0DFF8DC8108F129
:100440001808414517D0DFF8D08108F13008414540
:1004500011D0DFF8C48108F1480841450BD0DFF81E
:10046000B88108F16008414505D0714503D0514578
:1004700001D0614529D14FF0040880F835806548E6
:1004800081421DD091421BD0494519D0994217D0C5
:10049000A14215D0A94213D0B14211D0B9420FD018
:1004A00059450DD05C481830814209D05A48303047
:1004B000814205D058484830814201D056486030CA
:1004C000086820F001000860A2E0D1F8008028F060
:1004D0000E08C1F80080DFF83C810168414525D055
:1004E000914223D0494521D099421FD0A1421DD02D
:1004F000A9421BD0B14219D0B94217D0594515D0E5
:10050000DFF8148108F1180841450FD0DFF80881A1
:1005100008F13008414509D0DFF8FC8008F14808AF
:10052000414503D0DFF8F08008F16008D1F8008081
:1005300028F00108C1F80080DFF8D8800168414543
:1005400044D0914242D0494540D099423ED0A14248
:100550003CD0A9423AD0B14238D0B94236D0594500
:1005600034D02D4A1832914230D02B4A3032914249
:100570002CD0294A4832914228D0274A60329142F1
:1005800024D0714522D0514520D061451ED0234A48
:1005900091421BD0214A1432914217D01F4A28326F
:1005A000914213D01D4A3C3291420FD01B4A503227
:1005B00091420BD0194A6432914207D0174A7832DF
:1005C000914203D0154A8C32914218D1016E0A68CB
:1005D00022F480720A6090F85C10826D01F01F03B3
:1005E000012199405160D0E919124A60C16E31B1C0
:1005F0000A6822F480720A60D0E91C124A60002165
:1006000080F83410012180F83510016D01B1884760
:100610000020DDE610000240100402400854025899
:1006200070B5044600F040F90546601C02D004484D
:100630000078044400F038F9401BA042FAD370BDA2
:10064000040000102DE9FC4F00230125844E0324F3
:100650004FF00F094FF0B04AFBE000BF05FA03F777
:100660003A407DD0D1F804C0BCF1010F08D0BCF1F4
:10067000020F05D0BCF1110F02D0BCF1120F1AD13C
:10068000D0F808C04FEA430E04FA0EF82CEA080B23
:10069000D1F80C8008FA0EF848EA0B08C0F8088078
:1006A000D0F804C02CEA070C0F79C7F300179F405D
:1006B00047EA0C074760C7684FEA4308D1F808C00B
:1006C00004FA08FB27EA0B070CFA08FC4CEA070CB3
:1006D000C0F80CC04F68022F01D0122F15D1DF08CF
:1006E00000EB87070197D7F820E05F07FF0E09FAB4
:1006F00007FC2EEA0C0E0097D1F810C00CFA07FC8C
:10070000019F4CEA0E0CC7F820C0076891F804C09E
:1007100027EA0B070CF0030C0CFA08FC4CEA070C58
:10072000C0F800C04F68FF001AD54E4FD7F800C080
:100730004CF0020CC7F800C03F6807F002070097B2
:1007400023F0030707F1B047BB46D7F808744FEA18
:10075000837C4FEA1C7809FA08FC27EA0C0700E0C2
:1007600076E0DFF804C1604502D14FF0000C40E0B4
:10077000DFF8F8C0604502D14FF0010C39E0DFF836
:10078000F0C0604502D14FF0020C32E0DFF8E4C067
:10079000604502D14FF0030C2BE0DFF8DCC0604570
:1007A00002D14FF0040C24E0DFF8D0C0604502D144
:1007B0004FF0050C1DE0DFF8C8C0604502D14FF0D6
:1007C000060C16E0DFF8BCC0604502D14FF0070C04
:1007D0000FE0DFF8B4C0604502D14FF0080C08E02C
:1007E000DFF8A8C0604502D14FF0090C01E04FF0DE
:1007F0000A0C0CFA08FC4CEA070CCBF808C4376862
:10080000D1F804C097435FEACC3C00D5174337606A
:100810007768D1F804C097435FEA8C3C00D5174352
:100820007760DAF80070D446D1F8048097435FEA25
:10083000C82800D51743CCF80070DCF80470D1F854
:10084000048097435FEA882800D51743CCF80470EA
:100850005B1C0A6832FA03F77FF400AFBDE8FC8F37
:10086000C0000058F4440258000002580004025826
:1008700000080258000C02580010025800140258D8
:1008800000180258001C0258002002580024025888
:1008900004480068C0F30310072801D00120704706
:1008A0000320704700ED00E00148806870470000B9
:1008B0000400001002490A6802430A607047000001
:1008C00010650258024881680278114481607047BF
:1008D000040000101C4808B5016841F48041016023
:1008E000006800F48040009018480168184A1140E0
:1008F00041F401410160016841F001010160032000
:1009000000F08AF800F06EFA0F49C0390A680968E9
:10091000C2F303230F4AD35C03F01F03D84001F056
:100920000F01515C01F01F01C8400B4908600B49E1
:100930000860002000F014F808B1012008BD00F0A4
:100940002FF8002008BD0000D8440258004402409F
:10095000FF00F0FF602410081400001010000010C9
:1009600070B50D4D04462878A0B14FF47A71B1FBF3
:10097000F0F00A490968B1FBF0F000F0CBFA48B991
:10098000102C07D200222146501E00F025F800202E
:100990006C6070BD012070BD0400001010000010DC
:1009A000054808B5016841F002010160006800F0E7
:1009B0000200009008BD0000F4440258002809DB42
:1009C00000F01F02012191404009800000F1E02069
:1009D000C0F8001170470000F0B40E4B1B680C46C5
:1009E000C3F30223C3F10705042D00D90425191D03
:1009F000072901D2002300E0DB1E012606FA05F1DB
:100A0000491E214099409E40761E16403143F0BC5D
:100A100001F0BDBC0CED00E0064900F007020868DB
:100A20004FF6FF03184040EA0220034A10430860D3
:100A3000704700000CED00E00000FA0510B5FFF76C
:100A400027FF032800D040BF20BF10BD70B50E4661
:100A500019490B6823F0010303430B60164C174D33
:100A6000103432B12068012A11D020F00400206037
:100A700070BDFFF70DFF0328FAD1206820F00100B8
:100A800020600BE0286820F00400286070BD20F092
:100A900002002060FFF7FCFE0128F7D1286840F033
:100AA00004002860BFF34F8FBFF36F8F012E01D07A
:100AB00020BFE7E730BFE5E70048025810ED00E04F
:100AC00010B500F04BF905490968054AC1F3021158
:100AD000515C01F01F01C84010BD000020440258C5
:100AE00060241008484910B50A68096802F0030339
:100AF000454AC1F30531121D1268434CC2F300127E
:100B000014342468C4F3CC0414FB02F200EE102A5F
:100B1000F8EE400AE9B33C4A9FED3C1A1032B7EEBA
:100B2000000A63B1DFED3A1A012B01D0022B5ED02F
:100B300002EE101AF8EE422A81EEA22A1AE0324B97
:100B4000283B1C68A4060DD51B68C3F3C104314BB8
:100B5000E34001EE903AF8EE612A01EE901AF8EEC9
:100B6000611A05E001EE901ADFED2B2AF8EE611A0A
:100B700082EEA12A1168C1F3080101EE901A1168F2
:100B8000F8EE611A40EE811A71EE800A62EE200AD8
:100B900000E033E0C1F3462101EE101AB8EE411A2D
:100BA00031EE001AC0EE811ABCEEE11A80ED001A97
:100BB0001168C1F3064101EE101AB8EE411A31EE88
:100BC000001AC0EE811ABCEEE11A80ED011A11681C
:100BD000C1F3066101EE101AB8EE411A31EE000AB7
:100BE00080EE801ABCEEC10A80ED020A10BD01EE53
:100BF000901ADFED0A2AF8EE611AB9E700210160C8
:100C00004160816010BD0000284402580000003996
:100C10000024744A0090D0030024744C20BCBE4BC6
:100C2000484910B50A68096802F00303454AC1F350
:100C30000551121D1268434CC2F300221C34246873
:100C4000C4F3CC0414FB02F200EE102AF8EE400AC2
:100C5000E9B33C4A9FED3C1A1832B7EE000A63B183
:100C6000DFED3A1A012B01D0022B5ED002EE101AF2
:100C7000F8EE422A81EEA22A1AE0324B283B1C6889
:100C8000A4060DD51B68C3F3C104314BE34001EE4C
:100C9000903AF8EE612A01EE901AF8EE611A05E03A
:100CA00001EE901ADFED2B2AF8EE611A82EEA12AEE
:100CB0001168C1F3080101EE901A1168F8EE611A8B
:100CC00040EE811A71EE800A62EE200A00E033E005
:100CD000C1F3462101EE101AB8EE411A31EE001AA6
:100CE000C0EE811ABCEEE11A80ED001A1168C1F362
:100CF000064101EE101AB8EE411A31EE001AC0EEAC
:100D0000811ABCEEE11A80ED011A1168C1F3066187
:100D100001EE101AB8EE411A31EE000A80EE801A88
:100D2000BCEEC10A80ED020A10BD01EE901ADFEDA3
:100D30000A2AF8EE611AB9E700210160416081607A
:100D400010BD000028440258000000390024744AF5
:100D50000090D0030024744C20BCBE4B00B500F0C2
:100D600041F80A490A680968C2F30323084AD35CB8
:100D700003F01F03D84001F00F01515C01F01F0187
:100D8000C840044908600449086000BD184402587E
:100D900060241008140000101000001000B5FFF7C8
:100DA000DDFF05490968054AC1F30211515C01F0F4
:100DB0001F01C84000BD00001C44025860241008F8
:100DC00000B5FFF7CBFF05490968054AC1F30221C9
:100DD000515C01F01F01C84000BD00001C440258D6
:100DE0006024100830B543480068444B10F03802C6
:100DF000414808D00111082A03D0102A0BD0182A24
:100E00000BD0084630BD19688906FBD51968C1F3B7
:100E1000C101C84030BD3A4830BD364918310A6872
:100E2000096802F00304334AC1F305111C32126849
:100E3000304D02F0010224352D68C5F3CC0515FBB9
:100E400002F200EE102AB8EE400AE9B3294A9FEDFB
:100E50002D1AF7EE000A203264B1DFED2B1A012CB7
:100E600001D0022C3CD002EE101AF8EE422A81EE9C
:100E7000A22A17E01C68A4060CD51B68C3F3C103A3
:100E8000D84001EE900AF8EE612A01EE901AF8EED1
:100E9000611A05E001EE901ADFED1C2AF8EE611AE6
:100EA00082EEA12A1068C0F3080001EE900A1068D3
:100EB000F8EE611A40EE011A31EEA00A22EE000AA5
:100EC000C0F34620401C00E011E000EE900AF8EE6E
:100ED000600A80EE201ABCEEC10A10EE100A30BD86
:100EE00001EE901ADFED0A2AF8EE611AD8E7002029
:100EF00030BD0000104402580090D0030044025856
:100F000040787D01000000390024744A0024744CAC
:100F100020BCBE4B10B5401EB0F1807F01D3012034
:100F200010BD4FF0E02460610F21601701F02FFA2F
:100F30000020A06107202061002010BD90F87C10E7
:100F4000012918D0012180F87C102421C0F88010DC
:100F500050F8601B0A680B6823F001030B6022F055
:100F600000510022426050F8603C1960202101626B
:100F700002771046704702207047704770B50446EC
:100F800090F87C0001281DD0012084F87C002420EA
:100F9000C4F8800020680568026822F0010202603F
:100FA0002068826822F060620A438260204600F076
:100FB000BDFA206805602020C4F88000002084F875
:100FC0007C0070BD022070BD70B5044690F87C00B6
:100FD00001281DD0012084F87C002420C4F8800062
:100FE00020680568026822F00102026020688268B9
:100FF00022F060420A438260204600F097FA20689F
:1010000005602020C4F88000002084F87C0070BDBA
:10101000022070BD70477047704700002DE9F04115
:1010200003680446D86919689A6840F60F05284293
:101030004FF0000509D186067ED501F0200602F0AA
:1010400080573E4378D0E16E9EE0624E624F16407C
:101050000F40374370D0C70709D0CF0507D5012708
:101060001F62D4F8883043F00103C4F88830830746
:101070000AD5D30708D0276802233B62D4F888300A
:1010800043F00403C4F8883043070AD5D30708D0D7
:10109000276804233B62D4F8883043F00203C4F885
:1010A000883003070CD501F02003334308D02668AD
:1010B00008233362D4F8883043F00803C4F888303A
:1010C00003050BD54B0109D526684FF40063336245
:1010D000D4F8883043F02003C4F88830D4F888303E
:1010E000002B34D0800609D501F0200002F0805199
:1010F000084303D0E16E09B120468847D4F8880040
:1011000021688968490602D410F0280F21D02046B2
:1011100000F0DCFA20688168490615D5816821F065
:1011200040018160A06F78B12C490165A06FFFF785
:1011300045F900280BD000E011E0A06F016D00E040
:101140002046BDE8F04108472046FFF765FFBDE8AF
:10115000F0812046FFF760FFC4F88850F7E7C60229
:1011600009D5560207D54FF4801018622046BDE815
:10117000F041FFF750BF060609D501F0800602F4E2
:101180000002164303D0216F0029D9D1DFE74206C0
:101190000DD54A060BD51968204621F0400119608B
:1011A0002021C4F88010256700F078F9CFE702020B
:1011B00006D54A0004D52046BDE8F041FFF72ABF16
:1011C000C001C4D50029C2DA2046BDE8F041FFF7CE
:1011D000D4BE00000100001020010004B716100862
:1011E00010B5040003D0D4F8800010B107E001204E
:1011F00010BD002084F87C00204600F027F8242051
:10120000C4F880002068016821F0010101602046D7
:1012100000F06EFB0128EBD0A06A10B1204600F070
:10122000B7F92068416821F49041416020688168E5
:1012300021F02A0181602068016841F0010101600C
:101240002046BDE8104000F007BA000010B586B097
:10125000044614216846FFF773F81749206888424E
:1012600028D11648016841F010010160006800F0C3
:101270001000059011481038016841F0010101602B
:101280000068694600F0010005904FF4C0600090CE
:10129000022001900020029003900720049008484B
:1012A000FFF7D0F9002211462520FFF795FB2520F6
:1012B000FFF784FB06B010BD00100140F044025857
:1012C0000000025870B5D0F88430202B6DD1B9B130
:1012D000B2B190F87C30012B67D0012380F87C30CC
:1012E0008165A0F85C20A0F85E200021C1668368BB
:1012F0004FF48056FF24B34207D1036913B11CE0B9
:10130000012070BD40F2FF131DE07F259BB1B3F1BA
:10131000805F15D0A0F86010C0F888102223C0F8B4
:10132000843003689C6844F001049C60436EB3F110
:10133000005F0ED027E0036943B9A0F86040EBE7F7
:1013400003691BB13F23A0F86030E5E7A0F86050C7
:10135000E2E7B0F86830934215D88268B24201D112
:10136000026972B1124AC26680F87C1001680A688C
:1013700042F480720A600068816841F080518160A7
:101380000FE00C4AEFE78268B24201D1026952B124
:10139000094AC26680F87C100068016841F49071C7
:1013A0000160002070BD054AF3E7022070BD000017
:1013B0005118100851171008F1171008F1161008ED
:1013C00000680449884204D1012203490348FFF719
:1013D00079BF704700100140000000103800001075
:1013E0002DE9F8430446D0F880001F4616460D4606
:1013F000202851D1DDB1D6B194F87C0001284BD022
:10140000012084F87C004FF00008C4F88880212077
:10141000C4F880001834FFF747FAA6878146E687AC
:1014200054F8100C183CB0F5805F03D004E00120A4
:10143000BDE8F883206910B12E46002510E0002693
:101440000EE08021204600F049FFB8B9C6B116F879
:10145000010B21688862B4F85600401EA4F85600BB
:10146000B4F856004B464FF0000200970028E8D130
:101470004FF04001204600F031FF30B10320D7E7A4
:1014800035F8020BC0F30800E3E72020C4F8800021
:1014900084F87C800020CBE70220C9E77047FEE794
:1014A000134810B5114901604FF4E131416000214A
:1014B00081600C22C160C0E904128161C1610162D6
:1014C00041628162FFF78CFE00210948FFF77CFD35
:1014D00000210748FFF752FD0548FFF72FFDBDE843
:1014E0001040012203490248FFF7ECBE0010014002
:1014F0003800001000000010FEE77047704770478A
:10150000FFF7E0B90848016841F47001016006483E
:101510007838016841F00401016003494FF001602F
:10152000803908607047000088ED00E03FB514A1E5
:10153000D1E90021CDE9002113A2D2E90012CDE9C1
:101540000212416EB9B1026891689268C1F34261BA
:10155000520F1DF80240E50002ACA25CB5FBF2F2AE
:10156000A0F86A201DF80120615CD200B2FBF1F105
:10157000A0F868103FBD0121A0F86A10F8E700004C
:101580000101010307010000080402040801010130
:1015900090F82810C90706D001684A68C36A22F487
:1015A00000321A434A6090F82810890706D501686E
:1015B0004A68036B22F480321A434A6090F828107C
:1015C000490706D501684A68436B22F480221A4312
:1015D0004A6090F82810090706D501684A68836BAD
:1015E00022F400421A434A6090F82810C90606D532
:1015F00001688A68C36B22F480521A438A6090F8AB
:101600002810890606D501688A68036C22F4005206
:101610001A438A6090F82810490611D501684A6873
:10162000436C22F480121A434A60416CB1F5801F6A
:1016300006D101684A68836C22F4C0021A434A60EA
:1016400090F82810090606D501684A68C06C22F493
:10165000002202434A607047F8B500260446C0F8ED
:101660008860FFF721F90546206800686FF07E4723
:10167000000708D52B4600224FF4001120460097A2
:1016800000F02CFE60B92068006840070AD52B46A0
:1016900000224FF480012046009700F01FFE08B1A1
:1016A0000320F8BD2020C4F88000C4F8840084F82A
:1016B0007C600020F8BD10B5806B0021A0F85E10A2
:1016C000A0F85610FFF7A8FC10BD000001680A68DA
:1016D00022F490720A6001688A68044B1A408A609A
:1016E0002021C0F884100021C1667047FEFFFFEF83
:1016F00010B5B0F86020D0F884300168222B04D0F7
:10170000886940F00800886110BD496A836D114006
:101710001980816D891C8165B0F85E10491EA0F8A2
:101720005E10B0F85E100029EED101680A6822F45C
:1017300090720A6001688A6822F001028A602021A2
:10174000C0F884100021C166FFF73AFE10BD00000A
:1017500070B50446B0F86060D0F88400222805D047
:101760002068816941F00801816170BDB4F868505A
:1017700023E02068406AA16D30400880A06D801C85
:10178000A065B4F85E00401EA4F85E00B4F85E00E8
:1017900088B92068016821F480710160206881683F
:1017A000114A114081602020C4F884000020E066C6
:1017B0002046FFF705FE6D1EADB2002DD9D1B4F85D
:1017C0005E000028D1D0B4F868108142CDD92068DD
:1017D000816821F0805181600448E06620680168DA
:1017E00041F02001016070BDFEFFFFEFF11610080F
:1017F00010B5B0F86020D0F884300168222B04D0F6
:10180000886940F00800886110BD496A1140826D06
:101810001170816D491C8165B0F85E10491EA0F8F9
:101820005E10B0F85E100029EED101680A6822F45B
:1018300090720A6001688A6822F001028A602021A1
:10184000C0F884100021C166FFF7BAFD10BD00008A
:1018500070B50446B0F86060D0F88400222805D046
:101860002068816941F00801816170BDB4F8685059
:1018700023E02068406AA16D30400870A06D401CD4
:10188000A065B4F85E00401EA4F85E00B4F85E00E7
:1018900088B92068016821F480710160206881683E
:1018A000114A114081602020C4F884000020E066C5
:1018B0002046FFF785FD6D1EADB2002DD9D1B4F8DD
:1018C0005E000028D1D0B4F868108142CDD92068DC
:1018D000816821F0805181600448E06620680168D9
:1018E00041F02001016070BDFEFFFFEFF11710080D
:1018F0002DE9F04F0446036881680069E5690143FA
:101900006069F94A28430143606E87B0084319684B
:101910004FF00008F54D29400143196020684168E7
:10192000E36821F44051194341602168A069914264
:1019300001D0236A18438B68ED4D2B4003438B6025
:101940002068C16A636A21F00F011943C162E94B43
:101950002068E94998420ED1096801F03801182938
:1019600073D047DCB9B3082979D010296FD178E05A
:1019700028297ED17BE0E14B984209D1096801F02A
:101980000701062975D2DFE801F0546A6C6E7072A7
:10199000DB4B984209D1096801F00701062968D29A
:1019A000DFE801F0475D5F616365D64B984209D17E
:1019B000096801F0070106295BD2DFE801F03A501F
:1019C00052545658D04B98420BD1096801F0070188
:1019D00006294ED200E010E0DFE801F02B4143453C
:1019E0004749CA4B98420AD1096801F038011829C1
:1019F00039D0B7DD2029BBD137E001273AE0C44B0D
:101A0000984209D1096801F00701062931D2DFE8BF
:101A100001F01026282A2C2EBE4B98420BD10968C3
:101A200001F00701062924D2DFE801F003191B1D8C
:101A30001F2100271EE090421BD1AF49091D0968F4
:101A400001F00701062914D202E00CE007E010E0E3
:101A5000DFE801F0030507090B0D02270AE0042760
:101A600008E0082706E0102704E0202702E04027CE
:101A700000E08027DFF880B2DFF89CA24FF4807589
:101A80004FF00009ABF1540B90427DD1102F47D09D
:101A900006DC022F09D0042F0BD0082F75D10DE0E2
:101AA000202F73D0402F70D1BEE0FFF709F8014618
:101AB00040E06846FFF716F801993BE003A8FFF7FE
:101AC000AFF8049936E002203AE0022812D0032849
:101AD00012D0042812D0052812D0062812D00728C8
:101AE00012D0082812D0092812D00A2812D00B28A8
:101AF00014D111E0042023E0062021E008201FE09B
:101B00000A201DE00C201BE0102019E0202017E027
:101B1000402015E0802013E0284611E001200FE06E
:101B2000DBF80010584689060DD50068C0F3C100E7
:101B30002AFA00F1606A0028F0D00128C5D1C2E776
:101B4000B1FBF0F01AE0606AA8B1012825D00228A4
:101B500025D0032825D0042825D0052825D00628FF
:101B600025D0072825D0082825D0092825D00A28DF
:101B700025D00B2825D00120BAFBF0F0002870D02A
:101B8000666806EB460102E0F0E16BE01BE0814293
:101B90007FD8B0EB063F7CD87EE00220ECE7042043
:101BA000EAE70620E8E70820E6E70A20E4E70C2059
:101BB000E2E71020E0E72020DEE74020DCE780209D
:101BC000DAE72846D8E7606AA8B1012816D00228CB
:101BD00016D0032816D0042816D0052816D00628BB
:101BE00016D0072816D0082816D0092816D00A289B
:101BF00016D00B2816D001204849A1E70220FBE7A8
:101C00000420F9E70620F7E70820F5E70A20F3E7C4
:101C10000C20F1E71020EFE72020EDE74020EBE774
:101C20008020E9E72846E7E7606AA8B101281AD0D2
:101C300002281AD003281AD004281AD005281AD04E
:101C400006281AD007281AD008281AD009281AD02E
:101C50000A281AD00B281AD05FF001004FF4004177
:101C60006EE717E215E00220F8E70420F6E7062009
:101C7000F4E70820F2E70A20F0E70C20EEE7102056
:101C8000ECE72020EAE74020E8E78020E6E7284666
:101C9000E4E74FF00108CBE2102F6FD040DC022FB9
:101CA0006FD0042F6CD0082FF3D103A8FEF7B8FF34
:101CB0000499606AA8B1012867D0022867D0032878
:101CC00067D0042867D0052867D0062867D0072882
:101CD00067D0082867D0092867D00A2867D00B2862
:101CE00066D0012564E00000000C0058F369FFCFC6
:101CF000FFF4FF110010014054440258004400401A
:101D000000480040004C00400050004000140140DA
:101D100000780040007C00400090D00300093D00A6
:101D2000202F7DD0402FB4D1606AA8B1012878D08F
:101D3000022877D0032876D0042875D0052874D0DF
:101D4000062873D0072872D0082871D0092870D0CF
:101D50000A286FD00B2800D001252A464F460023C1
:101D60004FF400400021FEF7B3FA090241EA106186
:101D70000202700810187941324628E035E000E090
:101D80002EE0FEF79DFE014693E7022510E00425B4
:101D90000EE006250CE008250AE00A2508E00C25DF
:101DA00006E0102504E0202502E0402500E0802523
:101DB000002308462A464E461946FEF789FA0902CC
:101DC000626841EA1061030250081818714100234B
:101DD000FEF77EFAF849A0F540728A426FD958E7BB
:101DE0006846FEF77FFE019963E7DBF8001058466E
:101DF000890642D50068C0F3C1002AFA00F1606A82
:101E000008B3012825D0022825D0032825D004288E
:101E100025D0052825D0062825D0072825D00AE07A
:101E20005EE08FE090E091E092E093E094E095E056
:101E300096E097E098E0082819D0092819D00A28D8
:101E400019D00B2800D001252A464F46002308460A
:101E500088E70225F8E70425F6E70625F4E70825D4
:101E6000F2E70A25F0E70C25EEE71025ECE7202540
:101E7000EAE74025E8E78025E6E7606AA8B101289F
:101E800019D0022819D003281AD004281AD00528FE
:101E90001AD006281AD007281AD008281AD00928DC
:101EA0001AD00A281AD00B2800D001252A464F46FE
:101EB0000023504656E70225F8E70425F6E7B5E18A
:101EC0000625F3E70825F1E70A25EFE70C25EDE7FE
:101ED0001025EBE72025E9E74025E7E78025E5E742
:101EE000606AA8B1012819D0022819D0032819D096
:101EF000042819D0052819D0062819D0072819D088
:101F0000082819D0092819D00A2819D00B2800D080
:101F100001252A464F460023A84823E70225F8E773
:101F20000425F6E70625F4E70825F2E70A25F0E799
:101F30000C25EEE71025ECE72025EAE74025E8E749
:101F40008025E6E7022508E7042506E7062504E7DD
:101F5000082502E70A2500E70C25FEE61025FCE629
:101F60002025FAE64025F8E68025F6E6E0694FF4FC
:101F700000414FF6EF7688427DD1082F19D00ADC58
:101F800087B1012F11D0042F7FF429AF6846FEF7E7
:101F9000A9FD01991CE0102F10D0202F6CD0402FEC
:101FA000F2D115E0FEF7FAFE01E0FEF709FF014667
:101FB0000EE003A8FEF734FE049909E0DBF80010F8
:101FC0005846890634D50068C0F3C1002AFA00F1EA
:101FD000606AA8B1012815D0022815D0032815D0B1
:101FE000042815D0052815D0062815D0072815D0A7
:101FF000082815D0092815D00A2815D00B2814D088
:10200000012512E0022510E004250EE006250CE073
:1020100008250AE00A2508E00C2506E0102504E062
:10202000202502E0402500E08025B1FBF5F01AE014
:10203000606AA8B101282ED002282ED003282ED005
:1020400004282ED005282ED006282ED007282ED0E2
:1020500008282ED009282ED00A282ED00B2800D0F0
:102060000125BAFBF5F04100606801EB5001B1FBBE
:10207000F0F080B201E053E021E0A0F11001B142A4
:102080003FF6ADAE4FF6F0710140C0F342000143A0
:102090002068C160CCE00225E3E70425E1E70625DE
:1020A000DFE70825DDE70A25DBE70C25D9E7102562
:1020B000D7E72025D5E74025D3E78025D1E7606A1B
:1020C000A8B1012818D0022818D0032818D0042855
:1020D00018D0052818D0062818D0072818D00828A6
:1020E00018D0092818D00A2818D00B2800D00125AC
:1020F0003248B0FBF5F0B6E70225F9E70425F7E72B
:102100000625F5E70825F3E70A25F1E70C25EFE7B3
:102110001025EDE72025EBE74025E9E78025E7E7F7
:10212000082F19D00ADC87B1012F11D0042F7FF4BA
:1021300056AE6846FEF7D6FC01991CE0102F10D071
:10214000202F7DD0402FF2D115E0FEF727FE01E0D1
:10215000FEF736FE01460EE003A8FEF761FD049986
:1021600009E0DBF800105846890639D50068C0F34D
:10217000C1002AFA00F1606AA8B1012815D002282E
:1021800015D0032815D004281AD005281AD00628FF
:102190001AD007281AD008281AD009281AD00A28D5
:1021A0001AD00B2819D0012517E0022515E00425C7
:1021B00013E0062511E00000FFFC0F0000093D00C0
:1021C00008250AE00A2508E00C2506E0102504E0B1
:1021D000202502E0402500E08025B1FBF5F11AE062
:1021E000606AA8B1012832D0022832D0032832D048
:1021F000042832D0052832D0062832D0072832D021
:10220000082832D0092832D00A2832D00B2800D032
:102210000125BAFBF5F1606801EB5001B1FBF0F06C
:1022200080B2A0F11001B1423FF6D9AD2168C8607B
:102230000120A4F86A0024F8680FC4F8049000E0B4
:1022400019E0C4F8089007B04046BDE8F08F0225B9
:10225000DFE70425DDE70625DBE70825D9E70A25C2
:10226000D7E70C25D5E71025D3E72025D1E7402572
:10227000CFE78025CDE7606AA8B1012818D00228F1
:1022800018D0032818D0042818D0052818D00628FC
:1022900018D0072818D0082818D0092818D00A28DC
:1022A00018D00B2800D001250B48B0FBF5F1B2E7A0
:1022B0000225F9E70425F7E70625F5E70825F3E702
:1022C0000A25F1E70C25EFE71025EDE72025EBE7E0
:1022D0004025E9E78025E7E700093D002DE9F047C3
:1022E0009A4617460E4604464FF000094FF0200864
:1022F000089D39E0681C37D0FEF7D6FAA0EB0A003B
:10230000A84222D80DB32068016849072CD5C069BE
:10231000C043000528D421684FF40060086220689B
:10232000016821F4D07101602068816821F0010109
:102330008160C4F88080C4F88480C4F8888000BFBD
:1023400084F87C900320BDE8F0872068016821F4C0
:10235000D07101602068816821F001018160C4F8BA
:102360008080C4F88480EBE72068C06936EA00000A
:1023700004D00020B842BDD00020E4E70120F9E7F6
:102380000148FEF74BBE000038000010FEE70907C9
:10239000090E002804DB00F1E02080F800147047EB
:1023A00000F00F0000F1E02080F8141D704702E0FB
:1023B00008C8121F08C1002AFAD1704770470020D0
:1023C00001E001C1121F002AFBD17047204C08B563
:1023D000206840F000702060206800F000700090DD
:1023E0000120FEF767FAFEF729FB012202210020F7
:1023F000FEF72CFB17480068C0F30310072824D011
:102400001548016841F001010160FEF763FA206898
:1024100040F001002060206800F001000090FFF70C
:102420003FF80E4A0020411C115488B21E28FAD3EE
:102430004FF47A74094964231E2201F12000FEF74B
:10244000CFFF2046FEF7ECF8F4E703481038D8E752
:10245000E044025800ED00E0146502581800001036
:10246000000000000102030401020304060708093A
:10247000902410080000001018000000AE2310087F
:10248000A824100818000010B0040000BE23100893
:10249000000000000100000010000000000000002B
:0824A0000090D0030090D0036E
:040000050810029944
:00000001FF
