:020000040800F2
:1000000070040020010100082B0F0008790C000883
:10001000290F00086D010008ED0F00080000000026
:100020000000000000000000000000004F0F00086A
:100030006F010008000000004D0F0008510F00087C
:100040001B0100081B0100081B0100081B01000820
:100050001B0100081B0100081B0100081B01000810
:100060001B0100081B0100081B0100081B01000800
:100070001B0100081B0100081B0100081B010008F0
:100080001B0100081B0100081B0100081B010008E0
:100090001B0100081B0100081B0100081B010008D0
:1000A0001B0100081B0100081B0100081B010008C0
:1000B0001B0100081B0100081B0100081B010008B0
:1000C0001B0100081B0100081B0100081B010008A0
:1000D0001B0100081B0100081B0100081B01000890
:1000E0001B0100081B0100081B010008DFF80CD0F1
:1000F00000F02AF8004800470D10000870040020A6
:100100000648804706480047FEE7FEE7FEE7FEE7B1
:10011000FEE7FEE7FEE7FEE7FEE7FEE7A50F0008C5
:10012000ED000008D2B201E000F8012B491EFBD21D
:1001300070470022F6E710B513460A4604461946F2
:10014000FFF7F0FF204610BD064C074D06E0E068C3
:1001500040F0010394E8070098471034AC42F6D30E
:10016000FFF7C8FF9C100008BC100008FEE77047AE
:1001700070B5044600F0F2F80546601C02D0044851
:100180000078044400F0EAF8401BA042FAD370BDA6
:10019000000000202DE9F84FDFF890A100220AF1BD
:1001A000040B144601274FF00F090BF1040E00BF9A
:1001B0000B6807FA04F52B40AB4274D1DFF870C12D
:1001C0004E68A6EB0C0866452BD00DDC032E34D010
:1001D00005DC36B3012E19D0022E2FD11BE0112ED3
:1001E00016D0122E2AD119E0B8F5881F19D006DCD6
:1001F000B8F5803F15D0B8F5801F1FD111E0B8F5D4
:10020000001F0ED0B8F5041F18D10AE0CA6815E027
:10021000CA68121D12E0CA6808320FE0CA680C32C0
:100220000CE08A682AB1012A4FF0080203D0456128
:1002300004E0042202E0056100E00022FF2B01D867
:10024000064601E000F104064FEA840501D9A5F154
:100250002005D6F800C009FA05F82CEA080C02FAC5
:1002600005F54CEA050CC6F800C04D68ED0057D501
:10027000304DAE6946F00106AE61AD6924F003066B
:1002800005F0010500952C4D06EB050CDCF8085037
:10029000A6074FEA167809FA08F6B543274EB0428A
:1002A00002D1002610E03BE0254EB04201D10126EC
:1002B0000AE0244EB04201D1022605E0224EB042AF
:1002C00001D1032600E0042606FA08F62E43CCF8F6
:1002D00008604D68DAF80060ED03554601D51E430D
:1002E00000E09E432E604D68DBF80060AD035D4684
:1002F00001D51E4300E09E432E604D68DEF800608D
:10030000ED02754601D51E4300E09E432E604D6808
:10031000AD020E4D2E6801D51E4300E09E432E60B7
:10032000641C102CFFF444AFBDE8F88F00040140BA
:1003300000001110001002400000014000080140C0
:10034000000C014000100140001401400C04014069
:100350000AB1016170470904FBE7000001488068A9
:10036000704700000000002070B504001BD094F816
:100370003D00002520B984F83C50204600F032F9B9
:10038000242084F83D002068016821F0010101600B
:1003900000F096FA404A6168914201D83F4900E076
:1003A0003F49884201D2012070BD3E492368B0FB1D
:1003B000F1F159606368934206D94FF4967359433B
:1003C0004FF47A73B1FBF3F12368491C1962616839
:1003D000914210D84900401EB0FBF1F2521CC2F30A
:1003E0000B02042A01D2042022E0B0FBF1F0401CF1
:1003F000C0F30B001CE0A368CBB301EBC10202EB1E
:100400000116421EB2FBF6F2521C42F48042120563
:1004100036D06BB301EBC10202EB0111401EB0FB01
:10042000F1F0401CC0F30B0040F4804040F4004069
:100430002168C861D4E90701084321680860D4E94C
:100440000310084321688860D4E905010843216846
:10045000C8602068016841F0010101602564202026
:1004600084F83D00256384F83E50002070BD00E014
:1004700008E001EB4106421EB2FBF6F2521CC6E751
:100480000120D5E701EB4101401EB0FBF1F0401C1B
:10049000C0F30B00CAE70000A086010080841E00A4
:1004A00000093D0040420F002DE9FF4F83B09A46FE
:1004B000DDE9118793460446DDF84090FFF74EFFD3
:1004C000064694F83D0020287DD119230122434996
:1004D0002046009600F05DFC00287CD194F83C009A
:1004E000012878D0012084F83C0020680168C90701
:1004F00003D1016841F0010101602068016821F425
:1005000000610160212084F83D00402084F83E0015
:1005100000252564C4F82490A4F82A803048E062BD
:10052000608D2085CDE9007653465A4620460499D1
:1005300000F0B8FB80B3206C84F83C50042848D00D
:1005400008E032463946204600F098FC30B1206C75
:10055000042839D0032007B0BDE8F08F606A411C41
:100560006162216800780861208D401E80B220857C
:10057000618D491E618521684A69D24352070BD4B7
:1005800068B1606A421C626200780861208D401E7A
:100590002085608D401E6085208D0028D1D1324697
:1005A0003946204600F0CEFB0028D0D154F83D0B50
:1005B000016841F400710160202004F81E09E5770C
:1005C00065770020C7E706E02068016841F4007104
:1005D00001600120BFE70220BDE70000020010001B
:1005E0000000FFFF00B585B000210091019102914C
:1005F000039100680F4988421AD10F48C16941F43C
:100600000011C161C16901F400110491816941F0D7
:10061000080181618069694600F008000490C020EB
:10062000009012200190032003900448FFF7B2FDD0
:1006300005B000BD0054004000100240000C014015
:1006400002488168027811448160704700000020F0
:10065000074810B5016841F010010160032000F067
:1006600067F8002000F006F800F024F8002010BD24
:100670000020024070B50D4D04464FF47A71287881
:10068000B1FBF0F00A490968B1FBF0F000F0E0FAC4
:1006900048B9102C07D200222146501E00F028F83D
:1006A00000206C6070BD012070BD000000000020C3
:1006B0000C0000200C4808B5816941F001018161FE
:1006C000816901F001010091C16941F08051C1616E
:1006D000C06900F0805000900448416821F0E0615A
:1006E00041F00071416008BD00100240000001406F
:1006F000F0B40E4B1B680C46C3F30223C3F107058D
:10070000042D00D90425191D072901D2002300E07A
:10071000DB1E012606FA05F1491E214099409E4044
:10072000761E16403143F0BC00F000BC0CED00E03A
:10073000064900F0070208684FF6FF03184040EA38
:100740000220034A10430860704700000CED00E0EF
:100750000000FA052DE9F047DFF8548105460E4602
:10076000D8F8000000F00700B0420CD2D8F8001012
:1007700021F007013143C8F80010D8F8000000F05C
:100780000700B0426FD128684A4C810712D5400754
:1007900003D5606840F4E06060602878000703D506
:1007A000606840F4605060606068A96820F0F00004
:1007B000084360602878C00744D06868012816D0D4
:1007C0002168022816D0890700294CDA616821F0D7
:1007D000030101436160FFF7C1FD6968074641F20B
:1007E000883001290ED00229814618D026E02168E0
:1007F0008903E9E78901E7E7FFF7B0FDC11B494538
:1008000001D918E081466068C0F381000128F3D166
:1008100018E000BFFFF7A2FDC11B49450BD8606877
:10082000C0F381000228F5D10CE000BFFFF796FD70
:10083000C11B494502D90320BDE8F087606810F06C
:100840000C0FF3D1D8F80010404601F00701B14277
:100850000BD9016821F0070131430160006800F005
:100860000700B04201D00120E6E72878400705D50F
:100870006068E96820F4E060084360602878000759
:1008800006D56068296920F4605040EAC1006060C4
:1008900000F026F86168084AC1F30311515CC840B2
:1008A000064908600020FFF7E5FE0020C4E70000CD
:1008B0000020024000100240841000080C000020BC
:1008C0000448054900684968044AC1F30221515CA3
:1008D000C84070470C00002000100240941000082F
:1008E00012A185B00FC98DE80F0014A0144A00684A
:1008F00004905168134801F00C03042B10D0082B0E
:100900000ED1C1F38343C9031DF803000AD5516812
:1009100004AAC1F34041515C0A4A5043B0FBF1F0D4
:1009200005B0704708494843FAE700000203040590
:10093000060708090A0B0C0D0E0F1010010200002B
:100940000010024000127A0000093D002DE9F84F26
:1009500004460078B94DC00748D06868C0F38100EC
:10096000012807D06868C0F38100022809D16868AF
:10097000C00306D52868800338D5606800286FD08A
:1009800034E06068B0F5803F0BD010B1B0F5A02F17
:1009900011D0286820F480302860286820F4802056
:1009A00002E0286840F480302860606888B1FFF772
:1009B000D5FC064609E0286840F480202860F0E76E
:1009C000FFF7CCFC801B642875D828688003F7D516
:1009D0000CE0FFF7C3FC064605E000BFFFF7BEFCD6
:1009E000801B6428F0D828688003F7D42078944EC0
:1009F00080074FF001094FF000083BD5686810F000
:100A00000C0F07D06868C0F38100022809D168681C
:100A1000C00306D42868800714D5206901281FD197
:100A200010E02069B0B1C6F80090FFF797FC0746C8
:100A300005E000BFFFF792FCC01B0228C4D828685D
:100A40008007F7D52868616920F0F80040EAC10006
:100A500028600FE0C6F80080FFF780FC074606E03C
:100A6000E9E000BFFFF77AFCC01B022823D8286802
:100A70008007F7D4207800072CD57248A169D9B136
:100A8000C0F80090FFF76AFC074604E0FFF766FC39
:100A9000C01B02280FD8686A8007F7D56A484FF450
:100AA000FA510068B0FBF1F0009000BF0098411EC1
:100AB0000091FAD20EE080E0C0F80080FFF74EFC13
:100AC000074604E0FFF74AFCC01B022875D8686A95
:100AD0008007F7D42078400760D5E8690027C00078
:100AE00008D4E86940F08050E861E869012700F027
:100AF0008050009055480168C90513D401688346A9
:100B000041F480710160FFF729FC824606E000BFD6
:100B1000FFF724FCA0EB0A0064284ED8DBF80000A5
:100B2000C005F5D5E06801280AD008B1052813D022
:100B3000286A20F001002862286A20F0040002E000
:100B4000286A40F001002862E06841F2883B98B1D1
:100B5000FFF704FC82460BE0286A40F0040028629C
:100B6000EEE700BFFFF7FAFBA0EB0A0159455AD8A0
:100B7000286A8007F6D50CE0FFF7F0FB824605E017
:100B8000FFF7ECFBA0EB0A0159454CD8286A800717
:100B9000F6D41FB1E86920F08050E861E06988B3BD
:100BA0006968C1F38101022945D00228C6F8608036
:100BB00004D0FFF7D3FB044638E034E0FFF7CEFB68
:100BC000074604E0FFF7CAFBC01B02282BD82868A1
:100BD0008001F7D4206AB0F5803F05D16868A1682C
:100BE00020F4003008436860D4E9080108436968CC
:100BF00021F4741108436860C6F86090FFF7AEFBFB
:100C0000044606E015E000BFFFF7A8FB001B022822
:100C100009D828688001F7D50BE000BFFFF79EFBDD
:100C2000001B022802D90320BDE8F88F2868800144
:100C3000F4D40020F8E70120F6E70000001002409D
:100C400000004242800442420C000020007000403C
:100C500010B5401EB0F1807F01D3012010BD4FF0D0
:100C6000E02460610F21601700F060F90020A061AE
:100C700007202061002010BDFEE701684A69D243C9
:100C800052050CD46FF480624A6104210164002192
:100C900040F8301F2022427301730120704700206A
:100CA000704700002DE9F843044600680D46DDE971
:100CB000089701689846164641F4807101604B46DA
:100CC00000224FF001112046009700F062F8E8B9C9
:100CD000216805F0FE0008613B464A461849204657
:100CE00000F088F828B1206C04280FD10120BDE85D
:100CF000F88320684169806900903A464946204659
:100D000000F0BCF820B1206C042813D00320EEE7DB
:100D1000F5B2B8F1010F09D02168300A08613A46EE
:100D20004946204600F0AAF80028ECD12068056169
:100D30000020DCE72068016841F400710160D5E71C
:100D40000200010070B516460D4604461AE0204622
:100D5000FFF793FF08B1012070BD681C12D025B1C8
:100D6000FFF7FCFA801BA8420CD954F8400F40F062
:100D7000200044F8100900202060202161732073B6
:100D8000032070BD20684069C0434007DFD40020C5
:100D900070BD2DE9F0471E4690460D460446C1F34E
:100DA0000747DDF8209012E0701C10D02EB1FFF73D
:100DB000D5FAA0EB0900B04209D9002044F8300F61
:100DC00020216173A07320730320BDE8F0872068A1
:100DD000012F0AD0806925EA00000004000C06D02B
:100DE00000214145E0D00020EFE74069F3E7012111
:100DF000F7E700002DE9F0479A4691460D46044674
:100E000000264FF02008C1F307472AE02068406918
:100E1000C043400512D42068016841F400710160AC
:100E200021686FF48060486104202064266384F8A0
:100E30003D8084F83C600120BDE8F087B9F1FF3FB8
:100E40000FD0B9F1000F05D0FFF788FAA0EB0A0127
:100E5000494506D944F8306F84F80D802673032085
:100E6000EAE72068012F07D0D0F8180025EA000033
:100E70000004000CE0D0C9E74069F7E770B51646FA
:100E80000D4604461AE02046FFF7F7FE08B10120A0
:100E900070BD681C12D025B1FFF760FA801BA84214
:100EA0000CD954F8400F40F0200044F810090020FD
:100EB0002060202161732073032070BD2068406989
:100EC000C0430006DFD4002070BD000000B585B02F
:100ED000002002901248816941F0200181618169FE
:100EE00001F020010491816941F00801816181696B
:100EF00001F008010491816941F004018161806978
:100F0000694600F004000490202000900120019028
:100F1000022003900348FFF73DF905B000BD000033
:100F200000100240000C0140FEE770470907090E5F
:100F3000002806DA00F00F0000F1E02080F8141D10
:100F4000704700F1E02080F8001470477047704748
:100F5000FFF776BB30B58FB028216846FFF7E9F878
:100F600014210AA8FFF7E5F801210804CDE90010D3
:100F70000024029402250491CDE907504FF4E010BB
:100F800009906846FFF7E2FC0F20CDE90A056802E8
:100F9000CDE90C4002210AA80E94FFF7DBFB0FB04D
:100FA00030BD00000D48016841F001010160416859
:100FB0000B4A1140416001680A4A11400160016812
:100FC00021F480210160416821F4FE0141604FF469
:100FD0001F0181600449C00308607047001002408F
:100FE0000000FFF8FFFFF6FE08ED00E0FEE702E07C
:100FF00008C8121F08C1002AFAD1704770470020A4
:1010000001E001C1121F002AFBD170470EB5FFF7A6
:101010001FFBFFF79FFFFFF759FF174815494FF4D4
:10102000804201601549416000218160C0E90312DE
:1010300041618161C1610162FFF796F9104C0122A3
:1010400020212046FFF784F90B4864220A210C383E
:101050008DE8070001230022A0210C30FFF724FABD
:10106000002220212046FFF773F93220FFF780F895
:10107000FEE70000005400401C000020A086010094
:10108000000C014000000000000000000102030409
:10109000060708090000000001020304BC10000854
:1010A0000000002010000000EE0F0008CC10000827
:1010B0001000002060040000FE0F00080100000086
:0C10C000100000000000000000A24A0424
:04000005080000ED02
:00000001FF
