:020000040800F2
:10000000B06600209D01000877160008E91400087A
:1000100075160008550300082D17000800000000A1
:100020000000000000000000000000007B16000837
:100030005703000800000000791600087D1600082C
:10004000B7010008B7010008B7010008B7010008B0
:10005000B7010008B7010008B7010008B7010008A0
:10006000B7010008B7010008B7010008B701000890
:10007000B7010008B7010008B7010008B701000880
:10008000B7010008B7010008B7010008B701000870
:10009000B7010008B7010008B7010008B701000860
:1000A000B7010008B7010008B7010008B701000850
:1000B000B7010008B7010008B7010008B701000840
:1000C000B7010008B7010008B7010008B701000830
:1000D000B7010008B7010008B7010008B701000820
:1000E000B7010008B7010008B7010008B701000810
:1000F000B7010008B7010008B7010008B701000800
:10010000B7010008B7010008B7010008B7010008EF
:10011000B7010008B7010008B7010008B7010008DF
:10012000B7010008B7010008B7010008B7010008CF
:10013000B7010008A9030008B7010008B7010008CB
:10014000B7010008B7010008B7010008B7010008AF
:10015000B7010008B7010008B7010008B70100089F
:10016000B7010008B7010008B7010008B70100088F
:10017000B7010008B7010008B7010008000000003F
:10018000B7010008B7010008DFF80CD000F0D0F884
:1001900000480047FF3C0008B06600200648804742
:1001A00006480047FEE7FEE7FEE7FEE7FEE7FEE75C
:1001B000FEE7FEE7FEE7FEE71117000889010008E9
:1001C0002DE9F05F0546002092469B46884606468C
:1001D000814640241BE0284641464746224600F01F
:1001E00097F853465A46C01A914110D31146184603
:1001F000224600F07EF82D1A67EB01084F46224692
:100200000120002100F075F817EB00094E41201E77
:10021000A4F10104DFDC484631462A464346BDE8E6
:10022000F09F00000649074A0868504343F239022C
:10023000104408604008704701490860704700009A
:10024000740000206D4EC64110B5431A934209D286
:100250008318881803E010F8011D03F8011D521ED1
:10026000F9D210BD40EA01039B0703D009E008C999
:10027000121F08C0042AFAD203E011F8013B00F86B
:10028000013B521EF9D210BDD2B201E000F8012BA1
:10029000491EFBD270470022F6E710B513460A4606
:1002A00004461946FFF7F0FF204610BD30B504465E
:1002B0000020034600E05B1C934203D2E05CCD5C6F
:1002C000401BF8D030BD30B50B460146002020223F
:1002D000012409E021FA02F59D4205D303FA02F553
:1002E000491B04FA02F52844151EA2F10102F1DCB3
:1002F00030BD202A04DB203A00FA02F100207047CA
:100300009140C2F1200320FA03F319439040704753
:10031000202A04DB203A21FA02F00021704721FA5A
:1003200002F3D040C2F120029140084319467047C1
:10033000064C074D06E0E06840F0010394E8070032
:1003400098471034AC42F6D3FFF722FFCC66000882
:10035000EC660008FEE77047064908B509684FF4E7
:10036000FA52B1FBF2F14143009100BF491E0091E6
:10037000FBD208BD2400002038B50446006800F513
:100380008050816941F480118161206800F58050BE
:10039000806900900120FFF7DFFF2068009900F5D9
:1003A0008050816138BD0000014800F05BB9000059
:1003B0004C3100202DE9F041044621B14FF400609A
:1003C000E060C000A060E0690025002861D02846F8
:1003D0002368402619683A4A1140D4E902273A4373
:1003E000024342F400700843186020680768012047
:1003F00000F072F820680760206846602068466850
:10040000012000F069F82068466020688560206857
:10041000C560216888694FF64172104040F0800045
:10042000886120688669012000F056F8206886619E
:100430002068C5612068C569012000F04DF820687A
:10044000C561226802F5805290691E4908401E4924
:1004500001439161206800F580508569012000F01A
:100460003BF8206800F5805085612068174900F549
:1004700080500160206800F580500568012000F080
:100480002BF8206800F580500560A069012803D092
:1004900009E04FF480609BE7206800F58050C16957
:1004A0000B4A1143C16160690A4982880A64027873
:1004B000D0F8010042EA00204864BDE8F081000065
:1004C0000F8120FF233FDEF8040020028020C102BC
:1004D000400001000080024070B5044600F092FC2C
:1004E0000546601C02D004480078044400F08AFCF1
:1004F000401BA042FAD370BD180000202DE9F04344
:1005000090F845400025012C0DD04FF0010C80F8EB
:1005100045C0022480F8444044F2F4574FF00049AB
:100520005E1E816217E00220BDE8F08301EB4514F6
:10053000C4F80090C5EBC51808EB480802EB880822
:10054000C4E90178B54204D204F12008C4F80C8053
:1005500000E0E1606D1C9D42E8D3026802F5805224
:10056000D16080F844C0002180F845100846DBE7E0
:100570002DE9F043914690F845200024012A0AD045
:10058000012680F84560022280F844204FF4801C48
:100590005D1EC1621BE00220BDE8F08301EB441246
:1005A000C2F800C0C4EBC41707EB470809EB880783
:1005B0009760C7691FB9176847F440071760AC42D6
:1005C00003D202F12007D76000E0D160641C9C4296
:1005D000E4D3026802F58052116180F84460002182
:1005E00080F845100846D7E7704710B590F84510D9
:1005F000012913D0012280F84520022180F84410FF
:10060000816A0C680023002C27DB0C68E40518D5F0
:10061000846B641C8463012C02D002E0022010BDB4
:10062000016341630C68C4F30D44241FC463046B6D
:10063000A4680464C96840F8281F02774377002043
:1006400010BD0C68A40503D58263C0E90C1302E059
:10065000846B641C8463C968816200F8442F437012
:10066000012010BD70B50446006800F58050416956
:100670004FF0000549064FF0010608D5204600F06E
:10068000DBF92068402100F58050416109E04069B4
:10069000C0070AD0204600F096FA206800F5805086
:1006A000466184F8446084F8455020684FF48031F6
:1006B00000F580504161206800F5805040690004D9
:1006C0000CD52046FFF790FF20684FF4004100F55D
:1006D0008050416184F8446084F8455070BD00004A
:1006E0002DE9FC474FF000060400B146009603D008
:1006F00094F8440018B107E00120BDE8FC8784F8B5
:100700004560204600F0E2F86648016841F4804107
:100710000160006800F4804001906348016821F4A2
:10072000000101600168226A11430160206800F540
:100730008050016841F00101016000F063FB054653
:100740004FF4FA7709E000BF00F05CFB401BB842B1
:1007500003D9032004F8440F67E0206800F58050B7
:100760000068C007F0D12068006920F01C0500F087
:100770007BFC4E494E4A0144914202D245F00805A5
:1007800016E04C494C4A0144914202D245F00C0516
:100790000EE04A494A4A0144914209D34949084472
:1007A0004949884202D245F0040501E045F01005B0
:1007B000206805614FF400420021204600F004FA51
:1007C0000125A8BBFF20FFF787FE606888B300F013
:1007D00019FB804641F288376A460121204600F025
:1007E000E9F800F00FFBA0EB0800B84217D800981A
:1007F0004007F1D54FF480520021204600F0E4F983
:10080000B0B900F0FFFA80466A460121204600F0A8
:10081000D1F800F0F7FAA0EB0800B8420AD901219C
:100820002046FFF7C7FD04F8445F0320667064E7C5
:1008300024E018E000988006E6D56A461F2120468D
:1008400000F0B8F8D0B90098C10603D54FF40061A4
:10085000E16000E0E660400701D5A66019E04FF4D2
:100860008040A06015E0E068A168C00840EA51003F
:1008700082B20021204600F0A7F930B101212046C4
:10088000FFF798FD84F8445036E740F6FF70FFF715
:1008900023FE49462046FFF78DFD84F84450002092
:1008A0002BE70000443802400438014000D3CEFE5C
:1008B000C0E1E40040F1E9FD40787D0100796CFC85
:1008C000005A6202001F0AFA80F0FA02F0B587B0FF
:1008D000044614216846FFF7DEFC3149206888424F
:1008E0005BD130480024016841F00071016001686B
:1008F00001F000710591016841F0806101600168BB
:1009000001F080610591016841F0006101600168BA
:1009100001F000610591016841F004010160016886
:1009200001F004010591016841F0010101600168D5
:1009300001F001010591016841F04001016000688A
:10094000022500F0400005903220CDE9000502AA02
:1009500003260B2782E8D0006946134800F070F99F
:100960008620CDE9000502AA694682E8D0000F483A
:1009700000F066F94FF4D040CDE9000502AA6946BF
:1009800082E8D0000A4800F05BF9002211463D20C1
:1009900000F09EFA3D2000F08DFA07B0F0BD000097
:1009A000008002403038024000080240000002404F
:1009B000001802402DE9F047044690F844009146A3
:1009C00082281DD0822084F84400226810694FF6E6
:1009D000FF7500F01C03208A05EAC02018434FF47D
:1009E000F86303EA8111014321F0020040F00105A0
:1009F000156100F007FA064601274FF4803810E031
:100A00000220BDE8F08700BF00F0FCF9801B4045E4
:100A100005D304F8447F002060700320F1E72068CC
:100A20000569E807F0D12068406981B2C9F8001073
:100A300084F844700020E4E77047F8B5044690F865
:100A40004500012839D0012584F84550022084F85A
:100A5000440020680026016841F008010160206818
:100A6000006800902846FFF777FC2168009808602E
:100A70002068016841F0040101602068006800906E
:100A80000120FFF769FC2168009808602046FFF705
:100A900073FC206800F58050816941F40051816148
:100AA000206800F58050816941F00201816184F87D
:100AB000445084F845600020F8BD0220F8BDF0B530
:100AC00090F845200023012A11D0012780F84570B5
:100AD000022280F84420002459B1C66A3268002AF4
:100AE0000ADA122100F8441F44700120F0BD0220F0
:100AF000F0BD00F8447FF7E740F2F455A9420BD966
:100B0000B1FBF5FCB1FBF5F205FB1C1CBCF1000FC1
:100B100000D0521C012A43D1326842F04052326068
:100B2000C26AC1F30C015160C16A0A6842F0004216
:100B30000A60C16AC968C16234E0D6F800C02CF00E
:100B4000405CC6F800C033B9C66AD6F800C04CF0A5
:100B5000805CC6F800C0C66A7560561EB34214D1E8
:100B6000C66AD6F800C04CF0005CC6F800C0C2F1FE
:100B70000106C6EBC61606EB4606D0F82CC001EB04
:100B80008606C6F30C06CCF80460C66AD6F800C028
:100B90004CF0004CC6F800C0C66A5B1CF668C66222
:100BA0009342CAD3016801F580514A69520705D5BD
:100BB00004224A61016801F580514C6000F8447FCD
:100BC00044700020F0BD70472DE9F041044690F8D4
:100BD000440042281ED0422084F84400236818694B
:100BE0004FF6FF7600F01C05208A06EAC020284355
:100BF0004FF4F86505EA8111014390B241F0030515
:100C000058612068056100F0FDF8064601274FF4A1
:100C1000803810E00220BDE8F08100BF00F0F2F85B
:100C2000801B404505D304F8447F002060700320FA
:100C3000F1E720680569E807F0D184F84470EAE735
:100C40002DE9F84F00224FF0010803254FF00F0E59
:100C50000B6808FA02F42340A3426ED14E68012EBD
:100C600005D0022E03D0112E01D0122E12D186688B
:100C70004FEA420C05FA0CF7BE43CF6807FA0CF7AF
:100C8000374387604668A6430C79C4F30014944048
:100C900034434460C668570005FA07FC8C6826EAAE
:100CA0000C06BC403443C4604C68022C01D0122CAA
:100CB00013D1D40800EB8404A346D4F82090540741
:100CC0004FEAD46A0EFA0AF629EA06090E6906FA0C
:100CD0000AF646EA0906CBF8206006680C7926EA8F
:100CE0000C0604F00304BC40344304604C68E40088
:100CF00065D5364C266846F480462660246822F086
:100D0000030604F480440094314C3444A446D4F8DF
:100D100008489607370F0EFA07F6B4432D4EB04237
:100D200001D1002624E02C4EB04201D101261FE063
:100D30002A4EB04202D102261AE040E0284EB042CC
:100D400001D1032614E0274EB04201D104260FE062
:100D5000254EB04201D105260AE0244EB04201D111
:100D6000062605E0224EB04201D1072600E0082603
:100D7000BE402643CCF808681E4E34684F689C433A
:100D8000FF0300D51C4334601A4C241D26684F68AD
:100D90009E43BF0300D51E432660164E08363468B6
:100DA0004F689C43FF0200D51C433460114E0C3643
:100DB00034684F689C43BF0200D51C433460521C0A
:100DC000102AFFF445AFBDE8F88F00004438024018
:100DD00000300140000002400004024000080240D0
:100DE000000C0240001002400014024000180240B3
:100DF000001C0240003C01400AB1816170470904B7
:100E0000FBE70000014880687047000018000020E0
:100E10000B4810B5016841F400710160016841F4AC
:100E200080610160016841F480710160032000F07D
:100E30006FF8002000F006F800F024F8002010BD44
:100E4000003C024070B50D4D04464FF47A7128788D
:100E5000B1FBF0F00A490968B1FBF0F000F030FB9B
:100E600048B9102C07D200222146501E00F030F85D
:100E700000206C6070BD012070BD000018000020D3
:100E8000240000200A4808B5016841F4804101604F
:100E9000006800F4804000900548001F016841F0A0
:100EA00080510160006800F08050009008BD000093
:100EB00044380240002809DB00F01F020121914064
:100EC0004009800000F1E020C0F8001170470000E8
:100ED000F0B40E4B1B680C46C3F30223C3F10705A5
:100EE000042D00D90425191D072901D2002300E093
:100EF000DB1E012606FA05F1491E214099409E405D
:100F0000761E16403143F0BC00F022BC0CED00E030
:100F1000064900F0070208684FF6FF03184040EA50
:100F20000220034A10430860704700000CED00E007
:100F30000000FA052DE9F0470E46050065D0DFF800
:100F40001481D8F80000F7B200F00F00B04207D2C9
:100F500088F80070D8F8000000F00F00B04254D1BB
:100F600028683D4C810712D5400703D5206840F41E
:100F7000E05020602878000703D5206840F46040E6
:100F800020602068A96820F0F000084320602878DD
:100F9000C0072DD0304968680839012812D00228CE
:100FA00013D0032811D00968890700292DDA216898
:100FB00021F0030101432160FFF724FF814641F244
:100FC000883A0EE009688903EFE709688901ECE7D0
:100FD000FFF718FFA0EB0901514502D90320BDE836
:100FE000F0872068696800F00C00B0EB810FEFD14A
:100FF000D8F80010404601F00F01B14207D9077040
:10100000006800F00F00B04201D00120E7E7287827
:10101000400705D52068E96820F4E05008432060C7
:101020002878000706D52068296920F4604040EA46
:10103000C100206000F01EF82168084AC1F30311C6
:10104000515CC8400649086006480068FFF7FAFE90
:101050000020C4E7003C024008380240F865000860
:10106000240000201C000020014800687047000098
:1010700024000020154810B5006810F00C02144838
:1010800013D01449042A0FD0082A0ED10F4C241F64
:101090002268236802F03F025B0207D52068C0F394
:1010A0008810A0FB010106E0084610BD2168C1F3CD
:1010B0008811A1FB00010023FFF782F82168C1F32A
:1010C0000141491C4900B0FBF1F010BD0838024055
:1010D0000024F40040787D01F0B51F4C16460D4603
:1010E0001D4B002102220327283C0028186887B0E6
:1010F00019D040F004001860186800F00400059052
:1011000010020090CDE90121CDE903716946134831
:10111000FFF796FD206845EAC60120F078400843B5
:10112000206007B0F0BD40F001001860186800F0C2
:10113000010005904FF480700090CDE90121CDE9C8
:10114000037169460648FFF77BFD2068354320F0B0
:10115000EC602843E4E70000303802400008024019
:10116000000002402DE9F84F04006ED02078DFF82F
:101170003C93C007A9F104054AD009F104000168B5
:10118000C1F38101012908D00068C0F38100022861
:101190000AD1D9F80000400206D52868800337D567
:1011A00060680028E1D033E06068B0F5803F10D07F
:1011B000B0F5A02F286810D020F48030286028686F
:1011C00020F4802028606068A8B1FFF71BFE064667
:1011D0000DE0286840F48030F4E740F48020286077
:1011E000F7E700BFFFF70EFE801B642873D828685E
:1011F0008003F7D50CE0FFF705FE064605E000BFCB
:10120000FFF700FE801B6428F0D828688003F7D41D
:101210002078DFF89C8280074FF0000A3ED5A34873
:10122000001D016811F00C0F08D00068C0F38100A8
:1012300002280BD1D9F80000400207D428688007A3
:1012400016D5E068012800D112E02BE1E068B8B1C2
:101250000120C8F80000FFF7D5FD064605E000BFF5
:10126000FFF7D0FD801B0228C0D828688007F7D57B
:101270002868216920F0F80040EAC10028600DE0EC
:10128000C8F800A0FFF7BEFD064604E0FFF7BAFD70
:10129000801B02281FD828688007F7D42078000711
:1012A00022D5824E83486169703671B10121016097
:1012B000FFF7A8FD074604E0FFF7A4FDC01B0228C6
:1012C00009D830688007F7D50EE0C0F800A0FFF716
:1012D00099FD074605E082E0FFF794FDC01B022858
:1012E0007DD830688007F7D42078400768D5DFF8CC
:1012F000BCB100270BF13C0BDBF80000C0000BD4A5
:10130000DBF8001041F08051CBF80010DBF8000052
:10131000012700F080500090674E3068C00510D45F
:10132000306840F480703060FFF76CFD009005E09D
:10133000FFF768FD0099401A022850D83068C005B0
:10134000F6D55A4EA0686C3601280FD005283068B3
:1013500010D020F001003060306820F004003060D0
:10136000A068B8B1FFF74EFD00900FE0306840F084
:101370000100F4E740F004003060F7E7FFF742FDBA
:101380000099411A41F28830814266D8306880075E
:10139000F4D50EE0FFF736FD009007E0FFF732FDD1
:1013A0000099411A41F28830814256D8306880074E
:1013B000F4D42FB1DBF8001021F08051CBF80010ED
:1013C000A069C8B33949091D0968C1F3810102291F
:1013D0004AD00228504607D0C8F8600000E03CE040
:1013E000FFF710FD04463BE04746C8F86000FFF7F2
:1013F00009FD064605E000BFFFF704FD801B02283B
:101400002BD828688001F7D4D4E907010843A16AE2
:101410002A4A490802EB0141626A41EA8211084303
:1014200094F82C1040EA0161C9F8001001203866D8
:10143000FFF7E8FC044606E036E000BFFFF7E2FCF9
:10144000001B022809D828688001F7D52CE000BFCE
:10145000FFF7D8FC001B022802D90320BDE8F88F53
:1014600028688001F4D41FE00128F7D0D9F80000E3
:10147000E26900F48001914214D1226A00F03F0138
:1014800091420FD147F6C071626A0140914209D181
:10149000A26A00F44031914204D1E16A00F0706028
:1014A000884201D00120D9E70020D7E70438024064
:1014B00000004742800E4742007000400000FFFFDE
:1014C00010B5401EB0F1807F01D3012010BD4FF058
:1014D000E02460610F21601700F03AF90020A0615C
:1014E00007202061002010BDFEE7000030B587B066
:1014F00014216846FEF7CFFE22480024016841F01F
:1015000080010160016801F080010591016841F0EE
:1015100004010160016801F004010591016841F0D6
:1015200001010160016801F001010591016841F0CC
:1015300008010160016801F008010591016841F0AE
:10154000400101600068104D00F04000059000224D
:1015500008212846FFF750FCA81502218DE813004A
:10156000CDE9031469460948FFF76AFB082000909B
:101570000120CDE90104694628460394FFF760FB8A
:1015800007B030BD30380240000C0240000002407D
:101590000EB502F0A7FB2E490868C97803BA0A06FF
:1015A00003F47F4342EA032203BA00BA08432849FE
:1015B00003F47F0342EA13220C3942EA1060086008
:1015C00010310868C97803BA0A0603F47F4342EA77
:1015D000032203BA00BA08431D4903F47F0342EA19
:1015E0001322083942EA1060086010310868C9788F
:1015F00003BA0A0603F47F4342EA032203BA03F460
:101600007F0300BA42EA13220843114942EA1060FC
:10161000091F104A0860104900208DE807000C4B94
:101620000E481B1F1A1F111F02F030FF0B4803F05A
:101630003FF90A4890F829004007084803D5BDE85B
:101640000E4003F08FB9BDE80E4003F037B900003B
:101650000C000020012600089D2700087C000020C7
:1016600010B5034801F0DEF8BDE8104004F07EB884
:101670007C000020FEE7704770477047704700000D
:1016800030B593B030216846FEF705FE14210CA852
:10169000FEF701FE1C480025016841F08051016001
:1016A000006800F0805011901848016841F48041B2
:1016B00001600068022400F4804011900120009035
:1016C000000401908001CDE9064019200890C8204F
:1016D000CDE9090404200B906846FFF743FD0CA9EF
:1016E0000F2081E831004FF4A0500F90E0021090DD
:1016F00003210CA8FFF71EFC62064FF4C001002076
:10170000FFF7EAFC13B030BD4038024000700040E3
:101710000548016841F47001016003494FF0006021
:10172000803908607047000088ED00E0FEE70000A7
:101730000FB4054B10B503A9044A029800F028F82D
:1017400010BC5DF814FB000047280008780000205A
:101750000907090E002804DB00F1E02080F80014DE
:10176000704700F00F0000F1E02080F8141D704772
:1017700002E008C8121F08C1002AFAD1704770475A
:10178000002001E001C1121F002AFBD170470000B8
:101790002DE9FF4F8BB09A460F460546002606E01E
:1017A00025280BD052460D9990476D1C761C287841
:1017B0000028F5D10FB03046BDE8F08F0024A046D8
:1017C0000122604900E0044315F8013F203B02FA82
:1017D00003F00842F7D128782E2817D115F8010F09
:1017E00044F004042A280ED06FF02F022878A0F1CC
:1017F000300109290AD808EB880102EB410100EB0E
:1018000001086D1CF2E757F8048B6D1C28786928D5
:101810003ED006DC0028CDD063280BD0642804D14C
:1018200036E0732810D075284BD052460D9990475A
:10183000761C85E017F8040B8DF8000000208DF869
:101840000100E946012003E057F8049B4FF0FF3008
:1018500061074FF0000401D40AE0641C44450DDA2E
:101860008442FADB19F804100029F6D106E0641C62
:101870008442FCDB19F804100029F8D1264404E066
:1018800019F8010B52460D999047641EF8D257E0A3
:1018900001CF4FF00A0B002802DA40422D2102E06E
:1018A000210504D52B218DF82410012103E0E10747
:1018B00005D02021F7E70DF1200908910CE0002167
:1018C000F9E701CF4FF00A0BF9E75946FEF7FBFCA9
:1018D00001F1300209F8012D0028F6D1ADEB090025
:1018E00000F1200B600701D44FF00108D84502DD5C
:1018F000A8EB0B0000E000208046002406E009A8C9
:101900005246005D0D999047641C761C08988442ED
:10191000F5DB04E0302052460D999047761CB8F173
:101920000001A8F10108F5DC05E019F8010B5246A9
:101930000D999047761CBBF10001ABF1010BF4DC73
:101940006D1C34E70928010070B505460C46880770
:1019500006D006A34FF4B67210A118A0FFF7E8FE58
:10196000A86800682060A868046070BD2E2E2F4D06
:101970006964646C6577617265732F546869726419
:101980005F50617274792F4C7749502F7372632FB7
:10199000636F72652F6D656D702E63006D656D7080
:1019A0005F667265653A206D656D2070726F706557
:1019B000726C7920616C69676E6564004173736550
:1019C0007274696F6E2022257322206661696C65CE
:1019D00064206174206C696E6520256420696E2026
:1019E00025730A0010B580680468002C0CD02168AB
:1019F0000160A00706D005A34FF48C720FA118A0B8
:101A0000FFF796FE204610BD002010BD2E2E2F4D54
:101A10006964646C6577617265732F546869726478
:101A20005F50617274792F4C7749502F7372632F16
:101A3000636F72652F6D656D702E63006D656D70DF
:101A40005F6D616C6C6F633A206D656D70207072B4
:101A50006F7065726C7920616C69676E65640000F7
:101A6000417373657274696F6E202225732220663C
:101A700061696C6564206174206C696E6520256401
:101A800020696E2025730A0070B5094D06460024B2
:101A900004EB440005EBC000017D29B18068B04231
:101AA00002D1204600F036F9641C0A2CF0DB70BD30
:101AB000BC6100202DE9F74F84B04FF00A0B0024E1
:101AC0000646DA465F46D94602940194CDF80040B6
:101AD000514904EB440001EBC008039098F81450FE
:101AE0000A2F1DD0002D2AD0012D08D0022D06D29C
:101AF0004AA340F2231257A166A0FFF719FE9EB138
:101B00003168D8F8040081420ED1069820B1D8F887
:101B100008100698814207D1204607B0BDE8F08F33
:101B2000002DE1D127460AE0012D16D0022D06D363
:101B3000B8F812000099884201D3A2460090641CB4
:101B400024B20A2CC4DB059881074FF0FF30E4D49F
:101B50000A2F16D018DA3C463EE02F49039851F878
:101B600030000028B8F8120005D002998842E6D368
:101B7000A1460290E3E701998842E0D3A346019091
:101B8000DDE70599C907C8D05146BAF10A0F0EDA48
:101B90000C46214801EB440150F8310080B11FA3ED
:101BA00040F26D1245A13BA0FFF7C2FD08E0594687
:101BB000BBF10A0F03DB4946B9F10A0FADDA0C4657
:101BC0000A2C06DB15A340F27F1242A131A0FFF7D9
:101BD000AFFD204600F09EF80A2C06DB0FA340F272
:101BE00083123CA12BA0FFF7A3FD0B4804EB44019B
:101BF00000EBC105287D30B108A34FF4C2723AA1B1
:101C000024A0FFF795FD0EB130686860002068825F
:101C10000698A86080E70000BC6100202E2E2F4DA2
:101C20006964646C6577617265732F546869726466
:101C30005F50617274792F4C7749502F7372632F04
:101C4000636F72652F697076342F65746861727086
:101C50002E6300007374617465203D3D2045544837
:101C60004152505F53544154455F50454E44494E94
:101C700047207C7C207374617465203E3D20455470
:101C8000484152505F53544154455F535441424C74
:101C900045000000417373657274696F6E202225E0
:101CA0007322206661696C6564206174206C696EC2
:101CB0006520256420696E2025730A006172705FBB
:101CC0007461626C655B695D2E71203D3D204E55EF
:101CD0004C4C000069203C204152505F5441424C22
:101CE000455F53495A4500006172705F7461626CD0
:101CF000655B695D2E7374617465203D3D204554BC
:101D0000484152505F53544154455F454D505459DA
:101D10000000000070B5074C00EB4005002654F8A9
:101D2000350018B103F042FA44F8356004EBC50001
:101D3000067570BDBC6100202DE9F04385B00D0033
:101D4000074609D07C684FF480782088404539D117
:101D50002079062836D109E01CA340F28A2229A165
:101D60002CA0FFF7E5FC05B0BDE8F08360790428FE
:101D700028D16088082825D1D4F80E000490A169E4
:101D8000686820B1814202D10126334601E0002675
:101D9000022304F10802914604A9284600F0A2FBA0
:101DA000E08840450ED16EB1022204ABCDE902328B
:101DB000291DCDE9001905F1220319464A46284696
:101DC00000F090FA384603F0F1F9CCE72E2E2F4DB3
:101DD0006964646C6577617265732F5468697264B5
:101DE0005F50617274792F4C7749502F7372632F53
:101DF000636F72652F697076342F657468617270D5
:101E00002E6300006E6574696620213D204E554C9E
:101E10004C000000417373657274696F6E20222557
:101E20007322206661696C6564206174206C696E40
:101E30006520256420696E2025730A00FEB51546CD
:101E40000E46040006D143A340F21E324FA153A018
:101E5000FFF76EFC36B93FA340F21F3259A14FA0E5
:101E6000FFF766FC35B93BA34FF4487258A14BA06D
:101E7000FFF75EFC2146286800F072FE08B1584B5F
:101E80003FE02868C0F303110E2925D0A1686368DC
:101E900000EA01020B409A4208D080B2A0F57E41D0
:101EA000A93903D0E068B0B304F10C054D4B4E489E
:101EB0001A7802EB420100EBC1010F7D022F2ED3F5
:101EC0008F68A7422BD12F6849688F4227D13146AE
:101ED000204600F08BF8FEBD01208DF804000020A4
:101EE0008DF805005E208DF80600687801AB00F0E3
:101EF0007F008DF80700A8788DF80800E8788DF845
:101F000009004FF40060009004F12202314620469F
:101F100000F0C8FBFEBDFFE76FF00300FAE7002208
:101F200002EB420100EBC1010F7D022F08D38F6845
:101F3000A74205D12F6849688F4201D11A70C6E7C0
:101F4000521CD2B20A2AEBD332462946204600F070
:101F5000D5F8DFE72E2E2F4D6964646C65776172CA
:101F600065732F54686972645F50617274792F4C85
:101F70007749502F7372632F636F72652F69707684
:101F8000342F6574686172702E6300006E65746929
:101F90006620213D204E554C4C0000004173736576
:101FA0007274696F6E2022257322206661696C65E8
:101FB00064206174206C696E6520256420696E2040
:101FC00025730A007120213D204E554C4C00000025
:101FD00069706164647220213D204E554C4C0000B4
:101FE0000866000868000020BC6100202DE9F84365
:101FF0000646154688461C4802EB450100EBC10425
:10200000207D022806D219A340F2EE2225A131A09C
:10201000FFF78EFB144A05EB4501207D02EBC1055D
:102020000C35022813D1608A0327B0F58E7F04D9BE
:10203000211D304600F010FA07E0B0F5877F06D387
:102040002A46211D304600F00DFA00B927754FF4DD
:10205000006000902B4606F122024146304600F017
:1020600021FBBDE8F8830000BC6100202E2E2F4D1F
:102070006964646C6577617265732F546869726412
:102080005F50617274792F4C7749502F7372632FB0
:10209000636F72652F697076342F65746861727032
:1020A0002E6300006172705F7461626C655B6172C7
:1020B000705F6964785D2E7374617465203E3D20A5
:1020C0004554484152505F53544154455F53544125
:1020D000424C4500417373657274696F6E2022250E
:1020E0007322206661696C6564206174206C696E7E
:1020F0006520256420696E2025730A002DE9FC5FA8
:102100008246223001900E46086814464FF0FF3791
:102110004FF0000B514600F023FD80B93068C0F34A
:1021200003110E290BD056B148B152460121304659
:10213000FFF7C0FC050005D540B2BDE8FC9F6FF07D
:102140000F00FAE77F2D06D337A340F2C13244A136
:1021500047A0FFF7EDFA05F0FF094F4909EB4908E1
:1021600001EBC805287D00280ED0012808D00228E0
:1021700006D22DA340F2CD3248A13DA0FFF7D8FAF8
:10218000BBF1000F06D104E001202875C5F808A0B6
:1021900000E034B93146504600F05EF90746002CA5
:1021A000CBD0287D3C4E02280ED346494FF4006028
:1021B00005F10C0381F80090009021465046019AE9
:1021C00000F070FA07462DE001282BD1254640F299
:1021D000F13768892989884207D1286828B112A374
:1021E0003A4639A122A0FFF7A3FA287B400607D57B
:1021F00022464FF420710E2002F09AFE044605E0BC
:102200002D68002DE5D1204603F02CF944B156F895
:10221000380008B102F0CAFF46F83840002701E054
:102220004FF0FF37384688E72E2E2F4D6964646CD7
:102230006577617265732F54686972645F5061726B
:1022400074792F4C7749502F7372632F636F7265C7
:102250002F697076342F6574686172702E63000088
:1022600074797065206F766572666C6F7700000018
:10227000417373657274696F6E2022257322206624
:1022800061696C6564206174206C696E65202564E9
:1022900020696E2025730A00BC6100206172705FA6
:1022A0007461626C655B695D2E7374617465203D59
:1022B0003D2050454E44494E47206F7220535441B3
:1022C000424C4500680000206E6F207061636B65B2
:1022D000742071756575657320616C6C6F776564CA
:1022E000210000002DE9FF4F81B09846DDE90FA9DC
:1022F000DDF838B006004FF0000706D12CA340F2FD
:10230000574239A13CA0FFF713FA4FF420721C2169
:102310000E2002F0DBFB050046D068891C2806D29F
:1023200023A340F262423EA133A0FFF701FA6C689A
:10233000119801F0D5FCE08096F82800062806D018
:102340001BA340F2694243492BA0FFF7F1F9D8F8EB
:102350000010A160B8F80400A081DAF80010C4F8F9
:102360001210BAF80400E082DBF80000C4F80E0096
:10237000D9F80000A0614FF48070208008206080B0
:10238000062020710420607140F60600DDE902237A
:1023900000902946304600F085F9284602F006FFF5
:1023A000384605B0BDE8F08F4FF0FF30F9E7000088
:1023B0002E2E2F4D6964646C6577617265732F549E
:1023C000686972645F50617274792F4C7749502F3D
:1023D0007372632F636F72652F697076342F657423
:1023E000686172702E6300006E6574696620213D1D
:1023F000204E554C4C000000417373657274696F38
:102400006E2022257322206661696C6564206174E8
:10241000206C696E6520256420696E2025730A0092
:10242000636865636B207468617420666972737495
:1024300020706275662063616E20686F6C64207323
:102440007472756374206574686172705F68647219
:102450000000000088660008014A00F003B8000090
:10246000086600087FB5064D031D0124CDE900353F
:10247000CDE902141E331946FFF734FF04B070BDD6
:102480000E66000870B5164D002400BF04EB440032
:1024900005EBC002117DF1B1508A401C80B2508220
:1024A000B0F5967F0AD2012906D003290AD0042963
:1024B0000AD001290BD00EE0052808D32046FFF7EB
:1024C00029FC08E0042000E00220107503E0111D43
:1024D0009068FFF7C1FF641C0A2CD7DB70BD0000B9
:1024E000BC610020F8B5044690F828001F46164647
:1024F0000D46062806D020A340F2A9122CA135A033
:10250000FFF716F99DB1286888B1214600F028FB35
:1025100068B92878C0F303100E2808D0224639463F
:102520002846FFF7C7FA002804DA40B2F8BD6FF07A
:102530000F00F8BD00EB40013048022300EBC10260
:10254000137594603368D360B38813820023538279
:1025500050F8315075B140F831304FF400600090C0
:10256000334604F122022946204600F09BF8284613
:1025700002F01CFE0020F8BD2E2E2F4D6964646C05
:102580006577617265732F54686972645F50617218
:1025900074792F4C7749502F7372632F636F726574
:1025A0002F697076342F6574686172702E63000035
:1025B0006E657469662D3E6877616464725F6C65F0
:1025C0006E203D3D204554485F4857414444525F8A
:1025D0004C454E00417373657274696F6E202225FD
:1025E0007322206661696C6564206174206C696E79
:1025F0006520256420696E2025730A00BC610020D7
:102600002DE9F041044640890E270D460E283CD99D
:10261000E07B18B995F82C00401CE07360680178E5
:102620008689CA0714D0012905D006221C49FDF766
:102630003DFE48B10CE0417851B980785E2807D161
:10264000607B40F0100002E0607B40F008006073A7
:10265000082E03D0B6F5C16F17D10DE095F829000B
:10266000000712D53946204602F042FF68B92946D4
:10267000204600F0BDFB10E095F82900000704D5C6
:102680003946204602F034FF18B1204602F08EFD94
:1026900003E029462046FFF74FFB0020BDE8F0810C
:1026A000086600082DE9F04104461F4690460E4694
:1026B000069801F015FB05460E21304602F0A2F9FE
:1026C00018B16FF00100BDE8F0817068858139684C
:1026D0000160B9888180D8F80020C0F80620B8F8D9
:1026E0000410418194F82800062806D006A34FF470
:1026F000997213A11FA0FFF71BF831462046A2696B
:10270000BDE8F041104700002E2E2F4D6964646C27
:102710006577617265732F54686972645F50617286
:1027200074792F4C7749502F7372632F6E657469DB
:10273000662F65746865726E65742E630000000014
:102740006E657469662D3E6877616464725F6C655E
:102750006E206D757374206265203620666F72205E
:1027600065746865726E65745F6F757470757421D9
:1027700000000000417373657274696F6E2022253A
:102780007322206661696C6564206174206C696ED7
:102790006520256420696E2025730A0010B50400A9
:1027A00006D10BA340F202220EA112A0FEF7C0FF39
:1027B000732084F82A00742084F82B001748606185
:1027C0001748A061204601F055F9002010BD000017
:1027D0002E2E2F5372632F65746865726E6574694F
:1027E000662E63006E6574696620213D204E554C4F
:1027F0004C000000417373657274696F6E2022256E
:102800007322206661696C6564206174206C696E56
:102810006520256420696E2025730A003D1E00088E
:10282000FD3B000870B5054601F088F9040009D0A9
:102830002A6929469047002804D02046BDE8704008
:1028400002F0B4BC70BD38B504468DF8000069468E
:102850000320ABBE204638BD0A46032100F0F4B881
:102860002DE9FE4F8A4644490446D1F8088098F87D
:1028700000000007850E142D79D36089042876D3D3
:1028800060680078002872D0082870D1486901F18A
:102890001407C0F303120E2A69D08946096800F0B4
:1028A0005FF9002863D12089082860D305F10E0163
:1028B0000E46204602F0A6F8002830D020894119A3
:1028C00089B2884253D84FF420720E2002F0FEF8ED
:1028D00006004CD0718905F10800814216D32A46C2
:1028E00041467068FDF7B0FC2946304602F000FE14
:1028F000002806D021A3B6222EA13CA0FEF718FF87
:1029000004E02146304602F061FB18B1304602F087
:102910004DFC2CE0204602F049FC34460CE03146E8
:10292000204602F0E5FD002806D014A3C72239A1F5
:102930002EA0FEF7FDFE1AE029462046666802F04A
:1029400061F8A0B960683968FF22C160D9F8101039
:1029500001610021317071800272418101228DE894
:1029600006040A46FF233946204600F00BFB2046AA
:10297000BDE8FE4F02F01ABC943100202E2E2F4DE0
:102980006964646C6577617265732F5468697264F9
:102990005F50617274792F4C7749502F7372632F97
:1029A000636F72652F697076342F69636D702E6363
:1029B0000000000069636D705F696E7075743A2085
:1029C0006D6F76696E6720722D3E7061796C6F61F4
:1029D0006420746F2069636D70206865616465723E
:1029E000206661696C65640A0000000041737365CC
:1029F0007274696F6E2022257322206661696C658E
:102A000064206174206C696E6520256420696E20E5
:102A100025730A0069636D705F696E7075743A2082
:102A2000726573746F72696E67206F726967696E21
:102A3000616C20702D3E7061796C6F6164206661FD
:102A4000696C65640A0000002DE9FF4791468846DD
:102A500006464FF420722421222002F037F80500A8
:102A600031D06889242806D218A34FF4B47225A166
:102A70002FA0FEF75DFE6C6877681C2284F800804A
:102A800084F801904FF00008A4F80480A4F80680B0
:102A9000686871680830FDF7D7FBF868039003A8F1
:102AA00000F080FC60B1A4F802800122CDF8008023
:102AB000CDE90120FF2303AA0021284600F062FA95
:102AC000284602F073FBBDE8FF8700002E2E2F4D35
:102AD0006964646C6577617265732F5468697264A8
:102AE0005F50617274792F4C7749502F7372632F46
:102AF000636F72652F697076342F69636D702E6312
:102B000000000000636865636B2074686174206670
:102B10006972737420706275662063616E20686FDD
:102B20006C642069636D70206D6573736167650007
:102B3000417373657274696F6E202225732220665B
:102B400061696C6564206174206C696E6520256420
:102B500020696E2025730A000A460B21FFF774BF17
:102B6000421C12D088B191F8292092070BD54B68EE
:102B7000834208D0896800EA01020B409A4202D1E0
:102B80000143491C01D0002070470120704700001C
:102B90002DE9F74F88B00446099800251426008CCB
:102BA000AF1F1438C11700EB5170C0F3CF00039072
:102BB00060680690017801F00F01052903D03846BE
:102BC0000BB0BDE8F08F6189142907D25BA34FF4E5
:102BD0003F7269A16FA0FEF7ABFDF0E7C08801F07E
:102BE0007FF8C0F30C0100F4005002910790208997
:102BF00014381FFA80F88EE003984FF6FF7101EA4F
:102C0000C0004146404500D9084604904FF4207268
:102C100014210E2001F05AFF5FEA000A7ED0BAF8B4
:102C20000A00142806D245A34FF4497263A159A0A3
:102C3000FEF77EFD1422DAF804000699FDF704FB86
:102C4000DAF804000590049F35E06089811B8DB29D
:102C5000B04206D239A340F22D3260A14DA0FEF75A
:102C600067FDAF4200D23D461DB3022001F0BCFB20
:102C70005FEA000957D060684B463044CDE9000553
:102C800041222946002002F08DF85FEA000B50D067
:102C9000204602F0E7FB5549C9E90414594650465D
:102CA00002F09CF8781B07043F0C06D0002624682D
:102CB000CBE724680026002FC7D1701986B2099887
:102CC000008C143840450298C0F30C0001DB0799D2
:102CD00009B140F4005001F003F80599C880049848
:102CE000143080B200F0FCFF05994880059800215F
:102CF0004181099851460A9A43699847504602F023
:102D000055FA0499A8EB01001FFA80F8DDE90201E9
:102D1000084480B20290B8F1000F00E006E07FF4B2
:102D20006BAF00204CE7504602F040FA4FF0FF3006
:102D300046E7484600F066FBF5E700002E2E2F4DD3
:102D40006964646C6577617265732F546869726435
:102D50005F50617274792F4C7749502F7372632FD3
:102D6000636F72652F697076342F6970345F667295
:102D700061672E63000000006970345F66726167EE
:102D800028293A207062756620746F6F2073686F0F
:102D900072740000417373657274696F6E2022252E
:102DA0007322206661696C6564206174206C696EB1
:102DB0006520256420696E2025730A007468697394
:102DC000206E656564732061207062756620696E8F
:102DD000206F6E652070696563652100702D3E6C03
:102DE000656E203E3D20706F66660000DD3900088C
:102DF0002DE9F047456807460E4628780421B1EBD7
:102E0000101F03D0384602F0D1F975E000074FEAF1
:102E10009068688800F064FF04463889A04203D9AE
:102E20002146384602F084FA79894145EAD3388947
:102E3000A042E7D3B8F1140FE4D32969DFF8109169
:102E4000C1F303100E28C9F81410EA68C9F810205D
:102E500005D0304600F080F850B1344619E096F8BD
:102E60002900C00702D070680028F6D1002410E0C5
:102E700099F8140000247F280BD03648046806E037
:102E8000B44203D0204600F067F810B92468002C43
:102E9000F6D13146D9F81000FFF762FE0028B1D113
:102EA00099F81000C0F303100E28ABD0002CA9D065
:102EB000E88830F0C00005D0384600F02FF9070050
:102EC0001AD07D68C9F80850C9E900462978384603
:102ED0000907890EA9F80C10414602F009FB687A2F
:102EE000012811D011280AD04D462146D9F81400E6
:102EF000FFF736FE68B119E00020BDE8F0873146E3
:102F0000384602F0E7FE14E031463846FFF7A8FCE9
:102F10000FE0287DC0F303100E2807D04146384645
:102F200002F0EEF902213846FFF796FC384602F02F
:102F30003DF90021C9F80010C9F80410C9F80810BB
:102F4000A9F80C10C9F81010C9F81410D4E7000043
:102F5000943100205000002010B590F82910C907C6
:102F60000CD0416851B1064A52698A4204D00146E8
:102F70001046FFF7F5FD08B1012010BD002010BD7F
:102F800094310020FEB5DDE90954089E1AB109B15B
:102F90000F6807B9211D0096CDE9015400F002F831
:102FA000FEBD00002DE9F84F0546DDE90BA8807B4A
:102FB000DDF828B01F4616468946012806D02FA303
:102FC0004FF455723AA13DA0FEF7B2FB6FF0010439
:102FD000002E35D01421284601F014FD002832D1EE
:102FE00068896C68142806D224A34FF462723DA14C
:102FF00032A0FEF79DFB277284F809A0306820619B
:103000004520207084F801B0288900F069FE414F06
:1030100060804FF0000AA4F806A0388800F060FE37
:10302000A0803888401C3880B9F1000F05D0D9F84D
:103030000000E060A4F80AA00CE037480068F8E758
:103040006889142802D22046BDE8F88F68686E4669
:1030500000690090B8F8200040B12989814205D963
:10306000324641462846FFF793FDEDE7D8F8143085
:103070004046324629469847E6E700002E2E2F4D5F
:103080006964646C6577617265732F5468697264F2
:103090005F50617274792F4C7749502F7372632F90
:1030A000636F72652F697076342F6970342E6300F8
:1030B000702D3E726566203D3D2031004173736581
:1030C0007274696F6E2022257322206661696C65B7
:1030D00064206174206C696E6520256420696E200F
:1030E00025730A00636865636B20746861742066E9
:1030F0006972737420706275662063616E20686FF8
:103100006C64207374727563742069705F68647294
:10311000000000006A000020846600082DE9F05FCE
:1031200045688346287800F00F0005287DD1E8889F
:1031300000F0D6FDC004070C688800F0D1FD2978A6
:103140000907890E814270D8401A1FFA80F8584644
:1031500001F0E5FE6A4C0646208830440A2809D969
:103160003146284600F0E4FB00285ED02088304439
:103170000A28E8D8A14664684FF0000A0CE06069AC
:10318000E968884207D1A0692969884203D1A089EA
:10319000A988884203D02468002CF0D106E02CB125
:1031A000E88800F09DFDC0041BD025E0012001F05F
:1031B0001BF904000AD13146284600F0B9FBB042A1
:1031C00033DB012001F010F90400CED02021FDF7FF
:1031D00062F80F20E077D9F804102160C9F80440A4
:1031E00004E0E08900F07CFDC00405D014222946EB
:1031F00004F10800FDF728F8A87940F340156D1C8C
:1032000008D007EB080080B2B84263D34FF6EB71E9
:1032100088425FD82A465946204600F03BF9411CB7
:1032200058D0B9F80020324400E064E0A9F800204A
:1032300035B107EB0801A183A17F41F00101A1771E
:10324000012845D1A08B1422143087B2606804F1A4
:103250000801456828462E68FCF7F6FF384600F05E
:103260003FFD6880A5F806A0A5F80AA0656809E0FA
:1032700014213046776802F03BF93146284601F0C8
:10328000ADFD3E68002EF3D1D9F804104E468C42B5
:1032900005D1002105E00868A04202D001460029BE
:1032A000F9D1204600F01AFA284601F038FE04460B
:1032B0003088A04206D213A340F29B2220A127A06F
:1032C000FEF736FA3088001B30802846BDE8F09FB4
:1032D0000020FBE7606870B9D9F80400844206D08A
:1032E00008A340F2AB2227A11CA0FEF721FA00217F
:1032F000204600F0F3F9584601F058FFE8E70000D7
:103300006C0000202E2E2F4D6964646C657761720D
:1033100065732F54686972645F50617274792F4CC1
:103320007749502F7372632F636F72652F697076C0
:10333000342F6970345F667261672E63000000008D
:1033400069705F72656173735F70627566636F75D4
:103350006E74203E3D20636C656E000041737365A2
:103360007274696F6E2022257322206661696C6514
:1033700064206174206C696E6520256420696E206C
:1033800025730A006E6F74206669727374616C74C1
:10339000686F756768206A75737420656E717565EE
:1033A0007565640070B50146144813E090F8292053
:1033B000D3070FD053070DD543685BB184680D6800
:1033C000234005EA04069E4216D0920702D4C26842
:1033D000954211D000680028E8D10948006850B132
:1033E00090F82920D30706D0520704D5426812B1BD
:1033F00009787F2900D1002070BD00005000002016
:103400005400002010B5040006D106A34FF4317219
:1034100013A116A0FEF78CF92146BDE8104002204A
:1034200000F06EBF2E2E2F4D6964646C657761725B
:1034300065732F54686972645F50617274792F4CA0
:103440007749502F7372632F636F72652F6970769F
:10345000342F6970345F667261672E63000000006C
:103460007020213D204E554C4C0000004173736587
:103470007274696F6E2022257322206661696C6503
:1034800064206174206C696E6520256420696E205B
:1034900025730A002DE9F05F4C68064693460F46F7
:1034A00000254FF00108608800F01AFC21784FF0E9
:1034B000FF3A0907890E814231D8A0EB0109E08863
:1034C00000F00EFCC0047C68010C0020206001EBC1
:1034D000090083B2A180E3808B4220D3726829E087
:1034E0005068B0F804C0614515D222606DB1B5F8DE
:1034F00006C0614513D38088834210D82F60A0880E
:10350000844506D04FF0000803E08088834206D847
:1035100077608AB12EE002D0C288914202D2504632
:10352000BDE8F09F25B1EA88624501D04FF0000860
:1035300002680546002AD3D195B1E888A18888425F
:1035400006D92AA34FF4DB7237A13FA0FEF7F0F8AB
:103550002F60E888A18888420CD04FF0000809E06D
:10356000706830B121A34FF4DF7241A136A0FEF79D
:10357000DFF87760BBF1000F02D1B07FC007CFD07A
:10358000B8F1000F30D07268002A2DD050688088C2
:10359000002829D12168204629B14C68C088A1881B
:1035A0008842F7D020E0B8F1000F1DD032B90FA348
:1035B00040F2DF123CA124A0FEF7BAF87068406820
:1035C000A04206D109A34FF4F07237A11EA0FEF766
:1035D000AFF8206830B105A34FF4F17236A11AA0FC
:1035E000FEF7A6F801209BE7002099E72E2E2F4D2D
:1035F0006964646C6577617265732F54686972647D
:103600005F50617274792F4C7749502F7372632F1A
:10361000636F72652F697076342F6970345F6672DC
:1036200061672E6300000000636865636B2066724B
:1036300061676D656E747320646F6E2774206F769A
:1036400065726C6170000000417373657274696F1C
:103650006E2022257322206661696C656420617486
:10366000206C696E6520256420696E2025730A0030
:103670006E6F2070726576696F7573206672616710
:103680006D656E742C2074686973206D7573742079
:103690006265207468652066697273742066726161
:1036A000676D656E7421000073616E6974792063C3
:1036B0006865636B0000000076616C696461746525
:1036C0005F646174616772616D3A6E6578745F7092
:1036D000627566213D4E554C4C00000070B50446A5
:1036E0000C480D464168A14202D1216841600AE0C0
:1036F000002D06D108A340F2451216A11CA0FEF72A
:1037000017F8206828602146BDE87040012000F0CD
:10371000F7BD00006C0000202E2E2F4D6964646CF4
:103720006577617265732F54686972645F50617266
:1037300074792F4C7749502F7372632F636F7265C2
:103740002F697076342F6970345F667261672E63FB
:103750000000000073616E69747920636865636BB3
:10376000206C696E6B6564206C69737400000000E6
:10377000417373657274696F6E202225732220660F
:1037800061696C6564206174206C696E65202564D4
:1037900020696E2025730A002DE9F04705460024B4
:1037A0000F46A94205D12FA3AB223DA13FA0FDF7B3
:1037B000BFFF002F08D03868A84205D029A3AD224A
:1037C00044A13AA0FDF7B4FF6E684FF480387068EA
:1037D000818800291AD100686860142205F1080167
:1037E0007068FCF731FD01213046FFF7B5F930462E
:1037F00001F095FB0446404505D31AA3BC223AA12B
:103800002AA0FDF795FF304601F0D0FC6E6812E06B
:103810007068B1460668484601F081FB044444459F
:1038200005D310A3CC2230A120A0FDF781FFA4B2C4
:10383000484601F0BBFC002EEAD139462846FFF786
:103840004DFF314D2888A04205D206A3D2222FA1D8
:1038500016A0FDF76DFF2888001B28802046BDE8D4
:10386000F08700002E2E2F4D6964646C65776172BD
:1038700065732F54686972645F50617274792F4C5C
:103880007749502F7372632F636F72652F6970765B
:10389000342F6970345F667261672E630000000028
:1038A0007072657620213D206970720041737365E6
:1038B0007274696F6E2022257322206661696C65BF
:1038C00064206174206C696E6520256420696E2017
:1038D00025730A00707265762D3E6E657874203D02
:1038E0003D2069707200000070627566735F6672D9
:1038F000656564202B20636C656E203C3D2030782C
:1039000066666666000000006C00002069705F72E9
:10391000656173735F70627566636F756E74203E68
:103920003D2070627566735F6672656564000000B5
:103930002DE9F0471D4F8946064600240022134614
:1039400011461546786822E0D0F814C0D6F80C80ED
:10395000C4450BD1D0F818C0D6F81080C44505D1A5
:10396000B0F80CC0B6F80480C44509D06D1C2AB16B
:1039700090F81FC092F81F80C44501D8024619462E
:10398000D0F800C0BCF1000F00D00346604600280C
:10399000DAD11AB11046FFF7FFFE04444C4501DAB4
:1039A000012DCBDC2046BDE8F08700006C00002034
:1039B00070B50948002544680BE0E07F20B1401E47
:1039C000E0772546246804E0204624682946FFF76E
:1039D000E3FE002CF1D170BD6C00002010B5040096
:1039E00006D108A340F2CE2215A118A0FDF7A0FE33
:1039F000606908B101F0DAFB2046BDE81040FFF72E
:103A000001BD00002E2E2F4D6964646C65776172D4
:103A100065732F54686972645F50617274792F4CBA
:103A20007749502F7372632F636F72652F697076B9
:103A3000342F6970345F667261672E630000000086
:103A400070637220213D204E554C4C0041737365CC
:103A50007274696F6E2022257322206661696C651D
:103A600064206174206C696E6520256420696E2075
:103A700025730A007CB52E4D04462C480121C5E96A
:103A80000001002028828DF8000080228DF801209E
:103A9000E1228DF802208DF804008DF803008DF8E6
:103AA0000500C5F814D0C5E90610C80528622846E7
:103AB000FCF716FE28B994F8290040F0040084F8B9
:103AC000290004231B4A1C491948FCF751FD1A4AD6
:103AD00004238032A2F580711548FCF70FFD062003
:103AE00084F828006869007884F8220068694078C2
:103AF00084F823006869807884F824006869C078B5
:103B000084F825006869007984F82600686940799E
:103B100084F8270040F2DC5024F8200F607A40F04F
:103B20000A0060720248FCF788FF7CBD00800240FA
:103B30004C3100207C1900202C0100202DE9F84F89
:103B40000020044600902C48FCF74FFD10B10020E7
:103B5000BDE8F88F2848818FD0F840900904090CFF
:103B60002FD04FF4C172002000F0B0FF009040B39E
:103B70002148009D40F2F45BD0F830806E89002728
:103B800010E000BFA4F2F4525242FCF75DFBD8F8FB
:103B90000C008046D0F808903F1BAAF2F45600248F
:103BA00007F2F457686806EB040ADA4509EB0401EA
:103BB0003844E7D83246FCF747FB2D683444002DE3
:103BC000DCD10D480022016B05E00B6843F0004397
:103BD0000B60C968521C836B9342F6D80021816345
:103BE000006800F580504269120602D580224261C9
:103BF00081600098ACE700004C3100202DE9F05FB7
:103C000027480D46C66A002083460446D6F808A019
:103C100031E0306800280CDB6F894FF0000818E0B5
:103C2000A4F2F4525242FCF70FFBF6683068002809
:103C300002DA6FF0070025E0D6F808A0A8EB040030
:103C400000F2F458ABEB0400A9F2F45700F2F45B75
:103C5000002407EB040940F2F451894569680AEB36
:103C600004004144DCD83A46FCF7EEFA0BEB0700BF
:103C70002D683C448346002DCBD101460848FCF713
:103C80001EFF00200649096801F580514A69920625
:103C900003D520224A6100224A60BDE8F09F00005F
:103CA0004C31002010B504464068804701F080FD8B
:103CB000094A216852688B181A1AB2F1004F03D3CF
:103CC00008442246054902E0044922461846BDE858
:103CD000104001F0D1BD000058000020A53C0008B4
:103CE00040BA704710B500F0E7F800F057FB00F05D
:103CF00049FD01F0E3FFBDE8104001F039BEFDF7DA
:103D000087F8FDF7BDFCFDF7F1FBFDF741FC01F085
:103D1000A9FFFDF7A5FCFCE72DE9F04100284DD0F7
:103D2000810704D026A340F2732231A132E0394D3D
:103D3000A0F1080429688C4203D36A680C309042D1
:103D400004D91FA340F27F2233A123E02079002869
:103D500025D0601A86B2208801F002FD07466088EF
:103D600001F0FEFC21884FF4C863002299420DD86F
:103D7000618899420AD8B14202D00088B04205D188
:103D80006868874210D07888B0420DD00CA340F20A
:103D9000952228A1BDE8F04133A0FDF7C9BC08A3D6
:103DA0004FF423723AA1F5E72271A868844200D249
:103DB000AC602046BDE8F04101F002BCBDE8F081F6
:103DC0002E2E2F4D6964646C6577617265732F5474
:103DD000686972645F50617274792F4C7749502F13
:103DE0007372632F636F72652F6D656D2E630000B4
:103DF0006D656D5F667265653A2073616E69747991
:103E000020636865636B20616C69676E6D656E74B5
:103E100000000000280000206D656D5F667265651A
:103E20003A20696C6C6567616C206D656D6F7279A5
:103E3000000000006D656D5F667265653A20696C13
:103E40006C6567616C206D656D6F72793A206E6F7D
:103E50006E2D6C696E6B65643A20646F75626C657B
:103E60002066726565000000417373657274696F46
:103E70006E2022257322206661696C65642061745E
:103E8000206C696E6520256420696E2025730A0008
:103E90006D656D5F667265653A20696C6C6567611A
:103EA0006C206D656D6F72793A20646F75626C6518
:103EB000206672656500000070B50B480B4C20F061
:103EC00003014FF4C86521600D800020488008710F
:103ED000284601F045FC01216060017105804580A4
:103EE0002068A06070BD0000AF31002028000020D5
:103EF0002DE9F04700286FD0C41C4FF6FC710C4030
:103F00004FF4C8690C2C01D20C2401E04C457CD83C
:103F100084427AD34148C4F5C86782460189028841
:103F2000891A8EB276E0304601F01AFC0546007917
:103F300000286CD12888801B0838A04267D32888C5
:103F400004F11401801B08384FF0010888421DD38A
:103F50003019083087B24F4506D131A340F287327D
:103F60003BA140A0FDF7E4FB384601F0F9FB00213E
:103F700001712988018046802F8085F8048000889F
:103F8000484505D001F0ECFB478001E085F804804E
:103F9000DAF808005646854203D014E0008801F0A4
:103FA000DFFB017911B171688842F7D1B0607168A7
:103FB000884208D0007930B119A340F2B53233A15C
:103FC00028A0FDF7B5FB281971680830884208D988
:103FD00013A340F2B93200E015E033A121A0FDF7B0
:103FE000A7FBA8070DD00EA340F2BB323AA11DA03B
:103FF000FDF79EFB0AA340F2BD3243A119A0FDF7D5
:1040000097FB05F10800BDE8F08705E0FFE7DAF867
:104010000000865BB74286D80020F4E72800002025
:104020002E2E2F4D6964646C6577617265732F5411
:10403000686972645F50617274792F4C7749502FB0
:104040007372632F636F72652F6D656D2E63000051
:10405000696E76616C6964206E6578742070747224
:1040600000000000417373657274696F6E20222531
:104070007322206661696C6564206174206C696ECE
:104080006520256420696E2025730A006D656D5FCB
:104090006D616C6C6F633A20216C667265652D3EB4
:1040A00075736564000000006D656D5F6D616C6C1B
:1040B0006F633A20616C6C6F6361746564206D6539
:1040C0006D6F7279206E6F742061626F76652072F9
:1040D000616D5F656E642E006D656D5F6D616C6C0A
:1040E0006F633A20616C6C6F6361746564206D6509
:1040F0006D6F72792070726F7065726C7920616C6F
:1041000069676E65642E00006D656D5F6D616C6C36
:104110006F633A2073616E69747920636865636BBD
:1041200020616C69676E6D656E74000002490988D4
:10413000401A80B270470000280000202DE9F05F8F
:104140000646CC1C4FF6FC7004404FF4C86A0C2C99
:1041500001D20C2401E054452AD88C4228D33E4F8A
:104160003868864202D37868864206D33BA340F281
:10417000D12246A14BA0FDF7DBFA3868864249D32D
:1041800079688E4246D2A6F10805BB46281A87B246
:104190002888C01B08381FFA80F94C4506D92FA380
:1041A0004FF4397249A13FA0FDF7C2FA4C4503D93B
:1041B0004FF00000BDE8F09F2CD0288801F0D0FA25
:1041C00080460079002827D004F11400484521D802
:1041D0003819083084B22888504506D11FA340F210
:1041E000163242A12FA0FDF7A3FA204601F0B8FA3B
:1041F000DBF80820904201D2CBF8080000210171C1
:104200002988018047802C800088504502D001F029
:10421000A7FA44803046CDE72888504506D10FA341
:1042200040F2F52231A11FA0FDF782FA38190830BB
:10423000DBF80810B8F8009084B2414504D120465C
:1042400001F08EFACBF80800204601F089FA00212F
:104250000171A0F80090D5E7280000202E2E2F4DE8
:104260006964646C6577617265732F546869726400
:104270005F50617274792F4C7749502F7372632F9E
:10428000636F72652F6D656D2E6300006D656D5FE8
:104290007472696D3A206C6567616C206D656D6F35
:1042A00072790000417373657274696F6E20222504
:1042B0007322206661696C6564206174206C696E8C
:1042C0006520256420696E2025730A006D656D5F89
:1042D0007472696D2063616E206F6E6C79207368F3
:1042E00072696E6B206D656D6F727900696E7661B3
:1042F0006C6964206E657874207074720000000030
:10430000062806D307A34FF4D57212A118A0FDF713
:104310000FBA002904D0204A52F82000FDF714BB40
:10432000704700002E2E2F4D6964646C65776172B2
:1043300065732F54686972645F50617274792F4C91
:104340007749502F7372632F636F72652F6D656DA0
:10435000702E63006D656D705F667265653A2074DE
:10436000797065203C204D454D505F4D415800000F
:10437000417373657274696F6E2022257322206603
:1043800061696C6564206174206C696E65202564C8
:1043900020696E2025730A005C66000830B5064D62
:1043A000002400BF55F8240000F008F8641CA4B2F3
:1043B000062CF7D330BD00005C660008826800213F
:1043C00011604168C91C21F00301002207E08368E5
:1043D000521C1B680B60836819600388194443886A
:1043E0009342F4DC7047000010B5062808D308A3F8
:1043F00040F2571212A11AA0FDF79AF9002010BD41
:10440000214951F82000BDE81040FDF7EBBA00004B
:104410002E2E2F4D6964646C6577617265732F541D
:10442000686972645F50617274792F4C7749502FBC
:104430007372632F636F72652F6D656D702E6300ED
:104440006D656D705F6D616C6C6F633A207479702F
:1044500065203C204D454D505F4D41580000000007
:10446000417373657274696F6E2022257322206612
:1044700061696C6564206174206C696E65202564D7
:1044800020696E2025730A005C6600082DE9F0475C
:104490000400DDE90970089D03D03FB100290DD06B
:1044A0000DE035A340F2271240A103E032A34FF400
:1044B000947245A14DA0FDF73BF91CE0554902B9A6
:1044C000544A03B9534B00266660A660DFF848C122
:1044D000C4F814C0E660268484F82960E5614F4D75
:1044E00095F800C084F82CC02061204600F0B0F997
:1044F0002046B84710B10020BDE8F087B24640F230
:104500008B1840F28D1900BF94F82C00FF2801D1C0
:1045100084F82CA000276E681EE0A64205D116A3E1
:1045200042463FA131A0FDF703F97F1CFF2F05DDB7
:1045300011A34A463FA12DA0FDF7FAF896F82C00EA
:1045400094F82C10884206D1C8B2401C84F82C0084
:10455000002ED9D102E03668002EDED194F82C006E
:10456000FE2806D0401C28706868206020466C60D9
:10457000C2E785F800A0F7E72E2E2F4D6964646C22
:104580006577617265732F54686972645F506172F8
:1045900074792F4C7749502F7372632F636F726554
:1045A0002F6E657469662E63000000006E65746985
:1045B000665F6164643A20696E76616C6964206E3E
:1045C00065746966000000006E657469665F616409
:1045D000643A204E6F20696E69742066756E63744C
:1045E000696F6E20676976656E00000041737365C0
:1045F0007274696F6E2022257322206661696C6572
:1046000064206174206C696E6520256420696E20C9
:1046100025730A0084660008494800084C00002001
:104620006E6574696620616C72656164792061648D
:1046300064656400746F6F206D616E79206E6574BF
:104640006966732C206D61782E20737570706F729F
:10465000746564206E756D626572206973203235F1
:104660003500000001F0B0BC0A68C3689A4204D06B
:1046700001B90022C260012070470020704700008D
:10468000F8B515460C00064606D113A340F2CB122E
:104690001EA122A0FDF74CF835B90FA34FF4E67226
:1046A0001AA11EA0FDF744F821687068814210D05D
:1046B0000091286069462846FFF7D4FF3CB1206886
:1046C00070600121304600F05FF80120F8BD002045
:1046D000F6E70020F8BD00002E2E2F4D6964646CB3
:1046E0006577617265732F54686972645F50617297
:1046F00074792F4C7749502F7372632F636F7265F3
:104700002F6E657469662E6300000000696E766125
:104710006C696420706F696E7465720041737365B3
:104720007274696F6E2022257322206661696C6540
:1047300064206174206C696E6520256420696E2098
:1047400025730A000A6883689A4204D001B90022DE
:1047500082600120704700207047000001000CD0EB
:104760000748406807E000BF90F82C20521CD2B2E6
:104770008A4203D000680028F6D10020704700006C
:104780004C0000207047000070B50D46040006D1B3
:104790000DA340F26D3219A121A0FCF7C9FF94F8D6
:1047A000290041070ED5C1070CD0E9070AD061687E
:1047B000002907D0000705D5211D2046BDE870401F
:1047C000FDF74ABE70BD00002E2E2F4D6964646C4B
:1047D0006577617265732F54686972645F506172A6
:1047E00074792F4C7749502F7372632F636F726502
:1047F0002F6E657469662E63000000006E65746933
:10480000665F69737375655F7265706F7274733A12
:1048100020696E76616C6964206E6574696600005B
:10482000417373657274696F6E202225732220664E
:1048300061696C6564206174206C696E6520256413
:1048400020696E2025730A006FF00B00704700008E
:104850002DE9F84F4FF000091D4616460C00824620
:10486000C84600D1114C06B9104E05B90F4DACB178
:10487000206898B100274A4631465046FFF762FF4C
:10488000424629465046FFF7EFFE002F04D16A4604
:1048900021465046FFF7F4FEBDE8F88F01276A462F
:1048A00021465046FFF7ECFEE5E70000846600086D
:1048B00001498860704700004C00002058B190F812
:1048C0002910CA070ED001F0FE0180F8291009074F
:1048D00008D5FDF7D9B804A340F29B320FA117A069
:1048E000FCF726BF704700002E2E2F4D6964646CC4
:1048F0006577617265732F54686972645F50617285
:1049000074792F4C7749502F7372632F636F7265E0
:104910002F6E657469662E63000000006E65746911
:10492000665F7365745F646F776E3A20696E766157
:104930006C6964206E65746966000000417373657C
:104940007274696F6E2022257322206661696C651E
:1049500064206174206C696E6520256420696E2076
:1049600025730A0050B190F82910CA070DD141F003
:10497000010180F829100321FFF706BF03A34FF4BC
:1049800054720FA115A0FCF7D3BE70472E2E2F4DE9
:104990006964646C6577617265732F5468697264C9
:1049A0005F50617274792F4C7749502F7372632F67
:1049B000636F72652F6E657469662E630000000078
:1049C0006E657469665F7365745F75703A20696EB1
:1049D00076616C6964206E65746966004173736505
:1049E0007274696F6E2022257322206661696C657E
:1049F00064206174206C696E6520256420696E20D6
:104A000025730A00002200F001B8000070B5A8B1BB
:104A1000B1F5803F26D2002918D004898BB214FA50
:104A200081F5ADB29D421DD3057B2D0610D54268A0
:104A3000511A00F11002914214D30CE00AA340F283
:104A4000DF1215A117A0FCF773FE0BE0002070BD6C
:104A500042B14268511A4160418919444181E118CB
:104A60000181F3E7012070BD2E2E2F4D6964646C27
:104A70006577617265732F54686972645F50617203
:104A800074792F4C7749502F7372632F636F72655F
:104A90002F706275662E63007020213D204E554CAC
:104AA0004C000000417373657274696F6E2022259B
:104AB0007322206661696C6564206174206C696E84
:104AC0006520256420696E2025730A002DE9FC5FAE
:104AD000054690460F461046012A0FD041280DD0BA
:104AE000B0F5C17F10D0B2F5207F52D040A340F284
:104AF00027124BA151A0FCF71BFE59E002460020F3
:104B000000F0F8F8044671E00024A1460520FFF704
:104B10006BFC060036D005F1030B2BF00300C0F54B
:104B20001470B84200D9384682460020CDE9008092
:104B30007019133020F0030153463A46304600F016
:104B4000E9FB3079800706D029A34FF4807245A194
:104B50003AA0FCF7EDFD9421B1EB9B0F06D124A305
:104B60004FF481724BA135A0FCF7E2FD7CB1C9F88E
:104B70000060A7EB0A000704B1463F0C4FF00005A8
:104B8000C4D133E0A4B1204600F010FB10E034465D
:104B9000EFE7E81C20F00301F81C20F0030288185E
:104BA00080B200F1100189B2824201D88A4202D952
:104BB0000020BDE8FC9F0846FFF79AF9041EF8D0D4
:104BC0000020CDE900806019133020F003013B463E
:104BD0001A46204600F09EFB2079800706D004A3E9
:104BE0004FF4917238A115A0FCF7A2FD2046E0E732
:104BF0002E2E2F4D6964646C6577617265732F5436
:104C0000686972645F50617274792F4C7749502FD4
:104C10007372632F636F72652F706275662E630007
:104C2000706275665F616C6C6F633A206572726F5B
:104C30006E656F75732074797065000041737365DC
:104C40007274696F6E2022257322206661696C651B
:104C500064206174206C696E6520256420696E2073
:104C600025730A00706275665F616C6C6F633A2031
:104C70007062756620712D3E7061796C6F61642081
:104C800070726F7065726C7920616C69676E6564B3
:104C900000000000504255465F504F4F4C5F425558
:104CA0004653495A45206D757374206265206269C8
:104CB00067676572207468616E204D454D5F414C99
:104CC00049474E4D454E5400706275665F616C6C8D
:104CD0006F633A20706275662D3E7061796C6F610A
:104CE000642070726F7065726C7920616C69676E98
:104CF000656400002DE9FC4114460E460746412A32
:104D000008D0012C06D00CA34FF4A57216A11BA04D
:104D1000FCF70EFD0420FFF767FB05004FF00000D5
:104D200008D0CDE9004033461A463946284600F0FF
:104D3000F1FA2846BDE8FC812E2E2F4D6964646C83
:104D40006577617265732F54686972645F50617230
:104D500074792F4C7749502F7372632F636F72658C
:104D60002F706275662E6300696E76616C696420CF
:104D7000706275665F7479706500000041737365D9
:104D80007274696F6E2022257322206661696C65DA
:104D900064206174206C696E6520256420696E2032
:104DA00025730A007CB51C46DDE90635C01C20F0E1
:104DB00003004618AE4201D900207CBD0BB1184457
:104DC00000E000200223CDE900230B4601461A46ED
:104DD000204600F09FFA20467CBD000070B50D46CD
:104DE00008B1002D08D1BDE8704014A340F259323B
:104DF0001EA12CA0FCF79CBC0446006820B12189B0
:104E00002A8911442181F7E72089618988420FD0DE
:104E10000AA340F262322DA122A0FCF789FC20688F
:104E200030B106A340F2633234A11EA0FCF780FC2F
:104E30002089298908442081256070BD2E2E2F4DA0
:104E40006964646C6577617265732F546869726414
:104E50005F50617274792F4C7749502F7372632FB2
:104E6000636F72652F706275662E6300286820215B
:104E70003D204E554C4C2920262620287420213DCB
:104E8000204E554C4C29202870726F6772616D6DF1
:104E900065722076696F6C61746573204150492991
:104EA00000000000417373657274696F6E202225E3
:104EB0007322206661696C6564206174206C696E80
:104EC0006520256420696E2025730A00702D3E74CC
:104ED0006F745F6C656E203D3D20702D3E6C656E7D
:104EE00020286F66206C617374207062756620697B
:104EF0006E20636861696E2900000000702D3E6EAF
:104F0000657874203D3D204E554C4C0010B50C4644
:104F1000FFF764FF2046BDE8104000F0A3BA00216F
:104F200002E0491C006889B20028FAD1084670479F
:104F300070B5154613890A461946FFF7C7FD0400E8
:104F40000CD0294600F042F830B105A340F22452BB
:104F50000FA114A0FCF7ECFB204670BD002070BD33
:104F60002E2E2F4D6964646C6577617265732F54C2
:104F7000686972645F50617274792F4C7749502F61
:104F80007372632F636F72652F706275662E630094
:104F9000706275665F636F7079206661696C6564C5
:104FA00000000000417373657274696F6E202225E2
:104FB0007322206661696C6564206174206C696E7F
:104FC0006520256420696E2025730A002DE9F047CD
:104FD0004FF000070C4605003E466FF00F0904D065
:104FE0001CB128892189884204D232A340F2C932F7
:104FF0003CA145E06FF0050A6889C11B6089801BF0
:10500000814201D3804600E08846606842468119AB
:1050100068683844FBF718F9688947444644B84241
:1050200006D224A340F2D9323AA140A0FCF780FB7B
:105030006089B04206D21FA340F2DA3245A13BA0FC
:10504000FCF776FB6089B04201D8246800266889A5
:10505000B84202D12D68002765B1002C16D06089B6
:105060002189884212D1206800280FD011A340F274
:10507000E93215E0002C1BD00EA34FF479723CA14D
:105080002AA0FCF755FB4846BDE8F08775B1688952
:10509000298988420AD1286840B106A340F2EE323D
:1050A00037A122A0FCF744FB5046EDE7002CA3D12A
:1050B0000020E9E72E2E2F4D6964646C65776172DC
:1050C00065732F54686972645F50617274792F4CF4
:1050D0007749502F7372632F636F72652F706275FB
:1050E000662E6300706275665F636F70793A207434
:1050F0006172676574206E6F742062696720656EE7
:105100006F75676820746F20686F6C6420736F75AB
:10511000726365006F66667365745F746F203C3DF3
:1051200020705F746F2D3E6C656E00004173736577
:105130007274696F6E2022257322206661696C6526
:1051400064206174206C696E6520256420696E207E
:1051500025730A006F66667365745F66726F6D20F3
:105160003C3D20705F66726F6D2D3E6C656E000079
:10517000705F746F20213D204E554C4C00000000A4
:10518000706275665F636F7079282920646F65733C
:10519000206E6F7420616C6C6F77207061636B653B
:1051A00074207175657565732100000070B5040089
:1051B00003D00025A07B48B10FE024A34FF4377241
:1051C0002EA131A0FCF7B4FA002070BD1FA340F25D
:1051D000F12237A12CA0FCF7ABFAA07B401E10F007
:1051E000FF00A07323D1207B617B266800F00F00B5
:1051F00089070CD5206930B914A340F2FF2232A1EF
:1052000021A0FCF795FA2169204688470BE0022887
:105210000FD0012810D0A0B10CA340F20F3233A15F
:1052200019A0FCF785FA6D1CEDB23400C2D12846F6
:1052300070BD2146052001E021460420FFF760F8FB
:10524000F1E72046FEF768FDEDE700002E2E2F4D1A
:105250006964646C6577617265732F546869726400
:105260005F50617274792F4C7749502F7372632F9E
:10527000636F72652F706275662E63007020213D2A
:10528000204E554C4C000000417373657274696F79
:105290006E2022257322206661696C65642061742A
:1052A000206C696E6520256420696E2025730A00D4
:1052B000706275665F667265653A20702D3E726534
:1052C00066203E203000000070632D3E63757374CD
:1052D0006F6D5F667265655F66756E6374696F6E2C
:1052E00020213D204E554C4C00000000696E766137
:1052F0006C696420706275662074797065000000C6
:105300000122AFF30080002902DA494200F0F0B830
:10531000FFF77CBB70B50024DDE90456C0E900410D
:10532000028143810573467301218173C47370BD8B
:105330002DE9F0410D46040006D121A34FF4CC72B3
:105340002BA131A0FCF7F4F92089A84235D9401BE4
:1053500086B240F2AF170CE0281A85B22089801B74
:10536000208124682CB916A33A4631A126A0FCF767
:10537000DFF96089A842EFD3207B000715D160894F
:10538000A84212D0607B80070FD4A088001B28445D
:1053900081B22046FEF7D2FE040006D108A340F2F7
:1053A000BD1229A118A0FCF7C3F9658125812068E9
:1053B00008B1FFF7FBFE00202060BDE8F08100008F
:1053C0002E2E2F4D6964646C6577617265732F545E
:1053D000686972645F50617274792F4C7749502FFD
:1053E0007372632F636F72652F706275662E630030
:1053F000706275665F7265616C6C6F633A207020D5
:10540000213D204E554C4C00417373657274696F99
:105410006E2022257322206661696C6564206174A8
:10542000206C696E6520256420696E2025730A0052
:10543000706275665F7265616C6C6F633A20712093
:10544000213D204E554C4C006D656D5F7472696D49
:105450002072657475726E65642071203D3D204E2A
:10546000554C4C0000280CD0817B491C11F0FF01E9
:10547000817306D103A340F242320EA112A0FCF7C1
:1054800057B970472E2E2F4D6964646C6577617231
:1054900065732F54686972645F50617274792F4C20
:1054A0007749502F7372632F636F72652F70627527
:1054B000662E63007062756620726566206F766581
:1054C00072666C6F77000000417373657274696F68
:1054D0006E2022257322206661696C6564206174E8
:1054E000206C696E6520256420696E2025730A0092
:1054F00010B520B1B1F5803F06D3012010BD0FA338
:1055000040F24B2219A109E000290BD043898AB24D
:10551000934209D209A340F2552217A11EA0FCF71D
:1055200007F9EAE7002010BD446821444160991A58
:1055300041810189891A0181F4E700002E2E2F4D47
:105540006964646C6577617265732F54686972640D
:105550005F50617274792F4C7749502F7372632FAB
:10556000636F72652F706275662E63007020213D37
:10557000204E554C4C000000696E6372656D656E7F
:10558000745F6D61676E6974756465203C3D207061
:105590002D3E6C656E000000417373657274696F17
:1055A0006E2022257322206661696C656420617417
:1055B000206C696E6520256420696E2025730A00C1
:1055C0002DE9F041304D04462868844206D22FA3CD
:1055D00040F2DF1239A13FA0FCF7AAF868688442C4
:1055E00006D32AA34FF4F07244A13AA0FCF7A0F826
:1055F000207930B125A340F2E11247A135A0FCF794
:1056000097F820884FF4C868404506D91FA34FF487
:10561000F27248A12FA0FCF78BF8208800F0A0F8C8
:105620000646B44215D0307998B96868864210D0E1
:10563000A868B04200D1AC603088208030884045F6
:1056400007D02046FEF772FD0746308800F088F844
:105650004780608800F084F8A04212D001790029C8
:105660000FD1A968A14200D1A860218801802188BA
:10567000414506D0FEF75AFD0546208800F070F837
:105680004580BDE8F0810000280000202E2E2F4D1F
:105690006964646C6577617265732F5468697264BC
:1056A0005F50617274792F4C7749502F7372632F5A
:1056B000636F72652F6D656D2E630000706C75678A
:1056C0005F686F6C65733A206D656D203E3D20729A
:1056D000616D0000417373657274696F6E202225DD
:1056E0007322206661696C6564206174206C696E48
:1056F0006520256420696E2025730A00706C75672B
:105700005F686F6C65733A206D656D203C20726137
:105710006D5F656E64000000706C75675F686F6C2C
:1057200065733A206D656D2D3E75736564203D3D52
:1057300020300000706C75675F686F6C65733A208D
:105740006D656D2D3E6E657874203C3D204D454D58
:105750005F53495A455F414C49474E45440000005C
:105760000149096808447047280000202DE9F041EC
:1057700000F01EF80D4C05464FF000472168002947
:1057800011D048682A1ABA420DD20A682260D1E9BB
:105790000262606090460320FEF7B2FD002EEDD05D
:1057A0004046B047EAE7BDE8F0810000580000201D
:1057B000FBF728BB70B515460E460446B0F1804F86
:1057C00006D308A340F2291213A121A0FBF7B0FFD2
:1057D000FFF7EEFF20442A463146BDE8704000F056
:1057E0004BB800002E2E2F4D6964646C6577617292
:1057F00065732F54686972645F50617274792F4CBD
:105800007749502F7372632F636F72652F74696DC0
:10581000656F7574732E630054696D656F757420C0
:1058200074696D6520746F6F206C6F6E672C206DCE
:105830006178206973204C5749505F55494E543365
:10584000325F4D41582F34206D7365637300000043
:10585000417373657274696F6E202225732220660E
:1058600061696C6564206174206C696E65202564D3
:1058700020696E2025730A0070B5044615460E4651
:105880000320FEF7B1FD78B10021C560104A80E821
:105890005200116831B14B68E51A4FF000439D4248
:1058A00012D30160106070BDBDE8704009A3BE2234
:1058B00015A125A0FBF73CBF5568651B9D4202D38F
:1058C0000260086070BD11460A68002AF8D0F3E74C
:1058D000580000202E2E2F4D6964646C657761722C
:1058E00065732F54686972645F50617274792F4CCC
:1058F0007749502F7372632F636F72652F74696DD0
:10590000656F7574732E63007379735F74696D6569
:105910006F75743A2074696D656F757420213D2030
:105920004E554C4C2C20706F6F6C204D454D505F88
:105930005359535F54494D454F5554206973206561
:105940006D70747900000000417373657274696F43
:105950006E2022257322206661696C656420617463
:10596000206C696E6520256420696E2025730A000D
:1059700070B5074D002400BF05EBC40255F8340094
:105980000449FFF717FF641C022CF5D370BD00001B
:1059900074660008A53C00082DE9F05F01B92D49A7
:1059A00020B12D4C002663681D460FE02BA340F26A
:1059B000B73236A13BA0FBF7BBFE6FF00F00BDE88E
:1059C000F09FA84201D1012602E0ED68002DF8D138
:1059D0006FF0070972BB00254FF6FF784FF4404A7D
:1059E0004FF4804B2288571C2780424501D1A4F8F0
:1059F00000A01A46278809E0B2F812C0BC4504D1BD
:105A00006D1CADB25D45EDD31CE0D268002AF3D128
:105A10003A04120C16D00FE098420AD05D8A9542E3
:105A200007D11F680D68AF420CD059B155B14BB1C9
:105A300047B1DB68002BEFD101B1096801604282F8
:105A400016B104E04846BAE76168C16060600020B2
:105A5000B5E7000084660008600000202E2E2F4D60
:105A60006964646C6577617265732F5468697264E8
:105A70005F50617274792F4C7749502F7372632F86
:105A8000636F72652F7564702E6300007564705FBC
:105A900062696E643A20696E76616C696420706335
:105AA00062000000417373657274696F6E20222575
:105AB0007322206661696C6564206174206C696E74
:105AC0006520256420696E2025730A002DE9F041C8
:105AD00016460D4604006FF00F0704D045B1628AE8
