:020000040800F2
:100000009004002001010008EF0D00089D0D00087C
:10001000ED0D00086D010008850F000800000000CC
:10002000000000000000000000000000E70E0008D3
:100030006F01000800000000110E0008E90E000822
:100040001B0100081B0100081B0100081B01000820
:100050001B0100081B0100081B0100081B01000810
:100060001B0100081B0100081B0100081B01000800
:100070001B0100081B0100081B0100081B010008F0
:100080001B0100081B0100081B0100081B010008E0
:100090001B0100081B0100081B0100081B010008D0
:1000A0001B0100081B0100081B0100081B010008C0
:1000B0001B0100081B0100081B0100081B010008B0
:1000C0001B0100081B0100081B010008150E000899
:1000D0001B0100081B0100081B0100081B01000890
:1000E0001B0100081B0100081B010008DFF80CD0F1
:1000F00000F02AF800480047A50F000890040020EF
:100100000648804706480047FEE7FEE7FEE7FEE7B1
:10011000FEE7FEE7FEE7FEE7FEE7FEE73D0F00082D
:10012000ED000008D2B201E000F8012B491EFBD21D
:1001300070470022F6E710B513460A4604461946F2
:10014000FFF7F0FF204610BD064C074D06E0E068C3
:1001500040F0010394E8070098471034AC42F6D30E
:10016000FFF7C8FF1C1000083C100008FEE77047AE
:1001700010B590F821100024022903D004218163D6
:1001800001243DE001680A6822F00E020A6001685D
:100190000A6822F001020A601A4A0168914201D1FC
:1001A000012121E0174A1432914201D110211BE0B4
:1001B000144A2832914201D1891515E0114A3C3286
:1001C000914201D189140FE00E4A5032914202D17E
:1001D0004FF4803108E00B4A6432914202D14FF46F
:1001E000801101E04FF08071064A083A5160012108
:1001F00080F82110002180F82010416B01B1884760
:10020000204610BD0800024070B5044600F0F2F828
:100210000546601C02D004480078044400F0EAF867
:10022000401BA042FAD370BD240000202DE9F84FF6
:10023000DFF890A100220AF1040B144601274FF0C9
:100240000F090BF1040E00BF0B6807FA04F52B40F1
:10025000AB4274D1DFF870C14E68A6EB0C0866455E
:100260002BD00DDC032E34D005DC36B3012E19D093
:10027000022E2FD11BE0112E16D0122E2AD119E0FA
:10028000B8F5881F19D006DCB8F5803F15D0B8F551
:10029000801F1FD111E0B8F5001F0ED0B8F5041F64
:1002A00018D10AE0CA6815E0CA68121D12E0CA68CF
:1002B00008320FE0CA680C320CE08A682AB1012AC1
:1002C0004FF0080203D0456104E0042202E005611A
:1002D00000E00022FF2B01D8064601E000F10406F1
:1002E0004FEA840501D9A5F12005D6F800C009FA26
:1002F00005F82CEA080C02FA05F54CEA050CC6F8DC
:1003000000C04D68ED0057D5304DAE6946F001068E
:10031000AE61AD6924F0030605F0010500952C4D92
:1003200006EB050CDCF80850A6074FEA167809FA28
:1003300008F6B543274EB04202D1002610E03BE05C
:10034000254EB04201D101260AE0244EB04201D12F
:10035000022605E0224EB04201D1032600E0042629
:1003600006FA08F62E43CCF808604D68DAF800600B
:10037000ED03554601D51E4300E09E432E604D68B7
:10038000DBF80060AD035D4601D51E4300E09E43EF
:100390002E604D68DEF80060ED02754601D51E4303
:1003A00000E09E432E604D68AD020E4D2E6801D5D3
:1003B0001E4300E09E432E60641C102CFFF444AFEB
:1003C000BDE8F88F00040140000011100010024049
:1003D0000000014000080140000C014000100140F5
:1003E000001401400C0401400AB101617047090486
:1003F000FBE70000014880687047000024000020EF
:10040000024881680278114481607047240000200E
:10041000074810B5016841F010010160032000F0A9
:1004200073F8002000F006F800F024F8002010BD5A
:100430000020024070B50D4D04464FF47A712878C3
:10044000B1FBF0F00A490968B1FBF0F000F092FC52
:1004500048B9102C07D200222146501E00F034F873
:1004600000206C6070BD012070BD000024000020E1
:10047000300000200C4808B5816941F0010181611C
:10048000816901F001010091C16941F08051C161B0
:10049000C06900F0805000900448416821F0E0619C
:1004A00041F00071416008BD0010024000000140B1
:1004B00000F01F02012191404009800000F1E0207E
:1004C000C0F8001170470000F0B40E4B1B680C46DA
:1004D000C3F30223C3F10705042D00D90425191D18
:1004E000072901D2002300E0DB1E012606FA05F1F0
:1004F000491E214099409E40761E16403143F0BC73
:1005000000F076BC0CED00E0064900F00702086838
:100510004FF6FF03184040EA0220034A10430860E8
:10052000704700000CED00E00000FA052DE9F047EF
:10053000DFF8548105460E46D8F8000000F00700A9
:10054000B0420CD2D8F8001021F007013143C8F8AE
:100550000010D8F8000000F00700B0426FD1286802
:100560004A4C810712D5400703D5606840F4E0602B
:1005700060602878000703D5606840F460506060D0
:100580006068A96820F0F000084360602878C00720
:1005900044D06868012816D02168022816D089073F
:1005A00000294CDA616821F0030101436160FFF723
:1005B00021FF6968074641F2883001290ED00229DF
:1005C000814618D026E021688903E9E78901E7E739
:1005D000FFF710FFC11B494501D918E0814660684B
:1005E000C0F381000128F3D118E000BFFFF702FF3C
:1005F000C11B49450BD86068C0F381000228F5D1C2
:100600000CE000BFFFF7F6FEC11B494502D90320ED
:10061000BDE8F087606810F00C0FF3D1D8F8001037
:10062000404601F00701B1420BD9016821F00701F2
:1006300031430160006800F00700B04201D00120A2
:10064000E6E72878400705D56068E96820F4E060AF
:10065000084360602878000706D56068296920F49F
:10066000605040EAC100606000F016F86168084A16
:10067000C1F30311515CC840064908600020FFF730
:10068000D9FE0020C4E70000002002400010024014
:100690000C1000083000002012A185B00FC98DE8B1
:1006A0000F0014A0144A006804905168134801F028
:1006B0000C03042B10D0082B0ED1C1F38343C903C4
:1006C0001DF803000AD5516804AAC1F34041515CEA
:1006D0000A4A5043B0FBF1F005B07047084948435F
:1006E000FAE7000002030405060708090A0B0C0DCF
:1006F0000E0F1010010200000010024000127A00DC
:1007000000093D002DE9F84F04460078B94DC007B7
:1007100048D06868C0F38100012807D06868C0F33A
:100720008100022809D16868C00306D528688003C3
:1007300038D5606800286FD034E06068B0F5803F3D
:100740000BD010B1B0F5A02F11D0286820F4803064
:100750002860286820F4802002E0286840F4803077
:100760002860606888B1FFF745FE064609E0286802
:1007700040F480202860F0E7FFF73CFE801B6428EF
:1007800075D828688003F7D50CE0FFF733FE0646DE
:1007900005E000BFFFF72EFE801B6428F0D8286814
:1007A0008003F7D42078944E80074FF001094FF072
:1007B00000083BD5686810F00C0F07D06868C0F3DC
:1007C0008100022809D16868C00306D42868800720
:1007D00014D5206901281FD110E02069B0B1C6F8F6
:1007E0000090FFF707FE074605E000BFFFF702FE97
:1007F000C01B0228C4D828688007F7D5286861691B
:1008000020F0F80040EAC10028600FE0C6F8008040
:10081000FFF7F0FD074606E0E9E000BFFFF7EAFD5D
:10082000C01B022823D828688007F7D42078000747
:100830002CD57248A169D9B1C0F80090FFF7DAFD54
:10084000074604E0FFF7D6FDC01B02280FD8686AF0
:100850008007F7D56A484FF4FA510068B0FBF1F011
:10086000009000BF0098411E0091FAD20EE080E097
:10087000C0F80080FFF7BEFD074604E0FFF7BAFDB1
:10088000C01B022875D8686A8007F7D42078400713
:1008900060D5E8690027C00008D4E86940F08050BE
:1008A000E861E869012700F0805000905548016830
:1008B000C90513D40168834641F480710160FFF7D4
:1008C00099FD824606E000BFFFF794FDA0EB0A0009
:1008D00064284ED8DBF80000C005F5D5E068012893
:1008E0000AD008B1052813D0286A20F00100286238
:1008F000286A20F0040002E0286A40F00100286223
:10090000E06841F2883B98B1FFF774FD82460BE046
:10091000286A40F004002862EEE700BFFFF76AFD96
:10092000A0EB0A0159455AD8286A8007F6D50CE091
:10093000FFF760FD824605E0FFF75CFDA0EB0A01D2
:1009400059454CD8286A8007F6D41FB1E86920F0D1
:100950008050E861E06988B36968C1F381010229C8
:1009600045D00228C6F8608004D0FFF743FD044656
:1009700038E034E0FFF73EFD074604E0FFF73AFDBC
:10098000C01B02282BD828688001F7D4206AB0F554
:10099000803F05D16868A16820F400300843686092
:1009A000D4E908010843696821F4741108436860B8
:1009B000C6F86090FFF71EFD044606E015E000BF94
:1009C000FFF718FD001B022809D828688001F7D519
:1009D0000BE000BFFFF70EFD001B022802D9032029
:1009E000BDE8F88F28688001F4D40020F8E70120E2
:1009F000F6E700000010024000004242800442423C
:100A000030000020007000407047000038B50446F8
:100A10000068426881684B0605D4CB0703D05306B3
:100A200001D5216C04E08B0707D5130605D5616C51
:100A300001B02046BDE83040084711F0600F3FD0BC
:100A400093063DD54B060AD594F85130032B34D08C
:100A5000636D43F004036365C3688368009389068C
:100A600009D5616D41F001016165816800910168FE
:100A700021F040010160606D002821D020684168AC
:100A800021F0E0014160012084F85100900718D066
:100A90002068416821F0030141600C4DE06C18B101
:100AA0004563E06CFFF764FBA06C002808D0456349
:100AB000A06CBDE83840FFF75BBBC1688068009060
:100AC00038BD2046FFF7A0FF38BD0000410E0008EA
:100AD00070B5040005D00025A56294F8510010B14E
:100AE00004E0012070BD204600F034F8022084F8B4
:100AF00051002068016821F040010160D4E9010142
:100B00000843D4E903121143084361690843218B68
:100B100001F400710843E1690843216A0843A16AAE
:100B2000084321680860A069042101EA1040616A55
:100B30000843216848602168E06A08612068C1694B
:100B400021F40061C1616565012084F85100002035
:100B500070BD000070B586B000240094019402942A
:100B6000039400682449884243D12448816941F4B0
:100B700080518161816901F480510491816941F062
:100B800004018161816901F004010491816941F0EE
:100B9000080181618069022500F0080004904FF48B
:100BA0000040CDE900050326694603961448FFF787
:100BB0003DFB2820CDE90005124D694603962846E5
:100BC000FFF734FB1020CDE9000469462846029463
:100BD000FFF72CFB0C48416841F0E06141F0010156
:100BE0004160002211462320FFF76EFC2320FFF70F
:100BF0005FFC06B070BD00000030014000100240F4
:100C000000080140000C0140000001402DE9F84FB0
:100C1000044690F850000026994617460D460128D4
:100C20000DD04FF0010B84F850B0FFF7E3FB804686
:100C300094F85100B246012804D0022694E0022024
:100C4000BDE8F88F002D7BD0002F79D0032084F8E9
:100C50005100C4F854A02563A786E786C4F838A0DD
:100C6000A4F83CA0A4F83EA0C4F844A0C4F840A056
:100C7000A068B0F5004F04D12068016841F48041BC
:100C8000016020680168490603D4016841F0400111
:100C90000160E068B0F5006F606804D030B3E08EAA
:100CA000012823D03EE010B1E08E01281AD135F89A
:100CB000021B206805E020688168890706D535F8A1
:100CC000021BC160E08E401EE0860BE0B9F1000F10
:100CD00034D0B9F1FF3F05D0FFF78CFBA0EB080142
:100CE00049452BD2E08E0028E5D11EE0216815F899
:100CF000010B087306E020688168890706D515F89E
:100D0000011B0173E08E401EE0860BE0B9F1000F7D
:100D100014D0B9F1FF3F05D0FFF76CFBA0EB080141
:100D200049450BD2E08E0028E5D14B460122022135
:100D30002046CDF8008000F08BF810B1032613E0B8
:100D400011E042464946204600F06AF818B10126F3
:100D50002020606508E0A06818B92068C168806834
:100D60000090606D00B1012684F851B084F850A065
:100D7000304665E710B5401EB0F1807F01D30120F9
:100D800010BD4FF0E02460610F21601700F030F8D3
:100D90000020A06107202061002010BDFEE70000B8
:100DA000104810B50E4901604FF482714160002176
:100DB00002228160C0E90312012242619204826131
:100DC0002822C0E90721416281620A21C162FFF73E
:100DD0007FFE0122BDE81040D1030348FFF704BBAA
:100DE000003001403400002000080140FEE7704759
:100DF0000907090E002806DA00F00F0000F1E020D4
:100E000080F8141D704700F1E02080F8001470474E
:100E1000704700000148FFF7F9BD000034000020D2
:100E200038B50B46009204460022802100F010F8ED
:100E3000002804D0606D40F020006065032038BDBC
:100E400010B5406A0021C187C186FFF7DDFD10BDE6
:100E50002DE9F0411D4617460E460446DDF8188080
:100E600035E0681C33D02DB1FFF7C4FAA0EB0800C1
:100E7000A8422CD32068416821F0E00141606068FD
:100E8000B0F5827F0BD1A068B0F5004F02D0B0F56D
:100E9000806F04D12068016821F040010160A06AE0
:100EA000B0F5005F0AD1206801684DF6FF7211406D
:100EB00001602068016841F400510160012084F85C
:100EC0005100002084F850000320BDE8F081206824
:100ED000806836EA000004D00020B842C1D100206A
:100EE000F3E70120F9E77047FFF78ABA30B58FB012
:100EF00028216846FFF71DF914210AA8FFF719F900
:100F000001210804CDE90010002402940225049177
:100F1000CDE907504FF4E01009906846FFF7F2FB67
:100F20000F20CDE90A056802CDE90C4002210AA88C
:100F30000E94FFF7FBFA0FB030BD00000D480168BA
:100F400041F00101016041680B4A114041600168B4
:100F50000A4A11400160016821F480210160416862
:100F600021F4FE0141604FF41F0181600449C00378
:100F700008607047001002400000FFF8FFFFF6FE17
:100F800008ED00E0FEE702E008C8121F08C1002AD1
:100F9000FAD170477047002001E001C1121F002AFA
:100FA000FBD1704708B5FFF733FAFFF79FFF1448EE
:100FB000816941F020018161816901F02001009186
:100FC000816941F004018161816901F004010091AE
:100FD000816941F008018161806900F0080000909A
:100FE000FFF7DEFE4FF47A7465002346212205499F
:100FF0000548FFF70BFE2846FFF706F9F5E7000066
:10100000001002400000002034000020000000001A
:101010000000000001020304060708093C10000854
:101020000000002034000000860F00087010000847
:10103000340000205C040000960F00085350492043
:10104000636F6D6D756E69636174696F6E2069732E
:101050002073756365737366756C210A0D0000005B
:1010600001000000100000000000000000A24A047F
:04000005080000ED02
:00000001FF
