:020000040800F2
:10000000F00400200101000873160008D314000852
:100010007116000889020008151C00080000000085
:10002000000000000000000000000000971600081B
:10003000C902000800000000951600089916000883
:100040001B0100081B0100081B0100081B01000820
:100050001B0100081B0100081B0100081B01000810
:100060001B0100081B0100081B0100081B01000800
:100070001B0100081B0100081B0100081B010008F0
:100080001B0100081B0100081B0100081B010008E0
:100090001B0100081B0100081B0100081B010008D0
:1000A0001B0100081B0100081B0100081B010008C0
:1000B0001B010008351700081B0100081B01000880
:1000C0001B0100081B0100081B0100081B010008A0
:1000D0001B0100081B0100081B010008091C000887
:1000E0001B0100081B0100081B010008DFF80CD0F1
:1000F00000F0B8F800480047CD1C0008F0040020CC
:100100000648804706480047FEE7FEE7FEE7FEE7B1
:10011000FEE7FEE7FEE7FEE7FEE7FEE7ED16000876
:10012000ED000008D2B201E000F8012B491EFBD21D
:1001300070470022F6E710B513460A4604461946F2
:10014000FFF7F0FF204610BD30B480EA010202F054
:10015000004530F0004221F0004013D090B1C30DB3
:10016000D40DC2F31601C0F31600E41A41F40001E5
:1001700040F400027D34914201D3641C00E0490048
:10018000002C02DA30BC002070474FF4000000233E
:10019000914201D3891A034340084FEA4101F7D144
:1001A00051B1914202D14FF0004105E002D24FF02F
:1001B000010101E06FF0010103EBC450284430BCA1
:1001C00000F019B896230022114600F01DB820F067
:1001D0000040C10DC0F3160040F400007F2901DA91
:1001E00000207047962903DCC1F19601C840704792
:1001F0009639884070470029A8BF7047401C4900C5
:1002000008BF20F00100704710B4B0FA80FC00FA7B
:100210000CF050EA010404BF10BC704749B1CCF1A6
:10022000200421FA04F411FA0CF118BF0121214332
:100230000843A3EB0C01CB1D4FEA00614FEA1020ED
:1002400042BF002010BC704700EBC350104400298F
:10025000A4BF10BC7047401C490008BF20F001003B
:1002600010BC7047064C074D06E0E06840F0010303
:1002700094E8070098471034AC42F6D3FFF73AFFF2
:100280004C1F00086C1F0008FEE70000F0B50022BC
:10029000FF2363F30F220B4D63F30702002305F5E1
:1002A00080760BE0C75CC2F307247C402F5D345D91
:1002B000574067F30F2264F307025B1C8B42F1D3B4
:1002C00090B2F0BD341D00087047000010B590F8E2
:1002D00021100024022903D00421816301243DE080
:1002E00001680A6822F00E020A6001680A6822F0BA
:1002F00001020A601A4A0168914201D1012121E0FC
:10030000174A1432914201D110211BE0144A2832BD
:10031000914201D1891515E0114A3C32914201D137
:1003200089140FE00E4A5032914202D14FF48031CD
:1003300008E00B4A6432914202D14FF4801101E08F
:100340004FF08071064A083A5160012180F821106F
:10035000002180F82010416B01B18847204610BD74
:10036000080002402DE9F84FDFF890A100220AF1C1
:10037000040B144601274FF00F090BF1040E00BFC8
:100380000B6807FA04F52B40AB4274D1DFF870C15B
:100390004E68A6EB0C0866452BD00DDC032E34D03E
:1003A00005DC36B3012E19D0022E2FD11BE0112E01
:1003B00016D0122E2AD119E0B8F5881F19D006DC04
:1003C000B8F5803F15D0B8F5801F1FD111E0B8F502
:1003D000001F0ED0B8F5041F18D10AE0CA6815E056
:1003E000CA68121D12E0CA6808320FE0CA680C32EF
:1003F0000CE08A682AB1012A4FF0080203D0456157
:1004000004E0042202E0056100E00022FF2B01D895
:10041000064601E000F104064FEA840501D9A5F182
:100420002005D6F800C009FA05F82CEA080C02FAF3
:1004300005F54CEA050CC6F800C04D68ED0057D52F
:10044000304DAE6946F00106AE61AD6924F0030699
:1004500005F0010500952C4D06EB050CDCF8085065
:10046000A6074FEA167809FA08F6B543274EB042B8
:1004700002D1002610E03BE0254EB04201D101261A
:100480000AE0244EB04201D1022605E0224EB042DD
:1004900001D1032600E0042606FA08F62E43CCF824
:1004A00008604D68DAF80060ED03554601D51E433B
:1004B00000E09E432E604D68DBF80060AD035D46B2
:1004C00001D51E4300E09E432E604D68DEF80060BB
:1004D000ED02754601D51E4300E09E432E604D6837
:1004E000AD020E4D2E6801D51E4300E09E432E60E6
:1004F000641C102CFFF444AFBDE8F88F00040140E9
:1005000000001110001002400000014000080140EE
:10051000000C014000100140001401400C04014097
:100520008068084000D0012070470AB1016170471F
:100530000904FBE7014880687047000010000020B4
:1005400002488168027811448160704710000020E1
:10055000074810B5016841F010010160032000F068
:1005600073F8002000F006F800F024F8002010BD19
:100570000020024070B50D4D04464FF47A71287882
:10058000B1FBF0F00A490968B1FBF0F000F0FCFAA9
:1005900048B9102C07D200222146501E00F034F832
:1005A00000206C6070BD012070BD000010000020B4
:1005B0001C0000200C4808B5816941F001018161EF
:1005C000816901F001010091C16941F08051C1616F
:1005D000C06900F0805000900448416821F0E0615B
:1005E00041F00071416008BD001002400000014070
:1005F00000F01F02012191404009800000F1E0203D
:10060000C0F8001170470000F0B40E4B1B680C4698
:10061000C3F30223C3F10705042D00D90425191DD6
:10062000072901D2002300E0DB1E012606FA05F1AE
:10063000491E214099409E40761E16403143F0BC31
:1006400001F018B80CED00E0064900F00702086858
:100650004FF6FF03184040EA0220034A10430860A7
:10066000704700000CED00E00000FA052DE9F047AE
:10067000DFF8548105460E46D8F8000000F0070068
:10068000B0420CD2D8F8001021F007013143C8F86D
:100690000010D8F8000000F00700B0426FD12868C1
:1006A0004A4C810712D5400703D5606840F4E060EA
:1006B00060602878000703D5606840F4605060608F
:1006C0006068A96820F0F000084360602878C007DF
:1006D00044D06868012816D02168022816D08907FE
:1006E00000294CDA616821F0030101436160FFF7E2
:1006F00021FF6968074641F2883001290ED002299E
:10070000814618D026E021688903E9E78901E7E7F7
:10071000FFF710FFC11B494501D918E08146606809
:10072000C0F381000128F3D118E000BFFFF702FFFA
:10073000C11B49450BD86068C0F381000228F5D180
:100740000CE000BFFFF7F6FEC11B494502D90320AC
:10075000BDE8F087606810F00C0FF3D1D8F80010F6
:10076000404601F00701B1420BD9016821F00701B1
:1007700031430160006800F00700B04201D0012061
:10078000E6E72878400705D56068E96820F4E0606E
:10079000084360602878000706D56068296920F45E
:1007A000605040EAC100606000F036F86168084AB5
:1007B000C1F30311515CC840064908600020FFF7EF
:1007C000D9FE0020C4E700000020024000100240D3
:1007D000341F00081C0000200448054900684968CF
:1007E000044AC1F30221515CC84070471C0000203C
:1007F00000100240441F0008044805490068496889
:10080000044AC1F3C221515CC84070471C0000205B
:1008100000100240441F000812A185B00FC98DE8E6
:100820000F0014A0144A006804905168134801F0A6
:100830000C03042B10D0082B0ED1C1F38343C90342
:100840001DF803000AD5516804AAC1F34041515C68
:100850000A4A5043B0FBF1F005B0704708494843DD
:10086000FAE7000002030405060708090A0B0C0D4D
:100870000E0F1010010200000010024000127A005A
:1008800000093D002DE9F84F04460078B94DC00736
:1008900048D06868C0F38100012807D06868C0F3B9
:1008A0008100022809D16868C00306D52868800342
:1008B00038D5606800286FD034E06068B0F5803FBC
:1008C0000BD010B1B0F5A02F11D0286820F48030E3
:1008D0002860286820F4802002E0286840F48030F6
:1008E0002860606888B1FFF725FE064609E02868A1
:1008F00040F480202860F0E7FFF71CFE801B64288E
:1009000075D828688003F7D50CE0FFF713FE06467C
:1009100005E000BFFFF70EFE801B6428F0D82868B2
:100920008003F7D42078944E80074FF001094FF0F0
:1009300000083BD5686810F00C0F07D06868C0F35A
:100940008100022809D16868C00306D4286880079E
:1009500014D5206901281FD110E02069B0B1C6F874
:100960000090FFF7E7FD074605E000BFFFF7E2FD57
:10097000C01B0228C4D828688007F7D52868616999
:1009800020F0F80040EAC10028600FE0C6F80080BF
:10099000FFF7D0FD074606E0E9E000BFFFF7CAFD1C
:1009A000C01B022823D828688007F7D420780007C6
:1009B0002CD57248A169D9B1C0F80090FFF7BAFDF3
:1009C000074604E0FFF7B6FDC01B02280FD8686A8F
:1009D0008007F7D56A484FF4FA510068B0FBF1F090
:1009E000009000BF0098411E0091FAD20EE080E016
:1009F000C0F80080FFF79EFD074604E0FFF79AFD70
:100A0000C01B022875D8686A8007F7D42078400791
:100A100060D5E8690027C00008D4E86940F080503C
:100A2000E861E869012700F08050009055480168AE
:100A3000C90513D40168834641F480710160FFF752
:100A400079FD824606E000BFFFF774FDA0EB0A00C7
:100A500064284ED8DBF80000C005F5D5E068012811
:100A60000AD008B1052813D0286A20F001002862B6
:100A7000286A20F0040002E0286A40F001002862A1
:100A8000E06841F2883B98B1FFF754FD82460BE0E5
:100A9000286A40F004002862EEE700BFFFF74AFD35
:100AA000A0EB0A0159455AD8286A8007F6D50CE010
:100AB000FFF740FD824605E0FFF73CFDA0EB0A0191
:100AC00059454CD8286A8007F6D41FB1E86920F050
:100AD0008050E861E06988B36968C1F38101022947
:100AE00045D00228C6F8608004D0FFF723FD0446F5
:100AF00038E034E0FFF71EFD074604E0FFF71AFD7B
:100B0000C01B02282BD828688001F7D4206AB0F5D2
:100B1000803F05D16868A16820F400300843686010
:100B2000D4E908010843696821F474110843686036
:100B3000C6F86090FFF7FEFC044606E015E000BF33
:100B4000FFF7F8FC001B022809D828688001F7D5B8
:100B50000BE000BFFFF7EEFC001B022802D90320C8
:100B6000BDE8F88F28688001F4D40020F8E7012060
:100B7000F6E70000001002400000424280044242BA
:100B80001C0000200070004010B5401EB0F1807FB6
:100B900001D3012010BD4FF0E02460610F216017E8
:100BA00000F068FD0020A06107202061002010BD3A
:100BB0007047704710B590F83C20012A25D00122DB
:100BC00080F83C20CA688C6822F4407222434C684A
:100BD00022F4806222430C6822F4006222430C69F2
:100BE00022F4805222434C6922F4005222438C6941
:100BF00022F48042224322F4004102680023214370
:100C0000516480F83C30002010BD022010BD30B58A
:100C100090F83C20012A20D0012280F83C200223B9
:100C200080F83D3003685C6824F070045C60036801
:100C30005C680D682C435C6003689C6824F0800449
:100C40009C6003689C6849680C439C6080F83D2068
:100C5000002180F83C10084630BD022030BD10B5A0
:100C6000040003D094F83D0010B107E0012010BD4E
:100C7000002084F83C00204600F00CF8022084F8A4
:100C80003D00211D206800F05BFD012084F83D003F
:100C9000002010BD08B500680B49884212D10B48EE
:100CA000C16941F00201C161C069002200F0020087
:100CB000009011461D20FFF7A7FCBDE808401D204D
:100CC000FFF796BC08BD0000000400400010024081
:100CD0000168CA6842F00102CA600068016841F018
:100CE00001010160002070470168CA6822F001021A
:100CF000CA600068016A41F21112114207D1016A0B
:100D00009210114203D1016821F00101016000201D
:100D1000704770B5044690F83C00012817D00125B3
:100D200084F83C50022084F83D002068826822F05C
:100D3000770222F47F4282600868502837D00DDCA9
:100D4000202859D005DC88B3102841D151E0022079
:100D500070BD302853D040283AD13FE060282ED0D3
:100D600070280BD0B0F5805F03D0B0F5005F2FD1B5
:100D700010E02068816821F0070115E0CB68D1E917
:100D80000121206800F01DFD2168886840F077008F
:100D900088601DE0CB68D1E90121206800F011FDD9
:100DA0002068816841F48041816011E01EE0CA68DA
:100DB0004968206800F0BAFD5021206806E0CA6842
:100DC0004968206800F0C3FD6021206800F003FD41
:100DD00084F83D50002084F83C0070BDCA68496822
:100DE000206800F0A3FD40212068EFE70021206883
:100DF000ECE710212068E9E720212068E6E73021B0
:100E00002068E3E7704770B50446006801694FF059
:100E10000005C943890715D4C168C943890711D49E
:100E2000E91E016101202077206880698007204643
:100E300002D0FFF7E7FF04E000F0BEF8204600F024
:100E400053F9257720680169C943490717D4C16858
:100E5000C943490713D46FF00401016102202077D0
:100E60002068806910F4407F204602D0FFF7CAFF57
:100E700004E000F0A1F8204600F036F9257720685C
:100E80000169C943090716D4C168C943090712D4C7
:100E90006FF008010161042020772068C069800795
:100EA000204602D0FFF7AEFF04E000F085F82046B0
:100EB00000F01AF9257720680169C943C90617D4DB
:100EC000C168C943C90613D46FF01001016108203D
:100ED00020772068C06910F4407F204602D0FFF7D9
:100EE00091FF04E000F068F8204600F0FDF8257757
:100EF00020680169C943C90708D1C168C943C90746
:100F000004D1891E0161204600F032F92068016990
:100F1000C943090609D4C168C943090605D46FF05D
:100F2000800101612046FFF743FE20680169C94343
:100F3000490609D4C168C943490605D46FF0400188
:100F40000161204600F06AF920680169C9438906F9
:100F50000BD4C168C943890607D46FF02001016131
:100F60002046BDE87040FFF724BE70BD00B585B0D7
:100F70000021009101910291039100680B49884280
:100F800012D10B48816941F0040181618069694691
:100F900000F0040004904FF4807000900220019053
:100FA00003900448FFF7DEF905B000BD002C0140B6
:100FB0000010024000080140704770B5044690F8E8
:100FC0003C000D4601280DD0012684F83C6002202B
:100FD00084F83D0042B1042A18D0082A2AD00C2AED
:100FE0004DD139E0022070BD206800F0FDFB206883
:100FF000816941F0080181612068816921F0040163
:101000008161206881692A69114311E0206800F03C
:1010100013FC2068816941F4006181612068816965
:1010200021F480618161206881692A6941EA022195
:10103000816124E0206800F02BFC2068C16941F048
:101040000801C1612068C16921F00401C161206803
:10105000C1692A69114311E0206800F045FC20684D
:10106000C16941F40061C1612068C16921F48061F6
:10107000C1612068C1692A6941EA0221C16184F81D
:101080003D60002084F83C0070BD10B5040003D022
:1010900094F83D0010B107E0012010BD002084F855
:1010A0003C00204600F00CF8022084F83D00211D91
:1010B000206800F045FB012084F83D00002010BDB1
:1010C00008B500680649884208D10648816941F49C
:1010D00000618161806900F40060009008BD00003B
:1010E000002C0140001002407047000010B504467B
:1010F0000068012200F05AFB07492068884203D1AA
:10110000416C41F4004141642068016841F00101F3
:101110000160002010BD0000002C014010B5044605
:101120000068002200F042FB104B41F211112068D0
:101130008A10984209D1036A0B4206D1036A13420E
:1011400003D1436C23F4004343642068036A0B42D9
:1011500006D1016A114203D1016821F00101016049
:10116000012084F83D00002010BD0000002C01404B
:1011700070B500682549884247D1254CA078AA2837
:101180003DD1A1880C293AD32248891EFFF77EF869
:10119000A11D204D0880A0880A78284410F8013C41
:1011A0009A4223D1497810F8020C81421ED1287846
:1011B00030281BD16878102818D1E879A97900EB7C
:1011C0000120FEF7FFFF1449FEF7BEFF0146A060B5
:1011D000A5F1C00000F03EFD687A297A00EB0122FB
:1011E0000021A5F1C000E26000F015FD18210948BA
:1011F000FEF79FFF0020A0805520E070A070BDE8A2
:10120000704004488038FFF76FBD70BD0004004097
:1012100000000020E000002000007A447047704782
:1012200070B5026804461068D168536910F00F0F5A
:1012300050D003F0010501F4907635435DD0C2072C
:1012400005D0CA0503D5E26B42F00102E263420712
:1012500005D5DA0703D0E26B42F00202E2638207AF
:1012600005D5DA0703D0E26B42F00402E26302071D
:1012700005D5DA0703D0E26B42F00802E263E26BC5
:10128000002A33D0800604D5880602D5204600F017
:1012900086FB20684069E16BC0F38010090700D429
:1012A00028B3204600F06DFB2068416949061AD535
:1012B000416921F040014161606BA0B11B4941636C
:1012C000606BFFF703F8002810D0606B416BBDE83E
:1012D00070400847830610D58B060ED52046BDE822
:1012E000704000F05CBB2046FFF799FF70BD2046C0
:1012F000FFF795FF0020E06370BD030606D50B06DF
:1013000004D52046BDE8704000F04CBC4006F3D543
:101310004806F1D5D168204621F04001D160202156
:1013200084F8391000F0D4F870BD0000731900087B
:1013300070B5040004D094F83900002510B106E01F
:10134000012070BD84F83850204600F023F8242096
:1013500084F839002068C16821F40051C16020463A
:1013600000F068FB2068016921F490410161206868
:10137000416921F02A0141612068C16841F40051AE
:10138000C160E563202084F8390084F83A00002029
:1013900070BD000030B585B0002400940194029423
:1013A000039400681D49884235D11D48C16941F444
:1013B0008021C161C16901F480210491816941F0FA
:1013C000100181618069174D00F0100004904FF406
:1013D0008060009002200190032003906946284617
:1013E000FEF7C0FFE814CDE90004694628460294E0
:1013F000FEF7B8FF0C48416821F0300141F0E06190
:1014000041F010014160002211462720FFF7FCF84F
:101410002720FFF7EDF805B030BD00000048004080
:1014200000100240001001400000014090F83A30E6
:10143000202B22D1F9B1F2B190F83830012B1CD019
:1014400081628285C2850021C163222280F83A2010
:1014500080F838100168CA6842F48072CA60016876
:101460004A6942F001024A610068C16841F0200106
:10147000C1600020704701207047022070470000C3
:1014800010B500680F4988421BD10F48FFF72CFCAC
:101490000E488178AA2901D0AA2181700A4B81883F
:1014A000803342785A54491C818008490122491CE2
:1014B000A3F14000FFF7BAFFBDE810400248FFF774
:1014C00007BC10BD00480040600000200000002064
:1014D0007047FEE730B585B000241D4801940294A2
:1014E0000394816941F020018161816901F020014B
:1014F0000491816941F010018161816901F010015D
:101500000491816941F008018161816901F008015C
:101510000491816941F0040181618069012500F035
:1015200004000490694600950A48FEF71BFF10204E
:101530000090CDE90154084C69462046FEF712FFA1
:10154000002210212046FEF7F0FF05B030BD00005C
:101550000010024000100140000C014010B590B096
:1015600000240E941C2168460F94FEF7E2FD1C2116
:1015700007A8FEF7DEFD19481749C0E9001484608A
:10158000C460046144618461FFF77FFD0E940EA97D
:1015900012480F94FFF73BFB6020CDE90004029452
:1015A000039404940594002269460C480694FFF7BE
:1015B00004FD0794089409944FF400500A94CDE96F
:1015C0000B4007A905480D94FFF7F4FA0348FFF70D
:1015D000CDFC10B010BD0000002C01402000002008
:1015E00010B586B00024124800940194029403942C
:1015F00004940E490594016048F69F41C0E9011426
:101600000A21C0E903148461FFF729FB4FF48050DD
:10161000009069460648FFF77CFB049404A904483F
:101620000594FFF7F4FA06B010BD00000004004076
:10163000600000200C4810B50A4901604FF41651B3
:101640004160002181600C22C160C0E90412816107
:10165000C161FFF76DFEBDE8104001220349024859
:10166000FFF7E4BE00480040A00000200100002079
:10167000FEE770470907090E002806DA00F00F00A0
:1016800000F1E02080F8141D704700F1E02080F8A0
:101690000014704770477047FEF752BF30B58FB0E7
:1016A00028216846FEF745FD14210AA8FEF741FDF2
:1016B00001210804CDE900100024029402250491C0
:1016C000CDE907504FF4E01009906846FFF7DAF8CB
:1016D0000F20CDE90A056802CDE90C4002210AA8D5
:1016E0000E94FEF7C3FF0FB030BD00000D48016837
:1016F00041F00101016041680B4A114041600168FD
:101700000A4A11400160016821F4802101604168AA
:1017100021F4FE0141604FF41F0181600449C003C0
:1017200008607047001002400000FFF8FFFFF6FE5F
:1017300008ED00E00148FFF766BB000060000020F4
:10174000F0B50268164B174C174D4FF08047984282
:1017500005D0B84203D0A04201D0A84203D122F064
:1017600070064A683243984205D0B84203D0A0427E
:1017700001D0A84203D122F44074CA68224322F067
:1017800080044A69224302608A68C2620A688262EF
:10179000984201D10969016301214161F0BD000056
:1017A000002C0140000400400008004010B5012357
:1017B000046A8B409C430462036A8A4013430362B9
:1017C00010BD10B5846842EA032224F47F440A4322
:1017D0002243826010BD826822F070020A4342F008
:1017E000070181607047000030B5026A22F00102F3
:1017F0000262026A4368846924F073050C682C4312
:1018000022F002058A682A430A4DA8420BD122F031
:101810000805CA6823F440732A434D6922F0040284
:101820001D438B692B4343608461496841630262B5
:1018300030BD0000002C014030B5026A22F01002D9
:101840000262026A436884690D6824F4E64444EA4B
:1018500005248D6822F0200242EA05120B4DA842B1
:101860000ED1CD6822F0800242EA05124D6923F4C0
:10187000406343EA85038D6922F0400243EA850311
:101880004360846149688163026230BD002C01407D
:1018900030B5026A22F480720262036A4268C46947
:1018A00023F4007324F073050C682C438D6843EA1D
:1018B00005230C4DA8420ED1CD6823F4006343EA02
:1018C00005234D6922F4405242EA05128D6923F442
:1018D000806342EA05124260C4614968C1630362E1
:1018E00030BD0000002C014030B5026A22F4805265
:1018F0000262046A4268C3690D6823F4E64343EA5E
:1019000005238D6824F4005444EA0534064DA842AA
:1019100004D14D6922F4804242EA85124260C361DB
:1019200049680164046230BD002C014010B5036AAF
:10193000046A24F001040462846924F0F00444EA97
:10194000021423F00A020A438461026210BD10B53A
:10195000036A23F0100303628369046A23F470436B
:1019600043EA023224F0A00343EA011182610162DA
:1019700010BD10B5406A0021C185C184FFF74FFC3E
:1019800010BD0168CA6822F49072CA6001684A6991
:1019900022F001024A61202180F83A10704710B508
:1019A00090F83A10222901D0022010BD8168B1F5CB
:1019B000805F11D00169002901681FD0496801F0DA
:1019C0007F03816A4A1C82620B70C18D491E090423
:1019D000090CC18518D02BE00269816A002A0268CF
:1019E000526805D0D2B20A80816A491C8162ECE754
:1019F000C2F308020A80816A891CF7E74A68816A93
:101A00004B1C83620A70E0E70168CA6822F020027A
:101A1000CA600168CA6822F48072CA6001684A69B3
:101A200022F001024A61202180F83A10FFF728FDD8
:101A3000002010BD2DE9F041044600680169E2680C
:101A400021F44051114301612169A0680843616993
:101A500008432168CA6841F20C639A430243CA6092
:101A600020684169A26921F44071114341614C49E8
:101A700020686425322688423CD1FEF7BDFE00EB8B
:101A8000C00101EB001061688900B0FBF1F7FEF7BF
:101A9000B3FE00EBC00101EB00106168B0468900A5
:101AA000B0FBF1F0B0FBF5F06FF01801484307EB25
:101AB000800106EB0110B0FBF5F000F0F006FEF738
:101AC0009BFE00EBC00101EB001061688900B0FBD8
:101AD000F1F0B0FBF5F006EB0016FEF78DFE00EB23
:101AE000C00101EB001061688900B0FBF1F7FEF75F
:101AF00083FE3BE0FEF770FE00EBC00101EB00103F
:101B000061688900B0FBF1F7FEF766FE00EBC001EB
:101B100001EB00106168B0468900B0FBF1F0B0FB4A
:101B2000F5F06FF01801484307EB800106EB011058
:101B3000B0FBF5F000F0F006FEF74EFE00EBC00142
:101B400001EB001061688900B0FBF1F0B0FBF5F02B
:101B500006EB0016FEF740FE00EBC00101EB0010A3
:101B600061688900B0FBF1F7FEF736FE00EBC001BB
:101B700001EB001061688900B0FBF1F0B0FBF5F0FB
:101B80006FF01801484307EB800108EB0110B0FB30
:101B9000F5F0216800F00F0030448860BDE8F08166
:101BA0000038014090F83910212901D002207047F7
:101BB0008168B1F5805F016A0BD04A1C026202683D
:101BC00009785160C18C491E0904090CC1840ED0EA
:101BD00017E009880268C1F3080151600169002912
:101BE000016A02D0491C0162ECE7891CFBE701682D
:101BF000CA6822F08002CA600068C16841F04001F2
:101C0000C1600020704700000148FFF709BB0000D9
:101C1000A0000020FEE770B588B00E4605461446C9
:101C20001C216846FEF785FAE8686021401C4443A1
:101C30006420B4FBF0F000910022CDE90102039290
:101C4000049205920692324669462846FFF7B5F996
:101C500008B070BD10B504461048B1F17E5F03DCDA
:101C60000B2242600E480CE06FF07E520A44B2F53F
:101C7000400F03D2052242600A4802E0002242607F
:101C80000948FEF761FAFEF7A2FA80B2401EE06052
:101C90002046BDE81040FFF7F8B900002000002002
:101CA0000080BB4500803B4600A08C4702E008C88E
:101CB000121F08C1002AFAD170477047002001E0C6
:101CC00001C1121F002AFBD170470000FEF740FC43
:101CD000FFF7E4FCFFF7FEFBFFF7ACFCFFF73EFC71
:101CE000FFF77EFC0127104D104C022601212846EB
:101CF000FEF716FC40B92078012805D000210C48D9
:101D0000FFF7F4F92770F1E701212846FEF708FCF8
:101D10000128EBD120780228E8D000210448FFF701
:101D2000FDF92670E2E700000010014000000020ED
:101D30002000002000C1814001C0804101C08041DD
:101D400000C1814001C0804100C1814000C181408B
:101D500001C0804101C0804100C1814000C181407B
:101D600001C0804100C1814001C0804101C080416B
:101D700000C1814001C0804100C1814000C181405B
:101D800001C0804100C1814001C0804101C080414B
:101D900000C1814000C1814001C0804101C080413B
:101DA00000C1814001C0804100C1814000C181402B
:101DB00001C0804101C0804100C1814000C181401B
:101DC00001C0804100C1814001C0804101C080410B
:101DD00000C1814000C1814001C0804101C08041FB
:101DE00000C1814001C0804100C1814000C18140EB
:101DF00001C0804100C1814001C0804101C08041DB
:101E000000C1814001C0804100C1814000C18140CA
:101E100001C0804101C0804100C1814000C18140BA
:101E200001C0804100C1814001C0804101C08041AA
:101E300000C1814000C0C101C30302C2C60607C77A
:101E400005C5C404CC0C0DCD0FCFCE0E0ACACB0BEA
:101E5000C90908C8D81819D91BDBDA1A1EDEDF1F1A
:101E6000DD1D1CDC14D4D515D71716D6D21213D30A
:101E700011D1D010F03031F133F3F23236F6F737BA
:101E8000F53534F43CFCFD3DFF3F3EFEFA3A3BFBAA
:101E900039F9F83828E8E929EB2B2AEAEE2E2FEF5A
:101EA0002DEDEC2CE42425E527E7E62622E2E323CA
:101EB000E12120E0A06061A163A3A26266A6A767FA
:101EC000A56564A46CACAD6DAF6F6EAEAA6A6BAB6A
:101ED00069A9A86878B8B979BB7B7ABABE7E7FBF9A
:101EE0007DBDBC7CB47475B577B7B67672B2B3738A
:101EF000B17170B05090915193535292965657973A
:101F0000559594549C5C5D9D5F9F9E5E5A9A9B5B29
:101F100099595898884849894B8B8A4A4E8E8F4FD9
:101F20008D4D4C8C44848545874746868242438349
:101F30004181804000000000000000000102030415
:101F40000607080900000000010203046C1F0008D6
:101F50000000002020000000AC1C00088C1F0008BE
:101F600020000020D0040000BC1C0008000000007D
:101F70000000000000000000000000000100000060
:0C1F8000100000000000000000A24A0455
:04000005080000ED02
:00000001FF
