:020000040800F2
:1000000080B20024AD0200086F2600083B230008E0
:100010006D2600088503000809280008000000007C
:100020000000000000000000000000009926000809
:100030008703000800000000712600089B260008C6
:10004000C7020008C7020008C7020008C70200086C
:10005000C7020008C7020008C7020008C70200085C
:10006000C7020008C7020008C7020008C70200084C
:10007000C7020008C7020008C7020008C70200083C
:10008000C7020008C7020008C7020008C70200082C
:10009000C7020008C7020008C7020008C70200081C
:1000A000C7020008C7020008C7020008C70200080C
:1000B000C7020008C7020008C7020008C7020008FC
:1000C000C7020008C7020008C7020008C7020008EC
:1000D000C7020008C7020008C7020008C7020008DC
:1000E000C7020008C702000800000000C70200089D
:1000F000C7020008C7020008C7020008C7020008BC
:10010000C7020008C7020008C7020008C7020008AB
:10011000C7020008C7020008C7020008C70200089B
:10012000C7020008C7020008C7020008C70200088B
:10013000C702000889030008C7020008C7020008B8
:10014000C7020008C702000800000000000000000D
:10015000C7020008C7020008C7020008C70200085B
:10016000C7020008C7020008C7020008C70200084B
:10017000C7020008C7020008C7020008000000000C
:10018000C7020008C7020008C7020008C70200082B
:10019000C7020008C7020008C7020008C70200081B
:1001A000C7020008C7020008C7020008C70200080B
:1001B000C7020008C7020008C7020008C7020008FB
:1001C000C7020008C7020008C7020008C7020008EB
:1001D000C7020008C7020008C7020008C7020008DB
:1001E000C7020008C7020008C7020008C7020008CB
:1001F000C7020008C7020008C7020008C7020008BB
:10020000C7020008C7020008C7020008C7020008AA
:10021000C7020008C7020008C7020008C70200089A
:10022000C7020008C7020008C7020008C70200088A
:10023000C7020008C7020008C7020008C70200087A
:10024000C7020008C7020008C7020008C70200086A
:10025000C7020008C7020008C7020008C70200085A
:10026000C7020008C7020008C7020008C70200084A
:10027000C7020008C7020008C7020008C70200083A
:10028000C7020008C7020008C702000800000000FB
:10029000C7020008C7020008DFF80CD000F060F8C1
:1002A00000480047954D000880B20024064880476A
:1002B00006480047FEE7FEE7FEE7FEE7FEE7FEE74B
:1002C000FEE7FEE7FEE7FEE7512700089902000877
:1002D00040EA01039B0703D009E008C9121F08C0C8
:1002E000042AFAD203E011F8013B00F8013B521E48
:1002F000F9D27047D2B201E000F8012B491EFBD2BF
:1003000070470022F6E710B513460A460446194620
:10031000FFF7F0FF204610BD30B50446002003462D
:1003200000E05B1C934203D2E05CCD5C401BF8D044
:1003300030BD30B50B46014600202022012409E0E3
:1003400021FA02F59D4205D303FA02F5491B04FA8E
:1003500002F52844151EA2F10102F1DC30BD0000B7
:10036000064C074D06E0E06840F0010394E8070002
:1003700098471034AC42F6D3FFF792FF78A10008FB
:10038000C8A10008FEE77047014800F0EFBC00007C
:100390002801002470B5A2B0064600244FF4C360C3
:1003A00001258DF80F5002238DF81D4069038DF84B
:1003B0000E5009948DF81F400D9020208DF80450A8
:1003C0008DF8325042028DF8605006914FF0405146
:1003D0008DF8384002948DF861408DF81C408DF8FE
:1003E00028408DF862408DF80C400B948DF81E501B
:1003F0000F948DF8115012948DF840408DF83140D3
:100400008DF8124014948DF856401790304616938C
:100410008DF8205005928DF854408DF830408DF8BD
:100420001050009169468DF80D408DF8554011949B
:100430008DF84C5000F01CFA1B9568058DF8714042
:100440004FF406718DF8685019948DF880408DF83E
:1004500070401F908DF878401D9030468DF8814097
:10046000219119A900F0AAF922B070BD00207047AF
:1004700001F090B9024810B500F02EFF002010BD29
:100480002801002413460A460146044810B500F02E
:10049000E5FE002801D04FF0FF3010BD28010024F8
:1004A00013460A460146044810B501F017F8002823
:1004B00001D04FF0FF3010BD280100242DE9F04796
:1004C000836A00F1180592468C6800271E4655F88D
:1004D0002320D2F80CC0BCF1000F73DB91F800C0F0
:1004E0005FEA4C7C43D5D2F80CC0D1F824806FF37E
:1004F0000F0C4CEA080CC2F80CC0D2F80CC04CF43B
:10050000803CC2F80CC0D0F800C0DCF8608048F431
:100510008018CCF8608091F800C05FEA0C7C26D58A
:10052000B1F82C80D2F808C068F31F4CC2F808C09C
:10053000D2F80CC04CF4003CC2F80CC0D2F80CC08D
:10054000D1F830802CF4402C4CEA080CC2F80CC0D6
:10055000D0F800C0DCF8648048F48018CCF86480DF
:100560000068D0F850C04CF0806CC0F850C00878DB
:10057000C0060BD59068D1F818C06FF30D0040EAA3
:100580000C009060D06840F08060D060087810F077
:10059000140F18D0D0685B1C042B40F08040D06052
:1005A000D06840F00040D06000D31B1F012755F8F1
:1005B0002320D068002806DA55F82600C16821F00B
:1005C0000041C16099E0206810609068D4F804C0D0
:1005D0006FF30D0040EA0C009060DFF8DCC17F1C77
:1005E000A0684FF0000950B1044600685060D2F88E
:1005F0000880A08808EA0C0848EA004004E0C2F835
:100600000490906800EA0C0090600878C006D068FA
:1006100012D5B1F8208020F4F00040EAC840D06044
:10062000D068D1F81C806FF3110040EA0800D06058
:10063000D06840F480201BE0D1F804806FF30E00F6
:1006400040EA0800D0600878C00707D0D068D1F829
:10065000148020F4403040EA0800D060087880061A
:1006600007D5D068D1F8108020F0406040EA08003B
:10067000D0600878400707D59068D1F8288020F42A
:10068000404040EA08009060D06840F00050D060E0
:10069000D06820F08040D060D06840F00040D0604A
:1006A0000878800774D5D068D1F80C8020F060708D
:1006B00040EA08006BE0D0685B1C042B20F08050FF
:1006C000D06000D31B1F55F82320D06820F00050C5
:1006D000D060D068002813DA55F8261000200AE010
:1006E000CA68761C042E22F00042CA6000D3361F6E
:1006F000401C55F82610B842F2D30220BDE8F0871E
:10070000A468206810609068D4F804806FF30D002E
:1007100040EA08009060A0687F1C50B10446006861
:100720005060D2F80880A08808EA0C0848EA004027
:1007300004E0C2F80490906800EA0C009060087829
:10074000C006D0680AD5D1F81C806FF3110040EACA
:100750000800D060D06840F4802010E0D1F8048018
:100760006FF30E0040EA0800D0600878C00707D099
:10077000D068D1F8148020F4403040EA0800D060FE
:10078000D06840F00040D060D06820F08040D06059
:10079000A06800288FD19068BAF1000F02D040F015
:1007A000004001E020F000409060D06840F08050B0
:1007B000D06000202B61A1E7FFFF00C0F0B5026808
:1007C00047F6020E274E4DF2010702F58052264DE4
:1007D000D1F800C01368254C23EA0E0343EA0C034A
:1007E00013600B79026891F80CE002F58052D1F8A1
:1007F00008C01B0343EACE3343EA0C03D2F804C01B
:100800002CEA070C4CEA030CC2F804C002684F7BC8
:1008100002F580520B6A43EA0747D2F800313340B1
:100820003B43C2F8003102680B7D02F5805291F81B
:100830001DC00F69D2F804611B0143EA0C332E403E
:100840003B431E43C2F8046100680B7F00F58050F3
:100850008A69D0F8081142EAC37221401143C0F8F6
:100860000811F0BD00C0FEFFEFEFC0FFFFFFC07F2B
:10087000F0B50B790C7B0F688A68DB064D7B43EA89
:10088000C4533A438E7B1A43CF7B91F810C042EA9F
:10089000855242EA4652BCF1000F42EA07537CD02F
:1008A00000224C7C002C43EAC24278D000238E7C8C
:1008B0000D7F42EA43428F7FD1E9053442EA064286
:1008C0004E7F1A43224342EA0532002F42EAC624F1
:1008D00066D00022CD7F91F8203044EA8222002B9E
:1008E00042EA45227ED0002504684B6A42EA05228E
:1008F00091F82870464D1A43CE6A236842EA0712DF
:1009000032432B401343236091F83C2091F8383058
:1009100091F8305091F83140520642EA036291F862
:10092000326042EA854242EA4444BEB30022036890
:10093000384E4F6B44EA02425C683A4340F20F156E
:10094000344014435C60036891F840604C6CDA6892
:1009500044EA0624AA432243DA6091F854300A6D2F
:1009600091F84C4042EA4302ECB300240368B1F82A
:1009700048504FF60D76E7011C6F47EA05452A43BC
:10098000344014431C67026891F8563091F8555072
:1009900052F8904F43EA450303E02BE032E02BE0AE
:1009A0002CE024F003041C43146002688C6DD2F820
:1009B000003D23F072032343C2F8003D91F860200C
:1009C000CC6D1AB35FF00003026891F8615091F8A2
:1009D000621044EA8310D2F8303D2C0144EAC10190
:1009E000084301E00CE00FE023F07B010143C2F873
:1009F000301DF0BD012254E7012358E7012269E7C9
:100A0000012571E7012292E70124AFE70123DBE72B
:100A1000838004000080F8C0704700F12C02F0B51C
:100A2000D2E9053452F8231024B1D56905B1641C0C
:100A3000002523E00120F0BD0F694FF080760F60A4
:100A4000CE604E692EB14E698E60CE6846F000765B
:100A5000CE60CE6846F00046CE60166A1EB1CE6803
:100A600046F08046CE609669761EAE4205D95B1C84
:100A7000042B00D31B1F52F823106D1CA542DBD39F
:100A80000068002300F58050C0F8281118469361D3
:100A9000F0BD704710B500EB8104E46A0AB1042987
:100AA00003D30121C165084610BD22602261E068C0
:100AB00040F08070E0602BB1A3606361E06840F0BB
:100AC0000070E060E06840F00040E060002010BD91
:100AD000704700297DD00268126802F00C02CA62D9
:100AE00002681268C2F3001281F8282002681268B6
:100AF00002F060024A620268126842F30022521C4D
:100B000081F8202002681268C2F34022CA77026886
:100B1000126842F38022521C8A7702681268C2F37C
:100B2000C0224A7702681268C2F300320A7702686C
:100B3000126802F400528A610268126802F480426C
:100B40004A6102681268C2F300428A74026812683D
:100B500042F34042521C4A740268126842F3C04297
:100B6000521C0A7402681268C2F30052CA73026807
:100B70001268C2F340528A7302681268C2F380524C
:100B80004A7302681268C2F3C0520A73026812689C
:100B900002F0E0628A6002681268C2F3C0620A7101
:100BA0000268126802F0E0420A6002685268C2F30A
:100BB0000D024A630268526842F30042521C81F8F7
:100BC000322002685268C2F3404281F83120026844
:100BD00000E062E05268C2F3804281F8302002688F
:100BE0005268C2F3006281F8382002685268C2F38A
:100BF0004462CA630268D268C2F3002281F84020CE
:100C00000268D26802F00F024A640268126FC2F3EF
:100C1000400281F854200268126F42F3C012521C45
:100C200081F84C200268126F02F070020A650268B7
:100C3000126F120C8A640268D2F8902002F001024E
:100C400081F856200268D2F89020C2F3400281F861
:100C500055200268D2F8002D02F072028A650268FF
:100C6000D2F8302D02F02302CA650268D2F8302D86
:100C7000C2F3C00281F862200268D2F8302DC2F3BC
:100C8000001281F861200068D0F8300D40F3801028
:100C9000401C81F860000020704701207047F0B5CB
:100CA0000C00016C00F12C0605464FF0000756F8C9
:100CB000210002D0B2691AB109E00120E86539E0EB
:100CC000284600F0F5F9A0B3716956F8210000221A
:100CD00015E0036923606B696360436923B1A4680D
:100CE000436923606B696360C068491C0429C0F3D1
:100CF0000E0700D3091FA468521C56F82100B369DF
:100D00005B1E9342E5D8C168026922606A69C1F33B
:100D10000E01C91B8A4201D3616008E0436943B1F7
:100D20006260A268406910606869081A506000201B
:100D3000F0BDFFE70120FBE770B500F12C040D4684
:100D4000D4E9056111B900F0B3F968B1A069761E64
:100D50003044042800D3001F54F82000C068C0F3BA
:100D60000E002860002070BD012070BD70B50446E3
:100D7000006800F58050D0F8601149060DD5D0F814
:100D80003401400609D5204600F09AFA206848F25E
:100D9000400100F58050C0F86011206800F58050D7
:100DA000D0F86011C9070DD0D0F83401C00709D0C0
:100DB000204600F091FB206848F2010100F58050C8
:100DC000C0F86011E026206800F58050D0F860116E
:100DD000490425D5D0F83411490421D5E16D41F0FD
:100DE0000801E165D0F86011C9040DD5D0F8601193
:100DF00041F2021211402166D0F8341121F4404131
:100E0000C0F83411666508E0D0F860214FF4CD4198
:100E100002F4CD422266C0F860112046FFF739FE89
:100E200020680025D0F8B010C1F34131032907D163
:100E3000D0F8B80060666665204600F0A0F96566E7
:100E40002068D0F8B010C90608D5D0F8C00000F06E
:100E50006000A066204600F0FFF9A5662068D0F883
:100E6000B010890608D5D0F8C00000F00F00E06689
:100E70002046FFF72DFEE56600F07AFC03284FF4CC
:100E800080014FF0B04009D0D0F8E820520204D5DC
:100E9000C0F8E810204600F020FB70BDD0F8A82074
:100EA0005202FAD5C0F8A810F4E70000F8B5040023
:100EB00002D0606D10B104E00120F8BD204600F0C2
:100EC0005FF9232060657048016841F0020101600C
:100ED000006800F002000090207A08B14FF4000092
:100EE00001F00EFA206800F58050016841F0010120
:100EF000016000F04FFCE02605464FF4FA7706E06B
:100F000000F048FC401BB84201D9042049E02068A9
:100F100000F580500068C007F2D12068D0F80002C8
:100F200020F4706500F0B8FE584A594902448A42DC
:100F300002D245F4007516E0564A574902448A42E7
:100F400002D245F440750EE05449554A014491429D
:100F500009D35449544A0844904202D245F480755A
:100F600001E045F480652068C0F8005200F094FE6E
:100F70004E4A2168B0FBF2F0401EC1F8DC0020466A
:100F8000FFF708FA206800F58050D0F8001121F42E
:100F9000E01141F40021C0F800116169880703D015
:100FA0000120E065666587E7206847F6FE7300F577
:100FB0008050D0F808219A4342EA4101C0F8081154
:100FC00000210846E26800EB400504EB800302EBD9
:100FD000C502116051609160D160401C04289A6183
:100FE000F0D3A1620323206800F58050C0F82C31B3
:100FF0002068E26800F58050C0F814212068E2689B
:1010000000F58050C0F820215FF00002206902EB5B
:10101000420604EB820500EBC6000160416081607E
:10102000C16001614161521C042AE862EED3E163B0
:1010300021646164E164A164206800F58050C0F817
:1010400030312068226900F58050C0F81C212268E8
:10105000206902F5805200F5D860C2F82801D4E971
:1010600000208088C2F8000360682368D0F801502F
:101070000278102042EA0522C3F80423E165606586
:10108000A0650020F8BD0000F444025800D3CEFE55
:10109000C0E1E40040F1E9FD40787D0100796CFC9D
:1010A000005A6202001F0AFA80F0FA0240420F0062
:1010B00070B5C16B0025466C2C302A462B4650F883
:1010C00021404EB3002070BDE6686D1CF6001AD5B5
:1010D000521C012A00D10B46491C042900D3091FC8
:1010E00050F82140E568002D08DBE468640005D570
:1010F0000124C461491C042900D3091F8261C0E98D
:101100000413012070BDE468A40011D50B46491CEE
:1011100001220FE050F82140E668002E01DB042D8B
:10112000D2D34AB350F8231000244FF0807521E049
:10113000491C521C0429EDD3091FEBE70E690E6010
:10114000CD604E692EB14E698E60CE6846F0007655
:10115000CE60CE6846F00046CE60066A1EB1CE680C
:1011600046F08046CE605B1C042B00D31B1F641C22
:1011700050F823109442E1D300218161A2E7704727
:10118000F0B587B0044614216846FFF7BAF82D4938
:101190002068884254D12C48016841F40041016024
:1011A000016801F400410591016841F4803101605A
:1011B000016801F480310591016841F4003101605A
:1011C000006800F4003005901F480830016841F0C5
:1011D00040010160016801F040010591016841F0A2
:1011E00004010160016801F004010591016841F00A
:1011F00001010160006802240025694600F0010039
:10120000059003260B274FF460508DE8F1000F483E
:1012100000F096F9322069468DE8F1000C4800F0A4
:101220008FF9862069468DE8F1000A4800F088F9B8
:1012300000223D20114600F08DFB3D2000F07CFB9C
:1012400007B0F0BD00800240D84402580018025890
:101250000008025800000258704700002DE9F041D4
:10126000044600681E46D0F80032DB0719D1D0F8DA
:10127000003223F0787343EA415121F4F81141EA36
:10128000024141F00D01C0F8001200F083FA4FF462
:101290007A77054608E000BF00F07CFA401BB842B0
:1012A00002D90120BDE8F0812068D0F80002C00713
:1012B000F2D12068D0F8040280B230600020F1E75B
:1012C000704710B511B1826D102A01D0012010BDF8
:1012D000FFF7CEFA002010BD70B505460068D0F8C3
:1012E000000220F4706400F0D7FC1149114A014457
:1012F000914202D244F4007416E00F4A0F490244AE
:101300008A4202D244F440740EE00D4A0D49024470
:101310008A4209D30C4A0D491044884202D244F44F
:10132000807401E044F480642868C0F8004270BD15
:1013300000D3CEFEC0E1E40040F1E9FD40787D013C
:1013400000796CFC005A6202001F0AFA80F0FA026F
:1013500010B5416D102901D0012010BD2321416538
:101360001022016822230C6844F002040C6001681A
:101370000C6844F001040C600168D1F8004D44F0A1
:101380000104C1F8004D016801F58051D1F8044114
:1013900044F00104C1F80441016801F58051D1F81D
:1013A000084144F00104C1F80841016801F5805189
:1013B000D1F8604144F48174C1F8604142658365AD
:1013C000002010BD416D49B3232141651022016801
:1013D00001F58051D1F8043123F00103C1F8043143
:1013E000016801F58051D1F8083123F00103C1F8FB
:1013F000083101680B6823F001030B600168D1F824
:10140000003D43F00103C1F8003D01680B6823F083
:1014100002030B604265826500207047012070471F
:101420002DE9F0419046044619B1606D102804D0B2
:1014300050E0E06D40F0010007E000222046FFF799
:101440003DF820B1E06D40F00200E06542E0A06AA6
:1014500004EB8001401C04288D69A06201D3001FA9
:10146000A0620146206804EB810100F58050896983
:10147000C0F8201100F08EF9102706461EE0206803
:1014800000F58050D0F86001C0040CD5E06DE0217B
:1014900040F00800E065206800F58050D0F8600159
:1014A0002066616516E0B8F1FF3F07D000F072F9E1
:1014B000811B414509D8B8F1000F06D0E868002823
:1014C000DDDB67650020BDE8F081E06D40F00400E1
:1014D000E06567650120F6E77047704770B5044620
:1014E0000068D0F80052ED071FD1D0F800029BB27F
:1014F000124D20F07870C5F8043240EA415020F4D3
:10150000F81040EA024020F00C00001D40F00100FD
:10151000C5F8000200F03EF94FF47A76054606E081
:1015200000F038F9401BB04201D9012070BD20689D
:10153000D0F80002C007F3D170BD00000080024067
:101540002DE9FC4F01257E4C00234FF0030A4FF09C
:10155000B04E4FF00F0BEBE005FA03F637403A00C0
:1015600077D04F68012F05D0022F03D0112F01D063
:10157000122F1AD187684FEA4308D1F80CC00AFA33
:1015800008F927EA09070CFA08FC4CEA070CC0F82E
:1015900008C0476891F804C0B743CCF3001C0CFAAC
:1015A00003FC4CEA070CC0F804C0C6684FEA430CC1
:1015B000D1F80880E1460AFA0CF7BE43019708FA11
:1015C00009F848EA0608C0F80C804E68022E01D0DF
:1015D000122E12D1DE084FEA437C00EB86060096FD
:1015E0000F69366A4FEADC6C0BFA0CF807FA0CF755
:1015F00026EA08063743009E37620E790768DDF851
:1016000004C006F0030606FA09F627EA0C073E4373
:1016100006604E68F6001CD54A4E376847F0020750
:10162000376036689F0706F00206009623F003062F
:1016300006F1B046B1463F0FD6F80864DFF80881DE
:101640000BFA07FC404526EA0C0603D14FF0000CCC
:1016500041E06CE0DFF8F4C0604502D14FF0010CCE
:1016600039E0DFF8ECC0604502D14FF0020C32E007
:10167000DFF8E0C0604502D14FF0030C2BE0DFF84B
:10168000D8C0604502D14FF0040C24E0DFF8CCC094
:10169000604502D14FF0050C1DE0DFF8C4C0604585
:1016A00002D14FF0060C16E0DFF8B8C0604502D159
:1016B0004FF0070C0FE0DFF8B0C0604502D14FF0EB
:1016C000080C08E0DFF8A4C0604502D14FF0090C17
:1016D00001E04FF00A0C0CFA07FC4CEA060CC9F8C2
:1016E00008C426684F6826EA0206FF0300D51643A1
:1016F000266066684F6826EA0206BF0300D51643D7
:101700006660D1F804C07646DEF800705FEACC2C43
:1017100027EA020700D517433760D1F804C077687D
:101720005FEA8C2C27EA020700D5174377605B1C21
:101730000A681746DA407FF40FAFBDE8FC8F00005F
:1017400080000058F4440258000002580004025877
:1017500000080258000C02580010025800140258E9
:1017600000180258001C0258002002580024025899
:1017700004480068C0F30310072801D00120704717
:101780000320704700ED00E001480068000C70473E
:101790000010005C0148806870470000340000249D
:1017A000054901EB80010548D1F88014814201D13F
:1017B000002070470120704700600258000300803D
:1017C000034A41F4407102EB8000C0F800147047F6
:1017D00000600258024881680278114481607047B5
:1017E00034000024032010B500F0D4F800F076FA9D
:1017F0000F4A104914681368C4F3032203F00F035F
:101800008A5CC95C02F01F0201F01F01D0400A4A45
:1018100020FA01F1116009490860002000F010F879
:1018200008B1012010BD00F079F8002010BD0000C3
:1018300018440258489F0008440000244000002437
:1018400070B50D4D04462878A0B14FF47A71B1FB04
:10185000F0F00A490968B1FBF0F000F05BFD48B90F
:10186000102C07D200222146501E00F073F80020F1
:101870006C6070BD012070BD340000244000002465
:10188000F0B5154C4378211D0A1D23600378F3B190
:1018900043680B60057BC67A817A437B2D07847B86
:1018A00045EA0665C77B90F809C0067A90F800E023
:1018B00045EAC14040EA834040EA444040EA0740EC
:1018C00040EA0C2040EA460040EA0E0001E0002019
:1018D00008601060F0BD000098ED00E0BFF35F8F7E
:1018E000044800210368034A23F480330360703204
:1018F0001160704724ED00E0074A40F001000649FE
:1019000070321060086840F480300860BFF34F8F79
:10191000BFF36F8F7047000024ED00E0054808B565
:10192000016841F002010160006800F002000090CF
:1019300008BD0000F4440258002809DB410900F00A
:101940001F028900012001F1E0219040C1F800014F
:10195000704700000E4BF0B41B680D46C3F3022322
:10196000C3F10706042E00D90426191D072901D248
:10197000002300E0DB1E012404FA06F19C40491E0E
:101980002940641E994014402143F0BC00F04EBF32
:101990000CED00E0064900F0070210B54FF6FF0419
:1019A0000868044B204040EA02201843086010BD3C
:1019B0000CED00E00000FA052DE9F0411E4C054653
:1019C000206800F007000628206804D000F03F00DF
:1019D000A84228D12EE020F03F0028432060FFF7E6
:1019E000D9FE154F4FF47A780646083F05E000BF50
:1019F000FFF7D0FE801B404515D83868C0438004EF
:101A0000F6D41E2D05D02E2D03D01D2D01D02D2D49
:101A100010D1FFF7BFFE0546464607E0FFF7BAFEC6
:101A2000401BB04202D90120BDE8F0812068C043CC
:101A3000C003F3D40020F7E70C4802582DE9F05F0B
:101A400004000F467ED0DFF83882D8F8000000F09E
:101A50000F00B8420CD2D8F8001021F00F01394322
:101A6000C8F80010D8F8000000F00F00B84269D1A3
:101A70002078844D40070AD52069296801F070015B
:101A8000884204D9296821F0700101432960207837
:101A90007C4E361D00070AD56069316801F070017F
:101AA000884204D9316821F0700101433160207807
:101AB000C0060AD5A069316801F4E061884204D902
:101AC000316821F4E061014331602078DFF8B4B17E
:101AD00080060BF1080B0CD5E1695846DBF80020B5
:101AE00002F07002914204D9026822F070020A43A7
:101AF0000260207880070AD5E068296801F00F01AC
:101B0000884204D9296821F00F0101432960207817
:101B1000C0073ED05B49A2682868183920F470607D
:101B2000104328606068022818D0032819D009687B
:101B3000012819D0490700294ADADFF848A1AAF19B
:101B4000080A00E044E0DAF8002022F0070202432D
:101B5000CAF80020FFF71EFE814612E009688903DB
:101B6000E9E709688901E6E7C905E4E7FFF712FE3E
:101B7000A0EB090141F28830814202D90320BDE87F
:101B8000F09F6168DAF8000000F03800B0EBC10F98
:101B9000ECD1207880070AD5E068296801F00F01B0
:101BA000884204D2296821F00F0101432960D8F846
:101BB0000010404601F00F01B9420BD9016821F035
:101BC0000F0139430160006800F00F00B84201D0F6
:101BD0000120D4E7207840070AD52069296801F060
:101BE0007001884204D2296821F070010143296004
:101BF000207800070AD56069316801F070018842D9
:101C000004D2316821F07001014331602078C006B0
:101C10000AD5A069316801F4E061884204D23168D4
:101C200021F4E06101433160207880060CD5E16940
:101C30005846DBF8002002F07002914204D202689C
:101C400022F070020A43026000F048F80E492A6848
:101C50002B68C2F3032203F00F038A5CC95C02F015
:101C60001F0201F01F01D040084A20FA01F1116063
:101C70000749086007480068BDE8F05FFFF7E0BD6E
:101C80000020005218440258489F000844000024D5
:101C9000400000243800002430B500F01FF80B4A43
:101CA0000B490C4B15681468C5F3032204F00F04AC
:101CB0008A5C095D02F01F0201F01F01D040064A54
:101CC00020FA01F119601060084630BD184402582E
:101CD000489F00084400002440000024454970B596
:101CE00045480968434B103B11F0380208D00111F8
:101CF000082A03D0102A0BD0182A0BD0084670BD32
:101D000019688906FBD51968C1F3C101C84070BDC7
:101D10003A4870BD3749374D18310C1D24350A68D3
:101D2000096826682D6802F0030406F00102C1F379
:101D30000511C5F3CC0515FB02F200EE102AB8EE32
:101D4000400AE9B32F4ADFED2E0AB7EE001A6CB154
:101D5000DFED2D1A012C01D0022C43D002EE101A17
:101D60001068F8EE422A81EEA22A1EE01C68A40642
:101D700011D51B6801EE901A1168C3F3C103F8EE88
:101D8000612AD84001EE900AC1F30800F8EE611A0A
:101D900081EEA22A0BE001EE901ADFED1C2A00BFB3
:101DA000F8EE611A106882EEA12AC0F3080001EE75
:101DB000900AF8EE611A40EE201A31EE810A00E036
:101DC00015E022EE000A1068C0F34620401C00EE29
:101DD000900AF8EE600A80EE201ABCEEC10A10EEFE
:101DE000100A70BD01EE901ADFED092AD8E7002035
:101DF00070BD0000104402580090D00340787D016F
:101E000000000039304402580024744A0024744C05
:101E100020BCBE4B2DE9F05F04007CD0FF4F207842
:101E2000FE4D1837DFF8F493103DC00748D0D9F8BD
:101E30000000396800F03800102815D0182803D1A8
:101E400001F0030002280FD06068B0F5803F12D087
:101E500010B1B0F5A02F18D0286820F48030286089
:101E6000286820F4802009E02868800328D560686D
:101E70000028D2D024E0286840F4803028606068D0
:101E800088B1FFF787FC064609E0286840F4802007
:101E90002860F0E7FFF77EFC801B64287ED8286866
:101EA0008003F7D50CE0FFF775FC064605E000BFA0
:101EB000FFF770FC801B6428F0D828688003F7D4F3
:101EC000207841F20308D54E0C3E80074BD5D9F857
:101ED0000000396810F038000ED0182801D18807AA
:101EE0000AD0E06868B3296821F01901014329602C
:101EF000FFF750FC824619E02868400702D5E068E9
:101F000000288AD0FFF740FC404513D8206931688B
:101F100021F47C3100E0BEE041EA0030306022E094
:101F2000FFF738FCA0EB0A000228B7D82868400762
:101F3000F6D5E7E7207C316821F0FE4141EA0060F8
:101F4000ECE7286820F001002860FFF723FC8246B8
:101F500006E000BFFFF71EFCA0EB0A0002289DD898
:101F600028684007F6D42078C00659D5D9F8000073
:101F7000DFF8A8B2396800F03800ABF1040B08288C
:101F800012D0182803D101F0030001280CD0E06919
:101F90000028286834D040F0800000E0DCE02860B1
:101FA000FFF7F8FB824623E02868C00523D5E069E7
:101FB000802870D11FE000BF94F82000316821F024
:101FC000F84141EA806030602AE000BF94F82010B8
:101FD000DBF8002022F07C5242EA0161CBF80010CD
:101FE0001EE000BFFFF7D6FBA0EB0A0002289CD83A
:101FF0002868C005F6D5FFF7C7FB4045E6D8DBE704
:1020000020F080002860FFF7C5FB064605E000BF12
:10201000FFF7C0FB801B022887D82868C005F7D4CB
:102020002078000729D57D48616964300029804601
:10203000016811D041F001010160FFF7ABFB0646DA
:1020400005E000BFFFF7A6FB801B022887D8D8F861
:1020500000008007F6D510E021F001010160FFF7D4
:1020600099FB064605E000BFFFF794FB801B0228A2
:1020700072D8D8F800008007F6D42078800623D5DF
:10208000A0690028286810D040F480502860FFF72D
:1020900081FB064605E02EE1FFF77CFB801B022852
:1020A0005AD828688004F7D50EE020F480502860C4
:1020B000FFF770FB064604E0FFF76CFB801B02286D
:1020C0004AD828688004F7D4207840074FD5DFF835
:1020D0005081D8F8001041F48071C8F80010FFF763
:1020E00059FB064605E000BFFFF754FB801B642840
:1020F00032D8D8F80000C005F6D5484EA068603642
:1021000001280AD008B1052813D0306820F001005A
:102110003060306820F0040002E0306840F00100D8
:102120003060A06841F2883A90B1FFF733FB8046F7
:102130000AE0306840F004003060EEE7FFF72AFB69
:10214000A0EB0801514507D830688007F6D50EE0AE
:10215000FFF720FB804607E084E000BFFFF71AFB93
:10216000A0EB080151457DD830688007F6D4606A3D
:10217000F0B3DFF8A880D9F8001008F12008C1F307
:10218000C20103296FD00228286820F080702860DF
:1021900003D0FFF7FFFA044682E0FFF7FBFA06469A
:1021A00005E000BFFFF7F6FA801B022875D8286803
:1021B0008001F7D4E26A40F2F331386854F8283FDE
:1021C000884340EA021018433860217B4FF4FE0C2C
:1021D00022894FF0FE47208A4902267D521E401E6A
:1021E000A1F5007189B20CEA0040C2F3080200E0D8
:1021F00083E01143761E0143084807EA0662114353
:10220000064A1C30C8F800102432016821F0010190
:10221000016011684FF6F876B14303E010440258AC
:1022200000480258236A41EAC30111600168A269AB
:1022300021F00C01114301600168E26921F0020103
:1022400011430160016841F480310160016841F48B
:1022500000310160016841F480210160016841F0B2
:10226000010101E019E01FE00160286840F0807082
:102270002860FFF78FFA044605E000BFFFF78AFAEF
:10228000001B022809D828688001F7D535E000BF77
:10229000FFF780FA001B022802D90320BDE8F09F57
:1022A00028688001F4D428E039680128D8F80000B3
:1022B00021D0A26A01F0030393421CD1E26AC1F368
:1022C00005118A4217D1216BC0F30802491E8A42C8
:1022D00011D1616BC0F34622491E91420BD1A16B13
:1022E000C0F30642491E914205D1E16BC0F306607E
:1022F000491E814201D00120D0E70020CEE7000036
:1023000003490A6822F4600202430A607047000031
:1023100004040058401EB0F1807F10B501D30120A5
:1023200010BD4FF0E02460610F21601700F07EFACD
:102330000020A0610721216110BDFEE738B50446E9
:102340006A460020009001216369206898470028B0
:102350006FF0040525DB6369012120686A46984710
:1023600000281EDB0098400701D4012038BD6369B6
:10237000002120686A469847002812DB0098C104B3
:1023800008D44FF4045181431CD081041CD4C005EF
:102390001CD415E063691F2120686A46984700280D
:1023A00001DA284638BD0098C10401D4062038BDA2
:1023B000C0F38200062805D0022805D0052805D0E4
:1023C000052038BD022038BD032038BD042038BDAB
:1023D0002DE9F84304460020009006466068002579
:1023E000A8BBA06800B18047202020606FF00407E0
:1023F000636912216A4630469847002801DA3D4653
:1024000007E0009800F01F00B04202D100252660CE
:1024100002E0761C1F2EEBD920681F2802D96FF02E
:10242000020530E07DBB236900214FF4004298474C
:10243000002830DB6369002120686A46984700283D
:1024400027DBA06980474FF4FA7806460CE00EE0DF
:10245000A0698047801B404518D863690021206827
:102460006A469847002814DB00980004F0D4A0695D
:1024700080474FF4FA670646A0698047801BB84240
:10248000FAD9012060602846BDE8F8836FF00105A5
:10249000F9E73D46F7E76FF00305F4E788B1CA684E
:1024A0007AB18A686AB10A695AB10A6882604A6870
:1024B000C260CA6842618A6802610969816100205C
:1024C00070474FF0FF3070477FB5002400940194AF
:1024D00002940394FFF702FA07208DF808008DF8A4
:1024E0000C4001258DF8094003268DF80D40684603
:1024F00016498DF800508DF80A408DF80E408DF881
:10250000014001918DF80B608DF80F50FFF7B8F97D
:102510000D218DF808108DF80C408DF809408DF8CC
:102520000D500B488DF800508DF80A408DF80E4084
:102530008DF80150019068468DF80B608DF80F40C2
:10254000FFF79EF90420FFF7D7F97FBD00000430A4
:1025500000400430FEB502F0BBFB314B0026DFF833
:10256000C4C0191D304F0A1D1868DB7805BA90FAEF
:1025700080FE46EA030400BA05F47F4524061843AA
:1025800044EA05240EF47F0501F10C0344EA152406
:1025900044EA106018600868C97805BA04BA00BA3D
:1025A0000B06084304F47F4405F47F0502F10C0197
:1025B00043EA042343EA152343EA106008601068E5
:1025C000D17803BA04BA00BA0A060843144903F4DE
:1025D0007F43183104F47F0442EA03220B4642EAA7
:1025E000142242EA106008600A1F10488DE8C010EB
:1025F000083903F017F80D4803F0B8F80B4890F8C5
:1026000033004007094802D503F025F901E003F043
:10261000B3F803B006490548BDE8F04003F0EEB852
:1026200000000024D9360008DD380008F00000243E
:102630000538000870B50B4801F096F904F0B8F8B9
:10264000084DFFF7A7F8084CE168401A642807D343
:10265000FFF7A0F8E0602846BDE8704001F08CB8B4
:1026600070BD0000F000002400000024FEE7704769
:10267000704700002022BFF34F8F064B02E0891AFB
:10268000186010440029FADCBFF34F8FBFF36F8F3F
:10269000704700005CEF00E07047FFF79BB8000058
:1026A00070B59CB04C216846FDF72BFE202113A885
:1026B000FDF727FE0420FFF77FF922480024224976
:1026C000026842F44042026002680A6842F0010275
:1026D0000A60096801F001011B9101688904FCD5B9
:1026E0000DF1280C022009900521A0228CE807009A
:1026F000C3030F9008250D9001260E90CDE91054CC
:10270000CDE9006368461294FFF784FB40201A90DD
:102710003F210301CDE916500322CDE9180313AB85
:1027200013A883E816000421FFF788F90748016819
:1027300041F000410160006800F000401B901CB0B7
:1027400070BD0000184802582C040058DC440258A0
:10275000284B30B5274A1C68783A2749002044F4B2
:1027600070041C601468244B244D44F0040410339E
:1027700014600A6842F001020A6018600A681E4B81
:102780002A400A6018331C1D251D1B4A1860283278
:102790002060131D28601C1D251D10602A1D186057
:1027A000131D20601C1D2860251D1060186020600E
:1027B00028600B684FF0B0420F4C23F480230B606D
:1027C00060342060D2F8E4000D4940F48040C2F843
:1027D000E40008686FF30F00B0F1005F03D209490D
:1027E0000120C1F808014FF00060024980390860FB
:1027F00030BD000088ED00E0004402587FEDF6EAAD
:102800000010005C00800051FEE700000FB4054B93
:1028100010B503A9044A029800F028F810BC5DF82E
:1028200014FB00008B390008EC0000240907002885
:102830004FEA116104DB00F1E02080F800147047DA
:1028400000F00F0000F1E02080F8141D704702E056
:1028500008C8121F08C1002AFAD17047704700202B
:1028600001E001C1121F002AFBD170472DE9FF4F83
:102870008BB09A460F460546002606E025280BD069
:1028800052460D9990476D1C761C28780028F5D18A
:102890000FB03046BDE8F08F0024A0460122604909
:1028A00000E0044315F8013F203B02FA03F0084220
:1028B000F7D128782E2817D115F8010F44F0040419
:1028C0002A280ED06FF02F022878A0F130010929B4
:1028D0000AD808EB880102EB410100EB01086D1CEE
:1028E000F2E757F8048B6D1C287869283ED006DC87
:1028F0000028CDD063280BD0642804D136E073289B
:1029000010D075284BD052460D999047761C85E023
:1029100017F8040B8DF8000000208DF80100E9463F
:10292000012003E057F8049B4FF0FF3061074FF0A0
:10293000000401D40AE0641C44450DDA8442FADB49
:1029400019F804100029F6D106E0641C8442FCDB6F
:1029500019F804100029F8D1264404E019F8010BF5
:1029600052460D999047641EF8D257E001CF4FF0C0
:102970000A0B002802DA40422D2102E0210504D58D
:102980002B218DF82410012103E0E10705D020213F
:10299000F7E70DF1200908910CE00021F9E701CFDC
:1029A0004FF00A0BF9E75946FDF7C3FC01F130027D
:1029B00009F8012D0028F6D1ADEB090000F1200B3C
:1029C000600701D44FF00108D84502DDA8EB0B00E9
:1029D00000E000208046002406E009A85246005D81
:1029E0000D999047641C761C08988442F5DB04E03E
:1029F000302052460D999047761CB8F10001A8F19D
:102A00000108F5DC05E019F8010B52460D999047D5
:102A1000761CBBF10001ABF1010BF4DC6D1C34E75B
:102A20000928010010B50446406880472068224606
:102A3000BDE81040014903F0E9BE0000252A000866
:102A400070B50C460546880706D006A34FF4CE7233
:102A500010A118A0FFF7DAFEA86800682060A86837
:102A6000046070BD2E2E2F4D6964646C65776172B1
:102A700065732F54686972645F50617274792F4C6A
:102A80007749502F7372632F636F72652F6D656D79
:102A9000702E63006D656D705F667265653A206DBE
:102AA000656D2070726F7065726C7920616C6967FA
:102AB0006E656400417373657274696F6E202225C0
:102AC0007322206661696C6564206174206C696E94
:102AD0006520256420696E2025730A0010B5806882
:102AE0000468002C0CD02168A207016006D005A361
:102AF0004FF4A4720FA118A0FFF788FE204610BD66
:102B0000002010BD2E2E2F4D6964646C65776172B4
:102B100065732F54686972645F50617274792F4CC9
:102B20007749502F7372632F636F72652F6D656DD8
:102B3000702E63006D656D705F6D616C6C6F633AD4
:102B4000206D656D702070726F7065726C79206198
:102B50006C69676E65640000417373657274696FB8
:102B60006E2022257322206661696C656420617481
:102B7000206C696E6520256420696E2025730A002B
:102B800070B50A4D0024064604EB440005EBC00076
:102B9000017D29B18068B04202D1204600F034F9AD
:102BA000641CE4B20A2CEFD370BD00008C31002409
:102BB0002DE9F74F84B04FF00A0B00240646DA46A1
:102BC0005F46D94602940194009404EB44004F49B7
:102BD0000A2F039001EBC00898F8145016D0002D6E
:102BE00024D0012D08D0022D06D249A340F225128F
:102BF00055A165A0FFF70AFE66B13168D8F8040058
:102C0000814207D160B207B0BDE8F08F002DE8D156
:102C100067B20BE0012D17D0022D07D3B8F81200D0
:102C20000099884202D34FFA84FA0090641CE4B2FF
:102C30000A2CCAD3059881074FF0FF30E3D40A2F3E
:102C400018D01ADAFCB242E03048039950F831004B
:102C50000028B8F8120006D002998842E6D34FFA4D
:102C600084F90290E2E701998842DFD34FFA84FBAE
:102C70000190DBE70599C907C5D0BAF10A0F0FDA51
:102C80000AF0FF04214804EB440150F8310090B1F0
:102C90001FA340F26F1246A13BA0FFF7B7FD0AE069
:102CA000BBF10A0F02DA0BF0FF0404E0B9F10A0FDE
:102CB000A9DA09F0FF040A2C06D315A340F2811209
:102CC00041A131A0FFF7A2FD204600F09DF80A2C9B
:102CD00006D30FA340F285123BA12BA0FFF796FD70
:102CE0000A4804EB440100EBC105287D30B108A37C
:102CF0004FF4C37239A124A0FFF788FD0EB13068EC
:102D00006860002160B269827DE700008C31002498
:102D10002E2E2F4D6964646C6577617265732F5434
:102D2000686972645F50617274792F4C7749502FD3
:102D30007372632F636F72652F697076342F6574B9
:102D4000686172702E6300007374617465203D3D8C
:102D5000204554484152505F53544154455F5045BB
:102D60004E44494E47207C7C207374617465203E3C
:102D70003D204554484152505F53544154455F53A0
:102D80005441424C45000000417373657274696F91
:102D90006E2022257322206661696C65642061744F
:102DA000206C696E6520256420696E2025730A00F9
:102DB0006172705F7461626C655B695D2E71203D4C
:102DC0003D204E554C4C000069203C204152505F44
:102DD0005441424C455F53495A4500006172705F4F
:102DE0007461626C655B695D2E7374617465203D0E
:102DF0003D204554484152505F53544154455F452E
:102E00004D5054590000000070B5074C00EB4005D0
:102E1000002654F8350018B103F08AF944F83560FB
:102E200004EBC500067570BD8C3100242DE9F0431C
:102E30000D00074685B009D07C684FF48078208863
:102E4000404539D12079062836D109E01CA34FF43A
:102E5000227229A12CA0FFF7D9FC05B0BDE8F083B0
:102E60006079042828D16088082825D1D4F80E007C
:102E700004906868A16920B1814202D101263346DD
:102E800001E000260223284604F1080204A9914625
:102E900000F094FBE08840450ED16EB10222284636
:102EA00004AB291DCDE90232CDE9001905F12D034E
:102EB0004A46194600F084FA384603F039F9CCE75F
:102EC0002E2E2F4D6964646C6577617265732F5483
:102ED000686972645F50617274792F4C7749502F22
:102EE0007372632F636F72652F697076342F657408
:102EF000686172702E6300006E6574696620213D02
:102F0000204E554C4C000000417373657274696F1C
:102F10006E2022257322206661696C6564206174CD
:102F2000206C696E6520256420696E2025730A0077
:102F3000FEB5040015460E4606D141A340F21B32F1
:102F40004DA151A0FFF762FC36B93DA34FF4477283
:102F500057A14DA0FFF75AFC35B939A340F21D32F5
:102F600056A149A0FFF752FC2868214600F096FEC2
:102F700008B1564B3CE02868C0F303110E2922D05B
:102F8000D4E901210A400140914208D080B2A0F565
:102F90007E41A93903D0E068A0B304F10C054C4A86
:102FA0004C49107800EB400301EBC3031F7D022F57
:102FB0002CD32F685B689F4228D1024631462046B9
:102FC00000F08AF8FEBD01228DF8042000208DF863
:102FD00005005E218DF80610687801AB00F07F00D7
:102FE0008DF80700A8788DF80800E8788DF80900BA
:102FF0004FF4006004F12D0231460090204600F0AD
:1030000003FCFEBDFFE76FF00300FAE75FF000008E
:1030100000EB400301EBC3031F7D022F06D32F6893
:103020005B689F4202D1C0B21070C6E7401C40B23C
:103030000A28EDDB32462946204600F0D5F8E0E7C5
:103040002E2E2F4D6964646C6577617265732F5401
:10305000686972645F50617274792F4C7749502FA0
:103060007372632F636F72652F697076342F657486
:10307000686172702E6300006E6574696620213D80
:10308000204E554C4C000000417373657274696F9B
:103090006E2022257322206661696C65642061744C
:1030A000206C696E6520256420696E2025730A00F6
:1030B0007120213D204E554C4C0000006970616428
:1030C000647220213D204E554C4C0000589F000852
:1030D000E00000248C3100242DE9F8431546884691
:1030E00006461C4802EB450100EBC104207D022886
:1030F00006D219A34FF43B7225A131A0FFF786FB3E
:10310000144A05EB4501207D02EBC1050C35022870
:1031100013D1608A0327B0F58E7F04D9211D304674
:1031200000F006FA07E0B0F5877F06D3211D2A4696
:10313000304600F003FA00B927754FF4006006F13D
:103140002D022B4641460090304600F05DFBBDE865
:10315000F88300008C3100242E2E2F4D6964646C9E
:103160006577617265732F54686972645F5061722C
:1031700074792F4C7749502F7372632F636F726588
:103180002F697076342F6574686172702E63000049
:103190006172705F7461626C655B6172705F6964BB
:1031A000785D2E7374617465203E3D20455448411E
:1031B00052505F53544154455F535441424C450073
:1031C000417373657274696F6E20222573222066C5
:1031D00061696C6564206174206C696E652025648A
:1031E00020696E2025730A002DE9FC5F8246144693
:1031F0002D300190086888464FF0FF364FF0000BE5
:10320000514600F04BFD002828D1D8F80000C0F34B
:1032100003110E2922D0B8F1000F1FD000281DD0B5
:10322000012152464046FFF7C3FC070018D4394934
:1032300007EB470901EBC905287D002812D00128BA
:1032400008D0022806D234A340F2C73240A14AA0D7
:10325000FFF7DCFABBF1000F0AD108E06FF00F00B6
:10326000BDE8FC9FC5F808A00121297500E034B92C
:103270004146504600F05CF9002C0646F0D0287D0F
:10328000DFF8908002280DD345484FF4006105F126
:103290000C0307705046019A0091214600F0B4FAE1
:1032A000064635E0012833D14FF47B762546688900
:1032B0002989884207D1286828B117A3324639A145
:1032C0002DA0FFF7A3FA287B01280ED02989002220
:1032D000022002F0D9FA050018D0214602F0A4FD20
:1032E00058B1284602F024FF10E02D68002DDED1F1
:1032F0002546204603F058F945B158F8390008B181
:1033000002F016FF002648F8395001E04FF0FF3672
:103310003046A5E78C3100242E2E2F4D6964646C55
:103320006577617265732F54686972645F5061726A
:1033300074792F4C7749502F7372632F636F7265C6
:103340002F697076342F6574686172702E63000087
:103350006172705F7461626C655B695D2E7374612C
:103360007465203D3D2050454E44494E47206F72C4
:1033700020535441424C4500417373657274696F28
:103380006E2022257322206661696C656420617459
:10339000206C696E6520256420696E2025730A0003
:1033A000E00000246E6F207061636B65742071759E
:1033B0006575657320616C6C6F7765642100000032
:1033C0002DE9FF4F81B0984606004FF00007DDE978
:1033D0000FA9DDF838B006D12BA34FF48B6238A1CA
:1033E0003BA0FFF713FA00221C21022002F04CFA46
:1033F000050046D068891C2806D223A340F2634208
:103400003DA133A0FFF702FA6C68119801F05EFC51
:10341000E08096F82C00062806D044491AA32CA078
:1034200040F26A42FFF7F2F9D8F800100623A160D3
:103430004FF48071B8F80400A081DAF80020C4F8D5
:1034400012200822BAF80400E082DBF80000C4F879
:103450000E00D9F80000A0610420218040F606018A
:103460006280237160713046DDE9022300912946B4
:1034700000F0CAF9284602F05BFE384605B0BDE808
:10348000F08F4FF0FF30F9E72E2E2F4D6964646CFA
:103490006577617265732F54686972645F506172F9
:1034A00074792F4C7749502F7372632F636F726555
:1034B0002F697076342F6574686172702E63000016
:1034C0006E6574696620213D204E554C4C0000000D
:1034D000417373657274696F6E20222573222066B2
:1034E00061696C6564206174206C696E6520256477
:1034F00020696E2025730A00636865636B20746819
:1035000061742066697273742070627566206361ED
:103510006E20686F6C6420737472756374206574B8
:10352000686172705F6864720000000034A1000876
:10353000014A00F003B80000589F00087FB5064D0F
:103540000124031DCDE90214CDE9003529331946C4
:10355000FFF736FF04B070BD5E9F000870B5164DD2
:103560005FF0000404EB440005EBC001087DF0B1FE
:103570004A8A521C92B24A82B2F5967F0AD2012838
:1035800006D003280AD004280AD001280BD00EE068
:10359000052A08D32046FFF737FC08E0042000E0A6
:1035A0000220087503E08868091DFFF7C1FF641C4D
:1035B000E4B20A2CD6D370BD8C310024F8B5044691
:1035C00090F82C001F46154606280E4606D020A36C
:1035D00040F2AB122CA135A0FFF718F99EB330686A
:1035E00088B3214600F05AFB68BB3078C0F3031063
:1035F0000E2829D0224639463046FFF7D9FA00284E
:1036000020DB344A00EB4001022302EBC1000375CA
:10361000002384602E68C660AE880682438252F81A
:10362000316076B142F831304FF400602B4604F13E
:103630002D0231460090204600F0E6F8304602F0B8
:1036400077FD0020F8BDFFE76FF00F00FAE70000FC
:103650002E2E2F4D6964646C6577617265732F54EB
:10366000686972645F50617274792F4C7749502F8A
:103670007372632F636F72652F697076342F657470
:10368000686172702E6300006E657469662D3E6815
:1036900077616464725F6C656E203D3D20455448DF
:1036A0005F4857414444525F4C454E004173736537
:1036B0007274696F6E2022257322206661696C65C1
:1036C00064206174206C696E6520256420696E2019
:1036D00025730A008C31002470B5044640890D46DC
:1036E0000E283CD9606801788689CA0714D0012960
:1036F00005D020490622FCF70FFE48B10CE04178C6
:1037000051B980785E2807D1607B40F0100002E05C
:10371000607B40F008006073082E6FF00D0103D04D
:10372000B6F5C16F1BD10FE095F83300000716D531
:1037300060890E2813DB204602F0D2FD78B92946B5
:10374000204600F0EDFB12E095F83300000706D5A7
:1037500060890E2803DB204602F0C2FD18B1204626
:1037600002F0E6FC03E029462046FFF75FFB00205D
:1037700070BD0000589F000870B50025064620481F
:103780009AB02C46FEF7DAFD96F8331049070DD5AE
:10379000012809D81A48A438FDF714FE304601F074
:1037A000EBFF304602F02EF81AB070BD0128FBD9AD
:1037B00002284FF400514FF4804206D0032805D070
:1037C000042805D00528EFD103E00C46154600E09B
:1037D0000C460B486946A438FDF77BF90848694652
:1037E000CDE90554A438FDF76CFD0548A438FDF774
:1037F000AFFD304602F02FF8304602F010F8D3E764
:10380000CC0100247047000070B50D4604460498B2
:1038100001F05CFA0E21284602F062FD10B16FF053
:10382000010070BD94F82C00062806D006A340F2D3
:103830002B1213A11FA0FEF7E9FFA269294620461B
:10384000BDE87040104700002E2E2F4D6964646C57
:103850006577617265732F54686972645F50617235
:1038600074792F4C7749502F7372632F6E6574698A
:10387000662F65746865726E65742E6300000000C3
:103880006E657469662D3E6877616464725F6C650D
:103890006E206D757374206265203620666F72200D
:1038A00065746865726E65745F6F75747075742188
:1038B00000000000417373657274696F6E202225E9
:1038C0007322206661696C6564206174206C696E86
:1038D0006520256420696E2025730A0010B5040058
:1038E00006D10BA34FF4F6720FA113A0FEF78EFFC3
:1038F0001B49732061611B49A161742184F8340064
:10390000204684F8351001F0EDF8002010BD0000CD
:103910002E2E2F434D372F5372632F6574686572B7
:103920006E657469662E63006E6574696620213D5C
:10393000204E554C4C000000417373657274696FE2
:103940006E2022257322206661696C656420617493
:10395000206C696E6520256420696E2025730A003D
:10396000312F0008614C000870B5054601F046F99A
:10397000040009D02A6929469047002804D020462F
:10398000BDE8704002F0D4BB70BD38B504468DF878
:10399000000069460320ABBE204638BD0A4603211D
:1039A00000F0F2B82DE9FE4F8A4643490446D1F8AB
:1039B000088098F800000007870E142F76D36089DE
:1039C000042873D36068007800286FD008286DD170
:1039D000486901F11405C0F303120E2A66D0894626
:1039E000096800F05BF9002860D1208908285DD3C0
:1039F00007F10E0120460E4602F072FC00282DD081
:103A000020890022384481B2022001F03DFF0600E7
:103A10004CD0718907F10800814216D370683A468C
:103A20004146FCF755FC7942304602F059FC00282B
:103A300006D0AF2221A32FA13CA0FEF7E7FE04E0B1
:103A40002146304602F0F0F918B1304602F070FB22
:103A50002CE0204602F06CFB34460CE0714220461C
:103A600002F03EFC002806D0C02214A339A12FA0EA
:103A7000FEF7CCFE1AE066683946204602F030FCBC
:103A8000A0B9606800212A68FF27C2600A46D9F8F9
:103A9000103003610123317071800772418120462B
:103AA0008DE80A043B46294600F00CFB2046BDE8A1
:103AB000FE4F02F03DBB0000B80200242E2E2F4D19
:103AC0006964646C6577617265732F5468697264A8
:103AD0005F50617274792F4C7749502F7372632F46
:103AE000636F72652F697076342F69636D702E6312
:103AF0000000000069636D705F696E7075743A2034
:103B00006D6F76696E6720722D3E7061796C6F61A2
:103B10006420746F2069636D7020686561646572EC
:103B2000206661696C65640A00000000417373657A
:103B30007274696F6E2022257322206661696C653C
:103B400064206174206C696E6520256420696E2094
:103B500025730A0069636D705F696E7075743A2031
:103B6000726573746F72696E67206F726967696ED0
:103B7000616C20702D3E7061796C6F6164206661AC
:103B8000696C65640A0000002DE9FF47924689468A
:103B9000002206462421012001F076FE050031D0E6
:103BA0006889242806D218A340F2611224A12FA00C
:103BB000FEF72CFE6C684FF0000877681C2284F832
:103BC000009084F801A0A4F80480A4F80680686836
:103BD00071680830FCF77CFBF868039003A800F0DC
:103BE00013FC60B1A4F802800122CDF80080FF230D
:103BF000CDE901200021284603AA00F063FA2846F7
:103C000002F096FABDE8FF872E2E2F4D6964646C92
:103C10006577617265732F54686972645F50617271
:103C200074792F4C7749502F7372632F636F7265CD
:103C30002F697076342F69636D702E630000000069
:103C4000636865636B20746861742066697273745D
:103C500020706275662063616E20686F6C642069F5
:103C6000636D70206D657373616765004173736583
:103C70007274696F6E2022257322206661696C65FB
:103C800064206174206C696E6520256420696E2053
:103C900025730A000A460B21FFF776BF421C12D09B
:103CA00088B191F8332092070BD54A68824208D038
:103CB00089680A4000EA0103934202D10143491C8A
:103CC00001D0002070470120704700002DE9F74F18
:103CD00086B004460025AE1F07981427408D14387F
:103CE000C11700EB5170C0F3CF0B606805900178ED
:103CF00001F00F01052904D056A340F2E12264A18E
:103D00000BE0C08800F0E2FF8104C0F30C000290D9
:103D10000AD550A340F2E62267A16EA0FEF776FD19
:103D2000304609B0BDE8F08F208914381FFA80F8BA
:103D300080E000BFB8EBCB0F01D34FEACB0080B2DD
:103D4000039000221421022001F09EFD5FEA000A88
:103D500078D06089142806D23EA34FF4427267A13E
:103D60005CA0FEF753FDDAF8040014220599FCF775
:103D7000AFFADAF80400039E04902BE06089C01BC0
:103D800085B2AE4200D2354615B3052001F0B2FB34
:103D90005FEA000953D0606802224B462946384446
:103DA000CDE90005042001F02DFF0090F0B320467E
:103DB00002F0FAFB59495046C9E90414009901F090
:103DC00091FF701B0604360C06D024680027D5E747
:103DD00024680027002ED1D1079879198FB2408D21
:103DE000143840450298C0F30C0001DA40F400504A
:103DF00000F06CFF0499C8800398143080B200F082
:103E000065FF049900224880514604984281079832
:103E1000089A43699847504602F08AF90399A8EB3B
:103E2000010202991FFA82F8594401E00DE009E00D
:103E300088B20290B8F100007FF47CAF71E7504681
:103E400002F076F94FF0FF306BE7484600F00AFBCE
:103E5000F5E700002E2E2F4D6964646C6577617262
:103E600065732F54686972645F50617274792F4C66
:103E70007749502F7372632F636F72652F69707665
:103E8000342F6970345F667261672E630000000032
:103E90006970345F66726167282920646F657320DA
:103EA0006E6F7420737570706F7274204950206F3C
:103EB0007074696F6E73000069705F667261672865
:103EC000293A204D4620616C7265616479207365E2
:103ED00074000000417373657274696F6E2022254F
:103EE0007322206661696C6564206174206C696E60
:103EF0006520256420696E2025730A007468697343
:103F0000206E656564732061207062756620696E3D
:103F1000206F6E6520706965636521004D4A000859
:103F20002DE9F05F456806460F4604212878B1EB7D
:103F3000101F03D0304602F0FBF88DE000F00F00B8
:103F40004FF6FF7101EA8008688800F0BFFE044662
:103F50003089A04203D92146304602F059FA7189CE
:103F60004145E7D33089A042E4D3B8F1140FE1D33F
:103F7000DFF848A12969CAF81410C1F30312E968EF
:103F80000E2ACAF8101014D0DFF834B13C464FF0B6
:103F9000010900BF94F83300C00712D0616881B1F5
:103FA000DAF81400884220D02146FFF777FEE0B906
:103FB00007E097F83300C0070FD0786868B13C4637
:103FC00013E0B9F1000F0AD09AF814007F2804D04A
:103FD000DBF800404FF0000902E0002405E024680F
:103FE000BC4200D12468002CD4D1DAF81000394644
:103FF000FFF754FE00289DD19AF81000D146C0F377
:1040000003100E2896D0002C94D0E88830F0C00021
:1040100005D0304600F01EF906001DD07568C8F1C5
:104020000001C9F808503046C9E900472A7812074C
:10403000920EA9F80C2002F053F9687A012818D0E2
:10404000062811D011280AD0D9F814004F4621466D
:10405000FFF724FE90B11FE00020BDE8F09F394635
:10406000304605F083FE1AE03946304603F0F4F896
:1040700015E039463046FFF795FC10E0387DC0F377
:1040800003100E2808D04146304602F02CF90221D8
:1040900030467560FFF782FC304602F049F8002197
:1040A000C9F80010C9F80410C9F80810A9F80C10D4
:1040B000C9F81010C9F81410CEE70000B8020024A7
:1040C0007C000024FEB5DDE90954089E1AB109B14F
:1040D0000F6807B9211D0096CDE9015400F002F8E0
:1040E000FEBD00002DE9F84FDDE90BA80546C089AB
:1040F000DDF828B01F4601281646894606D02DA3B4
:1041000040F2333238A13BA0FEF780FB002E39D0BD
:104110001421284602F0E4F818B16FF00100BDE860
:10412000F88F68896C68142806D222A34FF458725D
:104130003AA130A0FEF76AFB2772452084F809A057
:1041400031682161207084F801B0288900F0BEFD3B
:104150003E4F4FF0000A6080A4F806A0388800F0B7
:10416000B5FDA080B9F1000F388800F1010038805A
:1041700005D0D9F80000E060A4F80AA006E03448B1
:104180000068F8E768686E4600690090B8F82A0091
:1041900040B12989814205D9324641462846FFF778
:1041A00095FDBCE7D8F8143040463246294698477A
:1041B000B5E700002E2E2F4D6964646C657761723F
:1041C00065732F54686972645F50617274792F4C03
:1041D0007749502F7372632F636F72652F69707602
:1041E000342F6970342E6300702D3E726566203D59
:1041F0003D203100417373657274696F6E20222512
:104200007322206661696C6564206174206C696E3C
:104210006520256420696E2025730A006368656344
:104220006B207468617420666972737420706275A3
:10423000662063616E20686F6C64207374727563AE
:10424000742069705F68647200000000E20000245E
:1042500060A000082DE9F05F45688346287800F0EB
:104260000F0005287DD1E88800F030FDC004070C60
:10427000688800F02BFD297801F00F01494200EB1E
:1042800081001FFA80F8584601F0C4FD5D4C0646D7
:10429000208830440A2809D93146284600F080FB9E
:1042A00000285ED0208830440A285AD8A146646885
:1042B0004FF0000A0CE06069E968884207D1A06904
:1042C0002969884203D1A089A988884203D024683B
:1042D000002CF0D106E02CB1E88800F0F7FCC00417
:1042E0001BD025E0042001F005F904000AD1314675
:1042F000284600F055FBB04233DB042001F0FAF809
:1043000004007BD02021FBF7FCFF0321E177D9F8E3
:1043100004102160C9F8044004E0E08900F0D6FCF4
:10432000C00405D01422294604F10800FBF7D0FF91
:10433000A87940F340156D1C08D007EB080080B247
:10434000B8425BD34FF6EB71884257D82A4659469C
:10435000204600F0CFF8411C50D0B9F8002032447C
:1043600000E04BE0A9F8002035B1A27F07EB08017F
:10437000A18342F00102A27701283DD1A08B142233
:1043800004F108011430A0836068456828462E684F
:10439000FBF79EFFA08B00F099FC01466980A5F811
:1043A00006A06FF01308A5F80AA0656809E0776811
:1043B0004146304601F094FF3146284601F092FC18
:1043C0003E68002EF3D1D9F804104E468C4205D138
:1043D000002105E00868A04202D001460029F9D179
:1043E000204600F0B7F9284601F014FD3188081A7C
:1043F00030802846BDE8F09F0020FBE7584601F0DA
:1044000097FEF9E7E400002470B50446134813E072
:1044100090F83310CA070FD04A070DD543685BB137
:1044200082682568134005EA02069E4214D0890777
:1044300002D4C1688D420FD000680028E8D1084836
:10444000006840B190F83310CA0704D0490702D57C
:104450004168002900D1002070BD00007C000024CC
:104460008000002410B5040006D106A340F2AE225D
:1044700013A116A0FEF7CAF92146BDE81040052099
:1044800000F080BF2E2E2F4D6964646C65776172D9
:1044900065732F54686972645F50617274792F4C30
:1044A0007749502F7372632F636F72652F6970762F
:1044B000342F6970345F667261672E6300000000FC
:1044C0007020213D204E554C4C0000004173736517
:1044D0007274696F6E2022257322206661696C6593
:1044E00064206174206C696E6520256420696E20EB
:1044F00025730A002DE9F0474C68002592460F46C7
:1045000006464FF00108608800F0E0FB217801F0DA
:104510000F01494200EB8109E08800F0D7FB7C687D
:10452000C0040022010C01EB0900226083B2A180CB
:10453000E380726826E05068B0F804C0614515D287
:1045400022606DB1B5F806C061457BD38088834297
:1045500078D82F60A088844506D04FF0000803E08B
:10456000808883426ED8776072B12DE06AD0C288AD
:10457000914267D325B1EA88624501D04FF0000827
:1045800002680546002AD6D1002D12D0E888A188FD
:10459000884206D932A340F2AB1240A147A0FEF7F1
:1045A00035F92F60E888A18888420DD04FF00008C7
:1045B0000AE07068002806D029A340F2B31249A18E
:1045C0003EA0FEF723F97760BAF1000F02D1B07F69
:1045D000C00732D0B8F1000F32D07268002A2FD055
:1045E0005068808800282BD12068214628B1446873
:1045F000C888A1888842F7D022E0B8F1000F1FD008
:1046000032B917A34FF4EA7244A12CA0FEF7FEF8CA
:1046100070684068A04206D111A340F2D5123FA1B4
:1046200026A0FEF7F3F8206830B10DA340F2D712B0
:104630003EA122A0FEF7EAF80120BDE8F08701E0E4
:104640000020FAE7384601F0E5FB014640480288C1
:10465000511A0180384601F06BFD4FF0FF30ECE756
:104660002E2E2F4D6964646C6577617265732F54CB
:10467000686972645F50617274792F4C7749502F6A
:104680007372632F636F72652F697076342F697050
:10469000345F667261672E630000000063686563C3
:1046A0006B20667261676D656E747320646F6E2730
:1046B00074206F7665726C617000000041737365E1
:1046C0007274696F6E2022257322206661696C65A1
:1046D00064206174206C696E6520256420696E20F9
:1046E00025730A006E6F2070726576696F7573208E
:1046F000667261676D656E742C2074686973206DD5
:1047000075737420626520746865206669727374BD
:1047100020667261676D656E7421000073616E6959
:10472000747920636865636B0000000076616C69D2
:10473000646174655F646174616772616D3A6E652E
:1047400078745F70627566213D4E554C4C000000D8
:10475000E400002470B504460C480D464168A142AF
:1047600002D1216841600AE0002D06D108A340F281
:10477000451216A11CA0FEF749F8206828602146C2
:10478000BDE87040042000F0FDBD0000E4000024FE
:104790002E2E2F4D6964646C6577617265732F549A
:1047A000686972645F50617274792F4C7749502F39
:1047B0007372632F636F72652F697076342F69701F
:1047C000345F667261672E630000000073616E697A
:1047D000747920636865636B206C696E6B65642017
:1047E0006C69737400000000417373657274696FC3
:1047F0006E2022257322206661696C6564206174D5
:10480000206C696E6520256420696E2025730A007E
:104810002DE9F04705460F46A9424FF0000405D1A7
:10482000AB222EA33CA13FA0FDF7F0FF002F08D044
:104830003868A84205D0AD2228A344A139A0FDF7CD
:10484000E5FF6E684FF480387068818800291AD1BE
:1048500000681422686005F108017068FBF738FDF4
:1048600001213046FFF716FA304601F0D3FA4045F1
:10487000044605D3BC2219A339A12AA0FDF7C6FF1F
:10488000304601F055FC6E6812E07068B14606686B
:10489000484601F0BFFA0444444505D3CC220FA397
:1048A0002FA120A0FDF7B2FFA4B2484601F040FCC2
:1048B000002EEAD139462846FFF74CFF304D2888B4
:1048C000A04205D2D22205A32EA116A0FDF79EFF7D
:1048D0002888001B28802046BDE8F0872E2E2F4D0B
:1048E0006964646C6577617265732F54686972647A
:1048F0005F50617274792F4C7749502F7372632F18
:10490000636F72652F697076342F6970345F6672D9
:1049100061672E63000000007072657620213D20E3
:1049200069707200417373657274696F6E2022251D
:104930007322206661696C6564206174206C696E05
:104940006520256420696E2025730A0070726576E3
:104950002D3E6E657874203D3D2069707200000028
:1049600070627566735F6672656564202B20636C88
:10497000656E203C3D20307866666666000000006B
:10498000E400002469705F72656173735F70627523
:1049900066636F756E74203E3D20636C656E00002B
:1049A0002DE9F0471D4F0024894606460022134694
:1049B00011467868154622E0D0F814C0D6F80C806D
:1049C000C4450BD1D0F818C0D6F81080C44505D125
:1049D000B0F80CC0B6F80480C44509D06D1C2AB1EB
:1049E00090F81FC092F81F80C44501D802461946AE
:1049F000D0F800C0BCF1000F00D00346604600288C
:104A0000DAD11AB11046FFF703FF04444C4501DA2E
:104A1000012DCBDC2046BDE8F0870000E400002437
:104A2000094870B5002544680BE0E07F20B1401EC6
:104A3000E0772546246804E0204624682946FFF7ED
:104A4000E7FE002CF1D170BDE400002410B5040095
:104A500006D108A34FF42E7215A118A0FDF7D6FEBB
:104A6000606908B101F064FB2046BDE81040FFF723
:104A7000F9BC00002E2E2F4D6964646C657761725D
:104A800065732F54686972645F50617274792F4C3A
:104A90007749502F7372632F636F72652F69707639
:104AA000342F6970345F667261672E630000000006
:104AB00070637220213D204E554C4C00417373654C
:104AC0007274696F6E2022257322206661696C659D
:104AD00064206174206C696E6520256420696E20F5
:104AE00025730A002DE9FC413E4C05463C48002751
:104AF000802240F2F451E1233E46206001208DF8EF
:104B000000708DF801208DF802308DF804708DF85A
:104B100003708DF80570C4F804D020723248E0604C
:104B20003248C4E904012046FCF7C0F9342180462C
:104B300004F17000FBF7E5FB04F170004FF4403125
:104B400021220260C0E90471294800F0BDFC062161
:104B500085F82C10616840F2DC50264F097885F802
:104B60002D106168497885F82E106168897885F87C
:104B70002F106168C97885F830106168097985F867
:104B800031106168497985F83210688595F83300ED
:104B900040F00A0085F8330006EB4600314600235A
:104BA00007EB40220F48FBF775FF761C042EF3D36A
:104BB0002846FEF7D9FE0B480F49A430FDF76EFCDE
:104BC0000848A430FDF704FCB8F1000F03D0FBF750
:104BD00023FFBDE8FC812846FEF7CEFDF9E7000083
:104BE00000800240280100246000043000000430EE
:104BF0003C9F0008000204301C00002400B587B070
:104C0000002002901348FCF753FA00281FD01148E7
:104C100003A9FCF744F80F4802A9FCF78DF80D48EA
:104C2000FBF7FBFEDDE90210FDF724FD0A4800F06A
:104C3000B3FC034609484FF4C0610222186103988F
:104C4000CDE90001029881B2042000F0DBFF07B03B
:104C500000BD0000280100243C9F00089962000864
:104C6000F0B500250C468DB02E4630212F46684603
:104C7000FBF747FB0022684618E0042D03D36FF0D2
:104C80000B000DB0F0BD05EB4501636840F8213025
:104C900000EB810163894B6063891E440DB141F8CB
:104CA000041C236803B98A606D1C2468002CE4D1BD
:104CB00004491422C1E90160A1F17000FCF7B0FBC6
:104CC0003846DEE79801002400BA704740BA7047C2
:104CD00010B50AA340F2591214A124A0FDF796FDC5
:104CE00000F074F900F0E0FB00F00EFD05F03CF878
:104CF00002F0B0FABDE8104001F026BE2E2E2F4D76
:104D00006964646C6577617265732F546869726455
:104D10005F50617274792F4C7749502F7372632FF3
:104D2000636F72652F696E69742E630053747275B8
:104D30006374207061636B696E67206E6F742069A5
:104D40006D706C656D656E74656420636F727265FD
:104D500063746C792E20436865636B20796F75727C
:104D6000206C77495020706F72742E004173736508
:104D70007274696F6E2022257322206661696C65EA
:104D800064206174206C696E6520256420696E2042
:104D900025730A0008B5FDF797FBBFF34F8FBFF3EC
:104DA0006F8F404900200860BFF34F8FBFF36F8FB4
:104DB0003D4B196841F400311960BFF34F8FBFF3C9
:104DC0006F8F394970310860BFF34F8F081F43F66A
:104DD000FF740068334D1035C0F34E31C0F3C90283
:104DE00004EA4116104600BF46EA80772F60401E55
:104DF000FAD2491EF4D2BFF34F8F186840F48030C6
:104E00001860BFF34F8FBFF36F8F284F4FF6FF76B9
:104E100035463868000403D5281EA5F10105F8DCE5
:104E2000FCF7E0FCFDF73CFC204CE034206840F04F
:104E300000702060206800F0007000900020FCF7F7
:104E4000AFFC00210846FCF7BBFC3868000403D423
:104E5000301EA6F10106F8DC206840F0400020601A
:104E6000206800F040000090206840F08000206042
:104E7000206800F080000090206840F0040020606E
:104E8000206800F004000090206840F001002060DD
:104E9000206800F001000090FDF75CFBFDF7CAFB05
:104EA000FCE7000050EF00E014ED00E00044025881
:104EB00070B5040032D0A00706D019A34FF4D67203
:104EC00023A12CA0FDF7A2FC344D2868844202D314
:104ED0006868844206D312A34FF4D77230A125A08C
:104EE000FDF794FC2868844218D36868844215D280
:104EF00014F8040C083C30B909A34FF4E0722EA159
:104F00001CA0FDF783FC00202071A868844200D219
:104F1000AC602046BDE8704001F08CBB70BD000065
:104F20002E2E2F4D6964646C6577617265732F5402
:104F3000686972645F50617274792F4C7749502FA1
:104F40007372632F636F72652F6D656D2E63000042
:104F50006D656D5F667265653A2073616E6974791F
:104F600020636865636B20616C69676E6D656E7444
:104F700000000000417373657274696F6E20222512
:104F80007322206661696C6564206174206C696EAF
:104F90006520256420696E2025730A0048000024DE
:104FA0006D656D5F667265653A206C6567616C2042
:104FB0006D656D6F727900006D656D5F6672656518
:104FC0003A206D656D2D3E75736564000A4A4FF495
:104FD000C863074830B510600025064901240380E6
:104FE0004580057151600C710B804B80906030BD25
:104FF0000040043040460430480000242DE9F047CA
:10500000002874D0C01C4FF6FC7100EA01040C2C7F
:105010004FF4C86901D20C2401E04C456CD8374EDE
:10502000C4F5C8633268B068811A89B262E0551865
:105030002F79002F5DD12F887F1A083FA74258D3C0
:105040002F8804F114034FF0010C7F1A083F9F4290
:1050500015D30B194FF0000808339FB2D31983F80A
:105060000480B5F80080A3F8008059802F8085F86F
:1050700004C01988494504D0931CCF5201E085F83B
:1050800004C0854213D1716801E00088104403799F
:105090000BB18842F9D18842B06008D0007930B1B4
:1050A00017A340F2CF2222A128A0FDF7AFFB716821
:1050B00028190830884206D911A340F2D3222DA125
:1050C00022A0FDF7A3FBA8070FD00DA340F2D52225
:1050D00034A11EA0FDF79AFB09A340F2D72200E0FD
:1050E00005E03CA119A0FDF791FB05F10800BDE822
:1050F000F087515A8B429AD80020F8E748000024E4
:105100002E2E2F4D6964646C6577617265732F5420
:10511000686972645F50617274792F4C7749502FBF
:105120007372632F636F72652F6D656D2E63000060
:105130006D656D5F6D616C6C6F633A20216C66729A
:1051400065652D3E757365640000000041737365ED
:105150007274696F6E2022257322206661696C6506
:1051600064206174206C696E6520256420696E205E
:1051700025730A006D656D5F6D616C6C6F633A201D
:10518000616C6C6F6361746564206D656D6F7279BD
:10519000206E6F742061626F76652072616D5F654D
:1051A0006E642E006D656D5F6D616C6C6F633A208F
:1051B000616C6C6F6361746564206D656D6F72798D
:1051C0002070726F7065726C7920616C69676E65B2
:1051D000642E00006D656D5F6D616C6C6F633A20CD
:1051E00073616E69747920636865636B20616C69B3
:1051F000676E6D656E7400002DE9F047C91C0546A9
:105200004FF6FC7001EA00040C2C4FF4C86901D27F
:105210000C2401E04C4528D8354F3868854202D32C
:105220007868854206D333A340F2F3123DA143A030
:10523000FDF7ECFA386885423FD379688D423CD25D
:10524000A5F10806BA46311A8FB23088C01B08385B
:105250001FFA80F8444506D926A340F2062241A150
:1052600036A0FDF7D3FA444503D94FF00000BDE85E
:10527000F08722D032885046DAF800104FF0000351
:1052800002EB010C9CF80420CAB104F1140242455F
:1052900013D83A19D0F808C0083294B20A196245F6
:1052A00001D2CAF8082013713088108057803480EA
:1052B0001088484501D0891C44522846D7E73A193E
:1052C000D0F808800832BCF8004092B2E04503D123
:1052D00001EB020CCAF808C08818037104804780EB
:1052E000328000884845E8D0891C4252E5E700003A
:1052F000480000242E2E2F4D6964646C657761721E
:1053000065732F54686972645F50617274792F4CB1
:105310007749502F7372632F636F72652F6D656DC0
:105320002E6300006D656D5F7472696D3A206C6567
:1053300067616C206D656D6F7279000041737365F4
:105340007274696F6E2022257322206661696C6514
:1053500064206174206C696E6520256420696E206C
:1053600025730A006D656D5F7472696D2063616EEF
:10537000206F6E6C7920736872696E6B206D656D3D
:105380006F727900092806D307A340F2DB1212A13D
:1053900018A0FDF73BBA002904D0204A52F820009B
:1053A000FDF74EBB704700002E2E2F4D6964646CD4
:1053B0006577617265732F54686972645F506172BA
:1053C00074792F4C7749502F7372632F636F726516
:1053D0002F6D656D702E63006D656D705F66726513
:1053E000653A2074797065203C204D454D505F4DE5
:1053F00041580000417373657274696F6E202225F5
:105400007322206661696C6564206174206C696E2A
:105410006520256420696E2025730A00D09F00084E
:1054200018B1002908D0FDF70BBB04A34FF4E372B9
:105430000EA113A0FDF7EAB9704700002E2E2F4DE4
:105440006964646C6577617265732F54686972640E
:105450005F50617274792F4C7749502F7372632FAC
:10546000636F72652F6D656D702E6300696E766176
:105470006C696420706F6F6C20646573630000005A
:10548000417373657274696F6E20222573222066E2
:1054900061696C6564206174206C696E65202564A7
:1054A00020696E2025730A0030B5064D5FF00004B8
:1054B00055F8240000F008F8641CA4B2092CF7D3B6
:1054C00030BD0000D09F00088268002111600A46AC
:1054D0004168C91C21F0030107E08368521C1B6866
:1054E0000B60836819600388194443889342F4DC95
:1054F0007047000010B5092808D308A340F28712AE
:1055000012A11AA0FDF782F9002010BD214951F81F
:105510002000BDE81040FDF7E1BA00002E2E2F4D0F
:105520006964646C6577617265732F54686972642D
:105530005F50617274792F4C7749502F7372632FCB
:10554000636F72652F6D656D702E63006D656D7094
:105550005F6D616C6C6F633A2074797065203C20DC
:105560004D454D505F4D415800000000417373653B
:105570007274696F6E2022257322206661696C65E2
:1055800064206174206C696E6520256420696E203A
:1055900025730A00D09F000810B518B1BDE810406F
:1055A000FDF79CBA04A34FF4B6720FA113A0FDF748
:1055B0002DF9002010BD00002E2E2F4D6964646C63
:1055C0006577617265732F54686972645F506172A8
:1055D00074792F4C7749502F7372632F636F726504
:1055E0002F6D656D702E6300696E76616C69642045
:1055F000706F6F6C206465736300000041737365A6
:105600007274696F6E2022257322206661696C6551
:1056100064206174206C696E6520256420696E20A9
:1056200025730A002DE9F05FDDE90B67DDF82880BE
:105630009946002E92468B46044605D1FB2214A3C0
:1056400020A126A0FDF7E2F800206060A060032101
:10565000E0604B462B4D524684F8330084F8281006
:10566000E061C4E90808287884F83600411C2970F4
:1056700059462046276100F055F82046B04710B142
:105680000020BDE8F09F6868206020466C60F8E765
:105690002E2E2F4D6964646C6577617265732F548B
:1056A000686972645F50617274792F4C7749502F2A
:1056B0007372632F636F72652F6E657469662E63F4
:1056C000000000004E6F20696E69742066756E637D
:1056D00074696F6E20676976656E0000417373654B
:1056E0007274696F6E2022257322206661696C6571
:1056F00064206174206C696E6520256420696E20C9
:1057000025730A00780000247047C90709D0416852
:10571000002906D090F83310090702D5011DFDF7C6
:1057200007BF70472DE9F0410C001E46054617469D
:105730000FD0206868B11146284600F088F831463D
:10574000284600F030F821462846BDE8F04100F038
:105750002FB8284600F02CF83946284600F077F894
:1057600031462846BDE8F04100F01DB80149886087
:10577000704700007800002410B5044690F833000C
:10578000C1070FD020F0010084F83300010702D5D3
:105790002046FDF7F5F9E169002903D02046BDE870
:1057A0001040084710BD01B10968C1607047000092
:1057B00038B50D00044601D0286801E00E480068A5
:1057C00000906168884213D0201D694602F0B8F944
:1057D000201D694604F098FB5DB1286801216060D6
:1057E0002046FFF792FFE169002901D02046884753
:1057F00038BD0020F2E7000060A00008002800D0BB
:105800000162704790F83320510707D5016A22F0F2
:10581000040280F83320002900D00847704710B5F3
:10582000044690F83300410710D440F0040084F897
:105830003300C10703D003212046FFF766FF216A2A
:10584000002903D02046BDE81040084710BD01B133
:1058500009688160704710B5044690F83300C107AD
:1058600011D1E16940F0010084F8330009B120460C
:10587000884794F83300400705D52046BDE810401E
:105880000321FFF742BF10BD2DE9F84F052816464A
:105890000F461FD2DFE800F003050709090036258F
:1058A00004E0222502E00E2500E000254FF001096A
:1058B000002E4FF000087DD0012E7CD0022EFCD0AF
:1058C000032E0CD068A34FF4C67273A179A0FCF725
:1058D0009DFFC6E064A34FF48B7280A1F6E7082019
:1058E000FFF708FEDFF810B2040038D06019267305
:1058F000133020F003018A07C4E9008106D05AA3BF
:105900004FF494727DA16BA0FCF780FFED1C278102
:1059100025F00300C0F51470B84200D9384662681B
:1059200004F51871009160811044884206D94EA395
:105930004FF497727DA15FA0FCF768FF9420B0EB55
:10594000950F06D148A340F2311285A159A0FCF76A
:105950005DFF6189A246A4F80E907F1A42E08BF8A1
:1059600000907EE00820FFF7C5FD05003DD02E73B6
:105970004FF6FF7185F80D808F42C5F80080CAF898
:10598000005006DB38A34FF4A67282A149A0FCF7B1
:105990003DFFB8B228814FF41471884200D3084605
:1059A000688105F110016960880709D02EA340F2D3
:1059B000511201E01FE041E07BA13EA0FCF726FF71
:1059C0006089616801440098814206D926A340F2AB
:1059D000531256A137A0FCF719FF6989AA46A5F80A
:1059E0000E907F1A002FBDDC34E08BF8009020462B
:1059F00000F09EFB35E0F91C05F1130020F00300D8
:105A000021F00301084480B281422AD8FFF7F6FA58
:105A1000040026D0611927811331678121F0030129
:105A20008A07C4E9008184F80C8013D00EA34FF4D8
:105A3000BB7269A11FA0FCF7E9FE0BE00720FFF78E
:105A400059FD04000DD026732781C4F804806781B6
:105A5000C4F800802046A4F80E9084F80D80BDE8BC
:105A6000F88F0020FBE700002E2E2F4D6964646C38
:105A70006577617265732F54686972645F506172F3
:105A800074792F4C7749502F7372632F636F72654F
:105A90002F706275662E6300706275665F616C6C54
:105AA0006F633A206572726F6E656F7573207479DB
:105AB00070650000417373657274696F6E202225F2
:105AC0007322206661696C6564206174206C696E64
:105AD0006520256420696E2025730A007062756652
