:020000040810E2
:1000000060050010AD021008F31A10085F191008FF
:10001000F11A1008B9031008C12A100800000000E6
:10002000000000000000000000000000F71A1008A7
:10003000F903100800000000F51A1008F91A10085A
:10004000C7021008C7021008C7021008C70210082C
:10005000C7021008C7021008C7021008C70210081C
:10006000C7021008C7021008C7021008C70210080C
:10007000C7021008C7021008C7021008C7021008FC
:10008000C7021008C7021008C7021008C7021008EC
:10009000C7021008C7021008C7021008C7021008DC
:1000A000C7021008C7021008C7021008C7021008CC
:1000B000251B1008C7021008C7021008C702100845
:1000C000C7021008C7021008C7021008C7021008AC
:1000D000C7021008B52A1008C7021008C702100886
:1000E000C7021008C702100800000000C70210086D
:1000F000C7021008C7021008C7021008C70210087C
:10010000C7021008C7021008C7021008C70210086B
:10011000C7021008C7021008C7021008C70210085B
:10012000C7021008C7021008C7021008C70210084B
:10013000C7021008C7021008C7021008C70210083B
:10014000C7021008C70210080000000000000000ED
:10015000C7021008C7021008C7021008C70210081B
:10016000C7021008C7021008C7021008C70210080B
:10017000C7021008C7021008C702100800000000DC
:10018000C7021008C7021008C7021008C7021008EB
:10019000C7021008C7021008C7021008C7021008DB
:1001A000C7021008C7021008C7021008C7021008CB
:1001B000C7021008C7021008C7021008C7021008BB
:1001C000C7021008C7021008C7021008C7021008AB
:1001D000C7021008C7021008C7021008C70210089B
:1001E000C7021008C7021008C7021008C70210088B
:1001F000C7021008C7021008C7021008C70210087B
:10020000C7021008C7021008C7021008C70210086A
:10021000C7021008C7021008C7021008C70210085A
:10022000C7021008C7021008C7021008C70210084A
:10023000C7021008C7021008C7021008C70210083A
:10024000C7021008C7021008C7021008C70210082A
:10025000C7021008C7021008C7021008C70210081A
:10026000C7021008C7021008C7021008C70210080A
:10027000C7021008C7021008C7021008C7021008FA
:10028000C7021008C7021008C702100800000000CB
:10029000C7021008C7021008DFF80CD000F07AF887
:1002A00000480047012B10086005001006488047F1
:1002B00006480047FEE7FEE7FEE7FEE7FEE7FEE74B
:1002C000FEE7FEE7FEE7FEE7FD1A100899021008B8
:1002D0002DE9F05F0546002092469B46884606467B
:1002E000814640241BE0284641464746224600F00E
:1002F00041F853465A46C01A914110D31146184648
:10030000224600F028F82D1A67EB01084F462246D6
:100310000120002100F01FF817EB00094E41201EBC
:10032000A4F10104DFDC484631462A464346BDE8D5
:10033000F09FD2B201E000F8012B491EFBD27047BA
:100340000022F6E710B513460A4604461946FFF7A1
:10035000F0FF204610BD202A04DB203A00FA02F10B
:10036000002070479140C2F1200320FA03F31943A3
:1003700090407047202A04DB203A21FA02F0002145
:10038000704721FA02F3D040C2F1200291400843A5
:1003900019467047064C074D06E0E06840F001033F
:1003A00094E8070098471034AC42F6D3FFF778FF83
:1003B000A82D1008C82D1008FEE70000F0B5002297
:1003C000FF2363F30F220B4D63F30702002305F5B0
:1003D00080760BE0C75CC2F307247C402F5D345D60
:1003E000574067F30F2264F307025B1C8B42F1D383
:1003F00090B2F0BD982B1008704700002DE9F05F17
:1004000028B190F83510022904D0802141650120DF
:10041000BDE8F09F8F4A8F4B8E4C8E4D8D4E8D4F89
:10042000DFF83082DFF82C92DFF82CE2DFF828A228
:10043000DFF824C2016818324833603478359036CA
:10044000A837DFF814B209F130090EF1780E0AF17D
:10045000900A0CF1A80C41452DD091422BD0494572
:1004600029D0994227D0A14225D0A94223D0B14218
:1004700021D0B9421FD059451DD0DFF8DC8108F1E9
:100480001808414517D0DFF8D08108F13008414500
:1004900011D0DFF8C48108F1480841450BD0DFF8DE
:1004A000B88108F16008414505D0714503D0514538
:1004B00001D0614529D14FF0040880F835806548A6
:1004C00081421DD091421BD0494519D0994217D085
:1004D000A14215D0A94213D0B14211D0B9420FD0D8
:1004E00059450DD05C481830814209D05A48303007
:1004F000814205D058484830814201D0564860308A
:10050000086820F001000860A2E0D1F8008028F01F
:100510000E08C1F80080DFF83C810168414525D014
:10052000914223D0494521D099421FD0A1421DD0EC
:10053000A9421BD0B14219D0B94217D0594515D0A4
:10054000DFF8148108F1180841450FD0DFF8088161
:1005500008F13008414509D0DFF8FC8008F148086F
:10056000414503D0DFF8F08008F16008D1F8008041
:1005700028F00108C1F80080DFF8D8800168414503
:1005800044D0914242D0494540D099423ED0A14208
:100590003CD0A9423AD0B14238D0B94236D05945C0
:1005A00034D02D4A1832914230D02B4A3032914209
:1005B0002CD0294A4832914228D0274A60329142B1
:1005C00024D0714522D0514520D061451ED0234A08
:1005D00091421BD0214A1432914217D01F4A28322F
:1005E000914213D01D4A3C3291420FD01B4A5032E7
:1005F00091420BD0194A6432914207D0174A78329F
:10060000914203D0154A8C32914218D1016E0A688A
:1006100022F480720A6090F85C10826D01F01F0372
:10062000012199405160D0E919124A60C16E31B17F
:100630000A6822F480720A60D0E91C124A60002124
:1006400080F83410012180F83510016D01B1884720
:100650000020DDE610000240100402400854025859
:100660002DE9FC4F00230125844E03244FF00F0990
:100670004FF0B04AFBE000BF05FA03F73A407DD0E7
:10068000D1F804C0BCF1010F08D0BCF1020F05D0B5
:10069000BCF1110F02D0BCF1120F1AD1D0F808C072
:1006A0004FEA430E04FA0EF82CEA080BD1F80C803E
:1006B00008FA0EF848EA0B08C0F80880D0F804C021
:1006C0002CEA070C0F79C7F300179F4047EA0C0785
:1006D0004760C7684FEA4308D1F808C004FA08FB2E
:1006E00027EA0B070CFA08FC4CEA070CC0F80CC010
:1006F0004F68022F01D0122F15D1DF0800EB8707BA
:100700000197D7F820E05F07FF0E09FA07FC2EEAF1
:100710000C0E0097D1F810C00CFA07FC019F4CEAB0
:100720000E0CC7F820C0076891F804C027EA0B0731
:100730000CF0030C0CFA08FC4CEA070CC0F800C0E3
:100740004F68FF001AD54E4FD7F800C04CF0020C8E
:10075000C7F800C03F6807F00207009723F00307BF
:1007600007F1B047BB46D7F808744FEA837C4FEADD
:100770001C7809FA08FC27EA0C0700E076E0DFF8AD
:1007800004C1604502D14FF0000C40E0DFF8F8C032
:10079000604502D14FF0010C39E0DFF8F0C0604550
:1007A00002D14FF0020C32E0DFF8E4C0604502D124
:1007B0004FF0030C2BE0DFF8DCC0604502D14FF0B6
:1007C000040C24E0DFF8D0C0604502D14FF0050CE6
:1007D0001DE0DFF8C8C0604502D14FF0060C16E0FE
:1007E000DFF8BCC0604502D14FF0070C0FE0DFF826
:1007F000B4C0604502D14FF0080C08E0DFF8A8C093
:10080000604502D14FF0090C01E04FF00A0C0CFAE0
:1008100008FC4CEA070CCBF808C43768D1F804C0D0
:1008200097435FEACC3C00D5174337607768D1F82F
:1008300004C097435FEA8C3C00D517437760DAF831
:100840000070D446D1F8048097435FEAC82800D5E9
:100850001743CCF80070DCF80470D1F8048097439B
:100860005FEA882800D51743CCF804705B1C0A683F
:1008700032FA03F77FF400AFBDE8FC8FC0000058E8
:10088000F4440258000002580004025800080258BC
:10089000000C0258001002580014025800180258A8
:1008A000001C025800200258002402580448006826
:1008B000C0F30310072801D00120704703207047C0
:1008C00000ED00E00148806870470000080000105B
:1008D00002490A6802430A60704700001065025826
:1008E0000248816802781144816070470800001056
:1008F0001C4808B5016841F480410160006800F4BB
:100900008040009018480168184A114041F40141A4
:100910000160016841F001010160032000F08AF8E4
:1009200000F06EFA0F49C0390A680968C2F3032360
:100930000F4AD35C03F01F03D84001F00F01515C54
:1009400001F01F01C8400B4908600B4908600020F6
:1009500000F014F808B1012008BD00F02FF80020C5
:1009600008BD0000D844025800440240FF00F0FFD8
:10097000982D1008180000101400001070B50D4DCF
:1009800004462878A0B14FF47A71B1FBF0F00A491F
:100990000968B1FBF0F000F0CBFA48B9102C07D28F
:1009A00000222146501E00F025F800206C6070BD2A
:1009B000012070BD0800001014000010054808B5A3
:1009C000016841F002010160006800F0020000903F
:1009D00008BD0000F4440258002809DB00F01F02A3
:1009E000012191404009800000F1E020C0F8001191
:1009F00070470000F0B40E4B1B680C46C3F3022393
:100A0000C3F10705042D00D90425191D072901D2BA
:100A1000002300E0DB1E012606FA05F1491E2140F5
:100A200099409E40761E16403143F0BC02F049B812
:100A30000CED00E0064900F0070208684FF6FF03DE
:100A4000184040EA0220034A104308607047000043
:100A50000CED00E00000FA0510B5FFF727FF0328B2
:100A600000D040BF20BF10BD70B50E4619490B68BD
:100A700023F0010303430B60164C174D103432B1C1
:100A80002068012A11D020F00400206070BDFFF71B
:100A90000DFF0328FAD1206820F0010020600BE050
:100AA000286820F00400286070BD20F0020020605B
:100AB000FFF7FCFE0128F7D1286840F00400286009
:100AC000BFF34F8FBFF36F8F012E01D020BFE7E739
:100AD00030BFE5E70048025810ED00E010B500F027
:100AE0004BF905490968054AC1F30211515C01F04F
:100AF0001F01C84010BD000020440258982D100866
:100B0000484910B50A68096802F00303454AC1F371
:100B10000531121D1268434CC2F3001214342468CC
:100B2000C4F3CC0414FB02F200EE102AF8EE400AE3
:100B3000E9B33C4A9FED3C1A1032B7EE000A63B1AC
:100B4000DFED3A1A012B01D0022B5ED002EE101A13
:100B5000F8EE422A81EEA22A1AE0324B283B1C68AA
:100B6000A4060DD51B68C3F3C104314BE34001EE6D
:100B7000903AF8EE612A01EE901AF8EE611A05E05B
:100B800001EE901ADFED2B2AF8EE611A82EEA12A0F
:100B90001168C1F3080101EE901A1168F8EE611AAC
:100BA00040EE811A71EE800A62EE200A00E033E026
:100BB000C1F3462101EE101AB8EE411A31EE001AC7
:100BC000C0EE811ABCEEE11A80ED001A1168C1F383
:100BD000064101EE101AB8EE411A31EE001AC0EECD
:100BE000811ABCEEE11A80ED011A1168C1F30661A9
:100BF00001EE101AB8EE411A31EE000A80EE801AAA
:100C0000BCEEC10A80ED020A10BD01EE901ADFEDC4
:100C10000A2AF8EE611AB9E700210160416081609B
:100C200010BD000028440258000000390024744A16
:100C30000090D0030024744C20BCBE4B484910B532
:100C40000A68096802F00303454AC1F30551121D01
:100C50001268434CC2F300221C342468C4F3CC0451
:100C600014FB02F200EE102AF8EE400AE9B33C4A07
:100C70009FED3C1A1832B7EE000A63B1DFED3A1A65
:100C8000012B01D0022B5ED002EE101AF8EE422AA0
:100C900081EEA22A1AE0324B283B1C68A4060DD52F
:100CA0001B68C3F3C104314BE34001EE903AF8EE08
:100CB000612A01EE901AF8EE611A05E001EE901A31
:100CC000DFED2B2AF8EE611A82EEA12A1168C1F33A
:100CD000080101EE901A1168F8EE611A40EE811ACF
:100CE00071EE800A62EE200A00E033E0C1F3462193
:100CF00001EE101AB8EE411A31EE001AC0EE811A58
:100D0000BCEEE11A80ED001A1168C1F3064101EE54
:100D1000101AB8EE411A31EE001AC0EE811ABCEE7C
:100D2000E11A80ED011A1168C1F3066101EE101A93
:100D3000B8EE411A31EE000A80EE801ABCEEC10A0C
:100D400080ED020A10BD01EE901ADFED0A2AF8EEDE
:100D5000611AB9E7002101604160816010BD0000A7
:100D600028440258000000390024744A0090D0033F
:100D70000024744C20BCBE4B00B500F041F80A4979
:100D80000A680968C2F30323084AD35C03F01F030F
:100D9000D84001F00F01515C01F01F01C840044927
:100DA00008600449086000BD18440258982D1008D6
:100DB000180000101400001000B5FFF7DDFF054912
:100DC0000968054AC1F30211515C01F01F01C840D6
:100DD00000BD00001C440258982D100800B5FFF714
:100DE000CBFF05490968054AC1F30221515C01F0B6
:100DF0001F01C84000BD00001C440258982D100877
:100E000030B543480068444B10F03802414808D0E0
:100E10000111082A03D0102A0BD0182A0BD008463B
:100E200030BD19688906FBD51968C1F3C101C840F6
:100E300030BD3A4830BD364918310A68096802F0B9
:100E40000304334AC1F305111C321268304D02F01D
:100E5000010224352D68C5F3CC0515FB02F200EE26
:100E6000102AB8EE400AE9B3294A9FED2D1AF7EE91
:100E7000000A203264B1DFED2B1A012C01D0022CC4
:100E80003CD002EE101AF8EE422A81EEA22A17E0B8
:100E90001C68A4060CD51B68C3F3C103D84001EE3F
:100EA000900AF8EE612A01EE901AF8EE611A05E058
:100EB00001EE901ADFED1C2AF8EE611A82EEA12AEB
:100EC0001068C0F3080001EE900A1068F8EE611A8D
:100ED00040EE011A31EEA00A22EE000AC0F34620CD
:100EE000401C00E011E000EE900AF8EE600A80EE8F
:100EF000201ABCEEC10A10EE100A30BD01EE901AA5
:100F0000DFED0A2AF8EE611AD8E7002030BD0000B4
:100F1000104402580090D0030044025840787D01EC
:100F2000000000390024744A0024744C20BCBE4BDD
:100F300010B5401EB0F1807F01D3012010BD4FF0ED
:100F4000E02460610F21601701F0BBFD0020A0616B
:100F500007202061002010BD7047704770470000D7
:100F6000F0B590F83C20012A39D0012480F83C40AB
:100F7000022280F83D20026853689568194E1A4F86
:100F8000B24201D0BA4204D123F4700C4B6843EA58
:100F90000C0323F0700C0B6843EA0C0353600268E7
:100FA000B24210D0B2F1804F0DD0104B9A420AD00D
:100FB0000F4B9A4207D00F4B9A4204D0BA4202D04C
:100FC0000D4B9A4204D1896825F080031943916042
:100FD00080F83D40002180F83C100846F0BD02201A
:100FE000F0BD00000000014000040140000400408A
:100FF00000080040000C00400018004010B504003C
:1010000003D094F83D0010B107E0012010BD00208E
:1010100084F83C00204600F00DF8022084F83D00E2
:10102000211D206800F084FD012084F83D0000208F
:1010300010BD000008B50068B0F1804F12D10A4819
:10104000016841F0010101600068002200F0010028
:10105000009011461C20FFF7CDFCBDE808401C2085
:10106000FFF7BABC08BD0000E84402580168CA682E
:1010700042F00102CA6001688868064A10400628EA
:1010800006D0B0F5803F03D0086840F0010008604A
:1010900000207047070001000168CA6822F00102C1
:1010A000CA600068016A41F21112114207D1016A57
:1010B0009210114203D1016821F00101016000206A
:1010C0007047000070B5044690F83C00012814D029
:1010D000012584F83C50022084F83D002268906885
:1010E000354B184020F47F4090600868702828D065
:1010F00010DC10F00F0F03D04BE04FF0020070BD7A
:101100004FEA2012072A44D2DFE802F05151515130
:1011100049323A00B0F1101F49D009DCB0F5805FC8
:1011200037D0B0F5005F17D0B0F5801F31D13EE069
:10113000A0F5801120393AD0102938D0202928D1A3
:1011400035E0CB68D1E90121206800F051FD20682D
:10115000816841F0770109E0CB68D1E9012120687D
:1011600000F046FD2068816841F48041816010E014
:10117000CA684968206800F04FFD5021206806E0E9
:10118000CA684968206800F058FD6021206800F0B6
:1011900039FD84F83D50002084F83C0070BDCA68D9
:1011A0004968206800F038FD40212068EFE7226898
:1011B00001461046EBE7000088FFCEFF704770B590
:1011C0000446006801694FF00005C943890715D43A
:1011D000C168C943890711D4E91E01610120207744
:1011E000206880698007204602D0FFF7E7FF04E00F
:1011F00000F0A7F8204600F0A5F8257720680169DF
:10120000C943490717D4C168C943490713D46FF0CC
:1012100004010161022020772068806910F4407F7A
:10122000204602D0FFF7CAFF04E000F08AF820460B
:1012300000F088F8257720680169C943090716D4AA
:10124000C168C943090712D46FF008010161042085
:1012500020772068C0698007204602D0FFF7AEFFE4
:1012600004E000F06EF8204600F06CF82577206866
:101270000169C943C90617D4C168C943C90613D453
:101280006FF010010161082020772068C06910F418
:10129000407F204602D0FFF791FF04E000F051F8B4
:1012A000204600F04FF8257720680169C943C90737
:1012B00008D1C168C943C90704D1891E016120460C
:1012C00000F042F820680169C943090609D4C168E1
:1012D000C943090605D46FF0800101612046FFF77C
:1012E0003CFE20680169C943C90509D4C168C943E6
:1012F000090605D46FF4807101612046FFF72CFECA
:1013000020680169C943490609D4C168C94349062F
:1013100005D46FF040010161204600F057F82068C5
:101320000169C94389060BD4C168C943890607D43A
:101330006FF0200101612046BDE87040FFF70EBE4E
:1013400070BD70477047000070B50068B0F1804F05
:1013500036D11C4CA078AA282CD12178082929D371
:101360001948891EFFF72AF8211D0880164822789F
:101370000B78024412F8015CAB4212D1497812F8A2
:10138000022C91420DD1017832290AD140780328EC
:1013900002D0102805D102E000F0E2FA01E000F0EE
:1013A00027FB18210848FEF7CBFF002020705520AE
:1013B000E070A070BDE8704003484030FFF76CBE9D
:1013C00070BD0000000000101C000010704790F875
:1013D0007C10012918D0012180F87C102421C0F84C
:1013E000801050F8601B0A680B6823F001030B6043
:1013F00022F000510022426050F8603C1960202128
:10140000016202771046704702207047704770B53E
:10141000044690F87C0001281DD0012084F87C004F
:101420002420C4F8800020680568026822F00102C8
:1014300002602068826822F060620A43826020466F
:1014400000F00EFC206805602020C4F88000002019
:1014500084F87C0070BD022070BD70B5044690F821
:101460007C0001281DD0012084F87C002420C4F8D1
:10147000800020680568026822F00102026020688E
:10148000826822F060420A438260204600F0E8FB56
:10149000206805602020C4F88000002084F87C00CB
:1014A00070BD022070BD7047704770472DE9F04154
:1014B00003680446D86919689A6840F60F052842FF
:1014C0004FF0000509D186067ED501F0200602F016
:1014D00080573E4378D0E16E9EE0624E624F1640E8
:1014E0000F40374370D0C70709D0CF0507D5012774
:1014F0001F62D4F8883043F00103C4F888308307B2
:101500000AD5D30708D0276802233B62D4F8883075
:1015100043F00403C4F8883043070AD5D30708D042
:10152000276804233B62D4F8883043F00203C4F8F0
:10153000883003070CD501F02003334308D0266818
:1015400008233362D4F8883043F00803C4F88830A5
:1015500003050BD54B0109D526684FF400633362B0
:10156000D4F8883043F02003C4F88830D4F88830A9
:10157000002B34D0800609D501F0200002F0805104
:10158000084303D0E16E09B120468847D4F88800AB
:1015900021688968490602D410F0280F21D020461E
:1015A00000F02EFC20688168490615D5816821F07D
:1015B00040018160A06F78B12C490165A06FFEF7F2
:1015C0001DFF00280BD000E011E0A06F016D00E0CE
:1015D0002046BDE8F04108472046FFF766FFBDE81A
:1015E000F0812046FFF761FFC4F88850F7E7C60294
:1015F00009D5560207D54FF4801018622046BDE881
:10160000F041FFF751BF060609D501F0800602F44C
:101610000002164303D0216F0029D9D1DFE742062B
:101620000DD54A060BD51968204621F040011960F6
:101630002021C4F88010256700F090F9CFE702025E
:1016400006D54A0004D52046BDE8F041FFF72BBF80
:10165000C001C4D50029C2DA2046BDE8F041FFF739
:10166000D5BE00000100001020010004EB1D100891
:1016700010B5040003D0D4F8800010B107E00120B9
:1016800010BD002084F87C00204600F027F82420BC
:10169000C4F880002068016821F001010160204643
:1016A00000F0C0FC0128EBD0A06A10B1204600F089
:1016B00009FB2068416821F49041416020688168FD
:1016C00021F02A0181602068016841F00101016078
:1016D0002046BDE8104000F059BB000010B586B0B0
:1016E000044614216846FEF72BFE174920688842FD
:1016F00028D11648016841F010010160006800F02F
:101700001000059011481038016841F00101016096
:101710000068694600F0010005904FF4C060009039
:1017200002200190002002900390072004900848B6
:10173000FEF796FF002211462520FFF75BF92520D2
:10174000FFF74AF906B010BD00100140F0440258FE
:101750000000025870B5D0F88430202B6DD1B9B19B
:10176000B2B190F87C30012B67D0012380F87C3037
:101770008165A0F85C20A0F85E200021C166836826
:101780004FF48056FF24B34207D1036913B11CE024
:10179000012070BD40F2FF131DE07F259BB1B3F126
:1017A000805F15D0A0F86010C0F888102223C0F820
:1017B000843003689C6844F001049C60436EB3F17C
:1017C000005F0ED027E0036943B9A0F86040EBE763
:1017D00003691BB13F23A0F86030E5E7A0F8605033
:1017E000E2E7B0F86830934215D88268B24201D17E
:1017F000026972B1124AC26680F87C1001680A68F8
:1018000042F480720A600068816841F08051816012
:101810000FE00C4AEFE78268B24201D1026952B18F
:10182000094AC26680F87C100068016841F4907132
:101830000160002070BD054AF3E7022070BD000082
:10184000851F1008851E1008251F1008251E10086A
:1018500010B500680F4988421BD10F48FFF71CFCE8
:101860000E488178AA2901D0AA2181700A4B0178FB
:10187000403B42785A54491C017008490122491CD6
:1018800003F18000FFF766FFBDE810400248FFF754
:10189000EDBB10BD001001405C0000100000001006
:1018A0002DE9F8430446D0F880001F4616460D4641
:1018B000202851D1DDB1D6B194F87C0001284BD05D
:1018C000012084F87C004FF00008C4F888802120B3
:1018D000C4F880001834FEF7F5FFA6878146E68736
:1018E00054F8100C183CB0F5805F03D004E00120E0
:1018F000BDE8F883206910B12E46002510E00026CF
:101900000EE08021204601F083F8B8B9C6B116F880
:10191000010B21688862B4F85600401EA4F85600F6
:10192000B4F856004B464FF0000200970028E8D16B
:101930004FF04001204601F06BF830B10320D7E7AB
:1019400035F8020BC0F30800E3E72020C4F880005C
:1019500084F87C800020CBE70220C9E77047FEE7CF
:101960002DE9F0411E4D30210424297003216970B6
:101970001C491D4E0A79AA704A79EA70CB78897899
:1019800063F3070061F30F20A0F5AC5083B2002091
:101990000CE0191806EB8107F9782955641CE1B2AF
:1019A000BC786C54491C401CCCB2C0B28242F0D806
:1019B00021460B48FEF702FD2855641CE1B2000ADF
:1019C0006854491CCCB24FF47A731A220449074870
:1019D000FFF766FF2146BDE8F0410148FEF7B0BCC5
:1019E000280100101C000010340000109C000010A2
:1019F00010B5114C23202070302060701020A07092
:101A00000E488178E170C178217101796171407966
:101A1000A07107212046FEF7D1FCE071000A207278
:101A20000A2060720D20A07221460B22BDE81040F2
:101A300064230348FFF734BF280100101C00001086
:101A40009C00001010B588B0002412480094019446
:101A500002940394049405944FF08041069401602D
:101A600045F6BF51C0E901143221C0E90314846175
:101A7000FFF7C4FA4FF48050009069460548FFF71D
:101A800021FB049404A903480694FFF769FA08B0FF
:101A900010BD00005C000010134810B51149016032
:101AA0004FF4E1314160002181600C22C160C0E946
:101AB00004128161C161016241628162FFF7D8FD58
:101AC00000210948FFF7C9FC00210748FFF79FFCE8
:101AD0000548FFF77CFCBDE810400122034902489D
:101AE000FFF738BE001001409C00001001000010FC
:101AF000FEE7704770477047FEF7F2BE084801687E
:101B000041F47001016006487838016841F0040131
:101B1000016003494FF001608039086070470000A0
:101B200088ED00E00148FFF74ABB00005C000010B0
:101B30002DE9F0470268264B264D274E274F284CAB
:101B40004FF0804A984209D0504507D0A84205D0AE
:101B5000B04203D0B84201D0A04204D122F0700CB0
:101B60004A6842EA0C02DFF87CC0DFF87C80DFF8CC
:101B70007C9098420FD050450DD0A8420BD0B04277
:101B800009D0B84207D0A04205D0604503D04045F7
:101B900001D0484503D122F44075CA682A434D69F3
:101BA00022F080022A4302608A68C2620A68826266
:101BB000984207D0A04205D0604503D0404501D0EF
:101BC000484501D10969016301214161BDE8F08700
:101BD000000001400004004000080040000C0040EC
:101BE0000004014000400140004401400048014021
:101BF00010B5846842EA032224F47F440A43224356
:101C0000826010BD8268034B1A400A4342F007010C
:101C1000816070478FFFCFFF10B5036A046A24F01C
:101C200001040462846924F0F00444EA021423F0FD
:101C30000A020A438461026210BD10B5036A23F0F0
:101C4000100303628369046A23F4704343EA023297
:101C500024F0A00343EA01118261016210BD00007B
:101C60003FB514A1D1E90021CDE9002113A2D2E9A9
:101C70000012CDE90212416EB9B102689168926812
:101C8000C1F34261520F1DF80240E50002ACA25CB4
:101C9000B5FBF2F2A0F86A201DF80120615CD200C9
:101CA000B2FBF1F1A0F868103FBD0121A0F86A1065
:101CB000F8E7000001010103070100000804020425
:101CC0000801010190F82810C90706D001684A6888
:101CD000C36A22F400321A434A6090F82810890738
:101CE00006D501684A68036B22F480321A434A60C1
:101CF00090F82810490706D501684A68436B22F41A
:101D000080221A434A6090F82810090706D5016816
:101D10004A68836B22F400421A434A6090F8281004
:101D2000C90606D501688A68C36B22F480521A433B
:101D30008A6090F82810890606D501688A68036CC5
:101D400022F400521A438A6090F82810490611D5EF
:101D500001684A68436C22F480121A434A60416C5D
:101D6000B1F5801F06D101684A68836C22F4C00275
:101D70001A434A6090F82810090606D501684A6897
:101D8000C06C22F4002202434A607047F8B5002676
:101D90000446C0F88860FEF795FD05462068006897
:101DA0006FF07E47000708D52B4600224FF4001144
:101DB0002046009700F02CFE60B9206800684007BC
:101DC0000AD52B4600224FF480012046009700F0F0
:101DD0001FFE08B10320F8BD2020C4F88000C4F81D
:101DE000840084F87C600020F8BD10B5806B002171
:101DF000A0F85E10A0F85610FFF757FB10BD0000CA
:101E000001680A6822F490720A6001688A68044BCB
:101E10001A408A602021C0F884100021C1667047F2
:101E2000FEFFFFEF10B5B0F86020D0F884300168F5
:101E3000222B04D0886940F00800886110BD496AEF
:101E4000836D11401980816D891C8165B0F85E1029
:101E5000491EA0F85E10B0F85E100029EED10168AE
:101E60000A6822F490720A6001688A6822F001020E
:101E70008A602021C0F884100021C166FFF7E8FCC9
:101E800010BD000070B50446B0F86060D0F8840062
:101E9000222805D02068816941F00801816170BD68
:101EA000B4F8685023E02068406AA16D3040088093
:101EB000A06D801CA065B4F85E00401EA4F85E0012
:101EC000B4F85E0088B92068016821F4807101606F
:101ED00020688168114A114081602020C4F8840084
:101EE0000020E0662046FFF7B3FC6D1EADB2002D6A
:101EF000D9D1B4F85E000028D1D0B4F8681081427E
:101F0000CDD92068816821F0805181600448E06665
:101F10002068016841F02001016070BDFEFFFFEF05
:101F2000251E100810B5B0F86020D0F88430016884
:101F3000222B04D0886940F00800886110BD496AEE
:101F40001140826D1170816D491C8165B0F85E1081
:101F5000491EA0F85E10B0F85E100029EED10168AD
:101F60000A6822F490720A6001688A6822F001020D
:101F70008A602021C0F884100021C166FFF768FC48
:101F800010BD000070B50446B0F86060D0F8840061
:101F9000222805D02068816941F00801816170BD67
:101FA000B4F8685023E02068406AA16D30400870A2
:101FB000A06D401CA065B4F85E00401EA4F85E0051
:101FC000B4F85E0088B92068016821F4807101606E
:101FD00020688168114A114081602020C4F8840083
:101FE0000020E0662046FFF733FC6D1EADB2002DE9
:101FF000D9D1B4F85E000028D1D0B4F8681081427D
:10200000CDD92068816821F0805181600448E06664
:102010002068016841F02001016070BDFEFFFFEF04
:10202000251F10082DE9F04F0446036881680069F8
:10203000E56901436069F94A28430143606E87B04E
:10204000084319684FF00008F54D29400143196015
:1020500020684168E36821F44051194341602168D8
:10206000A069914201D0236A18438B68ED4D2B4043
:1020700003438B602068C16A636A21F00F01194332
:10208000C162E94B2068E94998420ED1096801F024
:102090003801182973D047DCB9B3082979D0102941
:1020A0006FD178E028297ED17BE0E14B984209D1BD
:1020B000096801F00701062975D2DFE801F0546ACA
:1020C0006C6E7072DB4B984209D1096801F0070110
:1020D000062968D2DFE801F0475D5F616365D64B92
:1020E000984209D1096801F0070106295BD2DFE8AF
:1020F00001F03A5052545658D04B98420BD10968CF
:1021000001F0070106294ED200E010E0DFE801F0FF
:102110002B4143454749CA4B98420AD1096801F00F
:102120003801182939D0B7DD2029BBD137E0012784
:102130003AE0C44B984209D1096801F00701062929
:1021400031D2DFE801F01026282A2C2EBE4B98420F
:102150000BD1096801F00701062924D2DFE801F05C
:1021600003191B1D1F2100271EE090421BD1AF4900
:10217000091D096801F00701062914D202E00CE0EC
:1021800007E010E0DFE801F0030507090B0D022767
:102190000AE0042708E0082706E0102704E02027CB
:1021A00002E0402700E08027DFF880B2DFF89CA241
:1021B0004FF480754FF00009ABF1540B90427DD184
:1021C000102F47D006DC022F09D0042F0BD0082F88
:1021D00075D10DE0202F73D0402F70D1BEE0FEF7F7
:1021E0007DFC014640E06846FEF78AFC01993BE031
:1021F00003A8FEF723FD049936E002203AE0022806
:1022000012D0032812D0042812D0052812D0062894
:1022100012D0072812D0082812D0092812D00A2874
:1022200012D00B2814D111E0042023E0062021E075
:1022300008201FE00A201DE00C201BE0102019E000
:10224000202017E0402015E0802013E0284611E010
:1022500001200FE0DBF80010584689060DD5006814
:10226000C0F3C1002AFA00F1606A0028F0D001280A
:10227000C5D1C2E7B1FBF0F01AE0606AA8B101284D
:1022800025D0022825D0032825D0042825D00528CC
:1022900025D0062825D0072825D0082825D00928AC
:1022A00025D00A2825D00B2825D00120BAFBF0F034
:1022B000002870D0666806EB460102E0F0E16BE0B2
:1022C0001BE081427FD8B0EB063F7CD87EE0022045
:1022D000ECE70420EAE70620E8E70820E6E70A2022
:1022E000E4E70C20E2E71020E0E72020DEE74020D2
:1022F000DCE78020DAE72846D8E7606AA8B1012841
:1023000016D0022816D0032816D0042816D0052887
:1023100016D0062816D0072816D0082816D0092867
:1023200016D00A2816D00B2816D001204849A1E75C
:102330000220FBE70420F9E70620F7E70820F5E78D
:102340000A20F3E70C20F1E71020EFE72020EDE76B
:102350004020EBE78020E9E72846E7E7606AA8B17C
:1023600001281AD002281AD003281AD004281AD01B
:1023700005281AD006281AD007281AD008281AD0FB
:1023800009281AD00A281AD00B281AD05FF00100A9
:102390004FF400416EE717E215E00220F8E7042051
:1023A000F6E70620F4E70820F2E70A20F0E70C2021
:1023B000EEE71020ECE72020EAE74020E8E7802065
:1023C000E6E72846E4E74FF00108CBE2102F6FD094
:1023D00040DC022F6FD0042F6CD0082FF3D103A85C
:1023E000FEF72CFC0499606AA8B1012867D0022886
:1023F00067D0032867D0042867D0052867D006284F
:1024000067D0072867D0082867D0092867D00A282E
:1024100067D00B2866D0012564E00000000C00584E
:10242000F369FFCFFFF4FF1100100140544402583C
:102430000044004000480040004C00400050004074
:102440000014014000780040007C00400090D00360
:1024500000093D00202F7DD0402FB4D1606AA8B183
:10246000012878D0022877D0032876D0042875D0A8
:10247000052874D0062873D0072872D0082871D098
:10248000092870D00A286FD00B2800D001252A46D1
:102490004F4600234FF400400021FDF719FF0902C9
:1024A00041EA10610202700810187941324628E0B2
:1024B00035E000E02EE0FEF711FB014693E7022530
:1024C00010E004250EE006250CE008250AE00A25A8
:1024D00008E00C2506E0102504E0202502E0402558
:1024E00000E08025002308462A464E461946FDF79F
:1024F000EFFE0902626841EA1061030250081818F1
:1025000071410023FDF7E4FEF849A0F540728A42CC
:102510006FD958E76846FEF7F3FA019963E7DBF8ED
:1025200000105846890642D50068C0F3C1002AFA57
:1025300000F1606A08B3012825D0022825D00328BD
:1025400025D0042825D0052825D0062825D0072801
:1025500025D00AE05EE08FE090E091E092E093E029
:1025600094E095E096E097E098E0082819D00928D3
:1025700019D00A2819D00B2800D001252A464F4629
:102580000023084688E70225F8E70425F6E7062534
:10259000F4E70825F2E70A25F0E70C25EEE7102519
:1025A000ECE72025EAE74025E8E78025E6E7606AD2
:1025B000A8B1012819D0022819D003281AD004285C
:1025C0001AD005281AD006281AD007281AD00828A9
:1025D0001AD009281AD00A281AD00B2800D00125B1
:1025E0002A464F460023504656E70225F8E70425C1
:1025F000F6E7B5E10625F3E70825F1E70A25EFE759
:102600000C25EDE71025EBE72025E9E74025E7E776
:102610008025E5E7606AA8B1012819D0022819D001
:10262000032819D0042819D0052819D0062819D054
:10263000072819D0082819D0092819D00A2819D034
:102640000B2800D001252A464F460023A84823E73F
:102650000225F8E70425F6E70625F4E70825F2E762
:102660000A25F0E70C25EEE71025ECE72025EAE740
:102670004025E8E78025E6E7022508E7042506E788
:10268000062504E7082502E70A2500E70C25FEE6F3
:102690001025FCE62025FAE64025F8E68025F6E63A
:1026A000E0694FF400414FF6EF7688427DD1082F64
:1026B00019D00ADC87B1012F11D0042F7FF429AF84
:1026C0006846FEF71DFA01991CE0102F10D0202F4C
:1026D0006CD0402FF2D115E0FEF76EFB01E0FEF763
:1026E0007DFB01460EE003A8FEF7A8FA049909E075
:1026F000DBF800105846890634D50068C0F3C100E5
:102700002AFA00F1606AA8B1012815D0022815D074
:10271000032815D0042815D0052815D0062815D073
:10272000072815D0082815D0092815D00A2815D053
:102730000B2814D0012512E0022510E004250EE03C
:1027400006250CE008250AE00A2508E00C2506E02D
:10275000102504E0202502E0402500E08025B1FBA3
:10276000F5F01AE0606AA8B101282ED002282ED018
:1027700003282ED004282ED005282ED006282ED0AF
:1027800007282ED008282ED009282ED00A282ED08F
:102790000B2800D00125BAFBF5F04100606801EB81
:1027A0005001B1FBF0F080B201E053E021E0A0F174
:1027B0001001B1423FF6ADAE4FF6F0710140C0F3EB
:1027C000420001432068C160CCE00225E3E7042514
:1027D000E1E70625DFE70825DDE70A25DBE70C252D
:1027E000D9E71025D7E72025D5E74025D3E7802571
:1027F000D1E7606AA8B1012818D0022818D00328B0
:1028000018D0042818D0052818D0062818D0072872
:1028100018D0082818D0092818D00A2818D00B2852
:1028200000D001253248B0FBF5F0B6E70225F9E704
:102830000425F7E70625F5E70825F3E70A25F1E77C
:102840000C25EFE71025EDE72025EBE74025E9E72C
:102850008025E7E7082F19D00ADC87B1012F11D0B6
:10286000042F7FF456AE6846FEF74AF901991CE042
:10287000102F10D0202F7DD0402FF2D115E0FEF781
:102880009BFA01E0FEF7AAFA01460EE003A8FEF764
:10289000D5F9049909E0DBF800105846890639D5C6
:1028A0000068C0F3C1002AFA00F1606AA8B10128EB
:1028B00015D0022815D0032815D004281AD00528D1
:1028C0001AD006281AD007281AD008281AD00928A2
:1028D0001AD00A281AD00B2819D0012517E0022592
:1028E00015E0042513E0062511E00000FFFC0F00B1
:1028F00000093D0008250AE00A2508E00C2506E04D
:10290000102504E0202502E0402500E08025B1FBF1
:10291000F5F11AE0606AA8B1012832D0022832D05D
:10292000032832D0042832D0052832D0062832D0ED
:10293000072832D0082832D0092832D00A2832D0CD
:102940000B2800D00125BAFBF5F1606801EB5001BE
:10295000B1FBF0F080B2A0F11001B1423FF6D9AD69
:102960002168C8600120A4F86A0024F8680FC4F840
:10297000049000E019E0C4F8089007B04046BDE8B4
:10298000F08F0225DFE70425DDE70625DBE70825D4
:10299000D9E70A25D7E70C25D5E71025D3E7202569
:1029A000D1E74025CFE78025CDE7606AA8B10128AF
:1029B00018D0022818D0032818D0042818D00528C9
:1029C00018D0062818D0072818D0082818D00928A9
:1029D00018D00A2818D00B2800D001250B48B0FBCE
:1029E000F5F1B2E70225F9E70425F7E70625F5E753
:1029F0000825F3E70A25F1E70C25EFE71025EDE7B9
:102A00002025EBE74025E9E78025E7E700093D00C1
:102A10002DE9F0479A4617460E4604464FF0000946
:102A20004FF02008089D39E0681C37D0FDF74AFFB9
:102A3000A0EB0A00A84222D80DB32068016849071C
:102A40002CD5C069C043000528D421684FF400602C
:102A500008622068016821F4D071016020688168F3
:102A600021F001018160C4F88080C4F88480C4F83A
:102A7000888000BF84F87C900320BDE8F087206840
:102A8000016821F4D07101602068816821F00101A2
:102A90008160C4F88080C4F88480EBE72068C06956
:102AA00036EA000004D00020B842BDD00020E4E7A0
:102AB0000120F9E70148FEF7F9BC00009C00001076
:102AC000FEE70907090E002804DB00F1E02080F88A
:102AD0000014704700F00F0000F1E02080F8141D92
:102AE000704702E008C8121F08C1002AFAD17047D7
:102AF0007047002001E001C1121F002AFBD170477E
:102B0000204C08B5206840F000702060206800F07C
:102B1000007000900120FDF7DBFEFDF79DFF012214
:102B200002210020FDF7A0FF17480068C0F3031042
:102B3000072823D01548016841F001010160FDF725
:102B4000D7FE206840F001002060206800F00100FE
:102B50000090FEF7A1FFFEF775FF0D4900200D4B19
:102B6000C88080B20246401C00EB001403EB8202D6
:102B700080B25480C8800A28F3D3FEE70348103897
:102B8000D9E70000E044025800ED00E01465025867
:102B9000000000103400001000C1814001C08041DD
:102BA00001C0804100C1814001C0804100C181401D
:102BB00000C1814001C0804101C0804100C181400D
:102BC00000C1814001C0804100C1814001C08041FD
:102BD00001C0804100C1814001C0804100C18140ED
:102BE00000C1814001C0804100C1814001C08041DD
:102BF00001C0804100C1814000C1814001C08041CD
:102C000001C0804100C1814001C0804100C18140BC
:102C100000C1814001C0804101C0804100C18140AC
:102C200000C1814001C0804100C1814001C080419C
:102C300001C0804100C1814000C1814001C080418C
:102C400001C0804100C1814001C0804100C181407C
:102C500000C1814001C0804100C1814001C080416C
:102C600001C0804100C1814001C0804100C181405C
:102C700000C1814001C0804101C0804100C181404C
:102C800000C1814001C0804100C1814001C080413C
:102C900001C0804100C1814000C0C101C30302C224
:102CA000C60607C705C5C404CC0C0DCD0FCFCE0E8C
:102CB0000ACACB0BC90908C8D81819D91BDBDA1AFC
:102CC0001EDEDF1FDD1D1CDC14D4D515D71716D66C
:102CD000D21213D311D1D010F03031F133F3F232DC
:102CE00036F6F737F53534F43CFCFD3DFF3F3EFE4C
:102CF000FA3A3BFB39F9F83828E8E929EB2B2AEABC
:102D0000EE2E2FEF2DEDEC2CE42425E527E7E6262B
:102D100022E2E323E12120E0A06061A163A3A2629B
:102D200066A6A767A56564A46CACAD6DAF6F6EAE0B
:102D3000AA6A6BAB69A9A86878B8B979BB7B7ABA7B
:102D4000BE7E7FBF7DBDBC7CB47475B577B7B676EB
:102D500072B2B373B17170B050909151935352925B
:102D600096565797559594549C5C5D9D5F9F9E5ECB
:102D70005A9A9B5B99595898884849894B8B8A4A3B
:102D80004E8E8F4F8D4D4C8C4484854587474686AB
:102D9000824243834181804000000000010203041D
:102DA0000102030406070809C82D100800000010DE
:102DB0001C000000E22A1008E42D10081C0000107E
:102DC00044050000F22A1008000000000000000086
:102DD0000100000010000000000000000090D0037F
:042DE0000090D0038C
:040000050810029944
:00000001FF
