:020000040800F2
:1000000018040020AD020008C10D0008BD0D000855
:10001000BF0D0008190300081D0F000800000000B4
:10002000000000000000000000000000C50D0008F6
:100030001B03000800000000C30D0008C70D0008E6
:10004000C7020008C7020008C7020008C70200086C
:10005000C7020008C7020008C7020008C70200085C
:10006000C7020008C7020008C7020008C70200084C
:10007000C7020008C7020008C7020008C70200083C
:10008000C7020008C7020008C7020008C70200082C
:10009000C7020008C7020008C7020008C70200081C
:1000A000C7020008C7020008C7020008C70200080C
:1000B000C7020008C7020008C7020008C7020008FC
:1000C000C7020008C7020008C7020008C7020008EC
:1000D000C7020008C7020008C7020008C7020008DC
:1000E000C7020008C702000800000000C70200089D
:1000F000C7020008C7020008C7020008C7020008BC
:10010000C7020008C7020008C7020008C7020008AB
:10011000C7020008C7020008C7020008C70200089B
:10012000C7020008C7020008C7020008C70200088B
:10013000C7020008C7020008C7020008C70200087B
:10014000C7020008C702000800000000000000000D
:10015000C7020008C7020008C7020008C70200085B
:10016000C7020008C7020008C7020008C70200084B
:10017000C7020008C7020008C7020008000000000C
:10018000C7020008C7020008C7020008C70200082B
:10019000C7020008C7020008C7020008C70200081B
:1001A000C7020008C7020008C7020008C70200080B
:1001B000C7020008C7020008C7020008C7020008FB
:1001C000C7020008C7020008C7020008C7020008EB
:1001D000C7020008C7020008C7020008C7020008DB
:1001E000C7020008C7020008C7020008C7020008CB
:1001F000C7020008C7020008C7020008C7020008BB
:10020000C7020008C7020008C7020008C7020008AA
:10021000C7020008C7020008C7020008C70200089A
:10022000C7020008C7020008C7020008C70200088A
:10023000C7020008C7020008C7020008C70200087A
:10024000C7020008C7020008C7020008C70200086A
:10025000C7020008C7020008C7020008C70200085A
:10026000C7020008C7020008C7020008C70200084A
:10027000C7020008C7020008C7020008C70200083A
:10028000C7020008C7020008C702000800000000FB
:10029000C7020008C7020008DFF80CD000F02AF8F7
:1002A00000480047610F00081804002006488047F6
:1002B00006480047FEE7FEE7FEE7FEE7FEE7FEE74B
:1002C000FEE7FEE7FEE7FEE7650E0008990200087C
:1002D000D2B201E000F8012B491EFBD27047002288
:1002E000F6E710B513460A4604461946FFF7F0FF35
:1002F000204610BD064C074D06E0E06840F00103C3
:1003000094E8070098471034AC42F6D3FFF7C8FFD3
:10031000F80F000818100008FEE770470148006851
:10032000000C70470010005C0148806870470000B6
:1003300000000020054901EB80010548D1F8801438
:10034000814201D1002070470120704700600258AF
:1003500000030080034A41F4407102EB8000C0F8C2
:100360000014704700600258024881680278114406
:100370008160704700000020032010B500F078F87D
:1003800000F0F8F90F4A104914681368C4F3032207
:1003900003F00F038A5CC95C02F01F0201F01F0129
:1003A000D0400A4A20FA01F1116009490860002092
:1003B00000F010F808B1012010BD00F02BF800206B
:1003C00010BD000018440258E80F0008100000207B
:1003D0000C00002070B50D4D04462878A0B14FF4F4
:1003E0007A71B1FBF0F00A490968B1FBF0F000F056
:1003F000D2FC48B9102C07D200222146501E00F032
:1004000017F800206C6070BD012070BD0000002056
:100410000C000020054808B5016841F002010160A8
:10042000006800F00200009008BD0000F44402588B
:100430000E4BF0B41B680D46C3F30223C3F107064D
:10044000042E00D90426191D072901D2002300E03B
:10045000DB1E012404FA06F19C40491E2940641E5B
:10046000994014402143F0BC00F059BD0CED00E070
:10047000064900F0070210B54FF6FF040868044B68
:10048000204040EA02201843086010BD0CED00E057
:100490000000FA052DE9F0411E4C0546206800F0E9
:1004A00007000628206804D000F03F00A84228D1A9
:1004B0002EE020F03F0028432060FFF735FF154F66
:1004C0004FF47A780646083F05E000BFFFF72CFF9F
:1004D000801B404515D83868C0438004F6D41E2DD3
:1004E00005D02E2D03D01D2D01D02D2D10D1FFF7BD
:1004F0001BFF0546464607E0FFF716FF401BB042CC
:1005000002D90120BDE8F0812068C043C003F3D4C4
:100510000020F7E70C4802582DE9F05F04000F4671
:100520007ED0DFF83882D8F8000000F00F00B84223
:100530000CD2D8F8001021F00F013943C8F8001090
:10054000D8F8000000F00F00B84269D12078844D3F
:1005500040070AD52069296801F07001884204D952
:10056000296821F070010143296020787C4E361DF6
:1005700000070AD56069316801F07001884204D92A
:10058000316821F07001014331602078C0060AD53E
:10059000A069316801F4E061884204D9316821F42E
:1005A000E061014331602078DFF8B4B180060BF1DF
:1005B000080B0CD5E1695846DBF8002002F0700208
:1005C000914204D9026822F070020A430260207846
:1005D00080070AD5E068296801F00F01884204D934
:1005E000296821F00F01014329602078C0073ED01F
:1005F0005B49A2682868183920F4706010432860AD
:100600006068022818D0032819D00968012819D079
:10061000490700294ADADFF848A1AAF1080A00E0F0
:1006200044E0DAF8002022F007020243CAF8002072
:10063000FFF77AFE814612E009688903E9E7096855
:100640008901E6E7C905E4E7FFF76EFEA0EB0901C3
:1006500041F28830814202D90320BDE8F09F6168F1
:10066000DAF8000000F03800B0EBC10FECD12078D0
:1006700080070AD5E068296801F00F01884204D29A
:10068000296821F00F0101432960D8F80010404685
:1006900001F00F01B9420BD9016821F00F01394374
:1006A0000160006800F00F00B84201D00120D4E7DB
:1006B000207840070AD52069296801F07001884236
:1006C00004D2296821F070010143296020780007D5
:1006D0000AD56069316801F07001884204D231683E
:1006E00021F07001014331602078C0060AD5A0696D
:1006F000316801F4E061884204D2316821F4E0619C
:1007000001433160207880060CD5E1695846DBF85A
:10071000002002F07002914204D2026822F07002BE
:100720000A43026000F026F80E492A682B68C2F3DB
:10073000032203F00F038A5CC95C02F01F0201F080
:100740001F01D040084A20FA01F1116007490860F2
:1007500007480068BDE8F05FFFF73CBE002000528C
:1007600018440258E80F0008100000200C00002078
:1007700004000020454970B545480968434B103BCB
:1007800011F0380208D00111082A03D0102A0BD02A
:10079000182A0BD0084670BD19688906FBD5196860
:1007A000C1F3C101C84070BD3A4870BD3749374DEB
:1007B00018310C1D24350A68096826682D6802F076
:1007C000030406F00102C1F30511C5F3CC0515FBC6
:1007D00002F200EE102AB8EE400AE9B32F4ADFED2C
:1007E0002E0AB7EE001A6CB1DFED2D1A012C01D0E4
:1007F000022C43D002EE101A1068F8EE422A81EE65
:10080000A22A1EE01C68A40611D51B6801EE901AEE
:100810001168C3F3C103F8EE612AD84001EE900AD3
:10082000C1F30800F8EE611A81EEA22A0BE001EE96
:10083000901ADFED1C2A00BFF8EE611A106882EEF4
:10084000A12AC0F3080001EE900AF8EE611A40EE0A
:10085000201A31EE810A00E015E022EE000A10684D
:10086000C0F34620401C00EE900AF8EE600A80EECD
:10087000201ABCEEC10A10EE100A70BD01EE901AEB
:10088000DFED092AD8E7002070BD000010440258AF
:100890000090D00340787D010000003930440258B8
:1008A0000024744A0024744C20BCBE4B2DE9F05F38
:1008B00004007CD0FF4F2078FE4D1837DFF8F4930A
:1008C000103DC00748D0D9F80000396800F0380062
:1008D000102815D0182803D101F0030002280FD0EA
:1008E0006068B0F5803F12D010B1B0F5A02F18D0DD
:1008F000286820F480302860286820F4802009E0EF
:100900002868800328D560680028D2D024E02868B1
:1009100040F480302860606888B1FFF705FD064626
:1009200009E0286840F480202860F0E7FFF7FCFC2D
:10093000801B64287ED828688003F7D50CE0FFF779
:10094000F3FC064605E000BFFFF7EEFC801B6428C1
:10095000F0D828688003F7D4207841F20308D54EF8
:100960000C3E80074BD5D9F80000396810F03800EC
:100970000ED0182801D188070AD0E06868B329682A
:1009800021F0190101432960FFF7CEFC824619E0EE
:100990002868400702D5E06800288AD0FFF7BEFC2F
:1009A000404513D82069316821F47C3100E0BEE075
:1009B00041EA0030306022E0FFF7B6FCA0EB0A000D
:1009C0000228B7D828684007F6D5E7E7207C3168C9
:1009D00021F0FE4141EA0060ECE7286820F00100C8
:1009E0002860FFF7A1FC824606E000BFFFF79CFCF1
:1009F000A0EB0A0002289DD828684007F6D420788A
:100A0000C00659D5D9F80000DFF8A8B2396800F05F
:100A10003800ABF1040B082812D0182803D101F0DC
:100A2000030001280CD0E0690028286834D040F089
:100A3000800000E0DCE02860FFF776FC824623E0DF
:100A40002868C00523D5E069802870D11FE000BF69
:100A500094F82000316821F0F84141EA806030606C
:100A60002AE000BF94F82010DBF8002022F07C522E
:100A700042EA0161CBF800101EE000BFFFF754FC12
:100A8000A0EB0A0002289CD82868C005F6D5FFF71D
:100A900045FC4045E6D8DBE720F080002860FFF702
:100AA00043FC064605E000BFFFF73EFC801B022822
:100AB00087D82868C005F7D42078000729D57D4855
:100AC0006169643000298046016811D041F001015C
:100AD0000160FFF729FC064605E000BFFFF724FC94
:100AE000801B022887D8D8F800008007F6D510E0D0
:100AF00021F001010160FFF717FC064605E000BF89
:100B0000FFF712FC801B022872D8D8F8000080077B
:100B1000F6D42078800623D5A0690028286810D054
:100B200040F480502860FFF7FFFB064605E02EE109
:100B3000FFF7FAFB801B02285AD828688004F7D5F3
:100B40000EE020F480502860FFF7EEFB064604E03C
:100B5000FFF7EAFB801B02284AD828688004F7D4F4
:100B6000207840074FD5DFF85081D8F8001041F4C5
:100B70008071C8F80010FFF7D7FB064605E000BFFC
:100B8000FFF7D2FB801B642832D8D8F80000C005DC
:100B9000F6D5484EA068603601280AD008B105286D
:100BA00013D0306820F001003060306820F004007D
:100BB00002E0306840F001003060A06841F2883AFD
:100BC00090B1FFF7B1FB80460AE0306840F00400C6
:100BD0003060EEE7FFF7A8FBA0EB0801514507D80E
:100BE00030688007F6D50EE0FFF79EFB804607E0F1
:100BF00084E000BFFFF798FBA0EB080151457DD8CA
:100C000030688007F6D4606AF0B3DFF8A880D9F8BE
:100C1000001008F12008C1F3C20103296FD0022897
:100C2000286820F08070286003D0FFF77DFB044621
:100C300082E0FFF779FB064605E000BFFFF774FB93
:100C4000801B022875D828688001F7D4E26A40F238
:100C5000F331386854F8283F884340EA02101843BB
:100C60003860217B4FF4FE0C22894FF0FE47208A2A
:100C70004902267D521E401EA1F5007189B20CEA80
:100C80000040C2F3080200E083E01143761E0143F6
:100C9000084807EA06621143064A1C30C8F80010EB
:100CA0002432016821F00101016011684FF6F876E5
:100CB000B14303E01044025800480258236A41EA55
:100CC000C30111600168A26921F00C0111430160A8
:100CD0000168E26921F0020111430160016841F4F9
:100CE00080310160016841F400310160016841F424
:100CF00080210160016841F0010101E019E01FE07D
:100D00000160286840F080702860FFF70DFB044602
:100D100005E000BFFFF708FB001B022809D8286880
:100D20008001F7D535E000BFFFF7FEFA001B02286F
:100D300002D90320BDE8F09F28688001F4D428E0A0
:100D400039680128D8F8000021D0A26A01F0030315
:100D500093421CD1E26AC1F305118A4217D1216B7B
:100D6000C0F30802491E8A4211D1616BC0F34622CA
:100D7000491E91420BD1A16BC0F30642491E91421C
:100D800005D1E16BC0F30660491E814201D001200C
:100D9000D0E70020CEE7401EB0F1807F10B501D330
:100DA000012010BD4FF0E02460610F21601700F0BA
:100DB000B6F80020A0610721216110BDFEE7FEE723
:100DC000704770477047FFF7CFBA000070B59CB00E
:100DD0004C216846FFF783FA202113A8FFF77FFA1A
:100DE0000220FFF757FB1D4800241D49026842F40A
:100DF0004042026002680A6842F001020A60096823
:100E000001F001011B9101688904FCD50DF1280C4A
:100E1000022009900521B4228CE80700C3030F903B
:100E200008250D9001260E90CDE91054CDE9006300
:100E300068461294FFF73AFD40201A903F210301C3
:100E4000CDE916500322CDE9180313AB13A883E8AC
:100E500016001146FFF760FB1CB070BD1848025821
:100E60002C040058284B30B5274A1C68783A27498B
:100E7000002044F470041C601468244B244D44F09A
:100E80000404103314600A6842F001020A6018601A
:100E90000A681E4B2A400A6018331C1D251D1B4A78
:100EA000186028322060131D28601C1D251D10604D
:100EB0002A1D1860131D20601C1D2860251D106050
:100EC0001860206028600B684FF0B0420F4C23F48C
:100ED00080230B6060342060D2F8E4000D4940F4B8
:100EE0008040C2F8E40008686FF30F00B0F1005FC3
:100EF00003D209490120C1F808014FF000600249FE
:100F00008039086030BD000088ED00E000440258E0
:100F10007FEDF6EA0010005C00800051FEE7090753
:100F200000284FEA116104DB00F1E02080F8001492
:100F3000704700F00F0000F1E02080F8141D7047AA
:100F400002E008C8121F08C1002AFAD17047704792
:100F5000002001E001C1121F002AFBD170470000F0
:100F6000204E4FF6FF75284608B53168090403D5B1
:100F7000011EA0F10100F8DCFFF7FEF9FFF726FFE4
:100F8000184CE034206840F000702060206800F0C9
:100F9000007000900020FFF7CDF900210846FFF710
:100FA000D9F93068000403D4281EA5F10105F8DC46
:100FB000206840F001002060206800F001000090EF
:100FC000206840F004002060206800F004000090D9
:100FD000206840F080002060206800F080000090D1
:100FE000FEE7000000440258000000000102030474
:100FF0000102030406070809181000080000002079
:1010000014000000400F00082C10000814000020FD
:1010100004040000500F0008010000001000000050
:0C102000000000000090D0030090D003FE
:040000050800029954
:00000001FF
