:020000040810E2
:1000000018040010AD0210087B091008110910082F
:100010007909100819031008AD0910080000000044
:100020000000000000000000000000007F09100830
:100030001B031008000000007D091008810910084A
:10004000C7021008C7021008C7021008C70210082C
:10005000C7021008C7021008C7021008C70210081C
:10006000C7021008C7021008C7021008C70210080C
:10007000C7021008C7021008C7021008C7021008FC
:10008000C7021008C7021008C7021008C7021008EC
:10009000C7021008C7021008C7021008C7021008DC
:1000A000C7021008C7021008C7021008C7021008CC
:1000B000C7021008C7021008C7021008C7021008BC
:1000C000C7021008C7021008C7021008C7021008AC
:1000D000C7021008C7021008C7021008C70210089C
:1000E000C7021008C702100800000000C70210086D
:1000F000C7021008C7021008C7021008C70210087C
:10010000C7021008C7021008C7021008C70210086B
:10011000C7021008C7021008C7021008C70210085B
:10012000C7021008C7021008C7021008C70210084B
:10013000C7021008C7021008C7021008C70210083B
:10014000C7021008C70210080000000000000000ED
:10015000C7021008C7021008C7021008C70210081B
:10016000C7021008C7021008C7021008C70210080B
:10017000C7021008C7021008C702100800000000DC
:10018000C7021008C7021008C7021008C7021008EB
:10019000C7021008C7021008C7021008C7021008DB
:1001A000C7021008C7021008C7021008C7021008CB
:1001B000C7021008C7021008C7021008C7021008BB
:1001C000C7021008C7021008C7021008C7021008AB
:1001D000C7021008C7021008C7021008C70210089B
:1001E000C7021008C7021008C7021008C70210088B
:1001F000C7021008C7021008C7021008C70210087B
:10020000C7021008C7021008C7021008C70210086A
:10021000C7021008C7021008C7021008C70210085A
:10022000C7021008C7021008C7021008C70210084A
:10023000C7021008C7021008C7021008C70210083A
:10024000C7021008C7021008C7021008C70210082A
:10025000C7021008C7021008C7021008C70210081A
:10026000C7021008C7021008C7021008C70210080A
:10027000C7021008C7021008C7021008C7021008FA
:10028000C7021008C7021008C702100800000000CB
:10029000C7021008C7021008DFF80CD000F02AF8D7
:1002A00000480047ED091008180400100648804770
:1002B00006480047FEE7FEE7FEE7FEE7FEE7FEE74B
:1002C000FEE7FEE7FEE7FEE7850910089902100841
:1002D000D2B201E000F8012B491EFBD27047002288
:1002E000F6E710B513460A4604461946FFF7F0FF35
:1002F000204610BD064C074D06E0E06840F00103C3
:1003000094E8070098471034AC42F6D3FFF7C8FFD3
:100310007C0A10089C0A1008FEE7704770B5044676
:1003200000F04CF90546601C02D0044800780444F3
:1003300000F044F9401BA042FAD370BD0000001049
:100340002DE9FC4F00230125844E03244FF00F09B3
:100350004FF0B04AFBE000BF05FA03F73A407DD00A
:10036000D1F804C0BCF1010F08D0BCF1020F05D0D8
:10037000BCF1110F02D0BCF1120F1AD1D0F808C095
:100380004FEA430E04FA0EF82CEA080BD1F80C8061
:1003900008FA0EF848EA0B08C0F80880D0F804C044
:1003A0002CEA070C0F79C7F300179F4047EA0C07A8
:1003B0004760C7684FEA4308D1F808C004FA08FB51
:1003C00027EA0B070CFA08FC4CEA070CC0F80CC033
:1003D0004F68022F01D0122F15D1DF0800EB8707DD
:1003E0000197D7F820E05F07FF0E09FA07FC2EEA15
:1003F0000C0E0097D1F810C00CFA07FC019F4CEAD4
:100400000E0CC7F820C0076891F804C027EA0B0754
:100410000CF0030C0CFA08FC4CEA070CC0F800C006
:100420004F68FF001AD54E4FD7F800C04CF0020CB1
:10043000C7F800C03F6807F00207009723F00307E2
:1004400007F1B047BB46D7F808744FEA837C4FEA00
:100450001C7809FA08FC27EA0C0700E076E0DFF8D0
:1004600004C1604502D14FF0000C40E0DFF8F8C055
:10047000604502D14FF0010C39E0DFF8F0C0604573
:1004800002D14FF0020C32E0DFF8E4C0604502D147
:100490004FF0030C2BE0DFF8DCC0604502D14FF0D9
:1004A000040C24E0DFF8D0C0604502D14FF0050C09
:1004B0001DE0DFF8C8C0604502D14FF0060C16E021
:1004C000DFF8BCC0604502D14FF0070C0FE0DFF849
:1004D000B4C0604502D14FF0080C08E0DFF8A8C0B6
:1004E000604502D14FF0090C01E04FF00A0C0CFA04
:1004F00008FC4CEA070CCBF808C43768D1F804C0F4
:1005000097435FEACC3C00D5174337607768D1F852
:1005100004C097435FEA8C3C00D517437760DAF854
:100520000070D446D1F8048097435FEAC82800D50C
:100530001743CCF80070DCF80470D1F804809743BE
:100540005FEA882800D51743CCF804705B1C0A6862
:1005500032FA03F77FF400AFBDE8FC8FC00000580B
:10056000F4440258000002580004025800080258DF
:10057000000C0258001002580014025800180258CB
:10058000001C02580020025800240258426931EA37
:10059000020200D10904816170470AB1816170478C
:1005A0000904FBE704480068C0F30310072801D0E2
:1005B000012070470320704700ED00E0014880688B
:1005C000704700000000001002490A6802430A60F8
:1005D0007047000010650258024881680278114493
:1005E00081607047000000101C4808B5016841F4A4
:1005F00080410160006800F4804000901848016864
:10060000184A114041F401410160016841F00101C3
:100610000160032000F07CF800F0CEF80F49C039EB
:100620000A680968C2F303230F4AD35C03F01F036F
:10063000D84001F00F01515C01F01F01C8400B4987
:1006400008600B490860002000F014F808B1012090
:1006500008BD00F02FF8002008BD0000D844025863
:1006600000440240FF00F0FF6C0A10081000001068
:100670000C00001070B50D4D04462878A0B14FF461
:100680007A71B1FBF0F00A490968B1FBF0F000F0B3
:100690002BF948B9102C07D200222146501E00F039
:1006A00017F800206C6070BD012070BD00000010C4
:1006B0000C000010054808B5016841F00201016016
:1006C000006800F00200009008BD0000F4440258E9
:1006D000F0B40E4B1B680C46C3F30223C3F10705AD
:1006E000042D00D90425191D072901D2002300E09B
:1006F000DB1E012606FA05F1491E214099409E4065
:10070000761E16403143F0BC00F051B90CED00E00C
:10071000064900F0070208684FF6FF03184040EA58
:100720000220034A10430860704700000CED00E00F
:100730000000FA0510B5FFF735FF032800D040BFD1
:1007400020BF10BD70B50E4619490B6823F0010398
:1007500003430B60164C174D103432B12068012A48
:1007600011D020F00400206070BDFFF71BFF0328AC
:10077000FAD1206820F0010020600BE0286820F00A
:100780000400286070BD20F002002060FFF70AFF1F
:100790000128F7D1286840F004002860BFF34F8F8C
:1007A000BFF36F8F012E01D020BFE7E730BFE5E731
:1007B0000048025810ED00E030B543480068444B53
:1007C00010F03802414808D00111082A03D0102A3D
:1007D0000BD0182A0BD0084630BD19688906FBD506
:1007E0001968C1F3C101C84030BD3A4830BD36492F
:1007F00018310A68096802F00304334AC1F305118D
:100800001C321268304D02F0010224352D68C5F308
:10081000CC0515FB02F200EE102AB8EE400AE9B34F
:10082000294A9FED2D1AF7EE000A203264B1DFED60
:100830002B1A012C01D0022C3CD002EE101AF8EE3B
:10084000422A81EEA22A17E01C68A4060CD51B6878
:10085000C3F3C103D84001EE900AF8EE612A01EE1D
:10086000901AF8EE611A05E001EE901ADFED1C2AED
:10087000F8EE611A82EEA12A1068C0F3080001EEBA
:10088000900A1068F8EE611A40EE011A31EEA00AE3
:1008900022EE000AC0F34620401C00E011E000EE0A
:1008A000900AF8EE600A80EE201ABCEEC10A10EE43
:1008B000100A30BD01EE901ADFED0A2AF8EE611A37
:1008C000D8E7002030BD0000104402580090D0034B
:1008D0000044025840787D01000000390024744A29
:1008E0000024744C20BCBE4B10B5401EB0F1807F7C
:1008F00001D3012010BD4FF0E02460610F2160178B
:1009000000F055F80020A06107202061002010BDF4
:10091000FEE7000000B587B014216846FFF7DFFC52
:100920001348016841F004010160016801F004010D
:100930000591016841F080010160016801F08001CA
:100940000591016841F4807101600068694600F416
:10095000807005904FF440400090012001900020ED
:10096000029003900348FFF7EBFC07B000BD0000C6
:10097000E044025800200258FEE770477047704775
:10098000FFF72ABE0848016841F47001016006487B
:100990007838016841F00401016003494FF00160BB
:1009A000803908607047000088ED00E0FEE7090725
:1009B000090E002804DB00F1E02080F800147047E5
:1009C00000F00F0000F1E02080F8141D704702E0F5
:1009D00008C8121F08C1002AFAD1704770470020CA
:1009E00001E001C1121F002AFBD170471B4808B566
:1009F000016841F000710160006800F00070009033
:100A00000120FFF7E1FDFFF795FE01220221002002
:100A1000FFF798FE12480068C0F3031007281AD0A9
:100A20001048016841F001010160FFF7DDFDFFF7AB
:100A300071FF0D4C4FF44045002229462046FFF738
:100A4000ACFD4FF47A7629462046FFF79FFD3046ED
:100A5000FFF764FCF7E703481038E2E7E044025888
:100A600000ED00E01465025800200258000000006C
:100A70000102030401020304060708099C0A100886
:100A80000000001014000000CE091008B00A100881
:100A90001400001004040000DE091008010000002A
:100AA00010000000000000000090D0030090D00370
:040000050810029944
:00000001FF
